{
	"tron/tokeniz.sol": {
		"Tokeniz": {
			"abi": [
				{
					"inputs": [
						{
							"internalType": "address",
							"name": "_initiator",
							"type": "address"
						},
						{
							"internalType": "string",
							"name": "_name",
							"type": "string"
						},
						{
							"internalType": "string",
							"name": "_tokenURI",
							"type": "string"
						},
						{
							"internalType": "address[]",
							"name": "_tokensAddresses",
							"type": "address[]"
						},
						{
							"internalType": "uint256[]",
							"name": "_amounts",
							"type": "uint256[]"
						}
					],
					"stateMutability": "nonpayable",
					"type": "constructor"
				},
				{
					"inputs": [],
					"name": "isPacked",
					"outputs": [
						{
							"internalType": "bool",
							"name": "",
							"type": "bool"
						}
					],
					"stateMutability": "view",
					"type": "function"
				},
				{
					"inputs": [],
					"name": "name",
					"outputs": [
						{
							"internalType": "string",
							"name": "",
							"type": "string"
						}
					],
					"stateMutability": "view",
					"type": "function"
				},
				{
					"inputs": [],
					"name": "owner",
					"outputs": [
						{
							"internalType": "address",
							"name": "",
							"type": "address"
						}
					],
					"stateMutability": "view",
					"type": "function"
				},
				{
					"inputs": [],
					"name": "packed",
					"outputs": [
						{
							"internalType": "bool",
							"name": "",
							"type": "bool"
						}
					],
					"stateMutability": "view",
					"type": "function"
				},
				{
					"inputs": [
						{
							"internalType": "address",
							"name": "",
							"type": "address"
						}
					],
					"name": "tokenBalance",
					"outputs": [
						{
							"internalType": "uint256",
							"name": "",
							"type": "uint256"
						}
					],
					"stateMutability": "view",
					"type": "function"
				},
				{
					"inputs": [],
					"name": "tokenURI",
					"outputs": [
						{
							"internalType": "string",
							"name": "",
							"type": "string"
						}
					],
					"stateMutability": "view",
					"type": "function"
				},
				{
					"inputs": [
						{
							"internalType": "uint256",
							"name": "",
							"type": "uint256"
						}
					],
					"name": "tokensAddresses",
					"outputs": [
						{
							"internalType": "address",
							"name": "",
							"type": "address"
						}
					],
					"stateMutability": "view",
					"type": "function"
				},
				{
					"inputs": [],
					"name": "unPack",
					"outputs": [],
					"stateMutability": "nonpayable",
					"type": "function"
				}
			],
			"devdoc": {
				"kind": "dev",
				"methods": {
					"constructor": {
						"details": "Create a new Tokeniz to choose one of."
					}
				},
				"version": 1
			},
			"evm": {
				"assembly": "    /* \"tron/tokeniz.sol\":177:2442  contract Tokeniz{\r... */\n  mstore(0x40, 0x80)\n    /* \"tron/tokeniz.sol\":509:984  constructor(address _initiator, string memory _name, string memory _tokenURI, address[] memory _tokensAddresses, uint[] memory _amounts) {\r... */\n  callvalue\n  dup1\n  iszero\n  tag_1\n  jumpi\n  0x00\n  dup1\n  revert\ntag_1:\n  pop\n  mload(0x40)\n  sub(codesize, bytecodeSize)\n  dup1\n  bytecodeSize\n  dup4\n  codecopy\n  dup2\n  dup2\n  add\n  0x40\n  mstore\n  dup2\n  add\n  swap1\n  tag_2\n  swap2\n  swap1\n  tag_3\n  jump\t// in\ntag_2:\n    /* \"tron/tokeniz.sol\":672:682  msg.sender */\n  caller\n    /* \"tron/tokeniz.sol\":657:669  TokenizAdmin */\n  0x00\n  dup1\n    /* \"tron/tokeniz.sol\":657:682  TokenizAdmin = msg.sender */\n  0x0100\n  exp\n  dup2\n  sload\n  dup2\n  0xffffffffffffffffffffffffffffffffffffffff\n  mul\n  not\n  and\n  swap1\n  dup4\n  0xffffffffffffffffffffffffffffffffffffffff\n  and\n  mul\n  or\n  swap1\n  sstore\n  pop\n    /* \"tron/tokeniz.sol\":701:711  _initiator */\n  dup5\n    /* \"tron/tokeniz.sol\":693:698  owner */\n  0x01\n  0x00\n    /* \"tron/tokeniz.sol\":693:711  owner = _initiator */\n  0x0100\n  exp\n  dup2\n  sload\n  dup2\n  0xffffffffffffffffffffffffffffffffffffffff\n  mul\n  not\n  and\n  swap1\n  dup4\n  0xffffffffffffffffffffffffffffffffffffffff\n  and\n  mul\n  or\n  swap1\n  sstore\n  pop\n    /* \"tron/tokeniz.sol\":732:736  true */\n  0x01\n    /* \"tron/tokeniz.sol\":723:729  packed */\n  dup1\n  0x14\n    /* \"tron/tokeniz.sol\":723:736  packed = true */\n  0x0100\n  exp\n  dup2\n  sload\n  dup2\n  0xff\n  mul\n  not\n  and\n  swap1\n  dup4\n  iszero\n  iszero\n  mul\n  or\n  swap1\n  sstore\n  pop\n    /* \"tron/tokeniz.sol\":752:758  uint i */\n  0x00\n    /* \"tron/tokeniz.sol\":747:926  for (uint i = 0; i < _tokensAddresses.length; i++) {\r... */\ntag_6:\n    /* \"tron/tokeniz.sol\":768:784  _tokensAddresses */\n  dup3\n    /* \"tron/tokeniz.sol\":768:791  _tokensAddresses.length */\n  mload\n    /* \"tron/tokeniz.sol\":764:765  i */\n  dup2\n    /* \"tron/tokeniz.sol\":764:791  i < _tokensAddresses.length */\n  lt\n    /* \"tron/tokeniz.sol\":747:926  for (uint i = 0; i < _tokensAddresses.length; i++) {\r... */\n  iszero\n  tag_7\n  jumpi\n    /* \"tron/tokeniz.sol\":813:828  tokensAddresses */\n  0x05\n    /* \"tron/tokeniz.sol\":834:850  _tokensAddresses */\n  dup4\n    /* \"tron/tokeniz.sol\":851:852  i */\n  dup3\n    /* \"tron/tokeniz.sol\":834:853  _tokensAddresses[i] */\n  dup2\n  mload\n  dup2\n  lt\n  tag_9\n  jumpi\n  tag_10\n  tag_11\n  jump\t// in\ntag_10:\ntag_9:\n  0x20\n  mul\n  0x20\n  add\n  add\n  mload\n    /* \"tron/tokeniz.sol\":813:854  tokensAddresses.push(_tokensAddresses[i]) */\n  swap1\n  dup1\n  0x01\n  dup2\n  sload\n  add\n  dup1\n  dup3\n  sstore\n  dup1\n  swap2\n  pop\n  pop\n  0x01\n  swap1\n  sub\n  swap1\n  0x00\n  mstore\n  keccak256(0x00, 0x20)\n  add\n  0x00\n  swap1\n  swap2\n  swap1\n  swap2\n  swap1\n  swap2\n  0x0100\n  exp\n  dup2\n  sload\n  dup2\n  0xffffffffffffffffffffffffffffffffffffffff\n  mul\n  not\n  and\n  swap1\n  dup4\n  0xffffffffffffffffffffffffffffffffffffffff\n  and\n  mul\n  or\n  swap1\n  sstore\n  pop\n    /* \"tron/tokeniz.sol\":903:911  _amounts */\n  dup2\n    /* \"tron/tokeniz.sol\":912:913  i */\n  dup2\n    /* \"tron/tokeniz.sol\":903:914  _amounts[i] */\n  dup2\n  mload\n  dup2\n  lt\n  tag_13\n  jumpi\n  tag_14\n  tag_11\n  jump\t// in\ntag_14:\ntag_13:\n  0x20\n  mul\n  0x20\n  add\n  add\n  mload\n    /* \"tron/tokeniz.sol\":869:881  tokenBalance */\n  0x04\n    /* \"tron/tokeniz.sol\":869:902  tokenBalance[_tokensAddresses[i]] */\n  0x00\n    /* \"tron/tokeniz.sol\":882:898  _tokensAddresses */\n  dup6\n    /* \"tron/tokeniz.sol\":899:900  i */\n  dup5\n    /* \"tron/tokeniz.sol\":882:901  _tokensAddresses[i] */\n  dup2\n  mload\n  dup2\n  lt\n  tag_15\n  jumpi\n  tag_16\n  tag_11\n  jump\t// in\ntag_16:\ntag_15:\n  0x20\n  mul\n  0x20\n  add\n  add\n  mload\n    /* \"tron/tokeniz.sol\":869:902  tokenBalance[_tokensAddresses[i]] */\n  0xffffffffffffffffffffffffffffffffffffffff\n  and\n  0xffffffffffffffffffffffffffffffffffffffff\n  and\n  dup2\n  mstore\n  0x20\n  add\n  swap1\n  dup2\n  mstore\n  0x20\n  add\n  0x00\n  keccak256\n    /* \"tron/tokeniz.sol\":869:914  tokenBalance[_tokensAddresses[i]]=_amounts[i] */\n  dup2\n  swap1\n  sstore\n  pop\n    /* \"tron/tokeniz.sol\":793:796  i++ */\n  dup1\n  dup1\n  tag_17\n  swap1\n  tag_18\n  jump\t// in\ntag_17:\n  swap2\n  pop\n  pop\n    /* \"tron/tokeniz.sol\":747:926  for (uint i = 0; i < _tokensAddresses.length; i++) {\r... */\n  jump(tag_6)\ntag_7:\n  pop\n    /* \"tron/tokeniz.sol\":945:954  _tokenURI */\n  dup3\n    /* \"tron/tokeniz.sol\":936:944  tokenURI */\n  0x02\n    /* \"tron/tokeniz.sol\":936:954  tokenURI=_tokenURI */\n  swap1\n  dup1\n  mload\n  swap1\n  0x20\n  add\n  swap1\n  tag_19\n  swap3\n  swap2\n  swap1\n  tag_20\n  jump\t// in\ntag_19:\n  pop\n    /* \"tron/tokeniz.sol\":971:976  _name */\n  dup4\n    /* \"tron/tokeniz.sol\":965:969  name */\n  0x03\n    /* \"tron/tokeniz.sol\":965:976  name= _name */\n  swap1\n  dup1\n  mload\n  swap1\n  0x20\n  add\n  swap1\n  tag_21\n  swap3\n  swap2\n  swap1\n  tag_20\n  jump\t// in\ntag_21:\n  pop\n    /* \"tron/tokeniz.sol\":509:984  constructor(address _initiator, string memory _name, string memory _tokenURI, address[] memory _tokensAddresses, uint[] memory _amounts) {\r... */\n  pop\n  pop\n  pop\n  pop\n  pop\n    /* \"tron/tokeniz.sol\":177:2442  contract Tokeniz{\r... */\n  jump(tag_22)\ntag_20:\n  dup3\n  dup1\n  sload\n  tag_23\n  swap1\n  tag_24\n  jump\t// in\ntag_23:\n  swap1\n  0x00\n  mstore\n  keccak256(0x00, 0x20)\n  swap1\n  0x1f\n  add\n  0x20\n  swap1\n  div\n  dup2\n  add\n  swap3\n  dup3\n  tag_26\n  jumpi\n  0x00\n  dup6\n  sstore\n  jump(tag_25)\ntag_26:\n  dup3\n  0x1f\n  lt\n  tag_27\n  jumpi\n  dup1\n  mload\n  not(0xff)\n  and\n  dup4\n  dup1\n  add\n  or\n  dup6\n  sstore\n  jump(tag_25)\ntag_27:\n  dup3\n  dup1\n  add\n  0x01\n  add\n  dup6\n  sstore\n  dup3\n  iszero\n  tag_25\n  jumpi\n  swap2\n  dup3\n  add\ntag_28:\n  dup3\n  dup2\n  gt\n  iszero\n  tag_29\n  jumpi\n  dup3\n  mload\n  dup3\n  sstore\n  swap2\n  0x20\n  add\n  swap2\n  swap1\n  0x01\n  add\n  swap1\n  jump(tag_28)\ntag_29:\ntag_25:\n  pop\n  swap1\n  pop\n  tag_30\n  swap2\n  swap1\n  tag_31\n  jump\t// in\ntag_30:\n  pop\n  swap1\n  jump\t// out\ntag_31:\ntag_32:\n  dup1\n  dup3\n  gt\n  iszero\n  tag_33\n  jumpi\n  0x00\n  dup2\n  0x00\n  swap1\n  sstore\n  pop\n  0x01\n  add\n  jump(tag_32)\ntag_33:\n  pop\n  swap1\n  jump\t// out\n    /* \"#utility.yul\":24:768   */\ntag_35:\n    /* \"#utility.yul\":131:136   */\n  0x00\n    /* \"#utility.yul\":156:237   */\n  tag_37\n    /* \"#utility.yul\":172:236   */\n  tag_38\n    /* \"#utility.yul\":229:235   */\n  dup5\n    /* \"#utility.yul\":172:236   */\n  tag_39\n  jump\t// in\ntag_38:\n    /* \"#utility.yul\":156:237   */\n  tag_40\n  jump\t// in\ntag_37:\n    /* \"#utility.yul\":147:237   */\n  swap1\n  pop\n    /* \"#utility.yul\":257:262   */\n  dup1\n    /* \"#utility.yul\":286:292   */\n  dup4\n    /* \"#utility.yul\":279:284   */\n  dup3\n    /* \"#utility.yul\":272:293   */\n  mstore\n    /* \"#utility.yul\":320:324   */\n  0x20\n    /* \"#utility.yul\":313:318   */\n  dup3\n    /* \"#utility.yul\":309:325   */\n  add\n    /* \"#utility.yul\":302:325   */\n  swap1\n  pop\n    /* \"#utility.yul\":346:352   */\n  dup3\n    /* \"#utility.yul\":396:399   */\n  dup6\n    /* \"#utility.yul\":388:392   */\n  0x20\n    /* \"#utility.yul\":380:386   */\n  dup7\n    /* \"#utility.yul\":376:393   */\n  mul\n    /* \"#utility.yul\":371:374   */\n  dup3\n    /* \"#utility.yul\":367:394   */\n  add\n    /* \"#utility.yul\":364:400   */\n  gt\n    /* \"#utility.yul\":361:504   */\n  iszero\n  tag_41\n  jumpi\n    /* \"#utility.yul\":415:494   */\n  tag_42\n  tag_43\n  jump\t// in\ntag_42:\n    /* \"#utility.yul\":361:504   */\ntag_41:\n    /* \"#utility.yul\":528:529   */\n  0x00\n    /* \"#utility.yul\":513:762   */\ntag_44:\n    /* \"#utility.yul\":538:544   */\n  dup6\n    /* \"#utility.yul\":535:536   */\n  dup2\n    /* \"#utility.yul\":532:545   */\n  lt\n    /* \"#utility.yul\":513:762   */\n  iszero\n  tag_46\n  jumpi\n    /* \"#utility.yul\":606:609   */\n  dup2\n    /* \"#utility.yul\":635:683   */\n  tag_47\n    /* \"#utility.yul\":679:682   */\n  dup9\n    /* \"#utility.yul\":667:677   */\n  dup3\n    /* \"#utility.yul\":635:683   */\n  tag_48\n  jump\t// in\ntag_47:\n    /* \"#utility.yul\":630:633   */\n  dup5\n    /* \"#utility.yul\":623:684   */\n  mstore\n    /* \"#utility.yul\":713:717   */\n  0x20\n    /* \"#utility.yul\":708:711   */\n  dup5\n    /* \"#utility.yul\":704:718   */\n  add\n    /* \"#utility.yul\":697:718   */\n  swap4\n  pop\n    /* \"#utility.yul\":747:751   */\n  0x20\n    /* \"#utility.yul\":742:745   */\n  dup4\n    /* \"#utility.yul\":738:752   */\n  add\n    /* \"#utility.yul\":731:752   */\n  swap3\n  pop\n    /* \"#utility.yul\":573:762   */\n  pop\n    /* \"#utility.yul\":560:561   */\n  0x01\n    /* \"#utility.yul\":557:558   */\n  dup2\n    /* \"#utility.yul\":553:562   */\n  add\n    /* \"#utility.yul\":548:562   */\n  swap1\n  pop\n    /* \"#utility.yul\":513:762   */\n  jump(tag_44)\ntag_46:\n    /* \"#utility.yul\":517:531   */\n  pop\n    /* \"#utility.yul\":137:768   */\n  pop\n  pop\n    /* \"#utility.yul\":24:768   */\n  swap4\n  swap3\n  pop\n  pop\n  pop\n  jump\t// out\n    /* \"#utility.yul\":791:1535   */\ntag_49:\n    /* \"#utility.yul\":898:903   */\n  0x00\n    /* \"#utility.yul\":923:1004   */\n  tag_51\n    /* \"#utility.yul\":939:1003   */\n  tag_52\n    /* \"#utility.yul\":996:1002   */\n  dup5\n    /* \"#utility.yul\":939:1003   */\n  tag_53\n  jump\t// in\ntag_52:\n    /* \"#utility.yul\":923:1004   */\n  tag_40\n  jump\t// in\ntag_51:\n    /* \"#utility.yul\":914:1004   */\n  swap1\n  pop\n    /* \"#utility.yul\":1024:1029   */\n  dup1\n    /* \"#utility.yul\":1053:1059   */\n  dup4\n    /* \"#utility.yul\":1046:1051   */\n  dup3\n    /* \"#utility.yul\":1039:1060   */\n  mstore\n    /* \"#utility.yul\":1087:1091   */\n  0x20\n    /* \"#utility.yul\":1080:1085   */\n  dup3\n    /* \"#utility.yul\":1076:1092   */\n  add\n    /* \"#utility.yul\":1069:1092   */\n  swap1\n  pop\n    /* \"#utility.yul\":1113:1119   */\n  dup3\n    /* \"#utility.yul\":1163:1166   */\n  dup6\n    /* \"#utility.yul\":1155:1159   */\n  0x20\n    /* \"#utility.yul\":1147:1153   */\n  dup7\n    /* \"#utility.yul\":1143:1160   */\n  mul\n    /* \"#utility.yul\":1138:1141   */\n  dup3\n    /* \"#utility.yul\":1134:1161   */\n  add\n    /* \"#utility.yul\":1131:1167   */\n  gt\n    /* \"#utility.yul\":1128:1271   */\n  iszero\n  tag_54\n  jumpi\n    /* \"#utility.yul\":1182:1261   */\n  tag_55\n  tag_43\n  jump\t// in\ntag_55:\n    /* \"#utility.yul\":1128:1271   */\ntag_54:\n    /* \"#utility.yul\":1295:1296   */\n  0x00\n    /* \"#utility.yul\":1280:1529   */\ntag_56:\n    /* \"#utility.yul\":1305:1311   */\n  dup6\n    /* \"#utility.yul\":1302:1303   */\n  dup2\n    /* \"#utility.yul\":1299:1312   */\n  lt\n    /* \"#utility.yul\":1280:1529   */\n  iszero\n  tag_58\n  jumpi\n    /* \"#utility.yul\":1373:1376   */\n  dup2\n    /* \"#utility.yul\":1402:1450   */\n  tag_59\n    /* \"#utility.yul\":1446:1449   */\n  dup9\n    /* \"#utility.yul\":1434:1444   */\n  dup3\n    /* \"#utility.yul\":1402:1450   */\n  tag_60\n  jump\t// in\ntag_59:\n    /* \"#utility.yul\":1397:1400   */\n  dup5\n    /* \"#utility.yul\":1390:1451   */\n  mstore\n    /* \"#utility.yul\":1480:1484   */\n  0x20\n    /* \"#utility.yul\":1475:1478   */\n  dup5\n    /* \"#utility.yul\":1471:1485   */\n  add\n    /* \"#utility.yul\":1464:1485   */\n  swap4\n  pop\n    /* \"#utility.yul\":1514:1518   */\n  0x20\n    /* \"#utility.yul\":1509:1512   */\n  dup4\n    /* \"#utility.yul\":1505:1519   */\n  add\n    /* \"#utility.yul\":1498:1519   */\n  swap3\n  pop\n    /* \"#utility.yul\":1340:1529   */\n  pop\n    /* \"#utility.yul\":1327:1328   */\n  0x01\n    /* \"#utility.yul\":1324:1325   */\n  dup2\n    /* \"#utility.yul\":1320:1329   */\n  add\n    /* \"#utility.yul\":1315:1329   */\n  swap1\n  pop\n    /* \"#utility.yul\":1280:1529   */\n  jump(tag_56)\ntag_58:\n    /* \"#utility.yul\":1284:1298   */\n  pop\n    /* \"#utility.yul\":904:1535   */\n  pop\n  pop\n    /* \"#utility.yul\":791:1535   */\n  swap4\n  swap3\n  pop\n  pop\n  pop\n  jump\t// out\n    /* \"#utility.yul\":1541:1962   */\ntag_61:\n    /* \"#utility.yul\":1630:1635   */\n  0x00\n    /* \"#utility.yul\":1655:1721   */\n  tag_63\n    /* \"#utility.yul\":1671:1720   */\n  tag_64\n    /* \"#utility.yul\":1713:1719   */\n  dup5\n    /* \"#utility.yul\":1671:1720   */\n  tag_65\n  jump\t// in\ntag_64:\n    /* \"#utility.yul\":1655:1721   */\n  tag_40\n  jump\t// in\ntag_63:\n    /* \"#utility.yul\":1646:1721   */\n  swap1\n  pop\n    /* \"#utility.yul\":1744:1750   */\n  dup3\n    /* \"#utility.yul\":1737:1742   */\n  dup2\n    /* \"#utility.yul\":1730:1751   */\n  mstore\n    /* \"#utility.yul\":1782:1786   */\n  0x20\n    /* \"#utility.yul\":1775:1780   */\n  dup2\n    /* \"#utility.yul\":1771:1787   */\n  add\n    /* \"#utility.yul\":1820:1823   */\n  dup5\n    /* \"#utility.yul\":1811:1817   */\n  dup5\n    /* \"#utility.yul\":1806:1809   */\n  dup5\n    /* \"#utility.yul\":1802:1818   */\n  add\n    /* \"#utility.yul\":1799:1824   */\n  gt\n    /* \"#utility.yul\":1796:1908   */\n  iszero\n  tag_66\n  jumpi\n    /* \"#utility.yul\":1827:1906   */\n  tag_67\n  tag_68\n  jump\t// in\ntag_67:\n    /* \"#utility.yul\":1796:1908   */\ntag_66:\n    /* \"#utility.yul\":1917:1956   */\n  tag_69\n    /* \"#utility.yul\":1949:1955   */\n  dup5\n    /* \"#utility.yul\":1944:1947   */\n  dup3\n    /* \"#utility.yul\":1939:1942   */\n  dup6\n    /* \"#utility.yul\":1917:1956   */\n  tag_70\n  jump\t// in\ntag_69:\n    /* \"#utility.yul\":1636:1962   */\n  pop\n    /* \"#utility.yul\":1541:1962   */\n  swap4\n  swap3\n  pop\n  pop\n  pop\n  jump\t// out\n    /* \"#utility.yul\":1968:2111   */\ntag_48:\n    /* \"#utility.yul\":2025:2030   */\n  0x00\n    /* \"#utility.yul\":2056:2062   */\n  dup2\n    /* \"#utility.yul\":2050:2063   */\n  mload\n    /* \"#utility.yul\":2041:2063   */\n  swap1\n  pop\n    /* \"#utility.yul\":2072:2105   */\n  tag_72\n    /* \"#utility.yul\":2099:2104   */\n  dup2\n    /* \"#utility.yul\":2072:2105   */\n  tag_73\n  jump\t// in\ntag_72:\n    /* \"#utility.yul\":1968:2111   */\n  swap3\n  swap2\n  pop\n  pop\n  jump\t// out\n    /* \"#utility.yul\":2134:2519   */\ntag_74:\n    /* \"#utility.yul\":2216:2221   */\n  0x00\n    /* \"#utility.yul\":2265:2268   */\n  dup3\n    /* \"#utility.yul\":2258:2262   */\n  0x1f\n    /* \"#utility.yul\":2250:2256   */\n  dup4\n    /* \"#utility.yul\":2246:2263   */\n  add\n    /* \"#utility.yul\":2242:2269   */\n  slt\n    /* \"#utility.yul\":2232:2354   */\n  tag_76\n  jumpi\n    /* \"#utility.yul\":2273:2352   */\n  tag_77\n  tag_78\n  jump\t// in\ntag_77:\n    /* \"#utility.yul\":2232:2354   */\ntag_76:\n    /* \"#utility.yul\":2383:2389   */\n  dup2\n    /* \"#utility.yul\":2377:2390   */\n  mload\n    /* \"#utility.yul\":2408:2513   */\n  tag_79\n    /* \"#utility.yul\":2509:2512   */\n  dup5\n    /* \"#utility.yul\":2501:2507   */\n  dup3\n    /* \"#utility.yul\":2494:2498   */\n  0x20\n    /* \"#utility.yul\":2486:2492   */\n  dup7\n    /* \"#utility.yul\":2482:2499   */\n  add\n    /* \"#utility.yul\":2408:2513   */\n  tag_35\n  jump\t// in\ntag_79:\n    /* \"#utility.yul\":2399:2513   */\n  swap2\n  pop\n    /* \"#utility.yul\":2222:2519   */\n  pop\n    /* \"#utility.yul\":2134:2519   */\n  swap3\n  swap2\n  pop\n  pop\n  jump\t// out\n    /* \"#utility.yul\":2542:2927   */\ntag_80:\n    /* \"#utility.yul\":2624:2629   */\n  0x00\n    /* \"#utility.yul\":2673:2676   */\n  dup3\n    /* \"#utility.yul\":2666:2670   */\n  0x1f\n    /* \"#utility.yul\":2658:2664   */\n  dup4\n    /* \"#utility.yul\":2654:2671   */\n  add\n    /* \"#utility.yul\":2650:2677   */\n  slt\n    /* \"#utility.yul\":2640:2762   */\n  tag_82\n  jumpi\n    /* \"#utility.yul\":2681:2760   */\n  tag_83\n  tag_78\n  jump\t// in\ntag_83:\n    /* \"#utility.yul\":2640:2762   */\ntag_82:\n    /* \"#utility.yul\":2791:2797   */\n  dup2\n    /* \"#utility.yul\":2785:2798   */\n  mload\n    /* \"#utility.yul\":2816:2921   */\n  tag_84\n    /* \"#utility.yul\":2917:2920   */\n  dup5\n    /* \"#utility.yul\":2909:2915   */\n  dup3\n    /* \"#utility.yul\":2902:2906   */\n  0x20\n    /* \"#utility.yul\":2894:2900   */\n  dup7\n    /* \"#utility.yul\":2890:2907   */\n  add\n    /* \"#utility.yul\":2816:2921   */\n  tag_49\n  jump\t// in\ntag_84:\n    /* \"#utility.yul\":2807:2921   */\n  swap2\n  pop\n    /* \"#utility.yul\":2630:2927   */\n  pop\n    /* \"#utility.yul\":2542:2927   */\n  swap3\n  swap2\n  pop\n  pop\n  jump\t// out\n    /* \"#utility.yul\":2947:3302   */\ntag_85:\n    /* \"#utility.yul\":3014:3019   */\n  0x00\n    /* \"#utility.yul\":3063:3066   */\n  dup3\n    /* \"#utility.yul\":3056:3060   */\n  0x1f\n    /* \"#utility.yul\":3048:3054   */\n  dup4\n    /* \"#utility.yul\":3044:3061   */\n  add\n    /* \"#utility.yul\":3040:3067   */\n  slt\n    /* \"#utility.yul\":3030:3152   */\n  tag_87\n  jumpi\n    /* \"#utility.yul\":3071:3150   */\n  tag_88\n  tag_78\n  jump\t// in\ntag_88:\n    /* \"#utility.yul\":3030:3152   */\ntag_87:\n    /* \"#utility.yul\":3181:3187   */\n  dup2\n    /* \"#utility.yul\":3175:3188   */\n  mload\n    /* \"#utility.yul\":3206:3296   */\n  tag_89\n    /* \"#utility.yul\":3292:3295   */\n  dup5\n    /* \"#utility.yul\":3284:3290   */\n  dup3\n    /* \"#utility.yul\":3277:3281   */\n  0x20\n    /* \"#utility.yul\":3269:3275   */\n  dup7\n    /* \"#utility.yul\":3265:3282   */\n  add\n    /* \"#utility.yul\":3206:3296   */\n  tag_61\n  jump\t// in\ntag_89:\n    /* \"#utility.yul\":3197:3296   */\n  swap2\n  pop\n    /* \"#utility.yul\":3020:3302   */\n  pop\n    /* \"#utility.yul\":2947:3302   */\n  swap3\n  swap2\n  pop\n  pop\n  jump\t// out\n    /* \"#utility.yul\":3308:3451   */\ntag_60:\n    /* \"#utility.yul\":3365:3370   */\n  0x00\n    /* \"#utility.yul\":3396:3402   */\n  dup2\n    /* \"#utility.yul\":3390:3403   */\n  mload\n    /* \"#utility.yul\":3381:3403   */\n  swap1\n  pop\n    /* \"#utility.yul\":3412:3445   */\n  tag_91\n    /* \"#utility.yul\":3439:3444   */\n  dup2\n    /* \"#utility.yul\":3412:3445   */\n  tag_92\n  jump\t// in\ntag_91:\n    /* \"#utility.yul\":3308:3451   */\n  swap3\n  swap2\n  pop\n  pop\n  jump\t// out\n    /* \"#utility.yul\":3457:5186   */\ntag_3:\n    /* \"#utility.yul\":3633:3639   */\n  0x00\n    /* \"#utility.yul\":3641:3647   */\n  dup1\n    /* \"#utility.yul\":3649:3655   */\n  0x00\n    /* \"#utility.yul\":3657:3663   */\n  dup1\n    /* \"#utility.yul\":3665:3671   */\n  0x00\n    /* \"#utility.yul\":3714:3717   */\n  0xa0\n    /* \"#utility.yul\":3702:3711   */\n  dup7\n    /* \"#utility.yul\":3693:3700   */\n  dup9\n    /* \"#utility.yul\":3689:3712   */\n  sub\n    /* \"#utility.yul\":3685:3718   */\n  slt\n    /* \"#utility.yul\":3682:3802   */\n  iszero\n  tag_94\n  jumpi\n    /* \"#utility.yul\":3721:3800   */\n  tag_95\n  tag_96\n  jump\t// in\ntag_95:\n    /* \"#utility.yul\":3682:3802   */\ntag_94:\n    /* \"#utility.yul\":3841:3842   */\n  0x00\n    /* \"#utility.yul\":3866:3930   */\n  tag_97\n    /* \"#utility.yul\":3922:3929   */\n  dup9\n    /* \"#utility.yul\":3913:3919   */\n  dup3\n    /* \"#utility.yul\":3902:3911   */\n  dup10\n    /* \"#utility.yul\":3898:3920   */\n  add\n    /* \"#utility.yul\":3866:3930   */\n  tag_48\n  jump\t// in\ntag_97:\n    /* \"#utility.yul\":3856:3930   */\n  swap6\n  pop\n    /* \"#utility.yul\":3812:3940   */\n  pop\n    /* \"#utility.yul\":4000:4002   */\n  0x20\n    /* \"#utility.yul\":3989:3998   */\n  dup7\n    /* \"#utility.yul\":3985:4003   */\n  add\n    /* \"#utility.yul\":3979:4004   */\n  mload\n    /* \"#utility.yul\":4031:4049   */\n  0xffffffffffffffff\n    /* \"#utility.yul\":4023:4029   */\n  dup2\n    /* \"#utility.yul\":4020:4050   */\n  gt\n    /* \"#utility.yul\":4017:4134   */\n  iszero\n  tag_98\n  jumpi\n    /* \"#utility.yul\":4053:4132   */\n  tag_99\n  tag_100\n  jump\t// in\ntag_99:\n    /* \"#utility.yul\":4017:4134   */\ntag_98:\n    /* \"#utility.yul\":4158:4232   */\n  tag_101\n    /* \"#utility.yul\":4224:4231   */\n  dup9\n    /* \"#utility.yul\":4215:4221   */\n  dup3\n    /* \"#utility.yul\":4204:4213   */\n  dup10\n    /* \"#utility.yul\":4200:4222   */\n  add\n    /* \"#utility.yul\":4158:4232   */\n  tag_85\n  jump\t// in\ntag_101:\n    /* \"#utility.yul\":4148:4232   */\n  swap5\n  pop\n    /* \"#utility.yul\":3950:4242   */\n  pop\n    /* \"#utility.yul\":4302:4304   */\n  0x40\n    /* \"#utility.yul\":4291:4300   */\n  dup7\n    /* \"#utility.yul\":4287:4305   */\n  add\n    /* \"#utility.yul\":4281:4306   */\n  mload\n    /* \"#utility.yul\":4333:4351   */\n  0xffffffffffffffff\n    /* \"#utility.yul\":4325:4331   */\n  dup2\n    /* \"#utility.yul\":4322:4352   */\n  gt\n    /* \"#utility.yul\":4319:4436   */\n  iszero\n  tag_102\n  jumpi\n    /* \"#utility.yul\":4355:4434   */\n  tag_103\n  tag_100\n  jump\t// in\ntag_103:\n    /* \"#utility.yul\":4319:4436   */\ntag_102:\n    /* \"#utility.yul\":4460:4534   */\n  tag_104\n    /* \"#utility.yul\":4526:4533   */\n  dup9\n    /* \"#utility.yul\":4517:4523   */\n  dup3\n    /* \"#utility.yul\":4506:4515   */\n  dup10\n    /* \"#utility.yul\":4502:4524   */\n  add\n    /* \"#utility.yul\":4460:4534   */\n  tag_85\n  jump\t// in\ntag_104:\n    /* \"#utility.yul\":4450:4534   */\n  swap4\n  pop\n    /* \"#utility.yul\":4252:4544   */\n  pop\n    /* \"#utility.yul\":4604:4606   */\n  0x60\n    /* \"#utility.yul\":4593:4602   */\n  dup7\n    /* \"#utility.yul\":4589:4607   */\n  add\n    /* \"#utility.yul\":4583:4608   */\n  mload\n    /* \"#utility.yul\":4635:4653   */\n  0xffffffffffffffff\n    /* \"#utility.yul\":4627:4633   */\n  dup2\n    /* \"#utility.yul\":4624:4654   */\n  gt\n    /* \"#utility.yul\":4621:4738   */\n  iszero\n  tag_105\n  jumpi\n    /* \"#utility.yul\":4657:4736   */\n  tag_106\n  tag_100\n  jump\t// in\ntag_106:\n    /* \"#utility.yul\":4621:4738   */\ntag_105:\n    /* \"#utility.yul\":4762:4851   */\n  tag_107\n    /* \"#utility.yul\":4843:4850   */\n  dup9\n    /* \"#utility.yul\":4834:4840   */\n  dup3\n    /* \"#utility.yul\":4823:4832   */\n  dup10\n    /* \"#utility.yul\":4819:4841   */\n  add\n    /* \"#utility.yul\":4762:4851   */\n  tag_74\n  jump\t// in\ntag_107:\n    /* \"#utility.yul\":4752:4851   */\n  swap3\n  pop\n    /* \"#utility.yul\":4554:4861   */\n  pop\n    /* \"#utility.yul\":4921:4924   */\n  0x80\n    /* \"#utility.yul\":4910:4919   */\n  dup7\n    /* \"#utility.yul\":4906:4925   */\n  add\n    /* \"#utility.yul\":4900:4926   */\n  mload\n    /* \"#utility.yul\":4953:4971   */\n  0xffffffffffffffff\n    /* \"#utility.yul\":4945:4951   */\n  dup2\n    /* \"#utility.yul\":4942:4972   */\n  gt\n    /* \"#utility.yul\":4939:5056   */\n  iszero\n  tag_108\n  jumpi\n    /* \"#utility.yul\":4975:5054   */\n  tag_109\n  tag_100\n  jump\t// in\ntag_109:\n    /* \"#utility.yul\":4939:5056   */\ntag_108:\n    /* \"#utility.yul\":5080:5169   */\n  tag_110\n    /* \"#utility.yul\":5161:5168   */\n  dup9\n    /* \"#utility.yul\":5152:5158   */\n  dup3\n    /* \"#utility.yul\":5141:5150   */\n  dup10\n    /* \"#utility.yul\":5137:5159   */\n  add\n    /* \"#utility.yul\":5080:5169   */\n  tag_80\n  jump\t// in\ntag_110:\n    /* \"#utility.yul\":5070:5169   */\n  swap2\n  pop\n    /* \"#utility.yul\":4871:5179   */\n  pop\n    /* \"#utility.yul\":3457:5186   */\n  swap3\n  swap6\n  pop\n  swap3\n  swap6\n  swap1\n  swap4\n  pop\n  jump\t// out\n    /* \"#utility.yul\":5192:5321   */\ntag_40:\n    /* \"#utility.yul\":5226:5232   */\n  0x00\n    /* \"#utility.yul\":5253:5273   */\n  tag_112\n  tag_113\n  jump\t// in\ntag_112:\n    /* \"#utility.yul\":5243:5273   */\n  swap1\n  pop\n    /* \"#utility.yul\":5282:5315   */\n  tag_114\n    /* \"#utility.yul\":5310:5314   */\n  dup3\n    /* \"#utility.yul\":5302:5308   */\n  dup3\n    /* \"#utility.yul\":5282:5315   */\n  tag_115\n  jump\t// in\ntag_114:\n    /* \"#utility.yul\":5192:5321   */\n  swap2\n  swap1\n  pop\n  jump\t// out\n    /* \"#utility.yul\":5327:5402   */\ntag_113:\n    /* \"#utility.yul\":5360:5366   */\n  0x00\n    /* \"#utility.yul\":5393:5395   */\n  0x40\n    /* \"#utility.yul\":5387:5396   */\n  mload\n    /* \"#utility.yul\":5377:5396   */\n  swap1\n  pop\n    /* \"#utility.yul\":5327:5402   */\n  swap1\n  jump\t// out\n    /* \"#utility.yul\":5408:5719   */\ntag_39:\n    /* \"#utility.yul\":5485:5489   */\n  0x00\n    /* \"#utility.yul\":5575:5593   */\n  0xffffffffffffffff\n    /* \"#utility.yul\":5567:5573   */\n  dup3\n    /* \"#utility.yul\":5564:5594   */\n  gt\n    /* \"#utility.yul\":5561:5617   */\n  iszero\n  tag_118\n  jumpi\n    /* \"#utility.yul\":5597:5615   */\n  tag_119\n  tag_120\n  jump\t// in\ntag_119:\n    /* \"#utility.yul\":5561:5617   */\ntag_118:\n    /* \"#utility.yul\":5647:5651   */\n  0x20\n    /* \"#utility.yul\":5639:5645   */\n  dup3\n    /* \"#utility.yul\":5635:5652   */\n  mul\n    /* \"#utility.yul\":5627:5652   */\n  swap1\n  pop\n    /* \"#utility.yul\":5707:5711   */\n  0x20\n    /* \"#utility.yul\":5701:5705   */\n  dup2\n    /* \"#utility.yul\":5697:5712   */\n  add\n    /* \"#utility.yul\":5689:5712   */\n  swap1\n  pop\n    /* \"#utility.yul\":5408:5719   */\n  swap2\n  swap1\n  pop\n  jump\t// out\n    /* \"#utility.yul\":5725:6036   */\ntag_53:\n    /* \"#utility.yul\":5802:5806   */\n  0x00\n    /* \"#utility.yul\":5892:5910   */\n  0xffffffffffffffff\n    /* \"#utility.yul\":5884:5890   */\n  dup3\n    /* \"#utility.yul\":5881:5911   */\n  gt\n    /* \"#utility.yul\":5878:5934   */\n  iszero\n  tag_122\n  jumpi\n    /* \"#utility.yul\":5914:5932   */\n  tag_123\n  tag_120\n  jump\t// in\ntag_123:\n    /* \"#utility.yul\":5878:5934   */\ntag_122:\n    /* \"#utility.yul\":5964:5968   */\n  0x20\n    /* \"#utility.yul\":5956:5962   */\n  dup3\n    /* \"#utility.yul\":5952:5969   */\n  mul\n    /* \"#utility.yul\":5944:5969   */\n  swap1\n  pop\n    /* \"#utility.yul\":6024:6028   */\n  0x20\n    /* \"#utility.yul\":6018:6022   */\n  dup2\n    /* \"#utility.yul\":6014:6029   */\n  add\n    /* \"#utility.yul\":6006:6029   */\n  swap1\n  pop\n    /* \"#utility.yul\":5725:6036   */\n  swap2\n  swap1\n  pop\n  jump\t// out\n    /* \"#utility.yul\":6042:6350   */\ntag_65:\n    /* \"#utility.yul\":6104:6108   */\n  0x00\n    /* \"#utility.yul\":6194:6212   */\n  0xffffffffffffffff\n    /* \"#utility.yul\":6186:6192   */\n  dup3\n    /* \"#utility.yul\":6183:6213   */\n  gt\n    /* \"#utility.yul\":6180:6236   */\n  iszero\n  tag_125\n  jumpi\n    /* \"#utility.yul\":6216:6234   */\n  tag_126\n  tag_120\n  jump\t// in\ntag_126:\n    /* \"#utility.yul\":6180:6236   */\ntag_125:\n    /* \"#utility.yul\":6254:6283   */\n  tag_127\n    /* \"#utility.yul\":6276:6282   */\n  dup3\n    /* \"#utility.yul\":6254:6283   */\n  tag_128\n  jump\t// in\ntag_127:\n    /* \"#utility.yul\":6246:6283   */\n  swap1\n  pop\n    /* \"#utility.yul\":6338:6342   */\n  0x20\n    /* \"#utility.yul\":6332:6336   */\n  dup2\n    /* \"#utility.yul\":6328:6343   */\n  add\n    /* \"#utility.yul\":6320:6343   */\n  swap1\n  pop\n    /* \"#utility.yul\":6042:6350   */\n  swap2\n  swap1\n  pop\n  jump\t// out\n    /* \"#utility.yul\":6356:6452   */\ntag_129:\n    /* \"#utility.yul\":6393:6400   */\n  0x00\n    /* \"#utility.yul\":6422:6446   */\n  tag_131\n    /* \"#utility.yul\":6440:6445   */\n  dup3\n    /* \"#utility.yul\":6422:6446   */\n  tag_132\n  jump\t// in\ntag_131:\n    /* \"#utility.yul\":6411:6446   */\n  swap1\n  pop\n    /* \"#utility.yul\":6356:6452   */\n  swap2\n  swap1\n  pop\n  jump\t// out\n    /* \"#utility.yul\":6458:6584   */\ntag_132:\n    /* \"#utility.yul\":6495:6502   */\n  0x00\n    /* \"#utility.yul\":6535:6577   */\n  0xffffffffffffffffffffffffffffffffffffffff\n    /* \"#utility.yul\":6528:6533   */\n  dup3\n    /* \"#utility.yul\":6524:6578   */\n  and\n    /* \"#utility.yul\":6513:6578   */\n  swap1\n  pop\n    /* \"#utility.yul\":6458:6584   */\n  swap2\n  swap1\n  pop\n  jump\t// out\n    /* \"#utility.yul\":6590:6667   */\ntag_134:\n    /* \"#utility.yul\":6627:6634   */\n  0x00\n    /* \"#utility.yul\":6656:6661   */\n  dup2\n    /* \"#utility.yul\":6645:6661   */\n  swap1\n  pop\n    /* \"#utility.yul\":6590:6667   */\n  swap2\n  swap1\n  pop\n  jump\t// out\n    /* \"#utility.yul\":6673:6980   */\ntag_70:\n    /* \"#utility.yul\":6741:6742   */\n  0x00\n    /* \"#utility.yul\":6751:6864   */\ntag_137:\n    /* \"#utility.yul\":6765:6771   */\n  dup4\n    /* \"#utility.yul\":6762:6763   */\n  dup2\n    /* \"#utility.yul\":6759:6772   */\n  lt\n    /* \"#utility.yul\":6751:6864   */\n  iszero\n  tag_139\n  jumpi\n    /* \"#utility.yul\":6850:6851   */\n  dup1\n    /* \"#utility.yul\":6845:6848   */\n  dup3\n    /* \"#utility.yul\":6841:6852   */\n  add\n    /* \"#utility.yul\":6835:6853   */\n  mload\n    /* \"#utility.yul\":6831:6832   */\n  dup2\n    /* \"#utility.yul\":6826:6829   */\n  dup5\n    /* \"#utility.yul\":6822:6833   */\n  add\n    /* \"#utility.yul\":6815:6854   */\n  mstore\n    /* \"#utility.yul\":6787:6789   */\n  0x20\n    /* \"#utility.yul\":6784:6785   */\n  dup2\n    /* \"#utility.yul\":6780:6790   */\n  add\n    /* \"#utility.yul\":6775:6790   */\n  swap1\n  pop\n    /* \"#utility.yul\":6751:6864   */\n  jump(tag_137)\ntag_139:\n    /* \"#utility.yul\":6882:6888   */\n  dup4\n    /* \"#utility.yul\":6879:6880   */\n  dup2\n    /* \"#utility.yul\":6876:6889   */\n  gt\n    /* \"#utility.yul\":6873:6974   */\n  iszero\n  tag_140\n  jumpi\n    /* \"#utility.yul\":6962:6963   */\n  0x00\n    /* \"#utility.yul\":6953:6959   */\n  dup5\n    /* \"#utility.yul\":6948:6951   */\n  dup5\n    /* \"#utility.yul\":6944:6960   */\n  add\n    /* \"#utility.yul\":6937:6964   */\n  mstore\n    /* \"#utility.yul\":6873:6974   */\ntag_140:\n    /* \"#utility.yul\":6722:6980   */\n  pop\n    /* \"#utility.yul\":6673:6980   */\n  pop\n  pop\n  pop\n  jump\t// out\n    /* \"#utility.yul\":6986:7306   */\ntag_24:\n    /* \"#utility.yul\":7030:7036   */\n  0x00\n    /* \"#utility.yul\":7067:7068   */\n  0x02\n    /* \"#utility.yul\":7061:7065   */\n  dup3\n    /* \"#utility.yul\":7057:7069   */\n  div\n    /* \"#utility.yul\":7047:7069   */\n  swap1\n  pop\n    /* \"#utility.yul\":7114:7115   */\n  0x01\n    /* \"#utility.yul\":7108:7112   */\n  dup3\n    /* \"#utility.yul\":7104:7116   */\n  and\n    /* \"#utility.yul\":7135:7153   */\n  dup1\n    /* \"#utility.yul\":7125:7206   */\n  tag_142\n  jumpi\n    /* \"#utility.yul\":7191:7195   */\n  0x7f\n    /* \"#utility.yul\":7183:7189   */\n  dup3\n    /* \"#utility.yul\":7179:7196   */\n  and\n    /* \"#utility.yul\":7169:7196   */\n  swap2\n  pop\n    /* \"#utility.yul\":7125:7206   */\ntag_142:\n    /* \"#utility.yul\":7253:7255   */\n  0x20\n    /* \"#utility.yul\":7245:7251   */\n  dup3\n    /* \"#utility.yul\":7242:7256   */\n  lt\n    /* \"#utility.yul\":7222:7240   */\n  dup2\n    /* \"#utility.yul\":7219:7257   */\n  eq\n    /* \"#utility.yul\":7216:7300   */\n  iszero\n  tag_143\n  jumpi\n    /* \"#utility.yul\":7272:7290   */\n  tag_144\n  tag_145\n  jump\t// in\ntag_144:\n    /* \"#utility.yul\":7216:7300   */\ntag_143:\n    /* \"#utility.yul\":7037:7306   */\n  pop\n    /* \"#utility.yul\":6986:7306   */\n  swap2\n  swap1\n  pop\n  jump\t// out\n    /* \"#utility.yul\":7312:7593   */\ntag_115:\n    /* \"#utility.yul\":7395:7422   */\n  tag_147\n    /* \"#utility.yul\":7417:7421   */\n  dup3\n    /* \"#utility.yul\":7395:7422   */\n  tag_128\n  jump\t// in\ntag_147:\n    /* \"#utility.yul\":7387:7393   */\n  dup2\n    /* \"#utility.yul\":7383:7423   */\n  add\n    /* \"#utility.yul\":7525:7531   */\n  dup2\n    /* \"#utility.yul\":7513:7523   */\n  dup2\n    /* \"#utility.yul\":7510:7532   */\n  lt\n    /* \"#utility.yul\":7489:7507   */\n  0xffffffffffffffff\n    /* \"#utility.yul\":7477:7487   */\n  dup3\n    /* \"#utility.yul\":7474:7508   */\n  gt\n    /* \"#utility.yul\":7471:7533   */\n  or\n    /* \"#utility.yul\":7468:7556   */\n  iszero\n  tag_148\n  jumpi\n    /* \"#utility.yul\":7536:7554   */\n  tag_149\n  tag_120\n  jump\t// in\ntag_149:\n    /* \"#utility.yul\":7468:7556   */\ntag_148:\n    /* \"#utility.yul\":7576:7586   */\n  dup1\n    /* \"#utility.yul\":7572:7574   */\n  0x40\n    /* \"#utility.yul\":7565:7587   */\n  mstore\n    /* \"#utility.yul\":7355:7593   */\n  pop\n    /* \"#utility.yul\":7312:7593   */\n  pop\n  pop\n  jump\t// out\n    /* \"#utility.yul\":7599:7832   */\ntag_18:\n    /* \"#utility.yul\":7638:7641   */\n  0x00\n    /* \"#utility.yul\":7661:7685   */\n  tag_151\n    /* \"#utility.yul\":7679:7684   */\n  dup3\n    /* \"#utility.yul\":7661:7685   */\n  tag_134\n  jump\t// in\ntag_151:\n    /* \"#utility.yul\":7652:7685   */\n  swap2\n  pop\n    /* \"#utility.yul\":7707:7773   */\n  0xffffffffffffffffffffffffffffffffffffffffffffffffffffffffffffffff\n    /* \"#utility.yul\":7700:7705   */\n  dup3\n    /* \"#utility.yul\":7697:7774   */\n  eq\n    /* \"#utility.yul\":7694:7797   */\n  iszero\n  tag_152\n  jumpi\n    /* \"#utility.yul\":7777:7795   */\n  tag_153\n  tag_154\n  jump\t// in\ntag_153:\n    /* \"#utility.yul\":7694:7797   */\ntag_152:\n    /* \"#utility.yul\":7824:7825   */\n  0x01\n    /* \"#utility.yul\":7817:7822   */\n  dup3\n    /* \"#utility.yul\":7813:7826   */\n  add\n    /* \"#utility.yul\":7806:7826   */\n  swap1\n  pop\n    /* \"#utility.yul\":7599:7832   */\n  swap2\n  swap1\n  pop\n  jump\t// out\n    /* \"#utility.yul\":7838:8018   */\ntag_154:\n    /* \"#utility.yul\":7886:7963   */\n  0x4e487b7100000000000000000000000000000000000000000000000000000000\n    /* \"#utility.yul\":7883:7884   */\n  0x00\n    /* \"#utility.yul\":7876:7964   */\n  mstore\n    /* \"#utility.yul\":7983:7987   */\n  0x11\n    /* \"#utility.yul\":7980:7981   */\n  0x04\n    /* \"#utility.yul\":7973:7988   */\n  mstore\n    /* \"#utility.yul\":8007:8011   */\n  0x24\n    /* \"#utility.yul\":8004:8005   */\n  0x00\n    /* \"#utility.yul\":7997:8012   */\n  revert\n    /* \"#utility.yul\":8024:8204   */\ntag_145:\n    /* \"#utility.yul\":8072:8149   */\n  0x4e487b7100000000000000000000000000000000000000000000000000000000\n    /* \"#utility.yul\":8069:8070   */\n  0x00\n    /* \"#utility.yul\":8062:8150   */\n  mstore\n    /* \"#utility.yul\":8169:8173   */\n  0x22\n    /* \"#utility.yul\":8166:8167   */\n  0x04\n    /* \"#utility.yul\":8159:8174   */\n  mstore\n    /* \"#utility.yul\":8193:8197   */\n  0x24\n    /* \"#utility.yul\":8190:8191   */\n  0x00\n    /* \"#utility.yul\":8183:8198   */\n  revert\n    /* \"#utility.yul\":8210:8390   */\ntag_11:\n    /* \"#utility.yul\":8258:8335   */\n  0x4e487b7100000000000000000000000000000000000000000000000000000000\n    /* \"#utility.yul\":8255:8256   */\n  0x00\n    /* \"#utility.yul\":8248:8336   */\n  mstore\n    /* \"#utility.yul\":8355:8359   */\n  0x32\n    /* \"#utility.yul\":8352:8353   */\n  0x04\n    /* \"#utility.yul\":8345:8360   */\n  mstore\n    /* \"#utility.yul\":8379:8383   */\n  0x24\n    /* \"#utility.yul\":8376:8377   */\n  0x00\n    /* \"#utility.yul\":8369:8384   */\n  revert\n    /* \"#utility.yul\":8396:8576   */\ntag_120:\n    /* \"#utility.yul\":8444:8521   */\n  0x4e487b7100000000000000000000000000000000000000000000000000000000\n    /* \"#utility.yul\":8441:8442   */\n  0x00\n    /* \"#utility.yul\":8434:8522   */\n  mstore\n    /* \"#utility.yul\":8541:8545   */\n  0x41\n    /* \"#utility.yul\":8538:8539   */\n  0x04\n    /* \"#utility.yul\":8531:8546   */\n  mstore\n    /* \"#utility.yul\":8565:8569   */\n  0x24\n    /* \"#utility.yul\":8562:8563   */\n  0x00\n    /* \"#utility.yul\":8555:8570   */\n  revert\n    /* \"#utility.yul\":8582:8699   */\ntag_78:\n    /* \"#utility.yul\":8691:8692   */\n  0x00\n    /* \"#utility.yul\":8688:8689   */\n  dup1\n    /* \"#utility.yul\":8681:8693   */\n  revert\n    /* \"#utility.yul\":8705:8822   */\ntag_43:\n    /* \"#utility.yul\":8814:8815   */\n  0x00\n    /* \"#utility.yul\":8811:8812   */\n  dup1\n    /* \"#utility.yul\":8804:8816   */\n  revert\n    /* \"#utility.yul\":8828:8945   */\ntag_68:\n    /* \"#utility.yul\":8937:8938   */\n  0x00\n    /* \"#utility.yul\":8934:8935   */\n  dup1\n    /* \"#utility.yul\":8927:8939   */\n  revert\n    /* \"#utility.yul\":8951:9068   */\ntag_100:\n    /* \"#utility.yul\":9060:9061   */\n  0x00\n    /* \"#utility.yul\":9057:9058   */\n  dup1\n    /* \"#utility.yul\":9050:9062   */\n  revert\n    /* \"#utility.yul\":9074:9191   */\ntag_96:\n    /* \"#utility.yul\":9183:9184   */\n  0x00\n    /* \"#utility.yul\":9180:9181   */\n  dup1\n    /* \"#utility.yul\":9173:9185   */\n  revert\n    /* \"#utility.yul\":9197:9299   */\ntag_128:\n    /* \"#utility.yul\":9238:9244   */\n  0x00\n    /* \"#utility.yul\":9289:9291   */\n  0x1f\n    /* \"#utility.yul\":9285:9292   */\n  not\n    /* \"#utility.yul\":9280:9282   */\n  0x1f\n    /* \"#utility.yul\":9273:9278   */\n  dup4\n    /* \"#utility.yul\":9269:9283   */\n  add\n    /* \"#utility.yul\":9265:9293   */\n  and\n    /* \"#utility.yul\":9255:9293   */\n  swap1\n  pop\n    /* \"#utility.yul\":9197:9299   */\n  swap2\n  swap1\n  pop\n  jump\t// out\n    /* \"#utility.yul\":9305:9427   */\ntag_73:\n    /* \"#utility.yul\":9378:9402   */\n  tag_166\n    /* \"#utility.yul\":9396:9401   */\n  dup2\n    /* \"#utility.yul\":9378:9402   */\n  tag_129\n  jump\t// in\ntag_166:\n    /* \"#utility.yul\":9371:9376   */\n  dup2\n    /* \"#utility.yul\":9368:9403   */\n  eq\n    /* \"#utility.yul\":9358:9421   */\n  tag_167\n  jumpi\n    /* \"#utility.yul\":9417:9418   */\n  0x00\n    /* \"#utility.yul\":9414:9415   */\n  dup1\n    /* \"#utility.yul\":9407:9419   */\n  revert\n    /* \"#utility.yul\":9358:9421   */\ntag_167:\n    /* \"#utility.yul\":9305:9427   */\n  pop\n  jump\t// out\n    /* \"#utility.yul\":9433:9555   */\ntag_92:\n    /* \"#utility.yul\":9506:9530   */\n  tag_169\n    /* \"#utility.yul\":9524:9529   */\n  dup2\n    /* \"#utility.yul\":9506:9530   */\n  tag_134\n  jump\t// in\ntag_169:\n    /* \"#utility.yul\":9499:9504   */\n  dup2\n    /* \"#utility.yul\":9496:9531   */\n  eq\n    /* \"#utility.yul\":9486:9549   */\n  tag_170\n  jumpi\n    /* \"#utility.yul\":9545:9546   */\n  0x00\n    /* \"#utility.yul\":9542:9543   */\n  dup1\n    /* \"#utility.yul\":9535:9547   */\n  revert\n    /* \"#utility.yul\":9486:9549   */\ntag_170:\n    /* \"#utility.yul\":9433:9555   */\n  pop\n  jump\t// out\n    /* \"tron/tokeniz.sol\":177:2442  contract Tokeniz{\r... */\ntag_22:\n  dataSize(sub_0)\n  dup1\n  dataOffset(sub_0)\n  0x00\n  codecopy\n  0x00\n  return\nstop\n\nsub_0: assembly {\n        /* \"tron/tokeniz.sol\":177:2442  contract Tokeniz{\r... */\n      mstore(0x40, 0x80)\n      callvalue\n      dup1\n      iszero\n      tag_1\n      jumpi\n      0x00\n      dup1\n      revert\n    tag_1:\n      pop\n      jumpi(tag_2, lt(calldatasize, 0x04))\n      shr(0xe0, calldataload(0x00))\n      dup1\n      0x90d524a2\n      gt\n      tag_11\n      jumpi\n      dup1\n      0x90d524a2\n      eq\n      tag_7\n      jumpi\n      dup1\n      0xe2c42e66\n      eq\n      tag_8\n      jumpi\n      dup1\n      0xeedc966a\n      eq\n      tag_9\n      jumpi\n      dup1\n      0xf7aca939\n      eq\n      tag_10\n      jumpi\n      jump(tag_2)\n    tag_11:\n      dup1\n      0x06fdde03\n      eq\n      tag_3\n      jumpi\n      dup1\n      0x3c130d90\n      eq\n      tag_4\n      jumpi\n      dup1\n      0x8da5cb5b\n      eq\n      tag_5\n      jumpi\n      dup1\n      0x8f23d5f6\n      eq\n      tag_6\n      jumpi\n    tag_2:\n      0x00\n      dup1\n      revert\n        /* \"tron/tokeniz.sol\":316:334  string public name */\n    tag_3:\n      tag_12\n      tag_13\n      jump\t// in\n    tag_12:\n      mload(0x40)\n      tag_14\n      swap2\n      swap1\n      tag_15\n      jump\t// in\n    tag_14:\n      mload(0x40)\n      dup1\n      swap2\n      sub\n      swap1\n      return\n        /* \"tron/tokeniz.sol\":287:309  string public tokenURI */\n    tag_4:\n      tag_16\n      tag_17\n      jump\t// in\n    tag_16:\n      mload(0x40)\n      tag_18\n      swap2\n      swap1\n      tag_15\n      jump\t// in\n    tag_18:\n      mload(0x40)\n      dup1\n      swap2\n      sub\n      swap1\n      return\n        /* \"tron/tokeniz.sol\":235:255  address public owner */\n    tag_5:\n      tag_19\n      tag_20\n      jump\t// in\n    tag_19:\n      mload(0x40)\n      tag_21\n      swap2\n      swap1\n      tag_22\n      jump\t// in\n    tag_21:\n      mload(0x40)\n      dup1\n      swap2\n      sub\n      swap1\n      return\n        /* \"tron/tokeniz.sol\":262:280  bool public packed */\n    tag_6:\n      tag_23\n      tag_24\n      jump\t// in\n    tag_23:\n      mload(0x40)\n      tag_25\n      swap2\n      swap1\n      tag_26\n      jump\t// in\n    tag_25:\n      mload(0x40)\n      dup1\n      swap2\n      sub\n      swap1\n      return\n        /* \"tron/tokeniz.sol\":1085:1631  function unPack() public{\r... */\n    tag_7:\n      tag_27\n      tag_28\n      jump\t// in\n    tag_27:\n      stop\n        /* \"tron/tokeniz.sol\":996:1073  function isPacked() public view returns(bool){\r... */\n    tag_8:\n      tag_29\n      tag_30\n      jump\t// in\n    tag_29:\n      mload(0x40)\n      tag_31\n      swap2\n      swap1\n      tag_26\n      jump\t// in\n    tag_31:\n      mload(0x40)\n      dup1\n      swap2\n      sub\n      swap1\n      return\n        /* \"tron/tokeniz.sol\":341:385  mapping(address => uint) public tokenBalance */\n    tag_9:\n      tag_32\n      0x04\n      dup1\n      calldatasize\n      sub\n      dup2\n      add\n      swap1\n      tag_33\n      swap2\n      swap1\n      tag_34\n      jump\t// in\n    tag_33:\n      tag_35\n      jump\t// in\n    tag_32:\n      mload(0x40)\n      tag_36\n      swap2\n      swap1\n      tag_37\n      jump\t// in\n    tag_36:\n      mload(0x40)\n      dup1\n      swap2\n      sub\n      swap1\n      return\n        /* \"tron/tokeniz.sol\":392:424  address[] public tokensAddresses */\n    tag_10:\n      tag_38\n      0x04\n      dup1\n      calldatasize\n      sub\n      dup2\n      add\n      swap1\n      tag_39\n      swap2\n      swap1\n      tag_40\n      jump\t// in\n    tag_39:\n      tag_41\n      jump\t// in\n    tag_38:\n      mload(0x40)\n      tag_42\n      swap2\n      swap1\n      tag_22\n      jump\t// in\n    tag_42:\n      mload(0x40)\n      dup1\n      swap2\n      sub\n      swap1\n      return\n        /* \"tron/tokeniz.sol\":316:334  string public name */\n    tag_13:\n      0x03\n      dup1\n      sload\n      tag_43\n      swap1\n      tag_44\n      jump\t// in\n    tag_43:\n      dup1\n      0x1f\n      add\n      0x20\n      dup1\n      swap2\n      div\n      mul\n      0x20\n      add\n      mload(0x40)\n      swap1\n      dup2\n      add\n      0x40\n      mstore\n      dup1\n      swap3\n      swap2\n      swap1\n      dup2\n      dup2\n      mstore\n      0x20\n      add\n      dup3\n      dup1\n      sload\n      tag_45\n      swap1\n      tag_44\n      jump\t// in\n    tag_45:\n      dup1\n      iszero\n      tag_46\n      jumpi\n      dup1\n      0x1f\n      lt\n      tag_47\n      jumpi\n      0x0100\n      dup1\n      dup4\n      sload\n      div\n      mul\n      dup4\n      mstore\n      swap2\n      0x20\n      add\n      swap2\n      jump(tag_46)\n    tag_47:\n      dup3\n      add\n      swap2\n      swap1\n      0x00\n      mstore\n      keccak256(0x00, 0x20)\n      swap1\n    tag_48:\n      dup2\n      sload\n      dup2\n      mstore\n      swap1\n      0x01\n      add\n      swap1\n      0x20\n      add\n      dup1\n      dup4\n      gt\n      tag_48\n      jumpi\n      dup3\n      swap1\n      sub\n      0x1f\n      and\n      dup3\n      add\n      swap2\n    tag_46:\n      pop\n      pop\n      pop\n      pop\n      pop\n      dup2\n      jump\t// out\n        /* \"tron/tokeniz.sol\":287:309  string public tokenURI */\n    tag_17:\n      0x02\n      dup1\n      sload\n      tag_49\n      swap1\n      tag_44\n      jump\t// in\n    tag_49:\n      dup1\n      0x1f\n      add\n      0x20\n      dup1\n      swap2\n      div\n      mul\n      0x20\n      add\n      mload(0x40)\n      swap1\n      dup2\n      add\n      0x40\n      mstore\n      dup1\n      swap3\n      swap2\n      swap1\n      dup2\n      dup2\n      mstore\n      0x20\n      add\n      dup3\n      dup1\n      sload\n      tag_50\n      swap1\n      tag_44\n      jump\t// in\n    tag_50:\n      dup1\n      iszero\n      tag_51\n      jumpi\n      dup1\n      0x1f\n      lt\n      tag_52\n      jumpi\n      0x0100\n      dup1\n      dup4\n      sload\n      div\n      mul\n      dup4\n      mstore\n      swap2\n      0x20\n      add\n      swap2\n      jump(tag_51)\n    tag_52:\n      dup3\n      add\n      swap2\n      swap1\n      0x00\n      mstore\n      keccak256(0x00, 0x20)\n      swap1\n    tag_53:\n      dup2\n      sload\n      dup2\n      mstore\n      swap1\n      0x01\n      add\n      swap1\n      0x20\n      add\n      dup1\n      dup4\n      gt\n      tag_53\n      jumpi\n      dup3\n      swap1\n      sub\n      0x1f\n      and\n      dup3\n      add\n      swap2\n    tag_51:\n      pop\n      pop\n      pop\n      pop\n      pop\n      dup2\n      jump\t// out\n        /* \"tron/tokeniz.sol\":235:255  address public owner */\n    tag_20:\n      0x01\n      0x00\n      swap1\n      sload\n      swap1\n      0x0100\n      exp\n      swap1\n      div\n      0xffffffffffffffffffffffffffffffffffffffff\n      and\n      dup2\n      jump\t// out\n        /* \"tron/tokeniz.sol\":262:280  bool public packed */\n    tag_24:\n      0x01\n      0x14\n      swap1\n      sload\n      swap1\n      0x0100\n      exp\n      swap1\n      div\n      0xff\n      and\n      dup2\n      jump\t// out\n        /* \"tron/tokeniz.sol\":1085:1631  function unPack() public{\r... */\n    tag_28:\n        /* \"tron/tokeniz.sol\":1155:1160  owner */\n      0x01\n      0x00\n      swap1\n      sload\n      swap1\n      0x0100\n      exp\n      swap1\n      div\n      0xffffffffffffffffffffffffffffffffffffffff\n      and\n        /* \"tron/tokeniz.sol\":1142:1160  msg.sender== owner */\n      0xffffffffffffffffffffffffffffffffffffffff\n      and\n        /* \"tron/tokeniz.sol\":1142:1152  msg.sender */\n      caller\n        /* \"tron/tokeniz.sol\":1142:1160  msg.sender== owner */\n      0xffffffffffffffffffffffffffffffffffffffff\n      and\n      eq\n        /* \"tron/tokeniz.sol\":1120:1222  require(\r... */\n      tag_55\n      jumpi\n      mload(0x40)\n      0x08c379a000000000000000000000000000000000000000000000000000000000\n      dup2\n      mstore\n      0x04\n      add\n      tag_56\n      swap1\n      tag_57\n      jump\t// in\n    tag_56:\n      mload(0x40)\n      dup1\n      swap2\n      sub\n      swap1\n      revert\n    tag_55:\n        /* \"tron/tokeniz.sol\":1241:1247  packed */\n      0x01\n      0x14\n      swap1\n      sload\n      swap1\n      0x0100\n      exp\n      swap1\n      div\n      0xff\n      and\n        /* \"tron/tokeniz.sol\":1233:1276  require(packed, \"Already unpacked Tokeniz\") */\n      tag_58\n      jumpi\n      mload(0x40)\n      0x08c379a000000000000000000000000000000000000000000000000000000000\n      dup2\n      mstore\n      0x04\n      add\n      tag_59\n      swap1\n      tag_60\n      jump\t// in\n    tag_59:\n      mload(0x40)\n      dup1\n      swap2\n      sub\n      swap1\n      revert\n    tag_58:\n        /* \"tron/tokeniz.sol\":1295:1300  owner */\n      0x01\n      0x00\n      swap1\n      sload\n      swap1\n      0x0100\n      exp\n      swap1\n      div\n      0xffffffffffffffffffffffffffffffffffffffff\n      and\n        /* \"tron/tokeniz.sol\":1287:1310  payable(owner).transfer */\n      0xffffffffffffffffffffffffffffffffffffffff\n      and\n        /* \"tron/tokeniz.sol\":1287:1333  payable(owner).transfer(address(this).balance) */\n      0x08fc\n        /* \"tron/tokeniz.sol\":1311:1332  address(this).balance */\n      selfbalance\n        /* \"tron/tokeniz.sol\":1287:1333  payable(owner).transfer(address(this).balance) */\n      swap1\n      dup2\n      iszero\n      mul\n      swap1\n      mload(0x40)\n      0x00\n      mload(0x40)\n      dup1\n      dup4\n      sub\n      dup2\n      dup6\n      dup9\n      dup9\n      call\n      swap4\n      pop\n      pop\n      pop\n      pop\n      iszero\n      dup1\n      iszero\n      tag_62\n      jumpi\n      returndatasize\n      0x00\n      dup1\n      returndatacopy\n      revert(0x00, returndatasize)\n    tag_62:\n      pop\n        /* \"tron/tokeniz.sol\":1349:1355  uint i */\n      0x00\n        /* \"tron/tokeniz.sol\":1344:1600  for (uint i = 0; i < tokensAddresses.length; i++) {\r... */\n    tag_63:\n        /* \"tron/tokeniz.sol\":1365:1380  tokensAddresses */\n      0x05\n        /* \"tron/tokeniz.sol\":1365:1387  tokensAddresses.length */\n      dup1\n      sload\n      swap1\n      pop\n        /* \"tron/tokeniz.sol\":1361:1362  i */\n      dup2\n        /* \"tron/tokeniz.sol\":1361:1387  i < tokensAddresses.length */\n      lt\n        /* \"tron/tokeniz.sol\":1344:1600  for (uint i = 0; i < tokensAddresses.length; i++) {\r... */\n      iszero\n      tag_64\n      jumpi\n        /* \"tron/tokeniz.sol\":1409:1432  address _tokenContracts */\n      0x00\n        /* \"tron/tokeniz.sol\":1434:1449  tokensAddresses */\n      0x05\n        /* \"tron/tokeniz.sol\":1450:1451  i */\n      dup3\n        /* \"tron/tokeniz.sol\":1434:1452  tokensAddresses[i] */\n      dup2\n      sload\n      dup2\n      lt\n      tag_66\n      jumpi\n      tag_67\n      tag_68\n      jump\t// in\n    tag_67:\n    tag_66:\n      swap1\n      0x00\n      mstore\n      keccak256(0x00, 0x20)\n      add\n      0x00\n      swap1\n      sload\n      swap1\n      0x0100\n      exp\n      swap1\n      div\n      0xffffffffffffffffffffffffffffffffffffffff\n      and\n        /* \"tron/tokeniz.sol\":1409:1452  address _tokenContracts= tokensAddresses[i] */\n      swap1\n      pop\n        /* \"tron/tokeniz.sol\":1467:1487  IERC20 tokenContract */\n      0x00\n        /* \"tron/tokeniz.sol\":1497:1512  _tokenContracts */\n      dup2\n        /* \"tron/tokeniz.sol\":1467:1513  IERC20 tokenContract = IERC20(_tokenContracts) */\n      swap1\n      pop\n        /* \"tron/tokeniz.sol\":1528:1541  tokenContract */\n      dup1\n        /* \"tron/tokeniz.sol\":1528:1550  tokenContract.transfer */\n      0xffffffffffffffffffffffffffffffffffffffff\n      and\n      0xa9059cbb\n        /* \"tron/tokeniz.sol\":1551:1556  owner */\n      0x01\n      0x00\n      swap1\n      sload\n      swap1\n      0x0100\n      exp\n      swap1\n      div\n      0xffffffffffffffffffffffffffffffffffffffff\n      and\n        /* \"tron/tokeniz.sol\":1558:1570  tokenBalance */\n      0x04\n        /* \"tron/tokeniz.sol\":1558:1587  tokenBalance[_tokenContracts] */\n      0x00\n        /* \"tron/tokeniz.sol\":1571:1586  _tokenContracts */\n      dup7\n        /* \"tron/tokeniz.sol\":1558:1587  tokenBalance[_tokenContracts] */\n      0xffffffffffffffffffffffffffffffffffffffff\n      and\n      0xffffffffffffffffffffffffffffffffffffffff\n      and\n      dup2\n      mstore\n      0x20\n      add\n      swap1\n      dup2\n      mstore\n      0x20\n      add\n      0x00\n      keccak256\n      sload\n        /* \"tron/tokeniz.sol\":1528:1588  tokenContract.transfer(owner, tokenBalance[_tokenContracts]) */\n      mload(0x40)\n      dup4\n      0xffffffff\n      and\n      0xe0\n      shl\n      dup2\n      mstore\n      0x04\n      add\n      tag_70\n      swap3\n      swap2\n      swap1\n      tag_71\n      jump\t// in\n    tag_70:\n      0x20\n      mload(0x40)\n      dup1\n      dup4\n      sub\n      dup2\n      0x00\n      dup8\n      dup1\n      extcodesize\n      iszero\n      dup1\n      iszero\n      tag_72\n      jumpi\n      0x00\n      dup1\n      revert\n    tag_72:\n      pop\n      gas\n      call\n      iszero\n      dup1\n      iszero\n      tag_74\n      jumpi\n      returndatasize\n      0x00\n      dup1\n      returndatacopy\n      revert(0x00, returndatasize)\n    tag_74:\n      pop\n      pop\n      pop\n      pop\n      mload(0x40)\n      returndatasize\n      not(0x1f)\n      0x1f\n      dup3\n      add\n      and\n      dup3\n      add\n      dup1\n      0x40\n      mstore\n      pop\n      dup2\n      add\n      swap1\n      tag_75\n      swap2\n      swap1\n      tag_76\n      jump\t// in\n    tag_75:\n      pop\n        /* \"tron/tokeniz.sol\":1394:1600  {\r... */\n      pop\n      pop\n        /* \"tron/tokeniz.sol\":1389:1392  i++ */\n      dup1\n      dup1\n      tag_77\n      swap1\n      tag_78\n      jump\t// in\n    tag_77:\n      swap2\n      pop\n      pop\n        /* \"tron/tokeniz.sol\":1344:1600  for (uint i = 0; i < tokensAddresses.length; i++) {\r... */\n      jump(tag_63)\n    tag_64:\n      pop\n        /* \"tron/tokeniz.sol\":1618:1623  false */\n      0x00\n        /* \"tron/tokeniz.sol\":1610:1616  packed */\n      0x01\n      0x14\n        /* \"tron/tokeniz.sol\":1610:1623  packed= false */\n      0x0100\n      exp\n      dup2\n      sload\n      dup2\n      0xff\n      mul\n      not\n      and\n      swap1\n      dup4\n      iszero\n      iszero\n      mul\n      or\n      swap1\n      sstore\n      pop\n        /* \"tron/tokeniz.sol\":1085:1631  function unPack() public{\r... */\n      jump\t// out\n        /* \"tron/tokeniz.sol\":996:1073  function isPacked() public view returns(bool){\r... */\n    tag_30:\n        /* \"tron/tokeniz.sol\":1036:1040  bool */\n      0x00\n        /* \"tron/tokeniz.sol\":1059:1065  packed */\n      0x01\n      0x14\n      swap1\n      sload\n      swap1\n      0x0100\n      exp\n      swap1\n      div\n      0xff\n      and\n        /* \"tron/tokeniz.sol\":1052:1065  return packed */\n      swap1\n      pop\n        /* \"tron/tokeniz.sol\":996:1073  function isPacked() public view returns(bool){\r... */\n      swap1\n      jump\t// out\n        /* \"tron/tokeniz.sol\":341:385  mapping(address => uint) public tokenBalance */\n    tag_35:\n      mstore(0x20, 0x04)\n      dup1\n      0x00\n      mstore\n      keccak256(0x00, 0x40)\n      0x00\n      swap2\n      pop\n      swap1\n      pop\n      sload\n      dup2\n      jump\t// out\n        /* \"tron/tokeniz.sol\":392:424  address[] public tokensAddresses */\n    tag_41:\n      0x05\n      dup2\n      dup2\n      sload\n      dup2\n      lt\n      tag_80\n      jumpi\n      0x00\n      dup1\n      revert\n    tag_80:\n      swap1\n      0x00\n      mstore\n      keccak256(0x00, 0x20)\n      add\n      0x00\n      swap2\n      pop\n      sload\n      swap1\n      0x0100\n      exp\n      swap1\n      div\n      0xffffffffffffffffffffffffffffffffffffffff\n      and\n      dup2\n      jump\t// out\n        /* \"#utility.yul\":7:146   */\n    tag_83:\n        /* \"#utility.yul\":53:58   */\n      0x00\n        /* \"#utility.yul\":91:97   */\n      dup2\n        /* \"#utility.yul\":78:98   */\n      calldataload\n        /* \"#utility.yul\":69:98   */\n      swap1\n      pop\n        /* \"#utility.yul\":107:140   */\n      tag_85\n        /* \"#utility.yul\":134:139   */\n      dup2\n        /* \"#utility.yul\":107:140   */\n      tag_86\n      jump\t// in\n    tag_85:\n        /* \"#utility.yul\":7:146   */\n      swap3\n      swap2\n      pop\n      pop\n      jump\t// out\n        /* \"#utility.yul\":152:289   */\n    tag_87:\n        /* \"#utility.yul\":206:211   */\n      0x00\n        /* \"#utility.yul\":237:243   */\n      dup2\n        /* \"#utility.yul\":231:244   */\n      mload\n        /* \"#utility.yul\":222:244   */\n      swap1\n      pop\n        /* \"#utility.yul\":253:283   */\n      tag_89\n        /* \"#utility.yul\":277:282   */\n      dup2\n        /* \"#utility.yul\":253:283   */\n      tag_90\n      jump\t// in\n    tag_89:\n        /* \"#utility.yul\":152:289   */\n      swap3\n      swap2\n      pop\n      pop\n      jump\t// out\n        /* \"#utility.yul\":295:434   */\n    tag_91:\n        /* \"#utility.yul\":341:346   */\n      0x00\n        /* \"#utility.yul\":379:385   */\n      dup2\n        /* \"#utility.yul\":366:386   */\n      calldataload\n        /* \"#utility.yul\":357:386   */\n      swap1\n      pop\n        /* \"#utility.yul\":395:428   */\n      tag_93\n        /* \"#utility.yul\":422:427   */\n      dup2\n        /* \"#utility.yul\":395:428   */\n      tag_94\n      jump\t// in\n    tag_93:\n        /* \"#utility.yul\":295:434   */\n      swap3\n      swap2\n      pop\n      pop\n      jump\t// out\n        /* \"#utility.yul\":440:769   */\n    tag_34:\n        /* \"#utility.yul\":499:505   */\n      0x00\n        /* \"#utility.yul\":548:550   */\n      0x20\n        /* \"#utility.yul\":536:545   */\n      dup3\n        /* \"#utility.yul\":527:534   */\n      dup5\n        /* \"#utility.yul\":523:546   */\n      sub\n        /* \"#utility.yul\":519:551   */\n      slt\n        /* \"#utility.yul\":516:635   */\n      iszero\n      tag_96\n      jumpi\n        /* \"#utility.yul\":554:633   */\n      tag_97\n      tag_98\n      jump\t// in\n    tag_97:\n        /* \"#utility.yul\":516:635   */\n    tag_96:\n        /* \"#utility.yul\":674:675   */\n      0x00\n        /* \"#utility.yul\":699:752   */\n      tag_99\n        /* \"#utility.yul\":744:751   */\n      dup5\n        /* \"#utility.yul\":735:741   */\n      dup3\n        /* \"#utility.yul\":724:733   */\n      dup6\n        /* \"#utility.yul\":720:742   */\n      add\n        /* \"#utility.yul\":699:752   */\n      tag_83\n      jump\t// in\n    tag_99:\n        /* \"#utility.yul\":689:752   */\n      swap2\n      pop\n        /* \"#utility.yul\":645:762   */\n      pop\n        /* \"#utility.yul\":440:769   */\n      swap3\n      swap2\n      pop\n      pop\n      jump\t// out\n        /* \"#utility.yul\":775:1120   */\n    tag_76:\n        /* \"#utility.yul\":842:848   */\n      0x00\n        /* \"#utility.yul\":891:893   */\n      0x20\n        /* \"#utility.yul\":879:888   */\n      dup3\n        /* \"#utility.yul\":870:877   */\n      dup5\n        /* \"#utility.yul\":866:889   */\n      sub\n        /* \"#utility.yul\":862:894   */\n      slt\n        /* \"#utility.yul\":859:978   */\n      iszero\n      tag_101\n      jumpi\n        /* \"#utility.yul\":897:976   */\n      tag_102\n      tag_98\n      jump\t// in\n    tag_102:\n        /* \"#utility.yul\":859:978   */\n    tag_101:\n        /* \"#utility.yul\":1017:1018   */\n      0x00\n        /* \"#utility.yul\":1042:1103   */\n      tag_103\n        /* \"#utility.yul\":1095:1102   */\n      dup5\n        /* \"#utility.yul\":1086:1092   */\n      dup3\n        /* \"#utility.yul\":1075:1084   */\n      dup6\n        /* \"#utility.yul\":1071:1093   */\n      add\n        /* \"#utility.yul\":1042:1103   */\n      tag_87\n      jump\t// in\n    tag_103:\n        /* \"#utility.yul\":1032:1103   */\n      swap2\n      pop\n        /* \"#utility.yul\":988:1113   */\n      pop\n        /* \"#utility.yul\":775:1120   */\n      swap3\n      swap2\n      pop\n      pop\n      jump\t// out\n        /* \"#utility.yul\":1126:1455   */\n    tag_40:\n        /* \"#utility.yul\":1185:1191   */\n      0x00\n        /* \"#utility.yul\":1234:1236   */\n      0x20\n        /* \"#utility.yul\":1222:1231   */\n      dup3\n        /* \"#utility.yul\":1213:1220   */\n      dup5\n        /* \"#utility.yul\":1209:1232   */\n      sub\n        /* \"#utility.yul\":1205:1237   */\n      slt\n        /* \"#utility.yul\":1202:1321   */\n      iszero\n      tag_105\n      jumpi\n        /* \"#utility.yul\":1240:1319   */\n      tag_106\n      tag_98\n      jump\t// in\n    tag_106:\n        /* \"#utility.yul\":1202:1321   */\n    tag_105:\n        /* \"#utility.yul\":1360:1361   */\n      0x00\n        /* \"#utility.yul\":1385:1438   */\n      tag_107\n        /* \"#utility.yul\":1430:1437   */\n      dup5\n        /* \"#utility.yul\":1421:1427   */\n      dup3\n        /* \"#utility.yul\":1410:1419   */\n      dup6\n        /* \"#utility.yul\":1406:1428   */\n      add\n        /* \"#utility.yul\":1385:1438   */\n      tag_91\n      jump\t// in\n    tag_107:\n        /* \"#utility.yul\":1375:1438   */\n      swap2\n      pop\n        /* \"#utility.yul\":1331:1448   */\n      pop\n        /* \"#utility.yul\":1126:1455   */\n      swap3\n      swap2\n      pop\n      pop\n      jump\t// out\n        /* \"#utility.yul\":1461:1579   */\n    tag_108:\n        /* \"#utility.yul\":1548:1572   */\n      tag_110\n        /* \"#utility.yul\":1566:1571   */\n      dup2\n        /* \"#utility.yul\":1548:1572   */\n      tag_111\n      jump\t// in\n    tag_110:\n        /* \"#utility.yul\":1543:1546   */\n      dup3\n        /* \"#utility.yul\":1536:1573   */\n      mstore\n        /* \"#utility.yul\":1461:1579   */\n      pop\n      pop\n      jump\t// out\n        /* \"#utility.yul\":1585:1694   */\n    tag_112:\n        /* \"#utility.yul\":1666:1687   */\n      tag_114\n        /* \"#utility.yul\":1681:1686   */\n      dup2\n        /* \"#utility.yul\":1666:1687   */\n      tag_115\n      jump\t// in\n    tag_114:\n        /* \"#utility.yul\":1661:1664   */\n      dup3\n        /* \"#utility.yul\":1654:1688   */\n      mstore\n        /* \"#utility.yul\":1585:1694   */\n      pop\n      pop\n      jump\t// out\n        /* \"#utility.yul\":1700:2064   */\n    tag_116:\n        /* \"#utility.yul\":1788:1791   */\n      0x00\n        /* \"#utility.yul\":1816:1855   */\n      tag_118\n        /* \"#utility.yul\":1849:1854   */\n      dup3\n        /* \"#utility.yul\":1816:1855   */\n      tag_119\n      jump\t// in\n    tag_118:\n        /* \"#utility.yul\":1871:1942   */\n      tag_120\n        /* \"#utility.yul\":1935:1941   */\n      dup2\n        /* \"#utility.yul\":1930:1933   */\n      dup6\n        /* \"#utility.yul\":1871:1942   */\n      tag_121\n      jump\t// in\n    tag_120:\n        /* \"#utility.yul\":1864:1942   */\n      swap4\n      pop\n        /* \"#utility.yul\":1951:2003   */\n      tag_122\n        /* \"#utility.yul\":1996:2002   */\n      dup2\n        /* \"#utility.yul\":1991:1994   */\n      dup6\n        /* \"#utility.yul\":1984:1988   */\n      0x20\n        /* \"#utility.yul\":1977:1982   */\n      dup7\n        /* \"#utility.yul\":1973:1989   */\n      add\n        /* \"#utility.yul\":1951:2003   */\n      tag_123\n      jump\t// in\n    tag_122:\n        /* \"#utility.yul\":2028:2057   */\n      tag_124\n        /* \"#utility.yul\":2050:2056   */\n      dup2\n        /* \"#utility.yul\":2028:2057   */\n      tag_125\n      jump\t// in\n    tag_124:\n        /* \"#utility.yul\":2023:2026   */\n      dup5\n        /* \"#utility.yul\":2019:2058   */\n      add\n        /* \"#utility.yul\":2012:2058   */\n      swap2\n      pop\n        /* \"#utility.yul\":1792:2064   */\n      pop\n        /* \"#utility.yul\":1700:2064   */\n      swap3\n      swap2\n      pop\n      pop\n      jump\t// out\n        /* \"#utility.yul\":2070:2436   */\n    tag_126:\n        /* \"#utility.yul\":2212:2215   */\n      0x00\n        /* \"#utility.yul\":2233:2300   */\n      tag_128\n        /* \"#utility.yul\":2297:2299   */\n      0x1e\n        /* \"#utility.yul\":2292:2295   */\n      dup4\n        /* \"#utility.yul\":2233:2300   */\n      tag_121\n      jump\t// in\n    tag_128:\n        /* \"#utility.yul\":2226:2300   */\n      swap2\n      pop\n        /* \"#utility.yul\":2309:2402   */\n      tag_129\n        /* \"#utility.yul\":2398:2401   */\n      dup3\n        /* \"#utility.yul\":2309:2402   */\n      tag_130\n      jump\t// in\n    tag_129:\n        /* \"#utility.yul\":2427:2429   */\n      0x20\n        /* \"#utility.yul\":2422:2425   */\n      dup3\n        /* \"#utility.yul\":2418:2430   */\n      add\n        /* \"#utility.yul\":2411:2430   */\n      swap1\n      pop\n        /* \"#utility.yul\":2070:2436   */\n      swap2\n      swap1\n      pop\n      jump\t// out\n        /* \"#utility.yul\":2442:2808   */\n    tag_131:\n        /* \"#utility.yul\":2584:2587   */\n      0x00\n        /* \"#utility.yul\":2605:2672   */\n      tag_133\n        /* \"#utility.yul\":2669:2671   */\n      0x18\n        /* \"#utility.yul\":2664:2667   */\n      dup4\n        /* \"#utility.yul\":2605:2672   */\n      tag_121\n      jump\t// in\n    tag_133:\n        /* \"#utility.yul\":2598:2672   */\n      swap2\n      pop\n        /* \"#utility.yul\":2681:2774   */\n      tag_134\n        /* \"#utility.yul\":2770:2773   */\n      dup3\n        /* \"#utility.yul\":2681:2774   */\n      tag_135\n      jump\t// in\n    tag_134:\n        /* \"#utility.yul\":2799:2801   */\n      0x20\n        /* \"#utility.yul\":2794:2797   */\n      dup3\n        /* \"#utility.yul\":2790:2802   */\n      add\n        /* \"#utility.yul\":2783:2802   */\n      swap1\n      pop\n        /* \"#utility.yul\":2442:2808   */\n      swap2\n      swap1\n      pop\n      jump\t// out\n        /* \"#utility.yul\":2814:2932   */\n    tag_136:\n        /* \"#utility.yul\":2901:2925   */\n      tag_138\n        /* \"#utility.yul\":2919:2924   */\n      dup2\n        /* \"#utility.yul\":2901:2925   */\n      tag_139\n      jump\t// in\n    tag_138:\n        /* \"#utility.yul\":2896:2899   */\n      dup3\n        /* \"#utility.yul\":2889:2926   */\n      mstore\n        /* \"#utility.yul\":2814:2932   */\n      pop\n      pop\n      jump\t// out\n        /* \"#utility.yul\":2938:3160   */\n    tag_22:\n        /* \"#utility.yul\":3031:3035   */\n      0x00\n        /* \"#utility.yul\":3069:3071   */\n      0x20\n        /* \"#utility.yul\":3058:3067   */\n      dup3\n        /* \"#utility.yul\":3054:3072   */\n      add\n        /* \"#utility.yul\":3046:3072   */\n      swap1\n      pop\n        /* \"#utility.yul\":3082:3153   */\n      tag_141\n        /* \"#utility.yul\":3150:3151   */\n      0x00\n        /* \"#utility.yul\":3139:3148   */\n      dup4\n        /* \"#utility.yul\":3135:3152   */\n      add\n        /* \"#utility.yul\":3126:3132   */\n      dup5\n        /* \"#utility.yul\":3082:3153   */\n      tag_108\n      jump\t// in\n    tag_141:\n        /* \"#utility.yul\":2938:3160   */\n      swap3\n      swap2\n      pop\n      pop\n      jump\t// out\n        /* \"#utility.yul\":3166:3498   */\n    tag_71:\n        /* \"#utility.yul\":3287:3291   */\n      0x00\n        /* \"#utility.yul\":3325:3327   */\n      0x40\n        /* \"#utility.yul\":3314:3323   */\n      dup3\n        /* \"#utility.yul\":3310:3328   */\n      add\n        /* \"#utility.yul\":3302:3328   */\n      swap1\n      pop\n        /* \"#utility.yul\":3338:3409   */\n      tag_143\n        /* \"#utility.yul\":3406:3407   */\n      0x00\n        /* \"#utility.yul\":3395:3404   */\n      dup4\n        /* \"#utility.yul\":3391:3408   */\n      add\n        /* \"#utility.yul\":3382:3388   */\n      dup6\n        /* \"#utility.yul\":3338:3409   */\n      tag_108\n      jump\t// in\n    tag_143:\n        /* \"#utility.yul\":3419:3491   */\n      tag_144\n        /* \"#utility.yul\":3487:3489   */\n      0x20\n        /* \"#utility.yul\":3476:3485   */\n      dup4\n        /* \"#utility.yul\":3472:3490   */\n      add\n        /* \"#utility.yul\":3463:3469   */\n      dup5\n        /* \"#utility.yul\":3419:3491   */\n      tag_136\n      jump\t// in\n    tag_144:\n        /* \"#utility.yul\":3166:3498   */\n      swap4\n      swap3\n      pop\n      pop\n      pop\n      jump\t// out\n        /* \"#utility.yul\":3504:3714   */\n    tag_26:\n        /* \"#utility.yul\":3591:3595   */\n      0x00\n        /* \"#utility.yul\":3629:3631   */\n      0x20\n        /* \"#utility.yul\":3618:3627   */\n      dup3\n        /* \"#utility.yul\":3614:3632   */\n      add\n        /* \"#utility.yul\":3606:3632   */\n      swap1\n      pop\n        /* \"#utility.yul\":3642:3707   */\n      tag_146\n        /* \"#utility.yul\":3704:3705   */\n      0x00\n        /* \"#utility.yul\":3693:3702   */\n      dup4\n        /* \"#utility.yul\":3689:3706   */\n      add\n        /* \"#utility.yul\":3680:3686   */\n      dup5\n        /* \"#utility.yul\":3642:3707   */\n      tag_112\n      jump\t// in\n    tag_146:\n        /* \"#utility.yul\":3504:3714   */\n      swap3\n      swap2\n      pop\n      pop\n      jump\t// out\n        /* \"#utility.yul\":3720:4033   */\n    tag_15:\n        /* \"#utility.yul\":3833:3837   */\n      0x00\n        /* \"#utility.yul\":3871:3873   */\n      0x20\n        /* \"#utility.yul\":3860:3869   */\n      dup3\n        /* \"#utility.yul\":3856:3874   */\n      add\n        /* \"#utility.yul\":3848:3874   */\n      swap1\n      pop\n        /* \"#utility.yul\":3920:3929   */\n      dup2\n        /* \"#utility.yul\":3914:3918   */\n      dup2\n        /* \"#utility.yul\":3910:3930   */\n      sub\n        /* \"#utility.yul\":3906:3907   */\n      0x00\n        /* \"#utility.yul\":3895:3904   */\n      dup4\n        /* \"#utility.yul\":3891:3908   */\n      add\n        /* \"#utility.yul\":3884:3931   */\n      mstore\n        /* \"#utility.yul\":3948:4026   */\n      tag_148\n        /* \"#utility.yul\":4021:4025   */\n      dup2\n        /* \"#utility.yul\":4012:4018   */\n      dup5\n        /* \"#utility.yul\":3948:4026   */\n      tag_116\n      jump\t// in\n    tag_148:\n        /* \"#utility.yul\":3940:4026   */\n      swap1\n      pop\n        /* \"#utility.yul\":3720:4033   */\n      swap3\n      swap2\n      pop\n      pop\n      jump\t// out\n        /* \"#utility.yul\":4039:4458   */\n    tag_57:\n        /* \"#utility.yul\":4205:4209   */\n      0x00\n        /* \"#utility.yul\":4243:4245   */\n      0x20\n        /* \"#utility.yul\":4232:4241   */\n      dup3\n        /* \"#utility.yul\":4228:4246   */\n      add\n        /* \"#utility.yul\":4220:4246   */\n      swap1\n      pop\n        /* \"#utility.yul\":4292:4301   */\n      dup2\n        /* \"#utility.yul\":4286:4290   */\n      dup2\n        /* \"#utility.yul\":4282:4302   */\n      sub\n        /* \"#utility.yul\":4278:4279   */\n      0x00\n        /* \"#utility.yul\":4267:4276   */\n      dup4\n        /* \"#utility.yul\":4263:4280   */\n      add\n        /* \"#utility.yul\":4256:4303   */\n      mstore\n        /* \"#utility.yul\":4320:4451   */\n      tag_150\n        /* \"#utility.yul\":4446:4450   */\n      dup2\n        /* \"#utility.yul\":4320:4451   */\n      tag_126\n      jump\t// in\n    tag_150:\n        /* \"#utility.yul\":4312:4451   */\n      swap1\n      pop\n        /* \"#utility.yul\":4039:4458   */\n      swap2\n      swap1\n      pop\n      jump\t// out\n        /* \"#utility.yul\":4464:4883   */\n    tag_60:\n        /* \"#utility.yul\":4630:4634   */\n      0x00\n        /* \"#utility.yul\":4668:4670   */\n      0x20\n        /* \"#utility.yul\":4657:4666   */\n      dup3\n        /* \"#utility.yul\":4653:4671   */\n      add\n        /* \"#utility.yul\":4645:4671   */\n      swap1\n      pop\n        /* \"#utility.yul\":4717:4726   */\n      dup2\n        /* \"#utility.yul\":4711:4715   */\n      dup2\n        /* \"#utility.yul\":4707:4727   */\n      sub\n        /* \"#utility.yul\":4703:4704   */\n      0x00\n        /* \"#utility.yul\":4692:4701   */\n      dup4\n        /* \"#utility.yul\":4688:4705   */\n      add\n        /* \"#utility.yul\":4681:4728   */\n      mstore\n        /* \"#utility.yul\":4745:4876   */\n      tag_152\n        /* \"#utility.yul\":4871:4875   */\n      dup2\n        /* \"#utility.yul\":4745:4876   */\n      tag_131\n      jump\t// in\n    tag_152:\n        /* \"#utility.yul\":4737:4876   */\n      swap1\n      pop\n        /* \"#utility.yul\":4464:4883   */\n      swap2\n      swap1\n      pop\n      jump\t// out\n        /* \"#utility.yul\":4889:5111   */\n    tag_37:\n        /* \"#utility.yul\":4982:4986   */\n      0x00\n        /* \"#utility.yul\":5020:5022   */\n      0x20\n        /* \"#utility.yul\":5009:5018   */\n      dup3\n        /* \"#utility.yul\":5005:5023   */\n      add\n        /* \"#utility.yul\":4997:5023   */\n      swap1\n      pop\n        /* \"#utility.yul\":5033:5104   */\n      tag_154\n        /* \"#utility.yul\":5101:5102   */\n      0x00\n        /* \"#utility.yul\":5090:5099   */\n      dup4\n        /* \"#utility.yul\":5086:5103   */\n      add\n        /* \"#utility.yul\":5077:5083   */\n      dup5\n        /* \"#utility.yul\":5033:5104   */\n      tag_136\n      jump\t// in\n    tag_154:\n        /* \"#utility.yul\":4889:5111   */\n      swap3\n      swap2\n      pop\n      pop\n      jump\t// out\n        /* \"#utility.yul\":5198:5297   */\n    tag_119:\n        /* \"#utility.yul\":5250:5256   */\n      0x00\n        /* \"#utility.yul\":5284:5289   */\n      dup2\n        /* \"#utility.yul\":5278:5290   */\n      mload\n        /* \"#utility.yul\":5268:5290   */\n      swap1\n      pop\n        /* \"#utility.yul\":5198:5297   */\n      swap2\n      swap1\n      pop\n      jump\t// out\n        /* \"#utility.yul\":5303:5472   */\n    tag_121:\n        /* \"#utility.yul\":5387:5398   */\n      0x00\n        /* \"#utility.yul\":5421:5427   */\n      dup3\n        /* \"#utility.yul\":5416:5419   */\n      dup3\n        /* \"#utility.yul\":5409:5428   */\n      mstore\n        /* \"#utility.yul\":5461:5465   */\n      0x20\n        /* \"#utility.yul\":5456:5459   */\n      dup3\n        /* \"#utility.yul\":5452:5466   */\n      add\n        /* \"#utility.yul\":5437:5466   */\n      swap1\n      pop\n        /* \"#utility.yul\":5303:5472   */\n      swap3\n      swap2\n      pop\n      pop\n      jump\t// out\n        /* \"#utility.yul\":5478:5574   */\n    tag_111:\n        /* \"#utility.yul\":5515:5522   */\n      0x00\n        /* \"#utility.yul\":5544:5568   */\n      tag_160\n        /* \"#utility.yul\":5562:5567   */\n      dup3\n        /* \"#utility.yul\":5544:5568   */\n      tag_161\n      jump\t// in\n    tag_160:\n        /* \"#utility.yul\":5533:5568   */\n      swap1\n      pop\n        /* \"#utility.yul\":5478:5574   */\n      swap2\n      swap1\n      pop\n      jump\t// out\n        /* \"#utility.yul\":5580:5670   */\n    tag_115:\n        /* \"#utility.yul\":5614:5621   */\n      0x00\n        /* \"#utility.yul\":5657:5662   */\n      dup2\n        /* \"#utility.yul\":5650:5663   */\n      iszero\n        /* \"#utility.yul\":5643:5664   */\n      iszero\n        /* \"#utility.yul\":5632:5664   */\n      swap1\n      pop\n        /* \"#utility.yul\":5580:5670   */\n      swap2\n      swap1\n      pop\n      jump\t// out\n        /* \"#utility.yul\":5676:5802   */\n    tag_161:\n        /* \"#utility.yul\":5713:5720   */\n      0x00\n        /* \"#utility.yul\":5753:5795   */\n      0xffffffffffffffffffffffffffffffffffffffff\n        /* \"#utility.yul\":5746:5751   */\n      dup3\n        /* \"#utility.yul\":5742:5796   */\n      and\n        /* \"#utility.yul\":5731:5796   */\n      swap1\n      pop\n        /* \"#utility.yul\":5676:5802   */\n      swap2\n      swap1\n      pop\n      jump\t// out\n        /* \"#utility.yul\":5808:5885   */\n    tag_139:\n        /* \"#utility.yul\":5845:5852   */\n      0x00\n        /* \"#utility.yul\":5874:5879   */\n      dup2\n        /* \"#utility.yul\":5863:5879   */\n      swap1\n      pop\n        /* \"#utility.yul\":5808:5885   */\n      swap2\n      swap1\n      pop\n      jump\t// out\n        /* \"#utility.yul\":5891:6198   */\n    tag_123:\n        /* \"#utility.yul\":5959:5960   */\n      0x00\n        /* \"#utility.yul\":5969:6082   */\n    tag_166:\n        /* \"#utility.yul\":5983:5989   */\n      dup4\n        /* \"#utility.yul\":5980:5981   */\n      dup2\n        /* \"#utility.yul\":5977:5990   */\n      lt\n        /* \"#utility.yul\":5969:6082   */\n      iszero\n      tag_168\n      jumpi\n        /* \"#utility.yul\":6068:6069   */\n      dup1\n        /* \"#utility.yul\":6063:6066   */\n      dup3\n        /* \"#utility.yul\":6059:6070   */\n      add\n        /* \"#utility.yul\":6053:6071   */\n      mload\n        /* \"#utility.yul\":6049:6050   */\n      dup2\n        /* \"#utility.yul\":6044:6047   */\n      dup5\n        /* \"#utility.yul\":6040:6051   */\n      add\n        /* \"#utility.yul\":6033:6072   */\n      mstore\n        /* \"#utility.yul\":6005:6007   */\n      0x20\n        /* \"#utility.yul\":6002:6003   */\n      dup2\n        /* \"#utility.yul\":5998:6008   */\n      add\n        /* \"#utility.yul\":5993:6008   */\n      swap1\n      pop\n        /* \"#utility.yul\":5969:6082   */\n      jump(tag_166)\n    tag_168:\n        /* \"#utility.yul\":6100:6106   */\n      dup4\n        /* \"#utility.yul\":6097:6098   */\n      dup2\n        /* \"#utility.yul\":6094:6107   */\n      gt\n        /* \"#utility.yul\":6091:6192   */\n      iszero\n      tag_169\n      jumpi\n        /* \"#utility.yul\":6180:6181   */\n      0x00\n        /* \"#utility.yul\":6171:6177   */\n      dup5\n        /* \"#utility.yul\":6166:6169   */\n      dup5\n        /* \"#utility.yul\":6162:6178   */\n      add\n        /* \"#utility.yul\":6155:6182   */\n      mstore\n        /* \"#utility.yul\":6091:6192   */\n    tag_169:\n        /* \"#utility.yul\":5940:6198   */\n      pop\n        /* \"#utility.yul\":5891:6198   */\n      pop\n      pop\n      pop\n      jump\t// out\n        /* \"#utility.yul\":6204:6524   */\n    tag_44:\n        /* \"#utility.yul\":6248:6254   */\n      0x00\n        /* \"#utility.yul\":6285:6286   */\n      0x02\n        /* \"#utility.yul\":6279:6283   */\n      dup3\n        /* \"#utility.yul\":6275:6287   */\n      div\n        /* \"#utility.yul\":6265:6287   */\n      swap1\n      pop\n        /* \"#utility.yul\":6332:6333   */\n      0x01\n        /* \"#utility.yul\":6326:6330   */\n      dup3\n        /* \"#utility.yul\":6322:6334   */\n      and\n        /* \"#utility.yul\":6353:6371   */\n      dup1\n        /* \"#utility.yul\":6343:6424   */\n      tag_171\n      jumpi\n        /* \"#utility.yul\":6409:6413   */\n      0x7f\n        /* \"#utility.yul\":6401:6407   */\n      dup3\n        /* \"#utility.yul\":6397:6414   */\n      and\n        /* \"#utility.yul\":6387:6414   */\n      swap2\n      pop\n        /* \"#utility.yul\":6343:6424   */\n    tag_171:\n        /* \"#utility.yul\":6471:6473   */\n      0x20\n        /* \"#utility.yul\":6463:6469   */\n      dup3\n        /* \"#utility.yul\":6460:6474   */\n      lt\n        /* \"#utility.yul\":6440:6458   */\n      dup2\n        /* \"#utility.yul\":6437:6475   */\n      eq\n        /* \"#utility.yul\":6434:6518   */\n      iszero\n      tag_172\n      jumpi\n        /* \"#utility.yul\":6490:6508   */\n      tag_173\n      tag_174\n      jump\t// in\n    tag_173:\n        /* \"#utility.yul\":6434:6518   */\n    tag_172:\n        /* \"#utility.yul\":6255:6524   */\n      pop\n        /* \"#utility.yul\":6204:6524   */\n      swap2\n      swap1\n      pop\n      jump\t// out\n        /* \"#utility.yul\":6530:6763   */\n    tag_78:\n        /* \"#utility.yul\":6569:6572   */\n      0x00\n        /* \"#utility.yul\":6592:6616   */\n      tag_176\n        /* \"#utility.yul\":6610:6615   */\n      dup3\n        /* \"#utility.yul\":6592:6616   */\n      tag_139\n      jump\t// in\n    tag_176:\n        /* \"#utility.yul\":6583:6616   */\n      swap2\n      pop\n        /* \"#utility.yul\":6638:6704   */\n      0xffffffffffffffffffffffffffffffffffffffffffffffffffffffffffffffff\n        /* \"#utility.yul\":6631:6636   */\n      dup3\n        /* \"#utility.yul\":6628:6705   */\n      eq\n        /* \"#utility.yul\":6625:6728   */\n      iszero\n      tag_177\n      jumpi\n        /* \"#utility.yul\":6708:6726   */\n      tag_178\n      tag_179\n      jump\t// in\n    tag_178:\n        /* \"#utility.yul\":6625:6728   */\n    tag_177:\n        /* \"#utility.yul\":6755:6756   */\n      0x01\n        /* \"#utility.yul\":6748:6753   */\n      dup3\n        /* \"#utility.yul\":6744:6757   */\n      add\n        /* \"#utility.yul\":6737:6757   */\n      swap1\n      pop\n        /* \"#utility.yul\":6530:6763   */\n      swap2\n      swap1\n      pop\n      jump\t// out\n        /* \"#utility.yul\":6769:6949   */\n    tag_179:\n        /* \"#utility.yul\":6817:6894   */\n      0x4e487b7100000000000000000000000000000000000000000000000000000000\n        /* \"#utility.yul\":6814:6815   */\n      0x00\n        /* \"#utility.yul\":6807:6895   */\n      mstore\n        /* \"#utility.yul\":6914:6918   */\n      0x11\n        /* \"#utility.yul\":6911:6912   */\n      0x04\n        /* \"#utility.yul\":6904:6919   */\n      mstore\n        /* \"#utility.yul\":6938:6942   */\n      0x24\n        /* \"#utility.yul\":6935:6936   */\n      0x00\n        /* \"#utility.yul\":6928:6943   */\n      revert\n        /* \"#utility.yul\":6955:7135   */\n    tag_174:\n        /* \"#utility.yul\":7003:7080   */\n      0x4e487b7100000000000000000000000000000000000000000000000000000000\n        /* \"#utility.yul\":7000:7001   */\n      0x00\n        /* \"#utility.yul\":6993:7081   */\n      mstore\n        /* \"#utility.yul\":7100:7104   */\n      0x22\n        /* \"#utility.yul\":7097:7098   */\n      0x04\n        /* \"#utility.yul\":7090:7105   */\n      mstore\n        /* \"#utility.yul\":7124:7128   */\n      0x24\n        /* \"#utility.yul\":7121:7122   */\n      0x00\n        /* \"#utility.yul\":7114:7129   */\n      revert\n        /* \"#utility.yul\":7141:7321   */\n    tag_68:\n        /* \"#utility.yul\":7189:7266   */\n      0x4e487b7100000000000000000000000000000000000000000000000000000000\n        /* \"#utility.yul\":7186:7187   */\n      0x00\n        /* \"#utility.yul\":7179:7267   */\n      mstore\n        /* \"#utility.yul\":7286:7290   */\n      0x32\n        /* \"#utility.yul\":7283:7284   */\n      0x04\n        /* \"#utility.yul\":7276:7291   */\n      mstore\n        /* \"#utility.yul\":7310:7314   */\n      0x24\n        /* \"#utility.yul\":7307:7308   */\n      0x00\n        /* \"#utility.yul\":7300:7315   */\n      revert\n        /* \"#utility.yul\":7450:7567   */\n    tag_98:\n        /* \"#utility.yul\":7559:7560   */\n      0x00\n        /* \"#utility.yul\":7556:7557   */\n      dup1\n        /* \"#utility.yul\":7549:7561   */\n      revert\n        /* \"#utility.yul\":7573:7675   */\n    tag_125:\n        /* \"#utility.yul\":7614:7620   */\n      0x00\n        /* \"#utility.yul\":7665:7667   */\n      0x1f\n        /* \"#utility.yul\":7661:7668   */\n      not\n        /* \"#utility.yul\":7656:7658   */\n      0x1f\n        /* \"#utility.yul\":7649:7654   */\n      dup4\n        /* \"#utility.yul\":7645:7659   */\n      add\n        /* \"#utility.yul\":7641:7669   */\n      and\n        /* \"#utility.yul\":7631:7669   */\n      swap1\n      pop\n        /* \"#utility.yul\":7573:7675   */\n      swap2\n      swap1\n      pop\n      jump\t// out\n        /* \"#utility.yul\":7681:7861   */\n    tag_130:\n        /* \"#utility.yul\":7821:7853   */\n      0x4f6e6c79204f776e65722063616e20756e7061636b20546f6b656e697a2e0000\n        /* \"#utility.yul\":7817:7818   */\n      0x00\n        /* \"#utility.yul\":7809:7815   */\n      dup3\n        /* \"#utility.yul\":7805:7819   */\n      add\n        /* \"#utility.yul\":7798:7854   */\n      mstore\n        /* \"#utility.yul\":7681:7861   */\n      pop\n      jump\t// out\n        /* \"#utility.yul\":7867:8041   */\n    tag_135:\n        /* \"#utility.yul\":8007:8033   */\n      0x416c726561647920756e7061636b656420546f6b656e697a0000000000000000\n        /* \"#utility.yul\":8003:8004   */\n      0x00\n        /* \"#utility.yul\":7995:8001   */\n      dup3\n        /* \"#utility.yul\":7991:8005   */\n      add\n        /* \"#utility.yul\":7984:8034   */\n      mstore\n        /* \"#utility.yul\":7867:8041   */\n      pop\n      jump\t// out\n        /* \"#utility.yul\":8047:8169   */\n    tag_86:\n        /* \"#utility.yul\":8120:8144   */\n      tag_190\n        /* \"#utility.yul\":8138:8143   */\n      dup2\n        /* \"#utility.yul\":8120:8144   */\n      tag_111\n      jump\t// in\n    tag_190:\n        /* \"#utility.yul\":8113:8118   */\n      dup2\n        /* \"#utility.yul\":8110:8145   */\n      eq\n        /* \"#utility.yul\":8100:8163   */\n      tag_191\n      jumpi\n        /* \"#utility.yul\":8159:8160   */\n      0x00\n        /* \"#utility.yul\":8156:8157   */\n      dup1\n        /* \"#utility.yul\":8149:8161   */\n      revert\n        /* \"#utility.yul\":8100:8163   */\n    tag_191:\n        /* \"#utility.yul\":8047:8169   */\n      pop\n      jump\t// out\n        /* \"#utility.yul\":8175:8291   */\n    tag_90:\n        /* \"#utility.yul\":8245:8266   */\n      tag_193\n        /* \"#utility.yul\":8260:8265   */\n      dup2\n        /* \"#utility.yul\":8245:8266   */\n      tag_115\n      jump\t// in\n    tag_193:\n        /* \"#utility.yul\":8238:8243   */\n      dup2\n        /* \"#utility.yul\":8235:8267   */\n      eq\n        /* \"#utility.yul\":8225:8285   */\n      tag_194\n      jumpi\n        /* \"#utility.yul\":8281:8282   */\n      0x00\n        /* \"#utility.yul\":8278:8279   */\n      dup1\n        /* \"#utility.yul\":8271:8283   */\n      revert\n        /* \"#utility.yul\":8225:8285   */\n    tag_194:\n        /* \"#utility.yul\":8175:8291   */\n      pop\n      jump\t// out\n        /* \"#utility.yul\":8297:8419   */\n    tag_94:\n        /* \"#utility.yul\":8370:8394   */\n      tag_196\n        /* \"#utility.yul\":8388:8393   */\n      dup2\n        /* \"#utility.yul\":8370:8394   */\n      tag_139\n      jump\t// in\n    tag_196:\n        /* \"#utility.yul\":8363:8368   */\n      dup2\n        /* \"#utility.yul\":8360:8395   */\n      eq\n        /* \"#utility.yul\":8350:8413   */\n      tag_197\n      jumpi\n        /* \"#utility.yul\":8409:8410   */\n      0x00\n        /* \"#utility.yul\":8406:8407   */\n      dup1\n        /* \"#utility.yul\":8399:8411   */\n      revert\n        /* \"#utility.yul\":8350:8413   */\n    tag_197:\n        /* \"#utility.yul\":8297:8419   */\n      pop\n      jump\t// out\n\n    auxdata: 0xa264697066735822122056865cd7dec8f41d2f66e8863d16708f52c460e5b4073473976d9bc8f873bac364736f6c63430008070033\n}\n",
				"bytecode": {
					"linkReferences": {},
					"object": "60806040523480156200001157600080fd5b50604051620013e4380380620013e48339818101604052810190620000379190620004e9565b336000806101000a81548173ffffffffffffffffffffffffffffffffffffffff021916908373ffffffffffffffffffffffffffffffffffffffff16021790555084600160006101000a81548173ffffffffffffffffffffffffffffffffffffffff021916908373ffffffffffffffffffffffffffffffffffffffff16021790555060018060146101000a81548160ff02191690831515021790555060005b8251811015620001f3576005838281518110620000f757620000f662000836565b5b60200260200101519080600181540180825580915050600190039060005260206000200160009091909190916101000a81548173ffffffffffffffffffffffffffffffffffffffff021916908373ffffffffffffffffffffffffffffffffffffffff16021790555081818151811062000175576200017462000836565b5b60200260200101516004600085848151811062000197576200019662000836565b5b602002602001015173ffffffffffffffffffffffffffffffffffffffff1673ffffffffffffffffffffffffffffffffffffffff168152602001908152602001600020819055508080620001ea906200078a565b915050620000d5565b5082600290805190602001906200020c92919062000231565b5083600390805190602001906200022592919062000231565b505050505050620008f2565b8280546200023f906200071e565b90600052602060002090601f016020900481019282620002635760008555620002af565b82601f106200027e57805160ff1916838001178555620002af565b82800160010185558215620002af579182015b82811115620002ae57825182559160200191906001019062000291565b5b509050620002be9190620002c2565b5090565b5b80821115620002dd576000816000905550600101620002c3565b5090565b6000620002f8620002f28462000616565b620005ed565b905080838252602082019050828560208602820111156200031e576200031d62000899565b5b60005b8581101562000352578162000337888262000422565b84526020840193506020830192505060018101905062000321565b5050509392505050565b6000620003736200036d8462000645565b620005ed565b9050808382526020820190508285602086028201111562000399576200039862000899565b5b60005b85811015620003cd5781620003b28882620004d2565b8452602084019350602083019250506001810190506200039c565b5050509392505050565b6000620003ee620003e88462000674565b620005ed565b9050828152602081018484840111156200040d576200040c6200089e565b5b6200041a848285620006e8565b509392505050565b6000815190506200043381620008be565b92915050565b600082601f83011262000451576200045062000894565b5b815162000463848260208601620002e1565b91505092915050565b600082601f83011262000484576200048362000894565b5b8151620004968482602086016200035c565b91505092915050565b600082601f830112620004b757620004b662000894565b5b8151620004c9848260208601620003d7565b91505092915050565b600081519050620004e381620008d8565b92915050565b600080600080600060a08688031215620005085762000507620008a8565b5b6000620005188882890162000422565b955050602086015167ffffffffffffffff8111156200053c576200053b620008a3565b5b6200054a888289016200049f565b945050604086015167ffffffffffffffff8111156200056e576200056d620008a3565b5b6200057c888289016200049f565b935050606086015167ffffffffffffffff811115620005a0576200059f620008a3565b5b620005ae8882890162000439565b925050608086015167ffffffffffffffff811115620005d257620005d1620008a3565b5b620005e0888289016200046c565b9150509295509295909350565b6000620005f96200060c565b905062000607828262000754565b919050565b6000604051905090565b600067ffffffffffffffff82111562000634576200063362000865565b5b602082029050602081019050919050565b600067ffffffffffffffff82111562000663576200066262000865565b5b602082029050602081019050919050565b600067ffffffffffffffff82111562000692576200069162000865565b5b6200069d82620008ad565b9050602081019050919050565b6000620006b782620006be565b9050919050565b600073ffffffffffffffffffffffffffffffffffffffff82169050919050565b6000819050919050565b60005b8381101562000708578082015181840152602081019050620006eb565b8381111562000718576000848401525b50505050565b600060028204905060018216806200073757607f821691505b602082108114156200074e576200074d62000807565b5b50919050565b6200075f82620008ad565b810181811067ffffffffffffffff8211171562000781576200078062000865565b5b80604052505050565b60006200079782620006de565b91507fffffffffffffffffffffffffffffffffffffffffffffffffffffffffffffffff821415620007cd57620007cc620007d8565b5b600182019050919050565b7f4e487b7100000000000000000000000000000000000000000000000000000000600052601160045260246000fd5b7f4e487b7100000000000000000000000000000000000000000000000000000000600052602260045260246000fd5b7f4e487b7100000000000000000000000000000000000000000000000000000000600052603260045260246000fd5b7f4e487b7100000000000000000000000000000000000000000000000000000000600052604160045260246000fd5b600080fd5b600080fd5b600080fd5b600080fd5b600080fd5b6000601f19601f8301169050919050565b620008c981620006aa565b8114620008d557600080fd5b50565b620008e381620006de565b8114620008ef57600080fd5b50565b610ae280620009026000396000f3fe608060405234801561001057600080fd5b50600436106100885760003560e01c806390d524a21161005b57806390d524a214610105578063e2c42e661461010f578063eedc966a1461012d578063f7aca9391461015d57610088565b806306fdde031461008d5780633c130d90146100ab5780638da5cb5b146100c95780638f23d5f6146100e7575b600080fd5b61009561018d565b6040516100a291906107e3565b60405180910390f35b6100b361021b565b6040516100c091906107e3565b60405180910390f35b6100d16102a9565b6040516100de9190610784565b60405180910390f35b6100ef6102cf565b6040516100fc91906107c8565b60405180910390f35b61010d6102e2565b005b6101176105a4565b60405161012491906107c8565b60405180910390f35b61014760048036038101906101429190610651565b6105bb565b6040516101549190610845565b60405180910390f35b610177600480360381019061017291906106ab565b6105d3565b6040516101849190610784565b60405180910390f35b6003805461019a906108f7565b80601f01602080910402602001604051908101604052809291908181526020018280546101c6906108f7565b80156102135780601f106101e857610100808354040283529160200191610213565b820191906000526020600020905b8154815290600101906020018083116101f657829003601f168201915b505050505081565b60028054610228906108f7565b80601f0160208091040260200160405190810160405280929190818152602001828054610254906108f7565b80156102a15780601f10610276576101008083540402835291602001916102a1565b820191906000526020600020905b81548152906001019060200180831161028457829003601f168201915b505050505081565b600160009054906101000a900473ffffffffffffffffffffffffffffffffffffffff1681565b600160149054906101000a900460ff1681565b600160009054906101000a900473ffffffffffffffffffffffffffffffffffffffff1673ffffffffffffffffffffffffffffffffffffffff163373ffffffffffffffffffffffffffffffffffffffff1614610372576040517f08c379a000000000000000000000000000000000000000000000000000000000815260040161036990610805565b60405180910390fd5b600160149054906101000a900460ff166103c1576040517f08c379a00000000000000000000000000000000000000000000000000000000081526004016103b890610825565b60405180910390fd5b600160009054906101000a900473ffffffffffffffffffffffffffffffffffffffff1673ffffffffffffffffffffffffffffffffffffffff166108fc479081150290604051600060405180830381858888f19350505050158015610429573d6000803e3d6000fd5b5060005b600580549050811015610586576000600582815481106104505761044f6109d0565b5b9060005260206000200160009054906101000a900473ffffffffffffffffffffffffffffffffffffffff16905060008190508073ffffffffffffffffffffffffffffffffffffffff1663a9059cbb600160009054906101000a900473ffffffffffffffffffffffffffffffffffffffff16600460008673ffffffffffffffffffffffffffffffffffffffff1673ffffffffffffffffffffffffffffffffffffffff168152602001908152602001600020546040518363ffffffff1660e01b815260040161051e92919061079f565b602060405180830381600087803b15801561053857600080fd5b505af115801561054c573d6000803e3d6000fd5b505050506040513d601f19601f82011682018060405250810190610570919061067e565b505050808061057e90610929565b91505061042d565b506000600160146101000a81548160ff021916908315150217905550565b6000600160149054906101000a900460ff16905090565b60046020528060005260406000206000915090505481565b600581815481106105e357600080fd5b906000526020600020016000915054906101000a900473ffffffffffffffffffffffffffffffffffffffff1681565b60008135905061062181610a67565b92915050565b60008151905061063681610a7e565b92915050565b60008135905061064b81610a95565b92915050565b600060208284031215610667576106666109ff565b5b600061067584828501610612565b91505092915050565b600060208284031215610694576106936109ff565b5b60006106a284828501610627565b91505092915050565b6000602082840312156106c1576106c06109ff565b5b60006106cf8482850161063c565b91505092915050565b6106e18161087c565b82525050565b6106f08161088e565b82525050565b600061070182610860565b61070b818561086b565b935061071b8185602086016108c4565b61072481610a04565b840191505092915050565b600061073c601e8361086b565b915061074782610a15565b602082019050919050565b600061075f60188361086b565b915061076a82610a3e565b602082019050919050565b61077e816108ba565b82525050565b600060208201905061079960008301846106d8565b92915050565b60006040820190506107b460008301856106d8565b6107c16020830184610775565b9392505050565b60006020820190506107dd60008301846106e7565b92915050565b600060208201905081810360008301526107fd81846106f6565b905092915050565b6000602082019050818103600083015261081e8161072f565b9050919050565b6000602082019050818103600083015261083e81610752565b9050919050565b600060208201905061085a6000830184610775565b92915050565b600081519050919050565b600082825260208201905092915050565b60006108878261089a565b9050919050565b60008115159050919050565b600073ffffffffffffffffffffffffffffffffffffffff82169050919050565b6000819050919050565b60005b838110156108e25780820151818401526020810190506108c7565b838111156108f1576000848401525b50505050565b6000600282049050600182168061090f57607f821691505b60208210811415610923576109226109a1565b5b50919050565b6000610934826108ba565b91507fffffffffffffffffffffffffffffffffffffffffffffffffffffffffffffffff82141561096757610966610972565b5b600182019050919050565b7f4e487b7100000000000000000000000000000000000000000000000000000000600052601160045260246000fd5b7f4e487b7100000000000000000000000000000000000000000000000000000000600052602260045260246000fd5b7f4e487b7100000000000000000000000000000000000000000000000000000000600052603260045260246000fd5b600080fd5b6000601f19601f8301169050919050565b7f4f6e6c79204f776e65722063616e20756e7061636b20546f6b656e697a2e0000600082015250565b7f416c726561647920756e7061636b656420546f6b656e697a0000000000000000600082015250565b610a708161087c565b8114610a7b57600080fd5b50565b610a878161088e565b8114610a9257600080fd5b50565b610a9e816108ba565b8114610aa957600080fd5b5056fea264697066735822122056865cd7dec8f41d2f66e8863d16708f52c460e5b4073473976d9bc8f873bac364736f6c63430008070033",
					"opcodes": "PUSH1 0x80 PUSH1 0x40 MSTORE CALLVALUE DUP1 ISZERO PUSH3 0x11 JUMPI PUSH1 0x0 DUP1 REVERT JUMPDEST POP PUSH1 0x40 MLOAD PUSH3 0x13E4 CODESIZE SUB DUP1 PUSH3 0x13E4 DUP4 CODECOPY DUP2 DUP2 ADD PUSH1 0x40 MSTORE DUP2 ADD SWAP1 PUSH3 0x37 SWAP2 SWAP1 PUSH3 0x4E9 JUMP JUMPDEST CALLER PUSH1 0x0 DUP1 PUSH2 0x100 EXP DUP2 SLOAD DUP2 PUSH20 0xFFFFFFFFFFFFFFFFFFFFFFFFFFFFFFFFFFFFFFFF MUL NOT AND SWAP1 DUP4 PUSH20 0xFFFFFFFFFFFFFFFFFFFFFFFFFFFFFFFFFFFFFFFF AND MUL OR SWAP1 SSTORE POP DUP5 PUSH1 0x1 PUSH1 0x0 PUSH2 0x100 EXP DUP2 SLOAD DUP2 PUSH20 0xFFFFFFFFFFFFFFFFFFFFFFFFFFFFFFFFFFFFFFFF MUL NOT AND SWAP1 DUP4 PUSH20 0xFFFFFFFFFFFFFFFFFFFFFFFFFFFFFFFFFFFFFFFF AND MUL OR SWAP1 SSTORE POP PUSH1 0x1 DUP1 PUSH1 0x14 PUSH2 0x100 EXP DUP2 SLOAD DUP2 PUSH1 0xFF MUL NOT AND SWAP1 DUP4 ISZERO ISZERO MUL OR SWAP1 SSTORE POP PUSH1 0x0 JUMPDEST DUP3 MLOAD DUP2 LT ISZERO PUSH3 0x1F3 JUMPI PUSH1 0x5 DUP4 DUP3 DUP2 MLOAD DUP2 LT PUSH3 0xF7 JUMPI PUSH3 0xF6 PUSH3 0x836 JUMP JUMPDEST JUMPDEST PUSH1 0x20 MUL PUSH1 0x20 ADD ADD MLOAD SWAP1 DUP1 PUSH1 0x1 DUP2 SLOAD ADD DUP1 DUP3 SSTORE DUP1 SWAP2 POP POP PUSH1 0x1 SWAP1 SUB SWAP1 PUSH1 0x0 MSTORE PUSH1 0x20 PUSH1 0x0 KECCAK256 ADD PUSH1 0x0 SWAP1 SWAP2 SWAP1 SWAP2 SWAP1 SWAP2 PUSH2 0x100 EXP DUP2 SLOAD DUP2 PUSH20 0xFFFFFFFFFFFFFFFFFFFFFFFFFFFFFFFFFFFFFFFF MUL NOT AND SWAP1 DUP4 PUSH20 0xFFFFFFFFFFFFFFFFFFFFFFFFFFFFFFFFFFFFFFFF AND MUL OR SWAP1 SSTORE POP DUP2 DUP2 DUP2 MLOAD DUP2 LT PUSH3 0x175 JUMPI PUSH3 0x174 PUSH3 0x836 JUMP JUMPDEST JUMPDEST PUSH1 0x20 MUL PUSH1 0x20 ADD ADD MLOAD PUSH1 0x4 PUSH1 0x0 DUP6 DUP5 DUP2 MLOAD DUP2 LT PUSH3 0x197 JUMPI PUSH3 0x196 PUSH3 0x836 JUMP JUMPDEST JUMPDEST PUSH1 0x20 MUL PUSH1 0x20 ADD ADD MLOAD PUSH20 0xFFFFFFFFFFFFFFFFFFFFFFFFFFFFFFFFFFFFFFFF AND PUSH20 0xFFFFFFFFFFFFFFFFFFFFFFFFFFFFFFFFFFFFFFFF AND DUP2 MSTORE PUSH1 0x20 ADD SWAP1 DUP2 MSTORE PUSH1 0x20 ADD PUSH1 0x0 KECCAK256 DUP2 SWAP1 SSTORE POP DUP1 DUP1 PUSH3 0x1EA SWAP1 PUSH3 0x78A JUMP JUMPDEST SWAP2 POP POP PUSH3 0xD5 JUMP JUMPDEST POP DUP3 PUSH1 0x2 SWAP1 DUP1 MLOAD SWAP1 PUSH1 0x20 ADD SWAP1 PUSH3 0x20C SWAP3 SWAP2 SWAP1 PUSH3 0x231 JUMP JUMPDEST POP DUP4 PUSH1 0x3 SWAP1 DUP1 MLOAD SWAP1 PUSH1 0x20 ADD SWAP1 PUSH3 0x225 SWAP3 SWAP2 SWAP1 PUSH3 0x231 JUMP JUMPDEST POP POP POP POP POP POP PUSH3 0x8F2 JUMP JUMPDEST DUP3 DUP1 SLOAD PUSH3 0x23F SWAP1 PUSH3 0x71E JUMP JUMPDEST SWAP1 PUSH1 0x0 MSTORE PUSH1 0x20 PUSH1 0x0 KECCAK256 SWAP1 PUSH1 0x1F ADD PUSH1 0x20 SWAP1 DIV DUP2 ADD SWAP3 DUP3 PUSH3 0x263 JUMPI PUSH1 0x0 DUP6 SSTORE PUSH3 0x2AF JUMP JUMPDEST DUP3 PUSH1 0x1F LT PUSH3 0x27E JUMPI DUP1 MLOAD PUSH1 0xFF NOT AND DUP4 DUP1 ADD OR DUP6 SSTORE PUSH3 0x2AF JUMP JUMPDEST DUP3 DUP1 ADD PUSH1 0x1 ADD DUP6 SSTORE DUP3 ISZERO PUSH3 0x2AF JUMPI SWAP2 DUP3 ADD JUMPDEST DUP3 DUP2 GT ISZERO PUSH3 0x2AE JUMPI DUP3 MLOAD DUP3 SSTORE SWAP2 PUSH1 0x20 ADD SWAP2 SWAP1 PUSH1 0x1 ADD SWAP1 PUSH3 0x291 JUMP JUMPDEST JUMPDEST POP SWAP1 POP PUSH3 0x2BE SWAP2 SWAP1 PUSH3 0x2C2 JUMP JUMPDEST POP SWAP1 JUMP JUMPDEST JUMPDEST DUP1 DUP3 GT ISZERO PUSH3 0x2DD JUMPI PUSH1 0x0 DUP2 PUSH1 0x0 SWAP1 SSTORE POP PUSH1 0x1 ADD PUSH3 0x2C3 JUMP JUMPDEST POP SWAP1 JUMP JUMPDEST PUSH1 0x0 PUSH3 0x2F8 PUSH3 0x2F2 DUP5 PUSH3 0x616 JUMP JUMPDEST PUSH3 0x5ED JUMP JUMPDEST SWAP1 POP DUP1 DUP4 DUP3 MSTORE PUSH1 0x20 DUP3 ADD SWAP1 POP DUP3 DUP6 PUSH1 0x20 DUP7 MUL DUP3 ADD GT ISZERO PUSH3 0x31E JUMPI PUSH3 0x31D PUSH3 0x899 JUMP JUMPDEST JUMPDEST PUSH1 0x0 JUMPDEST DUP6 DUP2 LT ISZERO PUSH3 0x352 JUMPI DUP2 PUSH3 0x337 DUP9 DUP3 PUSH3 0x422 JUMP JUMPDEST DUP5 MSTORE PUSH1 0x20 DUP5 ADD SWAP4 POP PUSH1 0x20 DUP4 ADD SWAP3 POP POP PUSH1 0x1 DUP2 ADD SWAP1 POP PUSH3 0x321 JUMP JUMPDEST POP POP POP SWAP4 SWAP3 POP POP POP JUMP JUMPDEST PUSH1 0x0 PUSH3 0x373 PUSH3 0x36D DUP5 PUSH3 0x645 JUMP JUMPDEST PUSH3 0x5ED JUMP JUMPDEST SWAP1 POP DUP1 DUP4 DUP3 MSTORE PUSH1 0x20 DUP3 ADD SWAP1 POP DUP3 DUP6 PUSH1 0x20 DUP7 MUL DUP3 ADD GT ISZERO PUSH3 0x399 JUMPI PUSH3 0x398 PUSH3 0x899 JUMP JUMPDEST JUMPDEST PUSH1 0x0 JUMPDEST DUP6 DUP2 LT ISZERO PUSH3 0x3CD JUMPI DUP2 PUSH3 0x3B2 DUP9 DUP3 PUSH3 0x4D2 JUMP JUMPDEST DUP5 MSTORE PUSH1 0x20 DUP5 ADD SWAP4 POP PUSH1 0x20 DUP4 ADD SWAP3 POP POP PUSH1 0x1 DUP2 ADD SWAP1 POP PUSH3 0x39C JUMP JUMPDEST POP POP POP SWAP4 SWAP3 POP POP POP JUMP JUMPDEST PUSH1 0x0 PUSH3 0x3EE PUSH3 0x3E8 DUP5 PUSH3 0x674 JUMP JUMPDEST PUSH3 0x5ED JUMP JUMPDEST SWAP1 POP DUP3 DUP2 MSTORE PUSH1 0x20 DUP2 ADD DUP5 DUP5 DUP5 ADD GT ISZERO PUSH3 0x40D JUMPI PUSH3 0x40C PUSH3 0x89E JUMP JUMPDEST JUMPDEST PUSH3 0x41A DUP5 DUP3 DUP6 PUSH3 0x6E8 JUMP JUMPDEST POP SWAP4 SWAP3 POP POP POP JUMP JUMPDEST PUSH1 0x0 DUP2 MLOAD SWAP1 POP PUSH3 0x433 DUP2 PUSH3 0x8BE JUMP JUMPDEST SWAP3 SWAP2 POP POP JUMP JUMPDEST PUSH1 0x0 DUP3 PUSH1 0x1F DUP4 ADD SLT PUSH3 0x451 JUMPI PUSH3 0x450 PUSH3 0x894 JUMP JUMPDEST JUMPDEST DUP2 MLOAD PUSH3 0x463 DUP5 DUP3 PUSH1 0x20 DUP7 ADD PUSH3 0x2E1 JUMP JUMPDEST SWAP2 POP POP SWAP3 SWAP2 POP POP JUMP JUMPDEST PUSH1 0x0 DUP3 PUSH1 0x1F DUP4 ADD SLT PUSH3 0x484 JUMPI PUSH3 0x483 PUSH3 0x894 JUMP JUMPDEST JUMPDEST DUP2 MLOAD PUSH3 0x496 DUP5 DUP3 PUSH1 0x20 DUP7 ADD PUSH3 0x35C JUMP JUMPDEST SWAP2 POP POP SWAP3 SWAP2 POP POP JUMP JUMPDEST PUSH1 0x0 DUP3 PUSH1 0x1F DUP4 ADD SLT PUSH3 0x4B7 JUMPI PUSH3 0x4B6 PUSH3 0x894 JUMP JUMPDEST JUMPDEST DUP2 MLOAD PUSH3 0x4C9 DUP5 DUP3 PUSH1 0x20 DUP7 ADD PUSH3 0x3D7 JUMP JUMPDEST SWAP2 POP POP SWAP3 SWAP2 POP POP JUMP JUMPDEST PUSH1 0x0 DUP2 MLOAD SWAP1 POP PUSH3 0x4E3 DUP2 PUSH3 0x8D8 JUMP JUMPDEST SWAP3 SWAP2 POP POP JUMP JUMPDEST PUSH1 0x0 DUP1 PUSH1 0x0 DUP1 PUSH1 0x0 PUSH1 0xA0 DUP7 DUP9 SUB SLT ISZERO PUSH3 0x508 JUMPI PUSH3 0x507 PUSH3 0x8A8 JUMP JUMPDEST JUMPDEST PUSH1 0x0 PUSH3 0x518 DUP9 DUP3 DUP10 ADD PUSH3 0x422 JUMP JUMPDEST SWAP6 POP POP PUSH1 0x20 DUP7 ADD MLOAD PUSH8 0xFFFFFFFFFFFFFFFF DUP2 GT ISZERO PUSH3 0x53C JUMPI PUSH3 0x53B PUSH3 0x8A3 JUMP JUMPDEST JUMPDEST PUSH3 0x54A DUP9 DUP3 DUP10 ADD PUSH3 0x49F JUMP JUMPDEST SWAP5 POP POP PUSH1 0x40 DUP7 ADD MLOAD PUSH8 0xFFFFFFFFFFFFFFFF DUP2 GT ISZERO PUSH3 0x56E JUMPI PUSH3 0x56D PUSH3 0x8A3 JUMP JUMPDEST JUMPDEST PUSH3 0x57C DUP9 DUP3 DUP10 ADD PUSH3 0x49F JUMP JUMPDEST SWAP4 POP POP PUSH1 0x60 DUP7 ADD MLOAD PUSH8 0xFFFFFFFFFFFFFFFF DUP2 GT ISZERO PUSH3 0x5A0 JUMPI PUSH3 0x59F PUSH3 0x8A3 JUMP JUMPDEST JUMPDEST PUSH3 0x5AE DUP9 DUP3 DUP10 ADD PUSH3 0x439 JUMP JUMPDEST SWAP3 POP POP PUSH1 0x80 DUP7 ADD MLOAD PUSH8 0xFFFFFFFFFFFFFFFF DUP2 GT ISZERO PUSH3 0x5D2 JUMPI PUSH3 0x5D1 PUSH3 0x8A3 JUMP JUMPDEST JUMPDEST PUSH3 0x5E0 DUP9 DUP3 DUP10 ADD PUSH3 0x46C JUMP JUMPDEST SWAP2 POP POP SWAP3 SWAP6 POP SWAP3 SWAP6 SWAP1 SWAP4 POP JUMP JUMPDEST PUSH1 0x0 PUSH3 0x5F9 PUSH3 0x60C JUMP JUMPDEST SWAP1 POP PUSH3 0x607 DUP3 DUP3 PUSH3 0x754 JUMP JUMPDEST SWAP2 SWAP1 POP JUMP JUMPDEST PUSH1 0x0 PUSH1 0x40 MLOAD SWAP1 POP SWAP1 JUMP JUMPDEST PUSH1 0x0 PUSH8 0xFFFFFFFFFFFFFFFF DUP3 GT ISZERO PUSH3 0x634 JUMPI PUSH3 0x633 PUSH3 0x865 JUMP JUMPDEST JUMPDEST PUSH1 0x20 DUP3 MUL SWAP1 POP PUSH1 0x20 DUP2 ADD SWAP1 POP SWAP2 SWAP1 POP JUMP JUMPDEST PUSH1 0x0 PUSH8 0xFFFFFFFFFFFFFFFF DUP3 GT ISZERO PUSH3 0x663 JUMPI PUSH3 0x662 PUSH3 0x865 JUMP JUMPDEST JUMPDEST PUSH1 0x20 DUP3 MUL SWAP1 POP PUSH1 0x20 DUP2 ADD SWAP1 POP SWAP2 SWAP1 POP JUMP JUMPDEST PUSH1 0x0 PUSH8 0xFFFFFFFFFFFFFFFF DUP3 GT ISZERO PUSH3 0x692 JUMPI PUSH3 0x691 PUSH3 0x865 JUMP JUMPDEST JUMPDEST PUSH3 0x69D DUP3 PUSH3 0x8AD JUMP JUMPDEST SWAP1 POP PUSH1 0x20 DUP2 ADD SWAP1 POP SWAP2 SWAP1 POP JUMP JUMPDEST PUSH1 0x0 PUSH3 0x6B7 DUP3 PUSH3 0x6BE JUMP JUMPDEST SWAP1 POP SWAP2 SWAP1 POP JUMP JUMPDEST PUSH1 0x0 PUSH20 0xFFFFFFFFFFFFFFFFFFFFFFFFFFFFFFFFFFFFFFFF DUP3 AND SWAP1 POP SWAP2 SWAP1 POP JUMP JUMPDEST PUSH1 0x0 DUP2 SWAP1 POP SWAP2 SWAP1 POP JUMP JUMPDEST PUSH1 0x0 JUMPDEST DUP4 DUP2 LT ISZERO PUSH3 0x708 JUMPI DUP1 DUP3 ADD MLOAD DUP2 DUP5 ADD MSTORE PUSH1 0x20 DUP2 ADD SWAP1 POP PUSH3 0x6EB JUMP JUMPDEST DUP4 DUP2 GT ISZERO PUSH3 0x718 JUMPI PUSH1 0x0 DUP5 DUP5 ADD MSTORE JUMPDEST POP POP POP POP JUMP JUMPDEST PUSH1 0x0 PUSH1 0x2 DUP3 DIV SWAP1 POP PUSH1 0x1 DUP3 AND DUP1 PUSH3 0x737 JUMPI PUSH1 0x7F DUP3 AND SWAP2 POP JUMPDEST PUSH1 0x20 DUP3 LT DUP2 EQ ISZERO PUSH3 0x74E JUMPI PUSH3 0x74D PUSH3 0x807 JUMP JUMPDEST JUMPDEST POP SWAP2 SWAP1 POP JUMP JUMPDEST PUSH3 0x75F DUP3 PUSH3 0x8AD JUMP JUMPDEST DUP2 ADD DUP2 DUP2 LT PUSH8 0xFFFFFFFFFFFFFFFF DUP3 GT OR ISZERO PUSH3 0x781 JUMPI PUSH3 0x780 PUSH3 0x865 JUMP JUMPDEST JUMPDEST DUP1 PUSH1 0x40 MSTORE POP POP POP JUMP JUMPDEST PUSH1 0x0 PUSH3 0x797 DUP3 PUSH3 0x6DE JUMP JUMPDEST SWAP2 POP PUSH32 0xFFFFFFFFFFFFFFFFFFFFFFFFFFFFFFFFFFFFFFFFFFFFFFFFFFFFFFFFFFFFFFFF DUP3 EQ ISZERO PUSH3 0x7CD JUMPI PUSH3 0x7CC PUSH3 0x7D8 JUMP JUMPDEST JUMPDEST PUSH1 0x1 DUP3 ADD SWAP1 POP SWAP2 SWAP1 POP JUMP JUMPDEST PUSH32 0x4E487B7100000000000000000000000000000000000000000000000000000000 PUSH1 0x0 MSTORE PUSH1 0x11 PUSH1 0x4 MSTORE PUSH1 0x24 PUSH1 0x0 REVERT JUMPDEST PUSH32 0x4E487B7100000000000000000000000000000000000000000000000000000000 PUSH1 0x0 MSTORE PUSH1 0x22 PUSH1 0x4 MSTORE PUSH1 0x24 PUSH1 0x0 REVERT JUMPDEST PUSH32 0x4E487B7100000000000000000000000000000000000000000000000000000000 PUSH1 0x0 MSTORE PUSH1 0x32 PUSH1 0x4 MSTORE PUSH1 0x24 PUSH1 0x0 REVERT JUMPDEST PUSH32 0x4E487B7100000000000000000000000000000000000000000000000000000000 PUSH1 0x0 MSTORE PUSH1 0x41 PUSH1 0x4 MSTORE PUSH1 0x24 PUSH1 0x0 REVERT JUMPDEST PUSH1 0x0 DUP1 REVERT JUMPDEST PUSH1 0x0 DUP1 REVERT JUMPDEST PUSH1 0x0 DUP1 REVERT JUMPDEST PUSH1 0x0 DUP1 REVERT JUMPDEST PUSH1 0x0 DUP1 REVERT JUMPDEST PUSH1 0x0 PUSH1 0x1F NOT PUSH1 0x1F DUP4 ADD AND SWAP1 POP SWAP2 SWAP1 POP JUMP JUMPDEST PUSH3 0x8C9 DUP2 PUSH3 0x6AA JUMP JUMPDEST DUP2 EQ PUSH3 0x8D5 JUMPI PUSH1 0x0 DUP1 REVERT JUMPDEST POP JUMP JUMPDEST PUSH3 0x8E3 DUP2 PUSH3 0x6DE JUMP JUMPDEST DUP2 EQ PUSH3 0x8EF JUMPI PUSH1 0x0 DUP1 REVERT JUMPDEST POP JUMP JUMPDEST PUSH2 0xAE2 DUP1 PUSH3 0x902 PUSH1 0x0 CODECOPY PUSH1 0x0 RETURN INVALID PUSH1 0x80 PUSH1 0x40 MSTORE CALLVALUE DUP1 ISZERO PUSH2 0x10 JUMPI PUSH1 0x0 DUP1 REVERT JUMPDEST POP PUSH1 0x4 CALLDATASIZE LT PUSH2 0x88 JUMPI PUSH1 0x0 CALLDATALOAD PUSH1 0xE0 SHR DUP1 PUSH4 0x90D524A2 GT PUSH2 0x5B JUMPI DUP1 PUSH4 0x90D524A2 EQ PUSH2 0x105 JUMPI DUP1 PUSH4 0xE2C42E66 EQ PUSH2 0x10F JUMPI DUP1 PUSH4 0xEEDC966A EQ PUSH2 0x12D JUMPI DUP1 PUSH4 0xF7ACA939 EQ PUSH2 0x15D JUMPI PUSH2 0x88 JUMP JUMPDEST DUP1 PUSH4 0x6FDDE03 EQ PUSH2 0x8D JUMPI DUP1 PUSH4 0x3C130D90 EQ PUSH2 0xAB JUMPI DUP1 PUSH4 0x8DA5CB5B EQ PUSH2 0xC9 JUMPI DUP1 PUSH4 0x8F23D5F6 EQ PUSH2 0xE7 JUMPI JUMPDEST PUSH1 0x0 DUP1 REVERT JUMPDEST PUSH2 0x95 PUSH2 0x18D JUMP JUMPDEST PUSH1 0x40 MLOAD PUSH2 0xA2 SWAP2 SWAP1 PUSH2 0x7E3 JUMP JUMPDEST PUSH1 0x40 MLOAD DUP1 SWAP2 SUB SWAP1 RETURN JUMPDEST PUSH2 0xB3 PUSH2 0x21B JUMP JUMPDEST PUSH1 0x40 MLOAD PUSH2 0xC0 SWAP2 SWAP1 PUSH2 0x7E3 JUMP JUMPDEST PUSH1 0x40 MLOAD DUP1 SWAP2 SUB SWAP1 RETURN JUMPDEST PUSH2 0xD1 PUSH2 0x2A9 JUMP JUMPDEST PUSH1 0x40 MLOAD PUSH2 0xDE SWAP2 SWAP1 PUSH2 0x784 JUMP JUMPDEST PUSH1 0x40 MLOAD DUP1 SWAP2 SUB SWAP1 RETURN JUMPDEST PUSH2 0xEF PUSH2 0x2CF JUMP JUMPDEST PUSH1 0x40 MLOAD PUSH2 0xFC SWAP2 SWAP1 PUSH2 0x7C8 JUMP JUMPDEST PUSH1 0x40 MLOAD DUP1 SWAP2 SUB SWAP1 RETURN JUMPDEST PUSH2 0x10D PUSH2 0x2E2 JUMP JUMPDEST STOP JUMPDEST PUSH2 0x117 PUSH2 0x5A4 JUMP JUMPDEST PUSH1 0x40 MLOAD PUSH2 0x124 SWAP2 SWAP1 PUSH2 0x7C8 JUMP JUMPDEST PUSH1 0x40 MLOAD DUP1 SWAP2 SUB SWAP1 RETURN JUMPDEST PUSH2 0x147 PUSH1 0x4 DUP1 CALLDATASIZE SUB DUP2 ADD SWAP1 PUSH2 0x142 SWAP2 SWAP1 PUSH2 0x651 JUMP JUMPDEST PUSH2 0x5BB JUMP JUMPDEST PUSH1 0x40 MLOAD PUSH2 0x154 SWAP2 SWAP1 PUSH2 0x845 JUMP JUMPDEST PUSH1 0x40 MLOAD DUP1 SWAP2 SUB SWAP1 RETURN JUMPDEST PUSH2 0x177 PUSH1 0x4 DUP1 CALLDATASIZE SUB DUP2 ADD SWAP1 PUSH2 0x172 SWAP2 SWAP1 PUSH2 0x6AB JUMP JUMPDEST PUSH2 0x5D3 JUMP JUMPDEST PUSH1 0x40 MLOAD PUSH2 0x184 SWAP2 SWAP1 PUSH2 0x784 JUMP JUMPDEST PUSH1 0x40 MLOAD DUP1 SWAP2 SUB SWAP1 RETURN JUMPDEST PUSH1 0x3 DUP1 SLOAD PUSH2 0x19A SWAP1 PUSH2 0x8F7 JUMP JUMPDEST DUP1 PUSH1 0x1F ADD PUSH1 0x20 DUP1 SWAP2 DIV MUL PUSH1 0x20 ADD PUSH1 0x40 MLOAD SWAP1 DUP2 ADD PUSH1 0x40 MSTORE DUP1 SWAP3 SWAP2 SWAP1 DUP2 DUP2 MSTORE PUSH1 0x20 ADD DUP3 DUP1 SLOAD PUSH2 0x1C6 SWAP1 PUSH2 0x8F7 JUMP JUMPDEST DUP1 ISZERO PUSH2 0x213 JUMPI DUP1 PUSH1 0x1F LT PUSH2 0x1E8 JUMPI PUSH2 0x100 DUP1 DUP4 SLOAD DIV MUL DUP4 MSTORE SWAP2 PUSH1 0x20 ADD SWAP2 PUSH2 0x213 JUMP JUMPDEST DUP3 ADD SWAP2 SWAP1 PUSH1 0x0 MSTORE PUSH1 0x20 PUSH1 0x0 KECCAK256 SWAP1 JUMPDEST DUP2 SLOAD DUP2 MSTORE SWAP1 PUSH1 0x1 ADD SWAP1 PUSH1 0x20 ADD DUP1 DUP4 GT PUSH2 0x1F6 JUMPI DUP3 SWAP1 SUB PUSH1 0x1F AND DUP3 ADD SWAP2 JUMPDEST POP POP POP POP POP DUP2 JUMP JUMPDEST PUSH1 0x2 DUP1 SLOAD PUSH2 0x228 SWAP1 PUSH2 0x8F7 JUMP JUMPDEST DUP1 PUSH1 0x1F ADD PUSH1 0x20 DUP1 SWAP2 DIV MUL PUSH1 0x20 ADD PUSH1 0x40 MLOAD SWAP1 DUP2 ADD PUSH1 0x40 MSTORE DUP1 SWAP3 SWAP2 SWAP1 DUP2 DUP2 MSTORE PUSH1 0x20 ADD DUP3 DUP1 SLOAD PUSH2 0x254 SWAP1 PUSH2 0x8F7 JUMP JUMPDEST DUP1 ISZERO PUSH2 0x2A1 JUMPI DUP1 PUSH1 0x1F LT PUSH2 0x276 JUMPI PUSH2 0x100 DUP1 DUP4 SLOAD DIV MUL DUP4 MSTORE SWAP2 PUSH1 0x20 ADD SWAP2 PUSH2 0x2A1 JUMP JUMPDEST DUP3 ADD SWAP2 SWAP1 PUSH1 0x0 MSTORE PUSH1 0x20 PUSH1 0x0 KECCAK256 SWAP1 JUMPDEST DUP2 SLOAD DUP2 MSTORE SWAP1 PUSH1 0x1 ADD SWAP1 PUSH1 0x20 ADD DUP1 DUP4 GT PUSH2 0x284 JUMPI DUP3 SWAP1 SUB PUSH1 0x1F AND DUP3 ADD SWAP2 JUMPDEST POP POP POP POP POP DUP2 JUMP JUMPDEST PUSH1 0x1 PUSH1 0x0 SWAP1 SLOAD SWAP1 PUSH2 0x100 EXP SWAP1 DIV PUSH20 0xFFFFFFFFFFFFFFFFFFFFFFFFFFFFFFFFFFFFFFFF AND DUP2 JUMP JUMPDEST PUSH1 0x1 PUSH1 0x14 SWAP1 SLOAD SWAP1 PUSH2 0x100 EXP SWAP1 DIV PUSH1 0xFF AND DUP2 JUMP JUMPDEST PUSH1 0x1 PUSH1 0x0 SWAP1 SLOAD SWAP1 PUSH2 0x100 EXP SWAP1 DIV PUSH20 0xFFFFFFFFFFFFFFFFFFFFFFFFFFFFFFFFFFFFFFFF AND PUSH20 0xFFFFFFFFFFFFFFFFFFFFFFFFFFFFFFFFFFFFFFFF AND CALLER PUSH20 0xFFFFFFFFFFFFFFFFFFFFFFFFFFFFFFFFFFFFFFFF AND EQ PUSH2 0x372 JUMPI PUSH1 0x40 MLOAD PUSH32 0x8C379A000000000000000000000000000000000000000000000000000000000 DUP2 MSTORE PUSH1 0x4 ADD PUSH2 0x369 SWAP1 PUSH2 0x805 JUMP JUMPDEST PUSH1 0x40 MLOAD DUP1 SWAP2 SUB SWAP1 REVERT JUMPDEST PUSH1 0x1 PUSH1 0x14 SWAP1 SLOAD SWAP1 PUSH2 0x100 EXP SWAP1 DIV PUSH1 0xFF AND PUSH2 0x3C1 JUMPI PUSH1 0x40 MLOAD PUSH32 0x8C379A000000000000000000000000000000000000000000000000000000000 DUP2 MSTORE PUSH1 0x4 ADD PUSH2 0x3B8 SWAP1 PUSH2 0x825 JUMP JUMPDEST PUSH1 0x40 MLOAD DUP1 SWAP2 SUB SWAP1 REVERT JUMPDEST PUSH1 0x1 PUSH1 0x0 SWAP1 SLOAD SWAP1 PUSH2 0x100 EXP SWAP1 DIV PUSH20 0xFFFFFFFFFFFFFFFFFFFFFFFFFFFFFFFFFFFFFFFF AND PUSH20 0xFFFFFFFFFFFFFFFFFFFFFFFFFFFFFFFFFFFFFFFF AND PUSH2 0x8FC SELFBALANCE SWAP1 DUP2 ISZERO MUL SWAP1 PUSH1 0x40 MLOAD PUSH1 0x0 PUSH1 0x40 MLOAD DUP1 DUP4 SUB DUP2 DUP6 DUP9 DUP9 CALL SWAP4 POP POP POP POP ISZERO DUP1 ISZERO PUSH2 0x429 JUMPI RETURNDATASIZE PUSH1 0x0 DUP1 RETURNDATACOPY RETURNDATASIZE PUSH1 0x0 REVERT JUMPDEST POP PUSH1 0x0 JUMPDEST PUSH1 0x5 DUP1 SLOAD SWAP1 POP DUP2 LT ISZERO PUSH2 0x586 JUMPI PUSH1 0x0 PUSH1 0x5 DUP3 DUP2 SLOAD DUP2 LT PUSH2 0x450 JUMPI PUSH2 0x44F PUSH2 0x9D0 JUMP JUMPDEST JUMPDEST SWAP1 PUSH1 0x0 MSTORE PUSH1 0x20 PUSH1 0x0 KECCAK256 ADD PUSH1 0x0 SWAP1 SLOAD SWAP1 PUSH2 0x100 EXP SWAP1 DIV PUSH20 0xFFFFFFFFFFFFFFFFFFFFFFFFFFFFFFFFFFFFFFFF AND SWAP1 POP PUSH1 0x0 DUP2 SWAP1 POP DUP1 PUSH20 0xFFFFFFFFFFFFFFFFFFFFFFFFFFFFFFFFFFFFFFFF AND PUSH4 0xA9059CBB PUSH1 0x1 PUSH1 0x0 SWAP1 SLOAD SWAP1 PUSH2 0x100 EXP SWAP1 DIV PUSH20 0xFFFFFFFFFFFFFFFFFFFFFFFFFFFFFFFFFFFFFFFF AND PUSH1 0x4 PUSH1 0x0 DUP7 PUSH20 0xFFFFFFFFFFFFFFFFFFFFFFFFFFFFFFFFFFFFFFFF AND PUSH20 0xFFFFFFFFFFFFFFFFFFFFFFFFFFFFFFFFFFFFFFFF AND DUP2 MSTORE PUSH1 0x20 ADD SWAP1 DUP2 MSTORE PUSH1 0x20 ADD PUSH1 0x0 KECCAK256 SLOAD PUSH1 0x40 MLOAD DUP4 PUSH4 0xFFFFFFFF AND PUSH1 0xE0 SHL DUP2 MSTORE PUSH1 0x4 ADD PUSH2 0x51E SWAP3 SWAP2 SWAP1 PUSH2 0x79F JUMP JUMPDEST PUSH1 0x20 PUSH1 0x40 MLOAD DUP1 DUP4 SUB DUP2 PUSH1 0x0 DUP8 DUP1 EXTCODESIZE ISZERO DUP1 ISZERO PUSH2 0x538 JUMPI PUSH1 0x0 DUP1 REVERT JUMPDEST POP GAS CALL ISZERO DUP1 ISZERO PUSH2 0x54C JUMPI RETURNDATASIZE PUSH1 0x0 DUP1 RETURNDATACOPY RETURNDATASIZE PUSH1 0x0 REVERT JUMPDEST POP POP POP POP PUSH1 0x40 MLOAD RETURNDATASIZE PUSH1 0x1F NOT PUSH1 0x1F DUP3 ADD AND DUP3 ADD DUP1 PUSH1 0x40 MSTORE POP DUP2 ADD SWAP1 PUSH2 0x570 SWAP2 SWAP1 PUSH2 0x67E JUMP JUMPDEST POP POP POP DUP1 DUP1 PUSH2 0x57E SWAP1 PUSH2 0x929 JUMP JUMPDEST SWAP2 POP POP PUSH2 0x42D JUMP JUMPDEST POP PUSH1 0x0 PUSH1 0x1 PUSH1 0x14 PUSH2 0x100 EXP DUP2 SLOAD DUP2 PUSH1 0xFF MUL NOT AND SWAP1 DUP4 ISZERO ISZERO MUL OR SWAP1 SSTORE POP JUMP JUMPDEST PUSH1 0x0 PUSH1 0x1 PUSH1 0x14 SWAP1 SLOAD SWAP1 PUSH2 0x100 EXP SWAP1 DIV PUSH1 0xFF AND SWAP1 POP SWAP1 JUMP JUMPDEST PUSH1 0x4 PUSH1 0x20 MSTORE DUP1 PUSH1 0x0 MSTORE PUSH1 0x40 PUSH1 0x0 KECCAK256 PUSH1 0x0 SWAP2 POP SWAP1 POP SLOAD DUP2 JUMP JUMPDEST PUSH1 0x5 DUP2 DUP2 SLOAD DUP2 LT PUSH2 0x5E3 JUMPI PUSH1 0x0 DUP1 REVERT JUMPDEST SWAP1 PUSH1 0x0 MSTORE PUSH1 0x20 PUSH1 0x0 KECCAK256 ADD PUSH1 0x0 SWAP2 POP SLOAD SWAP1 PUSH2 0x100 EXP SWAP1 DIV PUSH20 0xFFFFFFFFFFFFFFFFFFFFFFFFFFFFFFFFFFFFFFFF AND DUP2 JUMP JUMPDEST PUSH1 0x0 DUP2 CALLDATALOAD SWAP1 POP PUSH2 0x621 DUP2 PUSH2 0xA67 JUMP JUMPDEST SWAP3 SWAP2 POP POP JUMP JUMPDEST PUSH1 0x0 DUP2 MLOAD SWAP1 POP PUSH2 0x636 DUP2 PUSH2 0xA7E JUMP JUMPDEST SWAP3 SWAP2 POP POP JUMP JUMPDEST PUSH1 0x0 DUP2 CALLDATALOAD SWAP1 POP PUSH2 0x64B DUP2 PUSH2 0xA95 JUMP JUMPDEST SWAP3 SWAP2 POP POP JUMP JUMPDEST PUSH1 0x0 PUSH1 0x20 DUP3 DUP5 SUB SLT ISZERO PUSH2 0x667 JUMPI PUSH2 0x666 PUSH2 0x9FF JUMP JUMPDEST JUMPDEST PUSH1 0x0 PUSH2 0x675 DUP5 DUP3 DUP6 ADD PUSH2 0x612 JUMP JUMPDEST SWAP2 POP POP SWAP3 SWAP2 POP POP JUMP JUMPDEST PUSH1 0x0 PUSH1 0x20 DUP3 DUP5 SUB SLT ISZERO PUSH2 0x694 JUMPI PUSH2 0x693 PUSH2 0x9FF JUMP JUMPDEST JUMPDEST PUSH1 0x0 PUSH2 0x6A2 DUP5 DUP3 DUP6 ADD PUSH2 0x627 JUMP JUMPDEST SWAP2 POP POP SWAP3 SWAP2 POP POP JUMP JUMPDEST PUSH1 0x0 PUSH1 0x20 DUP3 DUP5 SUB SLT ISZERO PUSH2 0x6C1 JUMPI PUSH2 0x6C0 PUSH2 0x9FF JUMP JUMPDEST JUMPDEST PUSH1 0x0 PUSH2 0x6CF DUP5 DUP3 DUP6 ADD PUSH2 0x63C JUMP JUMPDEST SWAP2 POP POP SWAP3 SWAP2 POP POP JUMP JUMPDEST PUSH2 0x6E1 DUP2 PUSH2 0x87C JUMP JUMPDEST DUP3 MSTORE POP POP JUMP JUMPDEST PUSH2 0x6F0 DUP2 PUSH2 0x88E JUMP JUMPDEST DUP3 MSTORE POP POP JUMP JUMPDEST PUSH1 0x0 PUSH2 0x701 DUP3 PUSH2 0x860 JUMP JUMPDEST PUSH2 0x70B DUP2 DUP6 PUSH2 0x86B JUMP JUMPDEST SWAP4 POP PUSH2 0x71B DUP2 DUP6 PUSH1 0x20 DUP7 ADD PUSH2 0x8C4 JUMP JUMPDEST PUSH2 0x724 DUP2 PUSH2 0xA04 JUMP JUMPDEST DUP5 ADD SWAP2 POP POP SWAP3 SWAP2 POP POP JUMP JUMPDEST PUSH1 0x0 PUSH2 0x73C PUSH1 0x1E DUP4 PUSH2 0x86B JUMP JUMPDEST SWAP2 POP PUSH2 0x747 DUP3 PUSH2 0xA15 JUMP JUMPDEST PUSH1 0x20 DUP3 ADD SWAP1 POP SWAP2 SWAP1 POP JUMP JUMPDEST PUSH1 0x0 PUSH2 0x75F PUSH1 0x18 DUP4 PUSH2 0x86B JUMP JUMPDEST SWAP2 POP PUSH2 0x76A DUP3 PUSH2 0xA3E JUMP JUMPDEST PUSH1 0x20 DUP3 ADD SWAP1 POP SWAP2 SWAP1 POP JUMP JUMPDEST PUSH2 0x77E DUP2 PUSH2 0x8BA JUMP JUMPDEST DUP3 MSTORE POP POP JUMP JUMPDEST PUSH1 0x0 PUSH1 0x20 DUP3 ADD SWAP1 POP PUSH2 0x799 PUSH1 0x0 DUP4 ADD DUP5 PUSH2 0x6D8 JUMP JUMPDEST SWAP3 SWAP2 POP POP JUMP JUMPDEST PUSH1 0x0 PUSH1 0x40 DUP3 ADD SWAP1 POP PUSH2 0x7B4 PUSH1 0x0 DUP4 ADD DUP6 PUSH2 0x6D8 JUMP JUMPDEST PUSH2 0x7C1 PUSH1 0x20 DUP4 ADD DUP5 PUSH2 0x775 JUMP JUMPDEST SWAP4 SWAP3 POP POP POP JUMP JUMPDEST PUSH1 0x0 PUSH1 0x20 DUP3 ADD SWAP1 POP PUSH2 0x7DD PUSH1 0x0 DUP4 ADD DUP5 PUSH2 0x6E7 JUMP JUMPDEST SWAP3 SWAP2 POP POP JUMP JUMPDEST PUSH1 0x0 PUSH1 0x20 DUP3 ADD SWAP1 POP DUP2 DUP2 SUB PUSH1 0x0 DUP4 ADD MSTORE PUSH2 0x7FD DUP2 DUP5 PUSH2 0x6F6 JUMP JUMPDEST SWAP1 POP SWAP3 SWAP2 POP POP JUMP JUMPDEST PUSH1 0x0 PUSH1 0x20 DUP3 ADD SWAP1 POP DUP2 DUP2 SUB PUSH1 0x0 DUP4 ADD MSTORE PUSH2 0x81E DUP2 PUSH2 0x72F JUMP JUMPDEST SWAP1 POP SWAP2 SWAP1 POP JUMP JUMPDEST PUSH1 0x0 PUSH1 0x20 DUP3 ADD SWAP1 POP DUP2 DUP2 SUB PUSH1 0x0 DUP4 ADD MSTORE PUSH2 0x83E DUP2 PUSH2 0x752 JUMP JUMPDEST SWAP1 POP SWAP2 SWAP1 POP JUMP JUMPDEST PUSH1 0x0 PUSH1 0x20 DUP3 ADD SWAP1 POP PUSH2 0x85A PUSH1 0x0 DUP4 ADD DUP5 PUSH2 0x775 JUMP JUMPDEST SWAP3 SWAP2 POP POP JUMP JUMPDEST PUSH1 0x0 DUP2 MLOAD SWAP1 POP SWAP2 SWAP1 POP JUMP JUMPDEST PUSH1 0x0 DUP3 DUP3 MSTORE PUSH1 0x20 DUP3 ADD SWAP1 POP SWAP3 SWAP2 POP POP JUMP JUMPDEST PUSH1 0x0 PUSH2 0x887 DUP3 PUSH2 0x89A JUMP JUMPDEST SWAP1 POP SWAP2 SWAP1 POP JUMP JUMPDEST PUSH1 0x0 DUP2 ISZERO ISZERO SWAP1 POP SWAP2 SWAP1 POP JUMP JUMPDEST PUSH1 0x0 PUSH20 0xFFFFFFFFFFFFFFFFFFFFFFFFFFFFFFFFFFFFFFFF DUP3 AND SWAP1 POP SWAP2 SWAP1 POP JUMP JUMPDEST PUSH1 0x0 DUP2 SWAP1 POP SWAP2 SWAP1 POP JUMP JUMPDEST PUSH1 0x0 JUMPDEST DUP4 DUP2 LT ISZERO PUSH2 0x8E2 JUMPI DUP1 DUP3 ADD MLOAD DUP2 DUP5 ADD MSTORE PUSH1 0x20 DUP2 ADD SWAP1 POP PUSH2 0x8C7 JUMP JUMPDEST DUP4 DUP2 GT ISZERO PUSH2 0x8F1 JUMPI PUSH1 0x0 DUP5 DUP5 ADD MSTORE JUMPDEST POP POP POP POP JUMP JUMPDEST PUSH1 0x0 PUSH1 0x2 DUP3 DIV SWAP1 POP PUSH1 0x1 DUP3 AND DUP1 PUSH2 0x90F JUMPI PUSH1 0x7F DUP3 AND SWAP2 POP JUMPDEST PUSH1 0x20 DUP3 LT DUP2 EQ ISZERO PUSH2 0x923 JUMPI PUSH2 0x922 PUSH2 0x9A1 JUMP JUMPDEST JUMPDEST POP SWAP2 SWAP1 POP JUMP JUMPDEST PUSH1 0x0 PUSH2 0x934 DUP3 PUSH2 0x8BA JUMP JUMPDEST SWAP2 POP PUSH32 0xFFFFFFFFFFFFFFFFFFFFFFFFFFFFFFFFFFFFFFFFFFFFFFFFFFFFFFFFFFFFFFFF DUP3 EQ ISZERO PUSH2 0x967 JUMPI PUSH2 0x966 PUSH2 0x972 JUMP JUMPDEST JUMPDEST PUSH1 0x1 DUP3 ADD SWAP1 POP SWAP2 SWAP1 POP JUMP JUMPDEST PUSH32 0x4E487B7100000000000000000000000000000000000000000000000000000000 PUSH1 0x0 MSTORE PUSH1 0x11 PUSH1 0x4 MSTORE PUSH1 0x24 PUSH1 0x0 REVERT JUMPDEST PUSH32 0x4E487B7100000000000000000000000000000000000000000000000000000000 PUSH1 0x0 MSTORE PUSH1 0x22 PUSH1 0x4 MSTORE PUSH1 0x24 PUSH1 0x0 REVERT JUMPDEST PUSH32 0x4E487B7100000000000000000000000000000000000000000000000000000000 PUSH1 0x0 MSTORE PUSH1 0x32 PUSH1 0x4 MSTORE PUSH1 0x24 PUSH1 0x0 REVERT JUMPDEST PUSH1 0x0 DUP1 REVERT JUMPDEST PUSH1 0x0 PUSH1 0x1F NOT PUSH1 0x1F DUP4 ADD AND SWAP1 POP SWAP2 SWAP1 POP JUMP JUMPDEST PUSH32 0x4F6E6C79204F776E65722063616E20756E7061636B20546F6B656E697A2E0000 PUSH1 0x0 DUP3 ADD MSTORE POP JUMP JUMPDEST PUSH32 0x416C726561647920756E7061636B656420546F6B656E697A0000000000000000 PUSH1 0x0 DUP3 ADD MSTORE POP JUMP JUMPDEST PUSH2 0xA70 DUP2 PUSH2 0x87C JUMP JUMPDEST DUP2 EQ PUSH2 0xA7B JUMPI PUSH1 0x0 DUP1 REVERT JUMPDEST POP JUMP JUMPDEST PUSH2 0xA87 DUP2 PUSH2 0x88E JUMP JUMPDEST DUP2 EQ PUSH2 0xA92 JUMPI PUSH1 0x0 DUP1 REVERT JUMPDEST POP JUMP JUMPDEST PUSH2 0xA9E DUP2 PUSH2 0x8BA JUMP JUMPDEST DUP2 EQ PUSH2 0xAA9 JUMPI PUSH1 0x0 DUP1 REVERT JUMPDEST POP JUMP INVALID LOG2 PUSH5 0x6970667358 0x22 SLT KECCAK256 JUMP DUP7 0x5C 0xD7 0xDE 0xC8 DELEGATECALL SAR 0x2F PUSH7 0xE8863D16708F52 0xC4 PUSH1 0xE5 0xB4 SMOD CALLVALUE PUSH20 0x976D9BC8F873BAC364736F6C6343000807003300 "
				},
				"gasEstimates": {
					"creation": {
						"codeDepositCost": "557200",
						"executionCost": "infinite",
						"totalCost": "infinite"
					},
					"external": {
						"isPacked()": "2551",
						"name()": "infinite",
						"owner()": "2559",
						"packed()": "2588",
						"tokenBalance(address)": "2858",
						"tokenURI()": "infinite",
						"tokensAddresses(uint256)": "5022",
						"unPack()": "infinite"
					},
					"internal": {
						"_safeTransfer(address,address)": "infinite",
						"_safeUnPack()": "infinite"
					}
				},
				"methodIdentifiers": {
					"isPacked()": "e2c42e66",
					"name()": "06fdde03",
					"owner()": "8da5cb5b",
					"packed()": "8f23d5f6",
					"tokenBalance(address)": "eedc966a",
					"tokenURI()": "3c130d90",
					"tokensAddresses(uint256)": "f7aca939",
					"unPack()": "90d524a2"
				}
			},
			"storageLayout": {
				"storage": [
					{
						"astId": 13,
						"contract": "tron/tokeniz.sol:Tokeniz",
						"label": "TokenizAdmin",
						"offset": 0,
						"slot": "0",
						"type": "t_address"
					},
					{
						"astId": 15,
						"contract": "tron/tokeniz.sol:Tokeniz",
						"label": "owner",
						"offset": 0,
						"slot": "1",
						"type": "t_address"
					},
					{
						"astId": 17,
						"contract": "tron/tokeniz.sol:Tokeniz",
						"label": "packed",
						"offset": 20,
						"slot": "1",
						"type": "t_bool"
					},
					{
						"astId": 19,
						"contract": "tron/tokeniz.sol:Tokeniz",
						"label": "tokenURI",
						"offset": 0,
						"slot": "2",
						"type": "t_string_storage"
					},
					{
						"astId": 21,
						"contract": "tron/tokeniz.sol:Tokeniz",
						"label": "name",
						"offset": 0,
						"slot": "3",
						"type": "t_string_storage"
					},
					{
						"astId": 25,
						"contract": "tron/tokeniz.sol:Tokeniz",
						"label": "tokenBalance",
						"offset": 0,
						"slot": "4",
						"type": "t_mapping(t_address,t_uint256)"
					},
					{
						"astId": 28,
						"contract": "tron/tokeniz.sol:Tokeniz",
						"label": "tokensAddresses",
						"offset": 0,
						"slot": "5",
						"type": "t_array(t_address)dyn_storage"
					}
				],
				"types": {
					"t_address": {
						"encoding": "inplace",
						"label": "address",
						"numberOfBytes": "20"
					},
					"t_array(t_address)dyn_storage": {
						"base": "t_address",
						"encoding": "dynamic_array",
						"label": "address[]",
						"numberOfBytes": "32"
					},
					"t_bool": {
						"encoding": "inplace",
						"label": "bool",
						"numberOfBytes": "1"
					},
					"t_mapping(t_address,t_uint256)": {
						"encoding": "mapping",
						"key": "t_address",
						"label": "mapping(address => uint256)",
						"numberOfBytes": "32",
						"value": "t_uint256"
					},
					"t_string_storage": {
						"encoding": "bytes",
						"label": "string",
						"numberOfBytes": "32"
					},
					"t_uint256": {
						"encoding": "inplace",
						"label": "uint256",
						"numberOfBytes": "32"
					}
				}
			},
			"userdoc": {
				"kind": "user",
				"methods": {},
				"version": 1
			}
		}
	}
}