{
	"tron/proxy.sol": {
		"proxy": {
			"abi": [
				{
					"inputs": [
						{
							"internalType": "address",
							"name": "_initiator",
							"type": "address"
						},
						{
							"internalType": "string",
							"name": "tokenName",
							"type": "string"
						},
						{
							"internalType": "string",
							"name": "_tokenURI",
							"type": "string"
						},
						{
							"internalType": "address[]",
							"name": "_tokensAddresses",
							"type": "address[]"
						},
						{
							"internalType": "uint256[]",
							"name": "_amounts",
							"type": "uint256[]"
						},
						{
							"internalType": "uint256",
							"name": "_tracker",
							"type": "uint256"
						}
					],
					"name": "newTokeniz",
					"outputs": [
						{
							"internalType": "address",
							"name": "",
							"type": "address"
						}
					],
					"stateMutability": "nonpayable",
					"type": "function"
				},
				{
					"inputs": [],
					"name": "tokeniz",
					"outputs": [
						{
							"internalType": "contract Tokeniz",
							"name": "",
							"type": "address"
						}
					],
					"stateMutability": "view",
					"type": "function"
				}
			],
			"devdoc": {
				"kind": "dev",
				"methods": {},
				"version": 1
			},
			"evm": {
				"assembly": "    /* \"tron/proxy.sol\":95:488  contract proxy{\r... */\n  mstore(0x40, 0x80)\n  callvalue\n  dup1\n  iszero\n  tag_1\n  jumpi\n  0x00\n  dup1\n  revert\ntag_1:\n  pop\n  dataSize(sub_0)\n  dup1\n  dataOffset(sub_0)\n  0x00\n  codecopy\n  0x00\n  return\nstop\n\nsub_0: assembly {\n        /* \"tron/proxy.sol\":95:488  contract proxy{\r... */\n      mstore(0x40, 0x80)\n      callvalue\n      dup1\n      iszero\n      tag_1\n      jumpi\n      0x00\n      dup1\n      revert\n    tag_1:\n      pop\n      jumpi(tag_2, lt(calldatasize, 0x04))\n      shr(0xe0, calldataload(0x00))\n      dup1\n      0x334ddae9\n      eq\n      tag_3\n      jumpi\n      dup1\n      0x3ab664e4\n      eq\n      tag_4\n      jumpi\n    tag_2:\n      0x00\n      dup1\n      revert\n        /* \"tron/proxy.sol\":147:485  function newTokeniz(address _initiator,string memory tokenName, string memory _tokenURI, address[] memory _tokensAddresses, uint[] memory _amounts,uint256 _tracker) public returns (address ) {\r... */\n    tag_3:\n      tag_5\n      0x04\n      dup1\n      calldatasize\n      sub\n      dup2\n      add\n      swap1\n      tag_6\n      swap2\n      swap1\n      tag_7\n      jump\t// in\n    tag_6:\n      tag_8\n      jump\t// in\n    tag_5:\n      mload(0x40)\n      tag_9\n      swap2\n      swap1\n      tag_10\n      jump\t// in\n    tag_9:\n      mload(0x40)\n      dup1\n      swap2\n      sub\n      swap1\n      return\n        /* \"tron/proxy.sol\":116:138  Tokeniz public tokeniz */\n    tag_4:\n      tag_11\n      tag_12\n      jump\t// in\n    tag_11:\n      mload(0x40)\n      tag_13\n      swap2\n      swap1\n      tag_14\n      jump\t// in\n    tag_13:\n      mload(0x40)\n      dup1\n      swap2\n      sub\n      swap1\n      return\n        /* \"tron/proxy.sol\":147:485  function newTokeniz(address _initiator,string memory tokenName, string memory _tokenURI, address[] memory _tokensAddresses, uint[] memory _amounts,uint256 _tracker) public returns (address ) {\r... */\n    tag_8:\n        /* \"tron/proxy.sol\":328:335  address */\n      0x00\n        /* \"tron/proxy.sol\":371:381  _initiator */\n      dup7\n        /* \"tron/proxy.sol\":383:392  tokenName */\n      dup7\n        /* \"tron/proxy.sol\":394:403  _tokenURI */\n      dup7\n        /* \"tron/proxy.sol\":406:422  _tokensAddresses */\n      dup7\n        /* \"tron/proxy.sol\":424:432  _amounts */\n      dup7\n        /* \"tron/proxy.sol\":433:441  _tracker */\n      dup7\n        /* \"tron/proxy.sol\":359:443  new Tokeniz(_initiator, tokenName, _tokenURI,  _tokensAddresses, _amounts,_tracker ) */\n      mload(0x40)\n      tag_16\n      swap1\n      tag_17\n      jump\t// in\n    tag_16:\n      tag_18\n      swap7\n      swap6\n      swap5\n      swap4\n      swap3\n      swap2\n      swap1\n      tag_19\n      jump\t// in\n    tag_18:\n      mload(0x40)\n      dup1\n      swap2\n      sub\n      swap1\n      0x00\n      create\n      dup1\n      iszero\n      dup1\n      iszero\n      tag_20\n      jumpi\n      returndatasize\n      0x00\n      dup1\n      returndatacopy\n      revert(0x00, returndatasize)\n    tag_20:\n      pop\n        /* \"tron/proxy.sol\":349:356  tokeniz */\n      0x00\n      dup1\n        /* \"tron/proxy.sol\":349:443  tokeniz = new Tokeniz(_initiator, tokenName, _tokenURI,  _tokensAddresses, _amounts,_tracker ) */\n      0x0100\n      exp\n      dup2\n      sload\n      dup2\n      0xffffffffffffffffffffffffffffffffffffffff\n      mul\n      not\n      and\n      swap1\n      dup4\n      0xffffffffffffffffffffffffffffffffffffffff\n      and\n      mul\n      or\n      swap1\n      sstore\n      pop\n        /* \"tron/proxy.sol\":469:476  tokeniz */\n      0x00\n      dup1\n      sload\n      swap1\n      0x0100\n      exp\n      swap1\n      div\n      0xffffffffffffffffffffffffffffffffffffffff\n      and\n        /* \"tron/proxy.sol\":454:477  return address(tokeniz) */\n      swap1\n      pop\n        /* \"tron/proxy.sol\":147:485  function newTokeniz(address _initiator,string memory tokenName, string memory _tokenURI, address[] memory _tokensAddresses, uint[] memory _amounts,uint256 _tracker) public returns (address ) {\r... */\n      swap7\n      swap6\n      pop\n      pop\n      pop\n      pop\n      pop\n      pop\n      jump\t// out\n        /* \"tron/proxy.sol\":116:138  Tokeniz public tokeniz */\n    tag_12:\n      0x00\n      dup1\n      sload\n      swap1\n      0x0100\n      exp\n      swap1\n      div\n      0xffffffffffffffffffffffffffffffffffffffff\n      and\n      dup2\n      jump\t// out\n    tag_17:\n      dataSize(sub_0)\n      dup1\n      dataOffset(sub_0)\n      dup4\n      codecopy\n      add\n      swap1\n      jump\t// out\n        /* \"#utility.yul\":24:746   */\n    tag_22:\n        /* \"#utility.yul\":120:125   */\n      0x00\n        /* \"#utility.yul\":145:226   */\n      tag_24\n        /* \"#utility.yul\":161:225   */\n      tag_25\n        /* \"#utility.yul\":218:224   */\n      dup5\n        /* \"#utility.yul\":161:225   */\n      tag_26\n      jump\t// in\n    tag_25:\n        /* \"#utility.yul\":145:226   */\n      tag_27\n      jump\t// in\n    tag_24:\n        /* \"#utility.yul\":136:226   */\n      swap1\n      pop\n        /* \"#utility.yul\":246:251   */\n      dup1\n        /* \"#utility.yul\":275:281   */\n      dup4\n        /* \"#utility.yul\":268:273   */\n      dup3\n        /* \"#utility.yul\":261:282   */\n      mstore\n        /* \"#utility.yul\":309:313   */\n      0x20\n        /* \"#utility.yul\":302:307   */\n      dup3\n        /* \"#utility.yul\":298:314   */\n      add\n        /* \"#utility.yul\":291:314   */\n      swap1\n      pop\n        /* \"#utility.yul\":335:341   */\n      dup3\n        /* \"#utility.yul\":385:388   */\n      dup6\n        /* \"#utility.yul\":377:381   */\n      0x20\n        /* \"#utility.yul\":369:375   */\n      dup7\n        /* \"#utility.yul\":365:382   */\n      mul\n        /* \"#utility.yul\":360:363   */\n      dup3\n        /* \"#utility.yul\":356:383   */\n      add\n        /* \"#utility.yul\":353:389   */\n      gt\n        /* \"#utility.yul\":350:493   */\n      iszero\n      tag_28\n      jumpi\n        /* \"#utility.yul\":404:483   */\n      tag_29\n      tag_30\n      jump\t// in\n    tag_29:\n        /* \"#utility.yul\":350:493   */\n    tag_28:\n        /* \"#utility.yul\":517:518   */\n      0x00\n        /* \"#utility.yul\":502:740   */\n    tag_31:\n        /* \"#utility.yul\":527:533   */\n      dup6\n        /* \"#utility.yul\":524:525   */\n      dup2\n        /* \"#utility.yul\":521:534   */\n      lt\n        /* \"#utility.yul\":502:740   */\n      iszero\n      tag_33\n      jumpi\n        /* \"#utility.yul\":595:598   */\n      dup2\n        /* \"#utility.yul\":624:661   */\n      tag_34\n        /* \"#utility.yul\":657:660   */\n      dup9\n        /* \"#utility.yul\":645:655   */\n      dup3\n        /* \"#utility.yul\":624:661   */\n      tag_35\n      jump\t// in\n    tag_34:\n        /* \"#utility.yul\":619:622   */\n      dup5\n        /* \"#utility.yul\":612:662   */\n      mstore\n        /* \"#utility.yul\":691:695   */\n      0x20\n        /* \"#utility.yul\":686:689   */\n      dup5\n        /* \"#utility.yul\":682:696   */\n      add\n        /* \"#utility.yul\":675:696   */\n      swap4\n      pop\n        /* \"#utility.yul\":725:729   */\n      0x20\n        /* \"#utility.yul\":720:723   */\n      dup4\n        /* \"#utility.yul\":716:730   */\n      add\n        /* \"#utility.yul\":709:730   */\n      swap3\n      pop\n        /* \"#utility.yul\":562:740   */\n      pop\n        /* \"#utility.yul\":549:550   */\n      0x01\n        /* \"#utility.yul\":546:547   */\n      dup2\n        /* \"#utility.yul\":542:551   */\n      add\n        /* \"#utility.yul\":537:551   */\n      swap1\n      pop\n        /* \"#utility.yul\":502:740   */\n      jump(tag_31)\n    tag_33:\n        /* \"#utility.yul\":506:520   */\n      pop\n        /* \"#utility.yul\":126:746   */\n      pop\n      pop\n        /* \"#utility.yul\":24:746   */\n      swap4\n      swap3\n      pop\n      pop\n      pop\n      jump\t// out\n        /* \"#utility.yul\":769:1491   */\n    tag_36:\n        /* \"#utility.yul\":865:870   */\n      0x00\n        /* \"#utility.yul\":890:971   */\n      tag_38\n        /* \"#utility.yul\":906:970   */\n      tag_39\n        /* \"#utility.yul\":963:969   */\n      dup5\n        /* \"#utility.yul\":906:970   */\n      tag_40\n      jump\t// in\n    tag_39:\n        /* \"#utility.yul\":890:971   */\n      tag_27\n      jump\t// in\n    tag_38:\n        /* \"#utility.yul\":881:971   */\n      swap1\n      pop\n        /* \"#utility.yul\":991:996   */\n      dup1\n        /* \"#utility.yul\":1020:1026   */\n      dup4\n        /* \"#utility.yul\":1013:1018   */\n      dup3\n        /* \"#utility.yul\":1006:1027   */\n      mstore\n        /* \"#utility.yul\":1054:1058   */\n      0x20\n        /* \"#utility.yul\":1047:1052   */\n      dup3\n        /* \"#utility.yul\":1043:1059   */\n      add\n        /* \"#utility.yul\":1036:1059   */\n      swap1\n      pop\n        /* \"#utility.yul\":1080:1086   */\n      dup3\n        /* \"#utility.yul\":1130:1133   */\n      dup6\n        /* \"#utility.yul\":1122:1126   */\n      0x20\n        /* \"#utility.yul\":1114:1120   */\n      dup7\n        /* \"#utility.yul\":1110:1127   */\n      mul\n        /* \"#utility.yul\":1105:1108   */\n      dup3\n        /* \"#utility.yul\":1101:1128   */\n      add\n        /* \"#utility.yul\":1098:1134   */\n      gt\n        /* \"#utility.yul\":1095:1238   */\n      iszero\n      tag_41\n      jumpi\n        /* \"#utility.yul\":1149:1228   */\n      tag_42\n      tag_30\n      jump\t// in\n    tag_42:\n        /* \"#utility.yul\":1095:1238   */\n    tag_41:\n        /* \"#utility.yul\":1262:1263   */\n      0x00\n        /* \"#utility.yul\":1247:1485   */\n    tag_43:\n        /* \"#utility.yul\":1272:1278   */\n      dup6\n        /* \"#utility.yul\":1269:1270   */\n      dup2\n        /* \"#utility.yul\":1266:1279   */\n      lt\n        /* \"#utility.yul\":1247:1485   */\n      iszero\n      tag_45\n      jumpi\n        /* \"#utility.yul\":1340:1343   */\n      dup2\n        /* \"#utility.yul\":1369:1406   */\n      tag_46\n        /* \"#utility.yul\":1402:1405   */\n      dup9\n        /* \"#utility.yul\":1390:1400   */\n      dup3\n        /* \"#utility.yul\":1369:1406   */\n      tag_47\n      jump\t// in\n    tag_46:\n        /* \"#utility.yul\":1364:1367   */\n      dup5\n        /* \"#utility.yul\":1357:1407   */\n      mstore\n        /* \"#utility.yul\":1436:1440   */\n      0x20\n        /* \"#utility.yul\":1431:1434   */\n      dup5\n        /* \"#utility.yul\":1427:1441   */\n      add\n        /* \"#utility.yul\":1420:1441   */\n      swap4\n      pop\n        /* \"#utility.yul\":1470:1474   */\n      0x20\n        /* \"#utility.yul\":1465:1468   */\n      dup4\n        /* \"#utility.yul\":1461:1475   */\n      add\n        /* \"#utility.yul\":1454:1475   */\n      swap3\n      pop\n        /* \"#utility.yul\":1307:1485   */\n      pop\n        /* \"#utility.yul\":1294:1295   */\n      0x01\n        /* \"#utility.yul\":1291:1292   */\n      dup2\n        /* \"#utility.yul\":1287:1296   */\n      add\n        /* \"#utility.yul\":1282:1296   */\n      swap1\n      pop\n        /* \"#utility.yul\":1247:1485   */\n      jump(tag_43)\n    tag_45:\n        /* \"#utility.yul\":1251:1265   */\n      pop\n        /* \"#utility.yul\":871:1491   */\n      pop\n      pop\n        /* \"#utility.yul\":769:1491   */\n      swap4\n      swap3\n      pop\n      pop\n      pop\n      jump\t// out\n        /* \"#utility.yul\":1497:1909   */\n    tag_48:\n        /* \"#utility.yul\":1575:1580   */\n      0x00\n        /* \"#utility.yul\":1600:1666   */\n      tag_50\n        /* \"#utility.yul\":1616:1665   */\n      tag_51\n        /* \"#utility.yul\":1658:1664   */\n      dup5\n        /* \"#utility.yul\":1616:1665   */\n      tag_52\n      jump\t// in\n    tag_51:\n        /* \"#utility.yul\":1600:1666   */\n      tag_27\n      jump\t// in\n    tag_50:\n        /* \"#utility.yul\":1591:1666   */\n      swap1\n      pop\n        /* \"#utility.yul\":1689:1695   */\n      dup3\n        /* \"#utility.yul\":1682:1687   */\n      dup2\n        /* \"#utility.yul\":1675:1696   */\n      mstore\n        /* \"#utility.yul\":1727:1731   */\n      0x20\n        /* \"#utility.yul\":1720:1725   */\n      dup2\n        /* \"#utility.yul\":1716:1732   */\n      add\n        /* \"#utility.yul\":1765:1768   */\n      dup5\n        /* \"#utility.yul\":1756:1762   */\n      dup5\n        /* \"#utility.yul\":1751:1754   */\n      dup5\n        /* \"#utility.yul\":1747:1763   */\n      add\n        /* \"#utility.yul\":1744:1769   */\n      gt\n        /* \"#utility.yul\":1741:1853   */\n      iszero\n      tag_53\n      jumpi\n        /* \"#utility.yul\":1772:1851   */\n      tag_54\n      tag_55\n      jump\t// in\n    tag_54:\n        /* \"#utility.yul\":1741:1853   */\n    tag_53:\n        /* \"#utility.yul\":1862:1903   */\n      tag_56\n        /* \"#utility.yul\":1896:1902   */\n      dup5\n        /* \"#utility.yul\":1891:1894   */\n      dup3\n        /* \"#utility.yul\":1886:1889   */\n      dup6\n        /* \"#utility.yul\":1862:1903   */\n      tag_57\n      jump\t// in\n    tag_56:\n        /* \"#utility.yul\":1581:1909   */\n      pop\n        /* \"#utility.yul\":1497:1909   */\n      swap4\n      swap3\n      pop\n      pop\n      pop\n      jump\t// out\n        /* \"#utility.yul\":1915:2054   */\n    tag_35:\n        /* \"#utility.yul\":1961:1966   */\n      0x00\n        /* \"#utility.yul\":1999:2005   */\n      dup2\n        /* \"#utility.yul\":1986:2006   */\n      calldataload\n        /* \"#utility.yul\":1977:2006   */\n      swap1\n      pop\n        /* \"#utility.yul\":2015:2048   */\n      tag_59\n        /* \"#utility.yul\":2042:2047   */\n      dup2\n        /* \"#utility.yul\":2015:2048   */\n      tag_60\n      jump\t// in\n    tag_59:\n        /* \"#utility.yul\":1915:2054   */\n      swap3\n      swap2\n      pop\n      pop\n      jump\t// out\n        /* \"#utility.yul\":2077:2447   */\n    tag_61:\n        /* \"#utility.yul\":2148:2153   */\n      0x00\n        /* \"#utility.yul\":2197:2200   */\n      dup3\n        /* \"#utility.yul\":2190:2194   */\n      0x1f\n        /* \"#utility.yul\":2182:2188   */\n      dup4\n        /* \"#utility.yul\":2178:2195   */\n      add\n        /* \"#utility.yul\":2174:2201   */\n      slt\n        /* \"#utility.yul\":2164:2286   */\n      tag_63\n      jumpi\n        /* \"#utility.yul\":2205:2284   */\n      tag_64\n      tag_65\n      jump\t// in\n    tag_64:\n        /* \"#utility.yul\":2164:2286   */\n    tag_63:\n        /* \"#utility.yul\":2322:2328   */\n      dup2\n        /* \"#utility.yul\":2309:2329   */\n      calldataload\n        /* \"#utility.yul\":2347:2441   */\n      tag_66\n        /* \"#utility.yul\":2437:2440   */\n      dup5\n        /* \"#utility.yul\":2429:2435   */\n      dup3\n        /* \"#utility.yul\":2422:2426   */\n      0x20\n        /* \"#utility.yul\":2414:2420   */\n      dup7\n        /* \"#utility.yul\":2410:2427   */\n      add\n        /* \"#utility.yul\":2347:2441   */\n      tag_22\n      jump\t// in\n    tag_66:\n        /* \"#utility.yul\":2338:2441   */\n      swap2\n      pop\n        /* \"#utility.yul\":2154:2447   */\n      pop\n        /* \"#utility.yul\":2077:2447   */\n      swap3\n      swap2\n      pop\n      pop\n      jump\t// out\n        /* \"#utility.yul\":2470:2840   */\n    tag_67:\n        /* \"#utility.yul\":2541:2546   */\n      0x00\n        /* \"#utility.yul\":2590:2593   */\n      dup3\n        /* \"#utility.yul\":2583:2587   */\n      0x1f\n        /* \"#utility.yul\":2575:2581   */\n      dup4\n        /* \"#utility.yul\":2571:2588   */\n      add\n        /* \"#utility.yul\":2567:2594   */\n      slt\n        /* \"#utility.yul\":2557:2679   */\n      tag_69\n      jumpi\n        /* \"#utility.yul\":2598:2677   */\n      tag_70\n      tag_65\n      jump\t// in\n    tag_70:\n        /* \"#utility.yul\":2557:2679   */\n    tag_69:\n        /* \"#utility.yul\":2715:2721   */\n      dup2\n        /* \"#utility.yul\":2702:2722   */\n      calldataload\n        /* \"#utility.yul\":2740:2834   */\n      tag_71\n        /* \"#utility.yul\":2830:2833   */\n      dup5\n        /* \"#utility.yul\":2822:2828   */\n      dup3\n        /* \"#utility.yul\":2815:2819   */\n      0x20\n        /* \"#utility.yul\":2807:2813   */\n      dup7\n        /* \"#utility.yul\":2803:2820   */\n      add\n        /* \"#utility.yul\":2740:2834   */\n      tag_36\n      jump\t// in\n    tag_71:\n        /* \"#utility.yul\":2731:2834   */\n      swap2\n      pop\n        /* \"#utility.yul\":2547:2840   */\n      pop\n        /* \"#utility.yul\":2470:2840   */\n      swap3\n      swap2\n      pop\n      pop\n      jump\t// out\n        /* \"#utility.yul\":2860:3200   */\n    tag_72:\n        /* \"#utility.yul\":2916:2921   */\n      0x00\n        /* \"#utility.yul\":2965:2968   */\n      dup3\n        /* \"#utility.yul\":2958:2962   */\n      0x1f\n        /* \"#utility.yul\":2950:2956   */\n      dup4\n        /* \"#utility.yul\":2946:2963   */\n      add\n        /* \"#utility.yul\":2942:2969   */\n      slt\n        /* \"#utility.yul\":2932:3054   */\n      tag_74\n      jumpi\n        /* \"#utility.yul\":2973:3052   */\n      tag_75\n      tag_65\n      jump\t// in\n    tag_75:\n        /* \"#utility.yul\":2932:3054   */\n    tag_74:\n        /* \"#utility.yul\":3090:3096   */\n      dup2\n        /* \"#utility.yul\":3077:3097   */\n      calldataload\n        /* \"#utility.yul\":3115:3194   */\n      tag_76\n        /* \"#utility.yul\":3190:3193   */\n      dup5\n        /* \"#utility.yul\":3182:3188   */\n      dup3\n        /* \"#utility.yul\":3175:3179   */\n      0x20\n        /* \"#utility.yul\":3167:3173   */\n      dup7\n        /* \"#utility.yul\":3163:3180   */\n      add\n        /* \"#utility.yul\":3115:3194   */\n      tag_48\n      jump\t// in\n    tag_76:\n        /* \"#utility.yul\":3106:3194   */\n      swap2\n      pop\n        /* \"#utility.yul\":2922:3200   */\n      pop\n        /* \"#utility.yul\":2860:3200   */\n      swap3\n      swap2\n      pop\n      pop\n      jump\t// out\n        /* \"#utility.yul\":3206:3345   */\n    tag_47:\n        /* \"#utility.yul\":3252:3257   */\n      0x00\n        /* \"#utility.yul\":3290:3296   */\n      dup2\n        /* \"#utility.yul\":3277:3297   */\n      calldataload\n        /* \"#utility.yul\":3268:3297   */\n      swap1\n      pop\n        /* \"#utility.yul\":3306:3339   */\n      tag_78\n        /* \"#utility.yul\":3333:3338   */\n      dup2\n        /* \"#utility.yul\":3306:3339   */\n      tag_79\n      jump\t// in\n    tag_78:\n        /* \"#utility.yul\":3206:3345   */\n      swap3\n      swap2\n      pop\n      pop\n      jump\t// out\n        /* \"#utility.yul\":3351:5188   */\n    tag_7:\n        /* \"#utility.yul\":3525:3531   */\n      0x00\n        /* \"#utility.yul\":3533:3539   */\n      dup1\n        /* \"#utility.yul\":3541:3547   */\n      0x00\n        /* \"#utility.yul\":3549:3555   */\n      dup1\n        /* \"#utility.yul\":3557:3563   */\n      0x00\n        /* \"#utility.yul\":3565:3571   */\n      dup1\n        /* \"#utility.yul\":3614:3617   */\n      0xc0\n        /* \"#utility.yul\":3602:3611   */\n      dup8\n        /* \"#utility.yul\":3593:3600   */\n      dup10\n        /* \"#utility.yul\":3589:3612   */\n      sub\n        /* \"#utility.yul\":3585:3618   */\n      slt\n        /* \"#utility.yul\":3582:3702   */\n      iszero\n      tag_81\n      jumpi\n        /* \"#utility.yul\":3621:3700   */\n      tag_82\n      tag_83\n      jump\t// in\n    tag_82:\n        /* \"#utility.yul\":3582:3702   */\n    tag_81:\n        /* \"#utility.yul\":3741:3742   */\n      0x00\n        /* \"#utility.yul\":3766:3819   */\n      tag_84\n        /* \"#utility.yul\":3811:3818   */\n      dup10\n        /* \"#utility.yul\":3802:3808   */\n      dup3\n        /* \"#utility.yul\":3791:3800   */\n      dup11\n        /* \"#utility.yul\":3787:3809   */\n      add\n        /* \"#utility.yul\":3766:3819   */\n      tag_35\n      jump\t// in\n    tag_84:\n        /* \"#utility.yul\":3756:3819   */\n      swap7\n      pop\n        /* \"#utility.yul\":3712:3829   */\n      pop\n        /* \"#utility.yul\":3896:3898   */\n      0x20\n        /* \"#utility.yul\":3885:3894   */\n      dup8\n        /* \"#utility.yul\":3881:3899   */\n      add\n        /* \"#utility.yul\":3868:3900   */\n      calldataload\n        /* \"#utility.yul\":3927:3945   */\n      0xffffffffffffffff\n        /* \"#utility.yul\":3919:3925   */\n      dup2\n        /* \"#utility.yul\":3916:3946   */\n      gt\n        /* \"#utility.yul\":3913:4030   */\n      iszero\n      tag_85\n      jumpi\n        /* \"#utility.yul\":3949:4028   */\n      tag_86\n      tag_87\n      jump\t// in\n    tag_86:\n        /* \"#utility.yul\":3913:4030   */\n    tag_85:\n        /* \"#utility.yul\":4054:4117   */\n      tag_88\n        /* \"#utility.yul\":4109:4116   */\n      dup10\n        /* \"#utility.yul\":4100:4106   */\n      dup3\n        /* \"#utility.yul\":4089:4098   */\n      dup11\n        /* \"#utility.yul\":4085:4107   */\n      add\n        /* \"#utility.yul\":4054:4117   */\n      tag_72\n      jump\t// in\n    tag_88:\n        /* \"#utility.yul\":4044:4117   */\n      swap6\n      pop\n        /* \"#utility.yul\":3839:4127   */\n      pop\n        /* \"#utility.yul\":4194:4196   */\n      0x40\n        /* \"#utility.yul\":4183:4192   */\n      dup8\n        /* \"#utility.yul\":4179:4197   */\n      add\n        /* \"#utility.yul\":4166:4198   */\n      calldataload\n        /* \"#utility.yul\":4225:4243   */\n      0xffffffffffffffff\n        /* \"#utility.yul\":4217:4223   */\n      dup2\n        /* \"#utility.yul\":4214:4244   */\n      gt\n        /* \"#utility.yul\":4211:4328   */\n      iszero\n      tag_89\n      jumpi\n        /* \"#utility.yul\":4247:4326   */\n      tag_90\n      tag_87\n      jump\t// in\n    tag_90:\n        /* \"#utility.yul\":4211:4328   */\n    tag_89:\n        /* \"#utility.yul\":4352:4415   */\n      tag_91\n        /* \"#utility.yul\":4407:4414   */\n      dup10\n        /* \"#utility.yul\":4398:4404   */\n      dup3\n        /* \"#utility.yul\":4387:4396   */\n      dup11\n        /* \"#utility.yul\":4383:4405   */\n      add\n        /* \"#utility.yul\":4352:4415   */\n      tag_72\n      jump\t// in\n    tag_91:\n        /* \"#utility.yul\":4342:4415   */\n      swap5\n      pop\n        /* \"#utility.yul\":4137:4425   */\n      pop\n        /* \"#utility.yul\":4492:4494   */\n      0x60\n        /* \"#utility.yul\":4481:4490   */\n      dup8\n        /* \"#utility.yul\":4477:4495   */\n      add\n        /* \"#utility.yul\":4464:4496   */\n      calldataload\n        /* \"#utility.yul\":4523:4541   */\n      0xffffffffffffffff\n        /* \"#utility.yul\":4515:4521   */\n      dup2\n        /* \"#utility.yul\":4512:4542   */\n      gt\n        /* \"#utility.yul\":4509:4626   */\n      iszero\n      tag_92\n      jumpi\n        /* \"#utility.yul\":4545:4624   */\n      tag_93\n      tag_87\n      jump\t// in\n    tag_93:\n        /* \"#utility.yul\":4509:4626   */\n    tag_92:\n        /* \"#utility.yul\":4650:4728   */\n      tag_94\n        /* \"#utility.yul\":4720:4727   */\n      dup10\n        /* \"#utility.yul\":4711:4717   */\n      dup3\n        /* \"#utility.yul\":4700:4709   */\n      dup11\n        /* \"#utility.yul\":4696:4718   */\n      add\n        /* \"#utility.yul\":4650:4728   */\n      tag_61\n      jump\t// in\n    tag_94:\n        /* \"#utility.yul\":4640:4728   */\n      swap4\n      pop\n        /* \"#utility.yul\":4435:4738   */\n      pop\n        /* \"#utility.yul\":4805:4808   */\n      0x80\n        /* \"#utility.yul\":4794:4803   */\n      dup8\n        /* \"#utility.yul\":4790:4809   */\n      add\n        /* \"#utility.yul\":4777:4810   */\n      calldataload\n        /* \"#utility.yul\":4837:4855   */\n      0xffffffffffffffff\n        /* \"#utility.yul\":4829:4835   */\n      dup2\n        /* \"#utility.yul\":4826:4856   */\n      gt\n        /* \"#utility.yul\":4823:4940   */\n      iszero\n      tag_95\n      jumpi\n        /* \"#utility.yul\":4859:4938   */\n      tag_96\n      tag_87\n      jump\t// in\n    tag_96:\n        /* \"#utility.yul\":4823:4940   */\n    tag_95:\n        /* \"#utility.yul\":4964:5042   */\n      tag_97\n        /* \"#utility.yul\":5034:5041   */\n      dup10\n        /* \"#utility.yul\":5025:5031   */\n      dup3\n        /* \"#utility.yul\":5014:5023   */\n      dup11\n        /* \"#utility.yul\":5010:5032   */\n      add\n        /* \"#utility.yul\":4964:5042   */\n      tag_67\n      jump\t// in\n    tag_97:\n        /* \"#utility.yul\":4954:5042   */\n      swap3\n      pop\n        /* \"#utility.yul\":4748:5052   */\n      pop\n        /* \"#utility.yul\":5091:5094   */\n      0xa0\n        /* \"#utility.yul\":5118:5171   */\n      tag_98\n        /* \"#utility.yul\":5163:5170   */\n      dup10\n        /* \"#utility.yul\":5154:5160   */\n      dup3\n        /* \"#utility.yul\":5143:5152   */\n      dup11\n        /* \"#utility.yul\":5139:5161   */\n      add\n        /* \"#utility.yul\":5118:5171   */\n      tag_47\n      jump\t// in\n    tag_98:\n        /* \"#utility.yul\":5108:5171   */\n      swap2\n      pop\n        /* \"#utility.yul\":5062:5181   */\n      pop\n        /* \"#utility.yul\":3351:5188   */\n      swap3\n      swap6\n      pop\n      swap3\n      swap6\n      pop\n      swap3\n      swap6\n      jump\t// out\n        /* \"#utility.yul\":5194:5373   */\n    tag_99:\n        /* \"#utility.yul\":5263:5273   */\n      0x00\n        /* \"#utility.yul\":5284:5330   */\n      tag_101\n        /* \"#utility.yul\":5326:5329   */\n      dup4\n        /* \"#utility.yul\":5318:5324   */\n      dup4\n        /* \"#utility.yul\":5284:5330   */\n      tag_102\n      jump\t// in\n    tag_101:\n        /* \"#utility.yul\":5362:5366   */\n      0x20\n        /* \"#utility.yul\":5357:5360   */\n      dup4\n        /* \"#utility.yul\":5353:5367   */\n      add\n        /* \"#utility.yul\":5339:5367   */\n      swap1\n      pop\n        /* \"#utility.yul\":5194:5373   */\n      swap3\n      swap2\n      pop\n      pop\n      jump\t// out\n        /* \"#utility.yul\":5379:5558   */\n    tag_103:\n        /* \"#utility.yul\":5448:5458   */\n      0x00\n        /* \"#utility.yul\":5469:5515   */\n      tag_105\n        /* \"#utility.yul\":5511:5514   */\n      dup4\n        /* \"#utility.yul\":5503:5509   */\n      dup4\n        /* \"#utility.yul\":5469:5515   */\n      tag_106\n      jump\t// in\n    tag_105:\n        /* \"#utility.yul\":5547:5551   */\n      0x20\n        /* \"#utility.yul\":5542:5545   */\n      dup4\n        /* \"#utility.yul\":5538:5552   */\n      add\n        /* \"#utility.yul\":5524:5552   */\n      swap1\n      pop\n        /* \"#utility.yul\":5379:5558   */\n      swap3\n      swap2\n      pop\n      pop\n      jump\t// out\n        /* \"#utility.yul\":5564:5672   */\n    tag_102:\n        /* \"#utility.yul\":5641:5665   */\n      tag_108\n        /* \"#utility.yul\":5659:5664   */\n      dup2\n        /* \"#utility.yul\":5641:5665   */\n      tag_109\n      jump\t// in\n    tag_108:\n        /* \"#utility.yul\":5636:5639   */\n      dup3\n        /* \"#utility.yul\":5629:5666   */\n      mstore\n        /* \"#utility.yul\":5564:5672   */\n      pop\n      pop\n      jump\t// out\n        /* \"#utility.yul\":5678:5796   */\n    tag_110:\n        /* \"#utility.yul\":5765:5789   */\n      tag_112\n        /* \"#utility.yul\":5783:5788   */\n      dup2\n        /* \"#utility.yul\":5765:5789   */\n      tag_109\n      jump\t// in\n    tag_112:\n        /* \"#utility.yul\":5760:5763   */\n      dup3\n        /* \"#utility.yul\":5753:5790   */\n      mstore\n        /* \"#utility.yul\":5678:5796   */\n      pop\n      pop\n      jump\t// out\n        /* \"#utility.yul\":5832:6564   */\n    tag_113:\n        /* \"#utility.yul\":5951:5954   */\n      0x00\n        /* \"#utility.yul\":5980:6034   */\n      tag_115\n        /* \"#utility.yul\":6028:6033   */\n      dup3\n        /* \"#utility.yul\":5980:6034   */\n      tag_116\n      jump\t// in\n    tag_115:\n        /* \"#utility.yul\":6050:6136   */\n      tag_117\n        /* \"#utility.yul\":6129:6135   */\n      dup2\n        /* \"#utility.yul\":6124:6127   */\n      dup6\n        /* \"#utility.yul\":6050:6136   */\n      tag_118\n      jump\t// in\n    tag_117:\n        /* \"#utility.yul\":6043:6136   */\n      swap4\n      pop\n        /* \"#utility.yul\":6160:6216   */\n      tag_119\n        /* \"#utility.yul\":6210:6215   */\n      dup4\n        /* \"#utility.yul\":6160:6216   */\n      tag_120\n      jump\t// in\n    tag_119:\n        /* \"#utility.yul\":6239:6246   */\n      dup1\n        /* \"#utility.yul\":6270:6271   */\n      0x00\n        /* \"#utility.yul\":6255:6539   */\n    tag_121:\n        /* \"#utility.yul\":6280:6286   */\n      dup4\n        /* \"#utility.yul\":6277:6278   */\n      dup2\n        /* \"#utility.yul\":6274:6287   */\n      lt\n        /* \"#utility.yul\":6255:6539   */\n      iszero\n      tag_123\n      jumpi\n        /* \"#utility.yul\":6356:6362   */\n      dup2\n        /* \"#utility.yul\":6350:6363   */\n      mload\n        /* \"#utility.yul\":6383:6446   */\n      tag_124\n        /* \"#utility.yul\":6442:6445   */\n      dup9\n        /* \"#utility.yul\":6427:6440   */\n      dup3\n        /* \"#utility.yul\":6383:6446   */\n      tag_99\n      jump\t// in\n    tag_124:\n        /* \"#utility.yul\":6376:6446   */\n      swap8\n      pop\n        /* \"#utility.yul\":6469:6529   */\n      tag_125\n        /* \"#utility.yul\":6522:6528   */\n      dup4\n        /* \"#utility.yul\":6469:6529   */\n      tag_126\n      jump\t// in\n    tag_125:\n        /* \"#utility.yul\":6459:6529   */\n      swap3\n      pop\n        /* \"#utility.yul\":6315:6539   */\n      pop\n        /* \"#utility.yul\":6302:6303   */\n      0x01\n        /* \"#utility.yul\":6299:6300   */\n      dup2\n        /* \"#utility.yul\":6295:6304   */\n      add\n        /* \"#utility.yul\":6290:6304   */\n      swap1\n      pop\n        /* \"#utility.yul\":6255:6539   */\n      jump(tag_121)\n    tag_123:\n        /* \"#utility.yul\":6259:6273   */\n      pop\n        /* \"#utility.yul\":6555:6558   */\n      dup6\n        /* \"#utility.yul\":6548:6558   */\n      swap4\n      pop\n        /* \"#utility.yul\":5956:6564   */\n      pop\n      pop\n      pop\n        /* \"#utility.yul\":5832:6564   */\n      swap3\n      swap2\n      pop\n      pop\n      jump\t// out\n        /* \"#utility.yul\":6600:7332   */\n    tag_127:\n        /* \"#utility.yul\":6719:6722   */\n      0x00\n        /* \"#utility.yul\":6748:6802   */\n      tag_129\n        /* \"#utility.yul\":6796:6801   */\n      dup3\n        /* \"#utility.yul\":6748:6802   */\n      tag_130\n      jump\t// in\n    tag_129:\n        /* \"#utility.yul\":6818:6904   */\n      tag_131\n        /* \"#utility.yul\":6897:6903   */\n      dup2\n        /* \"#utility.yul\":6892:6895   */\n      dup6\n        /* \"#utility.yul\":6818:6904   */\n      tag_132\n      jump\t// in\n    tag_131:\n        /* \"#utility.yul\":6811:6904   */\n      swap4\n      pop\n        /* \"#utility.yul\":6928:6984   */\n      tag_133\n        /* \"#utility.yul\":6978:6983   */\n      dup4\n        /* \"#utility.yul\":6928:6984   */\n      tag_134\n      jump\t// in\n    tag_133:\n        /* \"#utility.yul\":7007:7014   */\n      dup1\n        /* \"#utility.yul\":7038:7039   */\n      0x00\n        /* \"#utility.yul\":7023:7307   */\n    tag_135:\n        /* \"#utility.yul\":7048:7054   */\n      dup4\n        /* \"#utility.yul\":7045:7046   */\n      dup2\n        /* \"#utility.yul\":7042:7055   */\n      lt\n        /* \"#utility.yul\":7023:7307   */\n      iszero\n      tag_137\n      jumpi\n        /* \"#utility.yul\":7124:7130   */\n      dup2\n        /* \"#utility.yul\":7118:7131   */\n      mload\n        /* \"#utility.yul\":7151:7214   */\n      tag_138\n        /* \"#utility.yul\":7210:7213   */\n      dup9\n        /* \"#utility.yul\":7195:7208   */\n      dup3\n        /* \"#utility.yul\":7151:7214   */\n      tag_103\n      jump\t// in\n    tag_138:\n        /* \"#utility.yul\":7144:7214   */\n      swap8\n      pop\n        /* \"#utility.yul\":7237:7297   */\n      tag_139\n        /* \"#utility.yul\":7290:7296   */\n      dup4\n        /* \"#utility.yul\":7237:7297   */\n      tag_140\n      jump\t// in\n    tag_139:\n        /* \"#utility.yul\":7227:7297   */\n      swap3\n      pop\n        /* \"#utility.yul\":7083:7307   */\n      pop\n        /* \"#utility.yul\":7070:7071   */\n      0x01\n        /* \"#utility.yul\":7067:7068   */\n      dup2\n        /* \"#utility.yul\":7063:7072   */\n      add\n        /* \"#utility.yul\":7058:7072   */\n      swap1\n      pop\n        /* \"#utility.yul\":7023:7307   */\n      jump(tag_135)\n    tag_137:\n        /* \"#utility.yul\":7027:7041   */\n      pop\n        /* \"#utility.yul\":7323:7326   */\n      dup6\n        /* \"#utility.yul\":7316:7326   */\n      swap4\n      pop\n        /* \"#utility.yul\":6724:7332   */\n      pop\n      pop\n      pop\n        /* \"#utility.yul\":6600:7332   */\n      swap3\n      swap2\n      pop\n      pop\n      jump\t// out\n        /* \"#utility.yul\":7338:7499   */\n    tag_141:\n        /* \"#utility.yul\":7440:7492   */\n      tag_143\n        /* \"#utility.yul\":7486:7491   */\n      dup2\n        /* \"#utility.yul\":7440:7492   */\n      tag_144\n      jump\t// in\n    tag_143:\n        /* \"#utility.yul\":7435:7438   */\n      dup3\n        /* \"#utility.yul\":7428:7493   */\n      mstore\n        /* \"#utility.yul\":7338:7499   */\n      pop\n      pop\n      jump\t// out\n        /* \"#utility.yul\":7505:7869   */\n    tag_145:\n        /* \"#utility.yul\":7593:7596   */\n      0x00\n        /* \"#utility.yul\":7621:7660   */\n      tag_147\n        /* \"#utility.yul\":7654:7659   */\n      dup3\n        /* \"#utility.yul\":7621:7660   */\n      tag_148\n      jump\t// in\n    tag_147:\n        /* \"#utility.yul\":7676:7747   */\n      tag_149\n        /* \"#utility.yul\":7740:7746   */\n      dup2\n        /* \"#utility.yul\":7735:7738   */\n      dup6\n        /* \"#utility.yul\":7676:7747   */\n      tag_150\n      jump\t// in\n    tag_149:\n        /* \"#utility.yul\":7669:7747   */\n      swap4\n      pop\n        /* \"#utility.yul\":7756:7808   */\n      tag_151\n        /* \"#utility.yul\":7801:7807   */\n      dup2\n        /* \"#utility.yul\":7796:7799   */\n      dup6\n        /* \"#utility.yul\":7789:7793   */\n      0x20\n        /* \"#utility.yul\":7782:7787   */\n      dup7\n        /* \"#utility.yul\":7778:7794   */\n      add\n        /* \"#utility.yul\":7756:7808   */\n      tag_152\n      jump\t// in\n    tag_151:\n        /* \"#utility.yul\":7833:7862   */\n      tag_153\n        /* \"#utility.yul\":7855:7861   */\n      dup2\n        /* \"#utility.yul\":7833:7862   */\n      tag_154\n      jump\t// in\n    tag_153:\n        /* \"#utility.yul\":7828:7831   */\n      dup5\n        /* \"#utility.yul\":7824:7863   */\n      add\n        /* \"#utility.yul\":7817:7863   */\n      swap2\n      pop\n        /* \"#utility.yul\":7597:7869   */\n      pop\n        /* \"#utility.yul\":7505:7869   */\n      swap3\n      swap2\n      pop\n      pop\n      jump\t// out\n        /* \"#utility.yul\":7875:7983   */\n    tag_106:\n        /* \"#utility.yul\":7952:7976   */\n      tag_156\n        /* \"#utility.yul\":7970:7975   */\n      dup2\n        /* \"#utility.yul\":7952:7976   */\n      tag_157\n      jump\t// in\n    tag_156:\n        /* \"#utility.yul\":7947:7950   */\n      dup3\n        /* \"#utility.yul\":7940:7977   */\n      mstore\n        /* \"#utility.yul\":7875:7983   */\n      pop\n      pop\n      jump\t// out\n        /* \"#utility.yul\":7989:8107   */\n    tag_158:\n        /* \"#utility.yul\":8076:8100   */\n      tag_160\n        /* \"#utility.yul\":8094:8099   */\n      dup2\n        /* \"#utility.yul\":8076:8100   */\n      tag_157\n      jump\t// in\n    tag_160:\n        /* \"#utility.yul\":8071:8074   */\n      dup3\n        /* \"#utility.yul\":8064:8101   */\n      mstore\n        /* \"#utility.yul\":7989:8107   */\n      pop\n      pop\n      jump\t// out\n        /* \"#utility.yul\":8113:8335   */\n    tag_10:\n        /* \"#utility.yul\":8206:8210   */\n      0x00\n        /* \"#utility.yul\":8244:8246   */\n      0x20\n        /* \"#utility.yul\":8233:8242   */\n      dup3\n        /* \"#utility.yul\":8229:8247   */\n      add\n        /* \"#utility.yul\":8221:8247   */\n      swap1\n      pop\n        /* \"#utility.yul\":8257:8328   */\n      tag_162\n        /* \"#utility.yul\":8325:8326   */\n      0x00\n        /* \"#utility.yul\":8314:8323   */\n      dup4\n        /* \"#utility.yul\":8310:8327   */\n      add\n        /* \"#utility.yul\":8301:8307   */\n      dup5\n        /* \"#utility.yul\":8257:8328   */\n      tag_110\n      jump\t// in\n    tag_162:\n        /* \"#utility.yul\":8113:8335   */\n      swap3\n      swap2\n      pop\n      pop\n      jump\t// out\n        /* \"#utility.yul\":8341:9600   */\n    tag_19:\n        /* \"#utility.yul\":8714:8718   */\n      0x00\n        /* \"#utility.yul\":8752:8755   */\n      0xc0\n        /* \"#utility.yul\":8741:8750   */\n      dup3\n        /* \"#utility.yul\":8737:8756   */\n      add\n        /* \"#utility.yul\":8729:8756   */\n      swap1\n      pop\n        /* \"#utility.yul\":8766:8837   */\n      tag_164\n        /* \"#utility.yul\":8834:8835   */\n      0x00\n        /* \"#utility.yul\":8823:8832   */\n      dup4\n        /* \"#utility.yul\":8819:8836   */\n      add\n        /* \"#utility.yul\":8810:8816   */\n      dup10\n        /* \"#utility.yul\":8766:8837   */\n      tag_110\n      jump\t// in\n    tag_164:\n        /* \"#utility.yul\":8884:8893   */\n      dup2\n        /* \"#utility.yul\":8878:8882   */\n      dup2\n        /* \"#utility.yul\":8874:8894   */\n      sub\n        /* \"#utility.yul\":8869:8871   */\n      0x20\n        /* \"#utility.yul\":8858:8867   */\n      dup4\n        /* \"#utility.yul\":8854:8872   */\n      add\n        /* \"#utility.yul\":8847:8895   */\n      mstore\n        /* \"#utility.yul\":8912:8990   */\n      tag_165\n        /* \"#utility.yul\":8985:8989   */\n      dup2\n        /* \"#utility.yul\":8976:8982   */\n      dup9\n        /* \"#utility.yul\":8912:8990   */\n      tag_145\n      jump\t// in\n    tag_165:\n        /* \"#utility.yul\":8904:8990   */\n      swap1\n      pop\n        /* \"#utility.yul\":9037:9046   */\n      dup2\n        /* \"#utility.yul\":9031:9035   */\n      dup2\n        /* \"#utility.yul\":9027:9047   */\n      sub\n        /* \"#utility.yul\":9022:9024   */\n      0x40\n        /* \"#utility.yul\":9011:9020   */\n      dup4\n        /* \"#utility.yul\":9007:9025   */\n      add\n        /* \"#utility.yul\":9000:9048   */\n      mstore\n        /* \"#utility.yul\":9065:9143   */\n      tag_166\n        /* \"#utility.yul\":9138:9142   */\n      dup2\n        /* \"#utility.yul\":9129:9135   */\n      dup8\n        /* \"#utility.yul\":9065:9143   */\n      tag_145\n      jump\t// in\n    tag_166:\n        /* \"#utility.yul\":9057:9143   */\n      swap1\n      pop\n        /* \"#utility.yul\":9190:9199   */\n      dup2\n        /* \"#utility.yul\":9184:9188   */\n      dup2\n        /* \"#utility.yul\":9180:9200   */\n      sub\n        /* \"#utility.yul\":9175:9177   */\n      0x60\n        /* \"#utility.yul\":9164:9173   */\n      dup4\n        /* \"#utility.yul\":9160:9178   */\n      add\n        /* \"#utility.yul\":9153:9201   */\n      mstore\n        /* \"#utility.yul\":9218:9326   */\n      tag_167\n        /* \"#utility.yul\":9321:9325   */\n      dup2\n        /* \"#utility.yul\":9312:9318   */\n      dup7\n        /* \"#utility.yul\":9218:9326   */\n      tag_113\n      jump\t// in\n    tag_167:\n        /* \"#utility.yul\":9210:9326   */\n      swap1\n      pop\n        /* \"#utility.yul\":9374:9383   */\n      dup2\n        /* \"#utility.yul\":9368:9372   */\n      dup2\n        /* \"#utility.yul\":9364:9384   */\n      sub\n        /* \"#utility.yul\":9358:9361   */\n      0x80\n        /* \"#utility.yul\":9347:9356   */\n      dup4\n        /* \"#utility.yul\":9343:9362   */\n      add\n        /* \"#utility.yul\":9336:9385   */\n      mstore\n        /* \"#utility.yul\":9402:9510   */\n      tag_168\n        /* \"#utility.yul\":9505:9509   */\n      dup2\n        /* \"#utility.yul\":9496:9502   */\n      dup6\n        /* \"#utility.yul\":9402:9510   */\n      tag_127\n      jump\t// in\n    tag_168:\n        /* \"#utility.yul\":9394:9510   */\n      swap1\n      pop\n        /* \"#utility.yul\":9520:9593   */\n      tag_169\n        /* \"#utility.yul\":9588:9591   */\n      0xa0\n        /* \"#utility.yul\":9577:9586   */\n      dup4\n        /* \"#utility.yul\":9573:9592   */\n      add\n        /* \"#utility.yul\":9564:9570   */\n      dup5\n        /* \"#utility.yul\":9520:9593   */\n      tag_158\n      jump\t// in\n    tag_169:\n        /* \"#utility.yul\":8341:9600   */\n      swap8\n      swap7\n      pop\n      pop\n      pop\n      pop\n      pop\n      pop\n      pop\n      jump\t// out\n        /* \"#utility.yul\":9606:9858   */\n    tag_14:\n        /* \"#utility.yul\":9714:9718   */\n      0x00\n        /* \"#utility.yul\":9752:9754   */\n      0x20\n        /* \"#utility.yul\":9741:9750   */\n      dup3\n        /* \"#utility.yul\":9737:9755   */\n      add\n        /* \"#utility.yul\":9729:9755   */\n      swap1\n      pop\n        /* \"#utility.yul\":9765:9851   */\n      tag_171\n        /* \"#utility.yul\":9848:9849   */\n      0x00\n        /* \"#utility.yul\":9837:9846   */\n      dup4\n        /* \"#utility.yul\":9833:9850   */\n      add\n        /* \"#utility.yul\":9824:9830   */\n      dup5\n        /* \"#utility.yul\":9765:9851   */\n      tag_141\n      jump\t// in\n    tag_171:\n        /* \"#utility.yul\":9606:9858   */\n      swap3\n      swap2\n      pop\n      pop\n      jump\t// out\n        /* \"#utility.yul\":9864:9993   */\n    tag_27:\n        /* \"#utility.yul\":9898:9904   */\n      0x00\n        /* \"#utility.yul\":9925:9945   */\n      tag_173\n      tag_174\n      jump\t// in\n    tag_173:\n        /* \"#utility.yul\":9915:9945   */\n      swap1\n      pop\n        /* \"#utility.yul\":9954:9987   */\n      tag_175\n        /* \"#utility.yul\":9982:9986   */\n      dup3\n        /* \"#utility.yul\":9974:9980   */\n      dup3\n        /* \"#utility.yul\":9954:9987   */\n      tag_176\n      jump\t// in\n    tag_175:\n        /* \"#utility.yul\":9864:9993   */\n      swap2\n      swap1\n      pop\n      jump\t// out\n        /* \"#utility.yul\":9999:10074   */\n    tag_174:\n        /* \"#utility.yul\":10032:10038   */\n      0x00\n        /* \"#utility.yul\":10065:10067   */\n      0x40\n        /* \"#utility.yul\":10059:10068   */\n      mload\n        /* \"#utility.yul\":10049:10068   */\n      swap1\n      pop\n        /* \"#utility.yul\":9999:10074   */\n      swap1\n      jump\t// out\n        /* \"#utility.yul\":10080:10391   */\n    tag_26:\n        /* \"#utility.yul\":10157:10161   */\n      0x00\n        /* \"#utility.yul\":10247:10265   */\n      0xffffffffffffffff\n        /* \"#utility.yul\":10239:10245   */\n      dup3\n        /* \"#utility.yul\":10236:10266   */\n      gt\n        /* \"#utility.yul\":10233:10289   */\n      iszero\n      tag_179\n      jumpi\n        /* \"#utility.yul\":10269:10287   */\n      tag_180\n      tag_181\n      jump\t// in\n    tag_180:\n        /* \"#utility.yul\":10233:10289   */\n    tag_179:\n        /* \"#utility.yul\":10319:10323   */\n      0x20\n        /* \"#utility.yul\":10311:10317   */\n      dup3\n        /* \"#utility.yul\":10307:10324   */\n      mul\n        /* \"#utility.yul\":10299:10324   */\n      swap1\n      pop\n        /* \"#utility.yul\":10379:10383   */\n      0x20\n        /* \"#utility.yul\":10373:10377   */\n      dup2\n        /* \"#utility.yul\":10369:10384   */\n      add\n        /* \"#utility.yul\":10361:10384   */\n      swap1\n      pop\n        /* \"#utility.yul\":10080:10391   */\n      swap2\n      swap1\n      pop\n      jump\t// out\n        /* \"#utility.yul\":10397:10708   */\n    tag_40:\n        /* \"#utility.yul\":10474:10478   */\n      0x00\n        /* \"#utility.yul\":10564:10582   */\n      0xffffffffffffffff\n        /* \"#utility.yul\":10556:10562   */\n      dup3\n        /* \"#utility.yul\":10553:10583   */\n      gt\n        /* \"#utility.yul\":10550:10606   */\n      iszero\n      tag_183\n      jumpi\n        /* \"#utility.yul\":10586:10604   */\n      tag_184\n      tag_181\n      jump\t// in\n    tag_184:\n        /* \"#utility.yul\":10550:10606   */\n    tag_183:\n        /* \"#utility.yul\":10636:10640   */\n      0x20\n        /* \"#utility.yul\":10628:10634   */\n      dup3\n        /* \"#utility.yul\":10624:10641   */\n      mul\n        /* \"#utility.yul\":10616:10641   */\n      swap1\n      pop\n        /* \"#utility.yul\":10696:10700   */\n      0x20\n        /* \"#utility.yul\":10690:10694   */\n      dup2\n        /* \"#utility.yul\":10686:10701   */\n      add\n        /* \"#utility.yul\":10678:10701   */\n      swap1\n      pop\n        /* \"#utility.yul\":10397:10708   */\n      swap2\n      swap1\n      pop\n      jump\t// out\n        /* \"#utility.yul\":10714:11022   */\n    tag_52:\n        /* \"#utility.yul\":10776:10780   */\n      0x00\n        /* \"#utility.yul\":10866:10884   */\n      0xffffffffffffffff\n        /* \"#utility.yul\":10858:10864   */\n      dup3\n        /* \"#utility.yul\":10855:10885   */\n      gt\n        /* \"#utility.yul\":10852:10908   */\n      iszero\n      tag_186\n      jumpi\n        /* \"#utility.yul\":10888:10906   */\n      tag_187\n      tag_181\n      jump\t// in\n    tag_187:\n        /* \"#utility.yul\":10852:10908   */\n    tag_186:\n        /* \"#utility.yul\":10926:10955   */\n      tag_188\n        /* \"#utility.yul\":10948:10954   */\n      dup3\n        /* \"#utility.yul\":10926:10955   */\n      tag_154\n      jump\t// in\n    tag_188:\n        /* \"#utility.yul\":10918:10955   */\n      swap1\n      pop\n        /* \"#utility.yul\":11010:11014   */\n      0x20\n        /* \"#utility.yul\":11004:11008   */\n      dup2\n        /* \"#utility.yul\":11000:11015   */\n      add\n        /* \"#utility.yul\":10992:11015   */\n      swap1\n      pop\n        /* \"#utility.yul\":10714:11022   */\n      swap2\n      swap1\n      pop\n      jump\t// out\n        /* \"#utility.yul\":11028:11160   */\n    tag_120:\n        /* \"#utility.yul\":11095:11099   */\n      0x00\n        /* \"#utility.yul\":11118:11121   */\n      dup2\n        /* \"#utility.yul\":11110:11121   */\n      swap1\n      pop\n        /* \"#utility.yul\":11148:11152   */\n      0x20\n        /* \"#utility.yul\":11143:11146   */\n      dup3\n        /* \"#utility.yul\":11139:11153   */\n      add\n        /* \"#utility.yul\":11131:11153   */\n      swap1\n      pop\n        /* \"#utility.yul\":11028:11160   */\n      swap2\n      swap1\n      pop\n      jump\t// out\n        /* \"#utility.yul\":11166:11298   */\n    tag_134:\n        /* \"#utility.yul\":11233:11237   */\n      0x00\n        /* \"#utility.yul\":11256:11259   */\n      dup2\n        /* \"#utility.yul\":11248:11259   */\n      swap1\n      pop\n        /* \"#utility.yul\":11286:11290   */\n      0x20\n        /* \"#utility.yul\":11281:11284   */\n      dup3\n        /* \"#utility.yul\":11277:11291   */\n      add\n        /* \"#utility.yul\":11269:11291   */\n      swap1\n      pop\n        /* \"#utility.yul\":11166:11298   */\n      swap2\n      swap1\n      pop\n      jump\t// out\n        /* \"#utility.yul\":11304:11418   */\n    tag_116:\n        /* \"#utility.yul\":11371:11377   */\n      0x00\n        /* \"#utility.yul\":11405:11410   */\n      dup2\n        /* \"#utility.yul\":11399:11411   */\n      mload\n        /* \"#utility.yul\":11389:11411   */\n      swap1\n      pop\n        /* \"#utility.yul\":11304:11418   */\n      swap2\n      swap1\n      pop\n      jump\t// out\n        /* \"#utility.yul\":11424:11538   */\n    tag_130:\n        /* \"#utility.yul\":11491:11497   */\n      0x00\n        /* \"#utility.yul\":11525:11530   */\n      dup2\n        /* \"#utility.yul\":11519:11531   */\n      mload\n        /* \"#utility.yul\":11509:11531   */\n      swap1\n      pop\n        /* \"#utility.yul\":11424:11538   */\n      swap2\n      swap1\n      pop\n      jump\t// out\n        /* \"#utility.yul\":11544:11643   */\n    tag_148:\n        /* \"#utility.yul\":11596:11602   */\n      0x00\n        /* \"#utility.yul\":11630:11635   */\n      dup2\n        /* \"#utility.yul\":11624:11636   */\n      mload\n        /* \"#utility.yul\":11614:11636   */\n      swap1\n      pop\n        /* \"#utility.yul\":11544:11643   */\n      swap2\n      swap1\n      pop\n      jump\t// out\n        /* \"#utility.yul\":11649:11762   */\n    tag_126:\n        /* \"#utility.yul\":11719:11723   */\n      0x00\n        /* \"#utility.yul\":11751:11755   */\n      0x20\n        /* \"#utility.yul\":11746:11749   */\n      dup3\n        /* \"#utility.yul\":11742:11756   */\n      add\n        /* \"#utility.yul\":11734:11756   */\n      swap1\n      pop\n        /* \"#utility.yul\":11649:11762   */\n      swap2\n      swap1\n      pop\n      jump\t// out\n        /* \"#utility.yul\":11768:11881   */\n    tag_140:\n        /* \"#utility.yul\":11838:11842   */\n      0x00\n        /* \"#utility.yul\":11870:11874   */\n      0x20\n        /* \"#utility.yul\":11865:11868   */\n      dup3\n        /* \"#utility.yul\":11861:11875   */\n      add\n        /* \"#utility.yul\":11853:11875   */\n      swap1\n      pop\n        /* \"#utility.yul\":11768:11881   */\n      swap2\n      swap1\n      pop\n      jump\t// out\n        /* \"#utility.yul\":11887:12071   */\n    tag_118:\n        /* \"#utility.yul\":11986:11997   */\n      0x00\n        /* \"#utility.yul\":12020:12026   */\n      dup3\n        /* \"#utility.yul\":12015:12018   */\n      dup3\n        /* \"#utility.yul\":12008:12027   */\n      mstore\n        /* \"#utility.yul\":12060:12064   */\n      0x20\n        /* \"#utility.yul\":12055:12058   */\n      dup3\n        /* \"#utility.yul\":12051:12065   */\n      add\n        /* \"#utility.yul\":12036:12065   */\n      swap1\n      pop\n        /* \"#utility.yul\":11887:12071   */\n      swap3\n      swap2\n      pop\n      pop\n      jump\t// out\n        /* \"#utility.yul\":12077:12261   */\n    tag_132:\n        /* \"#utility.yul\":12176:12187   */\n      0x00\n        /* \"#utility.yul\":12210:12216   */\n      dup3\n        /* \"#utility.yul\":12205:12208   */\n      dup3\n        /* \"#utility.yul\":12198:12217   */\n      mstore\n        /* \"#utility.yul\":12250:12254   */\n      0x20\n        /* \"#utility.yul\":12245:12248   */\n      dup3\n        /* \"#utility.yul\":12241:12255   */\n      add\n        /* \"#utility.yul\":12226:12255   */\n      swap1\n      pop\n        /* \"#utility.yul\":12077:12261   */\n      swap3\n      swap2\n      pop\n      pop\n      jump\t// out\n        /* \"#utility.yul\":12267:12436   */\n    tag_150:\n        /* \"#utility.yul\":12351:12362   */\n      0x00\n        /* \"#utility.yul\":12385:12391   */\n      dup3\n        /* \"#utility.yul\":12380:12383   */\n      dup3\n        /* \"#utility.yul\":12373:12392   */\n      mstore\n        /* \"#utility.yul\":12425:12429   */\n      0x20\n        /* \"#utility.yul\":12420:12423   */\n      dup3\n        /* \"#utility.yul\":12416:12430   */\n      add\n        /* \"#utility.yul\":12401:12430   */\n      swap1\n      pop\n        /* \"#utility.yul\":12267:12436   */\n      swap3\n      swap2\n      pop\n      pop\n      jump\t// out\n        /* \"#utility.yul\":12442:12538   */\n    tag_109:\n        /* \"#utility.yul\":12479:12486   */\n      0x00\n        /* \"#utility.yul\":12508:12532   */\n      tag_200\n        /* \"#utility.yul\":12526:12531   */\n      dup3\n        /* \"#utility.yul\":12508:12532   */\n      tag_201\n      jump\t// in\n    tag_200:\n        /* \"#utility.yul\":12497:12532   */\n      swap1\n      pop\n        /* \"#utility.yul\":12442:12538   */\n      swap2\n      swap1\n      pop\n      jump\t// out\n        /* \"#utility.yul\":12544:12670   */\n    tag_201:\n        /* \"#utility.yul\":12581:12588   */\n      0x00\n        /* \"#utility.yul\":12621:12663   */\n      0xffffffffffffffffffffffffffffffffffffffff\n        /* \"#utility.yul\":12614:12619   */\n      dup3\n        /* \"#utility.yul\":12610:12664   */\n      and\n        /* \"#utility.yul\":12599:12664   */\n      swap1\n      pop\n        /* \"#utility.yul\":12544:12670   */\n      swap2\n      swap1\n      pop\n      jump\t// out\n        /* \"#utility.yul\":12676:12753   */\n    tag_157:\n        /* \"#utility.yul\":12713:12720   */\n      0x00\n        /* \"#utility.yul\":12742:12747   */\n      dup2\n        /* \"#utility.yul\":12731:12747   */\n      swap1\n      pop\n        /* \"#utility.yul\":12676:12753   */\n      swap2\n      swap1\n      pop\n      jump\t// out\n        /* \"#utility.yul\":12759:12900   */\n    tag_144:\n        /* \"#utility.yul\":12824:12833   */\n      0x00\n        /* \"#utility.yul\":12857:12894   */\n      tag_205\n        /* \"#utility.yul\":12888:12893   */\n      dup3\n        /* \"#utility.yul\":12857:12894   */\n      tag_206\n      jump\t// in\n    tag_205:\n        /* \"#utility.yul\":12844:12894   */\n      swap1\n      pop\n        /* \"#utility.yul\":12759:12900   */\n      swap2\n      swap1\n      pop\n      jump\t// out\n        /* \"#utility.yul\":12906:13032   */\n    tag_206:\n        /* \"#utility.yul\":12956:12965   */\n      0x00\n        /* \"#utility.yul\":12989:13026   */\n      tag_208\n        /* \"#utility.yul\":13020:13025   */\n      dup3\n        /* \"#utility.yul\":12989:13026   */\n      tag_209\n      jump\t// in\n    tag_208:\n        /* \"#utility.yul\":12976:13026   */\n      swap1\n      pop\n        /* \"#utility.yul\":12906:13032   */\n      swap2\n      swap1\n      pop\n      jump\t// out\n        /* \"#utility.yul\":13038:13151   */\n    tag_209:\n        /* \"#utility.yul\":13088:13097   */\n      0x00\n        /* \"#utility.yul\":13121:13145   */\n      tag_211\n        /* \"#utility.yul\":13139:13144   */\n      dup3\n        /* \"#utility.yul\":13121:13145   */\n      tag_201\n      jump\t// in\n    tag_211:\n        /* \"#utility.yul\":13108:13145   */\n      swap1\n      pop\n        /* \"#utility.yul\":13038:13151   */\n      swap2\n      swap1\n      pop\n      jump\t// out\n        /* \"#utility.yul\":13157:13311   */\n    tag_57:\n        /* \"#utility.yul\":13241:13247   */\n      dup3\n        /* \"#utility.yul\":13236:13239   */\n      dup2\n        /* \"#utility.yul\":13231:13234   */\n      dup4\n        /* \"#utility.yul\":13218:13248   */\n      calldatacopy\n        /* \"#utility.yul\":13303:13304   */\n      0x00\n        /* \"#utility.yul\":13294:13300   */\n      dup4\n        /* \"#utility.yul\":13289:13292   */\n      dup4\n        /* \"#utility.yul\":13285:13301   */\n      add\n        /* \"#utility.yul\":13278:13305   */\n      mstore\n        /* \"#utility.yul\":13157:13311   */\n      pop\n      pop\n      pop\n      jump\t// out\n        /* \"#utility.yul\":13317:13624   */\n    tag_152:\n        /* \"#utility.yul\":13385:13386   */\n      0x00\n        /* \"#utility.yul\":13395:13508   */\n    tag_214:\n        /* \"#utility.yul\":13409:13415   */\n      dup4\n        /* \"#utility.yul\":13406:13407   */\n      dup2\n        /* \"#utility.yul\":13403:13416   */\n      lt\n        /* \"#utility.yul\":13395:13508   */\n      iszero\n      tag_216\n      jumpi\n        /* \"#utility.yul\":13494:13495   */\n      dup1\n        /* \"#utility.yul\":13489:13492   */\n      dup3\n        /* \"#utility.yul\":13485:13496   */\n      add\n        /* \"#utility.yul\":13479:13497   */\n      mload\n        /* \"#utility.yul\":13475:13476   */\n      dup2\n        /* \"#utility.yul\":13470:13473   */\n      dup5\n        /* \"#utility.yul\":13466:13477   */\n      add\n        /* \"#utility.yul\":13459:13498   */\n      mstore\n        /* \"#utility.yul\":13431:13433   */\n      0x20\n        /* \"#utility.yul\":13428:13429   */\n      dup2\n        /* \"#utility.yul\":13424:13434   */\n      add\n        /* \"#utility.yul\":13419:13434   */\n      swap1\n      pop\n        /* \"#utility.yul\":13395:13508   */\n      jump(tag_214)\n    tag_216:\n        /* \"#utility.yul\":13526:13532   */\n      dup4\n        /* \"#utility.yul\":13523:13524   */\n      dup2\n        /* \"#utility.yul\":13520:13533   */\n      gt\n        /* \"#utility.yul\":13517:13618   */\n      iszero\n      tag_217\n      jumpi\n        /* \"#utility.yul\":13606:13607   */\n      0x00\n        /* \"#utility.yul\":13597:13603   */\n      dup5\n        /* \"#utility.yul\":13592:13595   */\n      dup5\n        /* \"#utility.yul\":13588:13604   */\n      add\n        /* \"#utility.yul\":13581:13608   */\n      mstore\n        /* \"#utility.yul\":13517:13618   */\n    tag_217:\n        /* \"#utility.yul\":13366:13624   */\n      pop\n        /* \"#utility.yul\":13317:13624   */\n      pop\n      pop\n      pop\n      jump\t// out\n        /* \"#utility.yul\":13630:13911   */\n    tag_176:\n        /* \"#utility.yul\":13713:13740   */\n      tag_219\n        /* \"#utility.yul\":13735:13739   */\n      dup3\n        /* \"#utility.yul\":13713:13740   */\n      tag_154\n      jump\t// in\n    tag_219:\n        /* \"#utility.yul\":13705:13711   */\n      dup2\n        /* \"#utility.yul\":13701:13741   */\n      add\n        /* \"#utility.yul\":13843:13849   */\n      dup2\n        /* \"#utility.yul\":13831:13841   */\n      dup2\n        /* \"#utility.yul\":13828:13850   */\n      lt\n        /* \"#utility.yul\":13807:13825   */\n      0xffffffffffffffff\n        /* \"#utility.yul\":13795:13805   */\n      dup3\n        /* \"#utility.yul\":13792:13826   */\n      gt\n        /* \"#utility.yul\":13789:13851   */\n      or\n        /* \"#utility.yul\":13786:13874   */\n      iszero\n      tag_220\n      jumpi\n        /* \"#utility.yul\":13854:13872   */\n      tag_221\n      tag_181\n      jump\t// in\n    tag_221:\n        /* \"#utility.yul\":13786:13874   */\n    tag_220:\n        /* \"#utility.yul\":13894:13904   */\n      dup1\n        /* \"#utility.yul\":13890:13892   */\n      0x40\n        /* \"#utility.yul\":13883:13905   */\n      mstore\n        /* \"#utility.yul\":13673:13911   */\n      pop\n        /* \"#utility.yul\":13630:13911   */\n      pop\n      pop\n      jump\t// out\n        /* \"#utility.yul\":13917:14097   */\n    tag_181:\n        /* \"#utility.yul\":13965:14042   */\n      0x4e487b7100000000000000000000000000000000000000000000000000000000\n        /* \"#utility.yul\":13962:13963   */\n      0x00\n        /* \"#utility.yul\":13955:14043   */\n      mstore\n        /* \"#utility.yul\":14062:14066   */\n      0x41\n        /* \"#utility.yul\":14059:14060   */\n      0x04\n        /* \"#utility.yul\":14052:14067   */\n      mstore\n        /* \"#utility.yul\":14086:14090   */\n      0x24\n        /* \"#utility.yul\":14083:14084   */\n      0x00\n        /* \"#utility.yul\":14076:14091   */\n      revert\n        /* \"#utility.yul\":14103:14220   */\n    tag_65:\n        /* \"#utility.yul\":14212:14213   */\n      0x00\n        /* \"#utility.yul\":14209:14210   */\n      dup1\n        /* \"#utility.yul\":14202:14214   */\n      revert\n        /* \"#utility.yul\":14226:14343   */\n    tag_30:\n        /* \"#utility.yul\":14335:14336   */\n      0x00\n        /* \"#utility.yul\":14332:14333   */\n      dup1\n        /* \"#utility.yul\":14325:14337   */\n      revert\n        /* \"#utility.yul\":14349:14466   */\n    tag_55:\n        /* \"#utility.yul\":14458:14459   */\n      0x00\n        /* \"#utility.yul\":14455:14456   */\n      dup1\n        /* \"#utility.yul\":14448:14460   */\n      revert\n        /* \"#utility.yul\":14472:14589   */\n    tag_87:\n        /* \"#utility.yul\":14581:14582   */\n      0x00\n        /* \"#utility.yul\":14578:14579   */\n      dup1\n        /* \"#utility.yul\":14571:14583   */\n      revert\n        /* \"#utility.yul\":14595:14712   */\n    tag_83:\n        /* \"#utility.yul\":14704:14705   */\n      0x00\n        /* \"#utility.yul\":14701:14702   */\n      dup1\n        /* \"#utility.yul\":14694:14706   */\n      revert\n        /* \"#utility.yul\":14718:14820   */\n    tag_154:\n        /* \"#utility.yul\":14759:14765   */\n      0x00\n        /* \"#utility.yul\":14810:14812   */\n      0x1f\n        /* \"#utility.yul\":14806:14813   */\n      not\n        /* \"#utility.yul\":14801:14803   */\n      0x1f\n        /* \"#utility.yul\":14794:14799   */\n      dup4\n        /* \"#utility.yul\":14790:14804   */\n      add\n        /* \"#utility.yul\":14786:14814   */\n      and\n        /* \"#utility.yul\":14776:14814   */\n      swap1\n      pop\n        /* \"#utility.yul\":14718:14820   */\n      swap2\n      swap1\n      pop\n      jump\t// out\n        /* \"#utility.yul\":14826:14948   */\n    tag_60:\n        /* \"#utility.yul\":14899:14923   */\n      tag_230\n        /* \"#utility.yul\":14917:14922   */\n      dup2\n        /* \"#utility.yul\":14899:14923   */\n      tag_109\n      jump\t// in\n    tag_230:\n        /* \"#utility.yul\":14892:14897   */\n      dup2\n        /* \"#utility.yul\":14889:14924   */\n      eq\n        /* \"#utility.yul\":14879:14942   */\n      tag_231\n      jumpi\n        /* \"#utility.yul\":14938:14939   */\n      0x00\n        /* \"#utility.yul\":14935:14936   */\n      dup1\n        /* \"#utility.yul\":14928:14940   */\n      revert\n        /* \"#utility.yul\":14879:14942   */\n    tag_231:\n        /* \"#utility.yul\":14826:14948   */\n      pop\n      jump\t// out\n        /* \"#utility.yul\":14954:15076   */\n    tag_79:\n        /* \"#utility.yul\":15027:15051   */\n      tag_233\n        /* \"#utility.yul\":15045:15050   */\n      dup2\n        /* \"#utility.yul\":15027:15051   */\n      tag_157\n      jump\t// in\n    tag_233:\n        /* \"#utility.yul\":15020:15025   */\n      dup2\n        /* \"#utility.yul\":15017:15052   */\n      eq\n        /* \"#utility.yul\":15007:15070   */\n      tag_234\n      jumpi\n        /* \"#utility.yul\":15066:15067   */\n      0x00\n        /* \"#utility.yul\":15063:15064   */\n      dup1\n        /* \"#utility.yul\":15056:15068   */\n      revert\n        /* \"#utility.yul\":15007:15070   */\n    tag_234:\n        /* \"#utility.yul\":14954:15076   */\n      pop\n      jump\t// out\n    stop\n\n    sub_0: assembly {\n            /* \"tron/tokeniz.sol\":177:2509  contract Tokeniz{\r... */\n          mstore(0x40, 0x80)\n            /* \"tron/tokeniz.sol\":536:1057  constructor(address _initiator, string memory _name, string memory _tokenURI, address[] memory _tokensAddresses, uint[] memory _amounts, uint256 _tokenID) {\r... */\n          callvalue\n          dup1\n          iszero\n          tag_1\n          jumpi\n          0x00\n          dup1\n          revert\n        tag_1:\n          pop\n          mload(0x40)\n          sub(codesize, bytecodeSize)\n          dup1\n          bytecodeSize\n          dup4\n          codecopy\n          dup2\n          dup2\n          add\n          0x40\n          mstore\n          dup2\n          add\n          swap1\n          tag_2\n          swap2\n          swap1\n          tag_3\n          jump\t// in\n        tag_2:\n            /* \"tron/tokeniz.sol\":717:727  msg.sender */\n          caller\n            /* \"tron/tokeniz.sol\":702:714  TokenizAdmin */\n          0x00\n          dup1\n            /* \"tron/tokeniz.sol\":702:727  TokenizAdmin = msg.sender */\n          0x0100\n          exp\n          dup2\n          sload\n          dup2\n          0xffffffffffffffffffffffffffffffffffffffff\n          mul\n          not\n          and\n          swap1\n          dup4\n          0xffffffffffffffffffffffffffffffffffffffff\n          and\n          mul\n          or\n          swap1\n          sstore\n          pop\n            /* \"tron/tokeniz.sol\":746:756  _initiator */\n          dup6\n            /* \"tron/tokeniz.sol\":738:743  owner */\n          0x01\n          0x00\n            /* \"tron/tokeniz.sol\":738:756  owner = _initiator */\n          0x0100\n          exp\n          dup2\n          sload\n          dup2\n          0xffffffffffffffffffffffffffffffffffffffff\n          mul\n          not\n          and\n          swap1\n          dup4\n          0xffffffffffffffffffffffffffffffffffffffff\n          and\n          mul\n          or\n          swap1\n          sstore\n          pop\n            /* \"tron/tokeniz.sol\":777:781  true */\n          0x01\n            /* \"tron/tokeniz.sol\":768:774  packed */\n          dup1\n          0x14\n            /* \"tron/tokeniz.sol\":768:781  packed = true */\n          0x0100\n          exp\n          dup2\n          sload\n          dup2\n          0xff\n          mul\n          not\n          and\n          swap1\n          dup4\n          iszero\n          iszero\n          mul\n          or\n          swap1\n          sstore\n          pop\n            /* \"tron/tokeniz.sol\":797:803  uint i */\n          0x00\n            /* \"tron/tokeniz.sol\":792:971  for (uint i = 0; i < _tokensAddresses.length; i++) {\r... */\n        tag_6:\n            /* \"tron/tokeniz.sol\":813:829  _tokensAddresses */\n          dup4\n            /* \"tron/tokeniz.sol\":813:836  _tokensAddresses.length */\n          mload\n            /* \"tron/tokeniz.sol\":809:810  i */\n          dup2\n            /* \"tron/tokeniz.sol\":809:836  i < _tokensAddresses.length */\n          lt\n            /* \"tron/tokeniz.sol\":792:971  for (uint i = 0; i < _tokensAddresses.length; i++) {\r... */\n          iszero\n          tag_7\n          jumpi\n            /* \"tron/tokeniz.sol\":858:873  tokensAddresses */\n          0x05\n            /* \"tron/tokeniz.sol\":879:895  _tokensAddresses */\n          dup5\n            /* \"tron/tokeniz.sol\":896:897  i */\n          dup3\n            /* \"tron/tokeniz.sol\":879:898  _tokensAddresses[i] */\n          dup2\n          mload\n          dup2\n          lt\n          tag_9\n          jumpi\n          tag_10\n          tag_11\n          jump\t// in\n        tag_10:\n        tag_9:\n          0x20\n          mul\n          0x20\n          add\n          add\n          mload\n            /* \"tron/tokeniz.sol\":858:899  tokensAddresses.push(_tokensAddresses[i]) */\n          swap1\n          dup1\n          0x01\n          dup2\n          sload\n          add\n          dup1\n          dup3\n          sstore\n          dup1\n          swap2\n          pop\n          pop\n          0x01\n          swap1\n          sub\n          swap1\n          0x00\n          mstore\n          keccak256(0x00, 0x20)\n          add\n          0x00\n          swap1\n          swap2\n          swap1\n          swap2\n          swap1\n          swap2\n          0x0100\n          exp\n          dup2\n          sload\n          dup2\n          0xffffffffffffffffffffffffffffffffffffffff\n          mul\n          not\n          and\n          swap1\n          dup4\n          0xffffffffffffffffffffffffffffffffffffffff\n          and\n          mul\n          or\n          swap1\n          sstore\n          pop\n            /* \"tron/tokeniz.sol\":948:956  _amounts */\n          dup3\n            /* \"tron/tokeniz.sol\":957:958  i */\n          dup2\n            /* \"tron/tokeniz.sol\":948:959  _amounts[i] */\n          dup2\n          mload\n          dup2\n          lt\n          tag_13\n          jumpi\n          tag_14\n          tag_11\n          jump\t// in\n        tag_14:\n        tag_13:\n          0x20\n          mul\n          0x20\n          add\n          add\n          mload\n            /* \"tron/tokeniz.sol\":914:926  tokenBalance */\n          0x04\n            /* \"tron/tokeniz.sol\":914:947  tokenBalance[_tokensAddresses[i]] */\n          0x00\n            /* \"tron/tokeniz.sol\":927:943  _tokensAddresses */\n          dup7\n            /* \"tron/tokeniz.sol\":944:945  i */\n          dup5\n            /* \"tron/tokeniz.sol\":927:946  _tokensAddresses[i] */\n          dup2\n          mload\n          dup2\n          lt\n          tag_15\n          jumpi\n          tag_16\n          tag_11\n          jump\t// in\n        tag_16:\n        tag_15:\n          0x20\n          mul\n          0x20\n          add\n          add\n          mload\n            /* \"tron/tokeniz.sol\":914:947  tokenBalance[_tokensAddresses[i]] */\n          0xffffffffffffffffffffffffffffffffffffffff\n          and\n          0xffffffffffffffffffffffffffffffffffffffff\n          and\n          dup2\n          mstore\n          0x20\n          add\n          swap1\n          dup2\n          mstore\n          0x20\n          add\n          0x00\n          keccak256\n            /* \"tron/tokeniz.sol\":914:959  tokenBalance[_tokensAddresses[i]]=_amounts[i] */\n          dup2\n          swap1\n          sstore\n          pop\n            /* \"tron/tokeniz.sol\":838:841  i++ */\n          dup1\n          dup1\n          tag_17\n          swap1\n          tag_18\n          jump\t// in\n        tag_17:\n          swap2\n          pop\n          pop\n            /* \"tron/tokeniz.sol\":792:971  for (uint i = 0; i < _tokensAddresses.length; i++) {\r... */\n          jump(tag_6)\n        tag_7:\n          pop\n            /* \"tron/tokeniz.sol\":990:999  _tokenURI */\n          dup4\n            /* \"tron/tokeniz.sol\":981:989  tokenURI */\n          0x02\n            /* \"tron/tokeniz.sol\":981:999  tokenURI=_tokenURI */\n          swap1\n          dup1\n          mload\n          swap1\n          0x20\n          add\n          swap1\n          tag_19\n          swap3\n          swap2\n          swap1\n          tag_20\n          jump\t// in\n        tag_19:\n          pop\n            /* \"tron/tokeniz.sol\":1016:1021  _name */\n          dup5\n            /* \"tron/tokeniz.sol\":1010:1014  name */\n          0x03\n            /* \"tron/tokeniz.sol\":1010:1021  name= _name */\n          swap1\n          dup1\n          mload\n          swap1\n          0x20\n          add\n          swap1\n          tag_21\n          swap3\n          swap2\n          swap1\n          tag_20\n          jump\t// in\n        tag_21:\n          pop\n            /* \"tron/tokeniz.sol\":1041:1049  _tokenID */\n          dup1\n            /* \"tron/tokeniz.sol\":1032:1039  tokenId */\n          0x06\n            /* \"tron/tokeniz.sol\":1032:1049  tokenId= _tokenID */\n          dup2\n          swap1\n          sstore\n          pop\n            /* \"tron/tokeniz.sol\":536:1057  constructor(address _initiator, string memory _name, string memory _tokenURI, address[] memory _tokensAddresses, uint[] memory _amounts, uint256 _tokenID) {\r... */\n          pop\n          pop\n          pop\n          pop\n          pop\n          pop\n            /* \"tron/tokeniz.sol\":177:2509  contract Tokeniz{\r... */\n          jump(tag_22)\n        tag_20:\n          dup3\n          dup1\n          sload\n          tag_23\n          swap1\n          tag_24\n          jump\t// in\n        tag_23:\n          swap1\n          0x00\n          mstore\n          keccak256(0x00, 0x20)\n          swap1\n          0x1f\n          add\n          0x20\n          swap1\n          div\n          dup2\n          add\n          swap3\n          dup3\n          tag_26\n          jumpi\n          0x00\n          dup6\n          sstore\n          jump(tag_25)\n        tag_26:\n          dup3\n          0x1f\n          lt\n          tag_27\n          jumpi\n          dup1\n          mload\n          not(0xff)\n          and\n          dup4\n          dup1\n          add\n          or\n          dup6\n          sstore\n          jump(tag_25)\n        tag_27:\n          dup3\n          dup1\n          add\n          0x01\n          add\n          dup6\n          sstore\n          dup3\n          iszero\n          tag_25\n          jumpi\n          swap2\n          dup3\n          add\n        tag_28:\n          dup3\n          dup2\n          gt\n          iszero\n          tag_29\n          jumpi\n          dup3\n          mload\n          dup3\n          sstore\n          swap2\n          0x20\n          add\n          swap2\n          swap1\n          0x01\n          add\n          swap1\n          jump(tag_28)\n        tag_29:\n        tag_25:\n          pop\n          swap1\n          pop\n          tag_30\n          swap2\n          swap1\n          tag_31\n          jump\t// in\n        tag_30:\n          pop\n          swap1\n          jump\t// out\n        tag_31:\n        tag_32:\n          dup1\n          dup3\n          gt\n          iszero\n          tag_33\n          jumpi\n          0x00\n          dup2\n          0x00\n          swap1\n          sstore\n          pop\n          0x01\n          add\n          jump(tag_32)\n        tag_33:\n          pop\n          swap1\n          jump\t// out\n            /* \"#utility.yul\":24:768   */\n        tag_35:\n            /* \"#utility.yul\":131:136   */\n          0x00\n            /* \"#utility.yul\":156:237   */\n          tag_37\n            /* \"#utility.yul\":172:236   */\n          tag_38\n            /* \"#utility.yul\":229:235   */\n          dup5\n            /* \"#utility.yul\":172:236   */\n          tag_39\n          jump\t// in\n        tag_38:\n            /* \"#utility.yul\":156:237   */\n          tag_40\n          jump\t// in\n        tag_37:\n            /* \"#utility.yul\":147:237   */\n          swap1\n          pop\n            /* \"#utility.yul\":257:262   */\n          dup1\n            /* \"#utility.yul\":286:292   */\n          dup4\n            /* \"#utility.yul\":279:284   */\n          dup3\n            /* \"#utility.yul\":272:293   */\n          mstore\n            /* \"#utility.yul\":320:324   */\n          0x20\n            /* \"#utility.yul\":313:318   */\n          dup3\n            /* \"#utility.yul\":309:325   */\n          add\n            /* \"#utility.yul\":302:325   */\n          swap1\n          pop\n            /* \"#utility.yul\":346:352   */\n          dup3\n            /* \"#utility.yul\":396:399   */\n          dup6\n            /* \"#utility.yul\":388:392   */\n          0x20\n            /* \"#utility.yul\":380:386   */\n          dup7\n            /* \"#utility.yul\":376:393   */\n          mul\n            /* \"#utility.yul\":371:374   */\n          dup3\n            /* \"#utility.yul\":367:394   */\n          add\n            /* \"#utility.yul\":364:400   */\n          gt\n            /* \"#utility.yul\":361:504   */\n          iszero\n          tag_41\n          jumpi\n            /* \"#utility.yul\":415:494   */\n          tag_42\n          tag_43\n          jump\t// in\n        tag_42:\n            /* \"#utility.yul\":361:504   */\n        tag_41:\n            /* \"#utility.yul\":528:529   */\n          0x00\n            /* \"#utility.yul\":513:762   */\n        tag_44:\n            /* \"#utility.yul\":538:544   */\n          dup6\n            /* \"#utility.yul\":535:536   */\n          dup2\n            /* \"#utility.yul\":532:545   */\n          lt\n            /* \"#utility.yul\":513:762   */\n          iszero\n          tag_46\n          jumpi\n            /* \"#utility.yul\":606:609   */\n          dup2\n            /* \"#utility.yul\":635:683   */\n          tag_47\n            /* \"#utility.yul\":679:682   */\n          dup9\n            /* \"#utility.yul\":667:677   */\n          dup3\n            /* \"#utility.yul\":635:683   */\n          tag_48\n          jump\t// in\n        tag_47:\n            /* \"#utility.yul\":630:633   */\n          dup5\n            /* \"#utility.yul\":623:684   */\n          mstore\n            /* \"#utility.yul\":713:717   */\n          0x20\n            /* \"#utility.yul\":708:711   */\n          dup5\n            /* \"#utility.yul\":704:718   */\n          add\n            /* \"#utility.yul\":697:718   */\n          swap4\n          pop\n            /* \"#utility.yul\":747:751   */\n          0x20\n            /* \"#utility.yul\":742:745   */\n          dup4\n            /* \"#utility.yul\":738:752   */\n          add\n            /* \"#utility.yul\":731:752   */\n          swap3\n          pop\n            /* \"#utility.yul\":573:762   */\n          pop\n            /* \"#utility.yul\":560:561   */\n          0x01\n            /* \"#utility.yul\":557:558   */\n          dup2\n            /* \"#utility.yul\":553:562   */\n          add\n            /* \"#utility.yul\":548:562   */\n          swap1\n          pop\n            /* \"#utility.yul\":513:762   */\n          jump(tag_44)\n        tag_46:\n            /* \"#utility.yul\":517:531   */\n          pop\n            /* \"#utility.yul\":137:768   */\n          pop\n          pop\n            /* \"#utility.yul\":24:768   */\n          swap4\n          swap3\n          pop\n          pop\n          pop\n          jump\t// out\n            /* \"#utility.yul\":791:1535   */\n        tag_49:\n            /* \"#utility.yul\":898:903   */\n          0x00\n            /* \"#utility.yul\":923:1004   */\n          tag_51\n            /* \"#utility.yul\":939:1003   */\n          tag_52\n            /* \"#utility.yul\":996:1002   */\n          dup5\n            /* \"#utility.yul\":939:1003   */\n          tag_53\n          jump\t// in\n        tag_52:\n            /* \"#utility.yul\":923:1004   */\n          tag_40\n          jump\t// in\n        tag_51:\n            /* \"#utility.yul\":914:1004   */\n          swap1\n          pop\n            /* \"#utility.yul\":1024:1029   */\n          dup1\n            /* \"#utility.yul\":1053:1059   */\n          dup4\n            /* \"#utility.yul\":1046:1051   */\n          dup3\n            /* \"#utility.yul\":1039:1060   */\n          mstore\n            /* \"#utility.yul\":1087:1091   */\n          0x20\n            /* \"#utility.yul\":1080:1085   */\n          dup3\n            /* \"#utility.yul\":1076:1092   */\n          add\n            /* \"#utility.yul\":1069:1092   */\n          swap1\n          pop\n            /* \"#utility.yul\":1113:1119   */\n          dup3\n            /* \"#utility.yul\":1163:1166   */\n          dup6\n            /* \"#utility.yul\":1155:1159   */\n          0x20\n            /* \"#utility.yul\":1147:1153   */\n          dup7\n            /* \"#utility.yul\":1143:1160   */\n          mul\n            /* \"#utility.yul\":1138:1141   */\n          dup3\n            /* \"#utility.yul\":1134:1161   */\n          add\n            /* \"#utility.yul\":1131:1167   */\n          gt\n            /* \"#utility.yul\":1128:1271   */\n          iszero\n          tag_54\n          jumpi\n            /* \"#utility.yul\":1182:1261   */\n          tag_55\n          tag_43\n          jump\t// in\n        tag_55:\n            /* \"#utility.yul\":1128:1271   */\n        tag_54:\n            /* \"#utility.yul\":1295:1296   */\n          0x00\n            /* \"#utility.yul\":1280:1529   */\n        tag_56:\n            /* \"#utility.yul\":1305:1311   */\n          dup6\n            /* \"#utility.yul\":1302:1303   */\n          dup2\n            /* \"#utility.yul\":1299:1312   */\n          lt\n            /* \"#utility.yul\":1280:1529   */\n          iszero\n          tag_58\n          jumpi\n            /* \"#utility.yul\":1373:1376   */\n          dup2\n            /* \"#utility.yul\":1402:1450   */\n          tag_59\n            /* \"#utility.yul\":1446:1449   */\n          dup9\n            /* \"#utility.yul\":1434:1444   */\n          dup3\n            /* \"#utility.yul\":1402:1450   */\n          tag_60\n          jump\t// in\n        tag_59:\n            /* \"#utility.yul\":1397:1400   */\n          dup5\n            /* \"#utility.yul\":1390:1451   */\n          mstore\n            /* \"#utility.yul\":1480:1484   */\n          0x20\n            /* \"#utility.yul\":1475:1478   */\n          dup5\n            /* \"#utility.yul\":1471:1485   */\n          add\n            /* \"#utility.yul\":1464:1485   */\n          swap4\n          pop\n            /* \"#utility.yul\":1514:1518   */\n          0x20\n            /* \"#utility.yul\":1509:1512   */\n          dup4\n            /* \"#utility.yul\":1505:1519   */\n          add\n            /* \"#utility.yul\":1498:1519   */\n          swap3\n          pop\n            /* \"#utility.yul\":1340:1529   */\n          pop\n            /* \"#utility.yul\":1327:1328   */\n          0x01\n            /* \"#utility.yul\":1324:1325   */\n          dup2\n            /* \"#utility.yul\":1320:1329   */\n          add\n            /* \"#utility.yul\":1315:1329   */\n          swap1\n          pop\n            /* \"#utility.yul\":1280:1529   */\n          jump(tag_56)\n        tag_58:\n            /* \"#utility.yul\":1284:1298   */\n          pop\n            /* \"#utility.yul\":904:1535   */\n          pop\n          pop\n            /* \"#utility.yul\":791:1535   */\n          swap4\n          swap3\n          pop\n          pop\n          pop\n          jump\t// out\n            /* \"#utility.yul\":1541:1962   */\n        tag_61:\n            /* \"#utility.yul\":1630:1635   */\n          0x00\n            /* \"#utility.yul\":1655:1721   */\n          tag_63\n            /* \"#utility.yul\":1671:1720   */\n          tag_64\n            /* \"#utility.yul\":1713:1719   */\n          dup5\n            /* \"#utility.yul\":1671:1720   */\n          tag_65\n          jump\t// in\n        tag_64:\n            /* \"#utility.yul\":1655:1721   */\n          tag_40\n          jump\t// in\n        tag_63:\n            /* \"#utility.yul\":1646:1721   */\n          swap1\n          pop\n            /* \"#utility.yul\":1744:1750   */\n          dup3\n            /* \"#utility.yul\":1737:1742   */\n          dup2\n            /* \"#utility.yul\":1730:1751   */\n          mstore\n            /* \"#utility.yul\":1782:1786   */\n          0x20\n            /* \"#utility.yul\":1775:1780   */\n          dup2\n            /* \"#utility.yul\":1771:1787   */\n          add\n            /* \"#utility.yul\":1820:1823   */\n          dup5\n            /* \"#utility.yul\":1811:1817   */\n          dup5\n            /* \"#utility.yul\":1806:1809   */\n          dup5\n            /* \"#utility.yul\":1802:1818   */\n          add\n            /* \"#utility.yul\":1799:1824   */\n          gt\n            /* \"#utility.yul\":1796:1908   */\n          iszero\n          tag_66\n          jumpi\n            /* \"#utility.yul\":1827:1906   */\n          tag_67\n          tag_68\n          jump\t// in\n        tag_67:\n            /* \"#utility.yul\":1796:1908   */\n        tag_66:\n            /* \"#utility.yul\":1917:1956   */\n          tag_69\n            /* \"#utility.yul\":1949:1955   */\n          dup5\n            /* \"#utility.yul\":1944:1947   */\n          dup3\n            /* \"#utility.yul\":1939:1942   */\n          dup6\n            /* \"#utility.yul\":1917:1956   */\n          tag_70\n          jump\t// in\n        tag_69:\n            /* \"#utility.yul\":1636:1962   */\n          pop\n            /* \"#utility.yul\":1541:1962   */\n          swap4\n          swap3\n          pop\n          pop\n          pop\n          jump\t// out\n            /* \"#utility.yul\":1968:2111   */\n        tag_48:\n            /* \"#utility.yul\":2025:2030   */\n          0x00\n            /* \"#utility.yul\":2056:2062   */\n          dup2\n            /* \"#utility.yul\":2050:2063   */\n          mload\n            /* \"#utility.yul\":2041:2063   */\n          swap1\n          pop\n            /* \"#utility.yul\":2072:2105   */\n          tag_72\n            /* \"#utility.yul\":2099:2104   */\n          dup2\n            /* \"#utility.yul\":2072:2105   */\n          tag_73\n          jump\t// in\n        tag_72:\n            /* \"#utility.yul\":1968:2111   */\n          swap3\n          swap2\n          pop\n          pop\n          jump\t// out\n            /* \"#utility.yul\":2134:2519   */\n        tag_74:\n            /* \"#utility.yul\":2216:2221   */\n          0x00\n            /* \"#utility.yul\":2265:2268   */\n          dup3\n            /* \"#utility.yul\":2258:2262   */\n          0x1f\n            /* \"#utility.yul\":2250:2256   */\n          dup4\n            /* \"#utility.yul\":2246:2263   */\n          add\n            /* \"#utility.yul\":2242:2269   */\n          slt\n            /* \"#utility.yul\":2232:2354   */\n          tag_76\n          jumpi\n            /* \"#utility.yul\":2273:2352   */\n          tag_77\n          tag_78\n          jump\t// in\n        tag_77:\n            /* \"#utility.yul\":2232:2354   */\n        tag_76:\n            /* \"#utility.yul\":2383:2389   */\n          dup2\n            /* \"#utility.yul\":2377:2390   */\n          mload\n            /* \"#utility.yul\":2408:2513   */\n          tag_79\n            /* \"#utility.yul\":2509:2512   */\n          dup5\n            /* \"#utility.yul\":2501:2507   */\n          dup3\n            /* \"#utility.yul\":2494:2498   */\n          0x20\n            /* \"#utility.yul\":2486:2492   */\n          dup7\n            /* \"#utility.yul\":2482:2499   */\n          add\n            /* \"#utility.yul\":2408:2513   */\n          tag_35\n          jump\t// in\n        tag_79:\n            /* \"#utility.yul\":2399:2513   */\n          swap2\n          pop\n            /* \"#utility.yul\":2222:2519   */\n          pop\n            /* \"#utility.yul\":2134:2519   */\n          swap3\n          swap2\n          pop\n          pop\n          jump\t// out\n            /* \"#utility.yul\":2542:2927   */\n        tag_80:\n            /* \"#utility.yul\":2624:2629   */\n          0x00\n            /* \"#utility.yul\":2673:2676   */\n          dup3\n            /* \"#utility.yul\":2666:2670   */\n          0x1f\n            /* \"#utility.yul\":2658:2664   */\n          dup4\n            /* \"#utility.yul\":2654:2671   */\n          add\n            /* \"#utility.yul\":2650:2677   */\n          slt\n            /* \"#utility.yul\":2640:2762   */\n          tag_82\n          jumpi\n            /* \"#utility.yul\":2681:2760   */\n          tag_83\n          tag_78\n          jump\t// in\n        tag_83:\n            /* \"#utility.yul\":2640:2762   */\n        tag_82:\n            /* \"#utility.yul\":2791:2797   */\n          dup2\n            /* \"#utility.yul\":2785:2798   */\n          mload\n            /* \"#utility.yul\":2816:2921   */\n          tag_84\n            /* \"#utility.yul\":2917:2920   */\n          dup5\n            /* \"#utility.yul\":2909:2915   */\n          dup3\n            /* \"#utility.yul\":2902:2906   */\n          0x20\n            /* \"#utility.yul\":2894:2900   */\n          dup7\n            /* \"#utility.yul\":2890:2907   */\n          add\n            /* \"#utility.yul\":2816:2921   */\n          tag_49\n          jump\t// in\n        tag_84:\n            /* \"#utility.yul\":2807:2921   */\n          swap2\n          pop\n            /* \"#utility.yul\":2630:2927   */\n          pop\n            /* \"#utility.yul\":2542:2927   */\n          swap3\n          swap2\n          pop\n          pop\n          jump\t// out\n            /* \"#utility.yul\":2947:3302   */\n        tag_85:\n            /* \"#utility.yul\":3014:3019   */\n          0x00\n            /* \"#utility.yul\":3063:3066   */\n          dup3\n            /* \"#utility.yul\":3056:3060   */\n          0x1f\n            /* \"#utility.yul\":3048:3054   */\n          dup4\n            /* \"#utility.yul\":3044:3061   */\n          add\n            /* \"#utility.yul\":3040:3067   */\n          slt\n            /* \"#utility.yul\":3030:3152   */\n          tag_87\n          jumpi\n            /* \"#utility.yul\":3071:3150   */\n          tag_88\n          tag_78\n          jump\t// in\n        tag_88:\n            /* \"#utility.yul\":3030:3152   */\n        tag_87:\n            /* \"#utility.yul\":3181:3187   */\n          dup2\n            /* \"#utility.yul\":3175:3188   */\n          mload\n            /* \"#utility.yul\":3206:3296   */\n          tag_89\n            /* \"#utility.yul\":3292:3295   */\n          dup5\n            /* \"#utility.yul\":3284:3290   */\n          dup3\n            /* \"#utility.yul\":3277:3281   */\n          0x20\n            /* \"#utility.yul\":3269:3275   */\n          dup7\n            /* \"#utility.yul\":3265:3282   */\n          add\n            /* \"#utility.yul\":3206:3296   */\n          tag_61\n          jump\t// in\n        tag_89:\n            /* \"#utility.yul\":3197:3296   */\n          swap2\n          pop\n            /* \"#utility.yul\":3020:3302   */\n          pop\n            /* \"#utility.yul\":2947:3302   */\n          swap3\n          swap2\n          pop\n          pop\n          jump\t// out\n            /* \"#utility.yul\":3308:3451   */\n        tag_60:\n            /* \"#utility.yul\":3365:3370   */\n          0x00\n            /* \"#utility.yul\":3396:3402   */\n          dup2\n            /* \"#utility.yul\":3390:3403   */\n          mload\n            /* \"#utility.yul\":3381:3403   */\n          swap1\n          pop\n            /* \"#utility.yul\":3412:3445   */\n          tag_91\n            /* \"#utility.yul\":3439:3444   */\n          dup2\n            /* \"#utility.yul\":3412:3445   */\n          tag_92\n          jump\t// in\n        tag_91:\n            /* \"#utility.yul\":3308:3451   */\n          swap3\n          swap2\n          pop\n          pop\n          jump\t// out\n            /* \"#utility.yul\":3457:5343   */\n        tag_3:\n            /* \"#utility.yul\":3642:3648   */\n          0x00\n            /* \"#utility.yul\":3650:3656   */\n          dup1\n            /* \"#utility.yul\":3658:3664   */\n          0x00\n            /* \"#utility.yul\":3666:3672   */\n          dup1\n            /* \"#utility.yul\":3674:3680   */\n          0x00\n            /* \"#utility.yul\":3682:3688   */\n          dup1\n            /* \"#utility.yul\":3731:3734   */\n          0xc0\n            /* \"#utility.yul\":3719:3728   */\n          dup8\n            /* \"#utility.yul\":3710:3717   */\n          dup10\n            /* \"#utility.yul\":3706:3729   */\n          sub\n            /* \"#utility.yul\":3702:3735   */\n          slt\n            /* \"#utility.yul\":3699:3819   */\n          iszero\n          tag_94\n          jumpi\n            /* \"#utility.yul\":3738:3817   */\n          tag_95\n          tag_96\n          jump\t// in\n        tag_95:\n            /* \"#utility.yul\":3699:3819   */\n        tag_94:\n            /* \"#utility.yul\":3858:3859   */\n          0x00\n            /* \"#utility.yul\":3883:3947   */\n          tag_97\n            /* \"#utility.yul\":3939:3946   */\n          dup10\n            /* \"#utility.yul\":3930:3936   */\n          dup3\n            /* \"#utility.yul\":3919:3928   */\n          dup11\n            /* \"#utility.yul\":3915:3937   */\n          add\n            /* \"#utility.yul\":3883:3947   */\n          tag_48\n          jump\t// in\n        tag_97:\n            /* \"#utility.yul\":3873:3947   */\n          swap7\n          pop\n            /* \"#utility.yul\":3829:3957   */\n          pop\n            /* \"#utility.yul\":4017:4019   */\n          0x20\n            /* \"#utility.yul\":4006:4015   */\n          dup8\n            /* \"#utility.yul\":4002:4020   */\n          add\n            /* \"#utility.yul\":3996:4021   */\n          mload\n            /* \"#utility.yul\":4048:4066   */\n          0xffffffffffffffff\n            /* \"#utility.yul\":4040:4046   */\n          dup2\n            /* \"#utility.yul\":4037:4067   */\n          gt\n            /* \"#utility.yul\":4034:4151   */\n          iszero\n          tag_98\n          jumpi\n            /* \"#utility.yul\":4070:4149   */\n          tag_99\n          tag_100\n          jump\t// in\n        tag_99:\n            /* \"#utility.yul\":4034:4151   */\n        tag_98:\n            /* \"#utility.yul\":4175:4249   */\n          tag_101\n            /* \"#utility.yul\":4241:4248   */\n          dup10\n            /* \"#utility.yul\":4232:4238   */\n          dup3\n            /* \"#utility.yul\":4221:4230   */\n          dup11\n            /* \"#utility.yul\":4217:4239   */\n          add\n            /* \"#utility.yul\":4175:4249   */\n          tag_85\n          jump\t// in\n        tag_101:\n            /* \"#utility.yul\":4165:4249   */\n          swap6\n          pop\n            /* \"#utility.yul\":3967:4259   */\n          pop\n            /* \"#utility.yul\":4319:4321   */\n          0x40\n            /* \"#utility.yul\":4308:4317   */\n          dup8\n            /* \"#utility.yul\":4304:4322   */\n          add\n            /* \"#utility.yul\":4298:4323   */\n          mload\n            /* \"#utility.yul\":4350:4368   */\n          0xffffffffffffffff\n            /* \"#utility.yul\":4342:4348   */\n          dup2\n            /* \"#utility.yul\":4339:4369   */\n          gt\n            /* \"#utility.yul\":4336:4453   */\n          iszero\n          tag_102\n          jumpi\n            /* \"#utility.yul\":4372:4451   */\n          tag_103\n          tag_100\n          jump\t// in\n        tag_103:\n            /* \"#utility.yul\":4336:4453   */\n        tag_102:\n            /* \"#utility.yul\":4477:4551   */\n          tag_104\n            /* \"#utility.yul\":4543:4550   */\n          dup10\n            /* \"#utility.yul\":4534:4540   */\n          dup3\n            /* \"#utility.yul\":4523:4532   */\n          dup11\n            /* \"#utility.yul\":4519:4541   */\n          add\n            /* \"#utility.yul\":4477:4551   */\n          tag_85\n          jump\t// in\n        tag_104:\n            /* \"#utility.yul\":4467:4551   */\n          swap5\n          pop\n            /* \"#utility.yul\":4269:4561   */\n          pop\n            /* \"#utility.yul\":4621:4623   */\n          0x60\n            /* \"#utility.yul\":4610:4619   */\n          dup8\n            /* \"#utility.yul\":4606:4624   */\n          add\n            /* \"#utility.yul\":4600:4625   */\n          mload\n            /* \"#utility.yul\":4652:4670   */\n          0xffffffffffffffff\n            /* \"#utility.yul\":4644:4650   */\n          dup2\n            /* \"#utility.yul\":4641:4671   */\n          gt\n            /* \"#utility.yul\":4638:4755   */\n          iszero\n          tag_105\n          jumpi\n            /* \"#utility.yul\":4674:4753   */\n          tag_106\n          tag_100\n          jump\t// in\n        tag_106:\n            /* \"#utility.yul\":4638:4755   */\n        tag_105:\n            /* \"#utility.yul\":4779:4868   */\n          tag_107\n            /* \"#utility.yul\":4860:4867   */\n          dup10\n            /* \"#utility.yul\":4851:4857   */\n          dup3\n            /* \"#utility.yul\":4840:4849   */\n          dup11\n            /* \"#utility.yul\":4836:4858   */\n          add\n            /* \"#utility.yul\":4779:4868   */\n          tag_74\n          jump\t// in\n        tag_107:\n            /* \"#utility.yul\":4769:4868   */\n          swap4\n          pop\n            /* \"#utility.yul\":4571:4878   */\n          pop\n            /* \"#utility.yul\":4938:4941   */\n          0x80\n            /* \"#utility.yul\":4927:4936   */\n          dup8\n            /* \"#utility.yul\":4923:4942   */\n          add\n            /* \"#utility.yul\":4917:4943   */\n          mload\n            /* \"#utility.yul\":4970:4988   */\n          0xffffffffffffffff\n            /* \"#utility.yul\":4962:4968   */\n          dup2\n            /* \"#utility.yul\":4959:4989   */\n          gt\n            /* \"#utility.yul\":4956:5073   */\n          iszero\n          tag_108\n          jumpi\n            /* \"#utility.yul\":4992:5071   */\n          tag_109\n          tag_100\n          jump\t// in\n        tag_109:\n            /* \"#utility.yul\":4956:5073   */\n        tag_108:\n            /* \"#utility.yul\":5097:5186   */\n          tag_110\n            /* \"#utility.yul\":5178:5185   */\n          dup10\n            /* \"#utility.yul\":5169:5175   */\n          dup3\n            /* \"#utility.yul\":5158:5167   */\n          dup11\n            /* \"#utility.yul\":5154:5176   */\n          add\n            /* \"#utility.yul\":5097:5186   */\n          tag_80\n          jump\t// in\n        tag_110:\n            /* \"#utility.yul\":5087:5186   */\n          swap3\n          pop\n            /* \"#utility.yul\":4888:5196   */\n          pop\n            /* \"#utility.yul\":5235:5238   */\n          0xa0\n            /* \"#utility.yul\":5262:5326   */\n          tag_111\n            /* \"#utility.yul\":5318:5325   */\n          dup10\n            /* \"#utility.yul\":5309:5315   */\n          dup3\n            /* \"#utility.yul\":5298:5307   */\n          dup11\n            /* \"#utility.yul\":5294:5316   */\n          add\n            /* \"#utility.yul\":5262:5326   */\n          tag_60\n          jump\t// in\n        tag_111:\n            /* \"#utility.yul\":5252:5326   */\n          swap2\n          pop\n            /* \"#utility.yul\":5206:5336   */\n          pop\n            /* \"#utility.yul\":3457:5343   */\n          swap3\n          swap6\n          pop\n          swap3\n          swap6\n          pop\n          swap3\n          swap6\n          jump\t// out\n            /* \"#utility.yul\":5349:5478   */\n        tag_40:\n            /* \"#utility.yul\":5383:5389   */\n          0x00\n            /* \"#utility.yul\":5410:5430   */\n          tag_113\n          tag_114\n          jump\t// in\n        tag_113:\n            /* \"#utility.yul\":5400:5430   */\n          swap1\n          pop\n            /* \"#utility.yul\":5439:5472   */\n          tag_115\n            /* \"#utility.yul\":5467:5471   */\n          dup3\n            /* \"#utility.yul\":5459:5465   */\n          dup3\n            /* \"#utility.yul\":5439:5472   */\n          tag_116\n          jump\t// in\n        tag_115:\n            /* \"#utility.yul\":5349:5478   */\n          swap2\n          swap1\n          pop\n          jump\t// out\n            /* \"#utility.yul\":5484:5559   */\n        tag_114:\n            /* \"#utility.yul\":5517:5523   */\n          0x00\n            /* \"#utility.yul\":5550:5552   */\n          0x40\n            /* \"#utility.yul\":5544:5553   */\n          mload\n            /* \"#utility.yul\":5534:5553   */\n          swap1\n          pop\n            /* \"#utility.yul\":5484:5559   */\n          swap1\n          jump\t// out\n            /* \"#utility.yul\":5565:5876   */\n        tag_39:\n            /* \"#utility.yul\":5642:5646   */\n          0x00\n            /* \"#utility.yul\":5732:5750   */\n          0xffffffffffffffff\n            /* \"#utility.yul\":5724:5730   */\n          dup3\n            /* \"#utility.yul\":5721:5751   */\n          gt\n            /* \"#utility.yul\":5718:5774   */\n          iszero\n          tag_119\n          jumpi\n            /* \"#utility.yul\":5754:5772   */\n          tag_120\n          tag_121\n          jump\t// in\n        tag_120:\n            /* \"#utility.yul\":5718:5774   */\n        tag_119:\n            /* \"#utility.yul\":5804:5808   */\n          0x20\n            /* \"#utility.yul\":5796:5802   */\n          dup3\n            /* \"#utility.yul\":5792:5809   */\n          mul\n            /* \"#utility.yul\":5784:5809   */\n          swap1\n          pop\n            /* \"#utility.yul\":5864:5868   */\n          0x20\n            /* \"#utility.yul\":5858:5862   */\n          dup2\n            /* \"#utility.yul\":5854:5869   */\n          add\n            /* \"#utility.yul\":5846:5869   */\n          swap1\n          pop\n            /* \"#utility.yul\":5565:5876   */\n          swap2\n          swap1\n          pop\n          jump\t// out\n            /* \"#utility.yul\":5882:6193   */\n        tag_53:\n            /* \"#utility.yul\":5959:5963   */\n          0x00\n            /* \"#utility.yul\":6049:6067   */\n          0xffffffffffffffff\n            /* \"#utility.yul\":6041:6047   */\n          dup3\n            /* \"#utility.yul\":6038:6068   */\n          gt\n            /* \"#utility.yul\":6035:6091   */\n          iszero\n          tag_123\n          jumpi\n            /* \"#utility.yul\":6071:6089   */\n          tag_124\n          tag_121\n          jump\t// in\n        tag_124:\n            /* \"#utility.yul\":6035:6091   */\n        tag_123:\n            /* \"#utility.yul\":6121:6125   */\n          0x20\n            /* \"#utility.yul\":6113:6119   */\n          dup3\n            /* \"#utility.yul\":6109:6126   */\n          mul\n            /* \"#utility.yul\":6101:6126   */\n          swap1\n          pop\n            /* \"#utility.yul\":6181:6185   */\n          0x20\n            /* \"#utility.yul\":6175:6179   */\n          dup2\n            /* \"#utility.yul\":6171:6186   */\n          add\n            /* \"#utility.yul\":6163:6186   */\n          swap1\n          pop\n            /* \"#utility.yul\":5882:6193   */\n          swap2\n          swap1\n          pop\n          jump\t// out\n            /* \"#utility.yul\":6199:6507   */\n        tag_65:\n            /* \"#utility.yul\":6261:6265   */\n          0x00\n            /* \"#utility.yul\":6351:6369   */\n          0xffffffffffffffff\n            /* \"#utility.yul\":6343:6349   */\n          dup3\n            /* \"#utility.yul\":6340:6370   */\n          gt\n            /* \"#utility.yul\":6337:6393   */\n          iszero\n          tag_126\n          jumpi\n            /* \"#utility.yul\":6373:6391   */\n          tag_127\n          tag_121\n          jump\t// in\n        tag_127:\n            /* \"#utility.yul\":6337:6393   */\n        tag_126:\n            /* \"#utility.yul\":6411:6440   */\n          tag_128\n            /* \"#utility.yul\":6433:6439   */\n          dup3\n            /* \"#utility.yul\":6411:6440   */\n          tag_129\n          jump\t// in\n        tag_128:\n            /* \"#utility.yul\":6403:6440   */\n          swap1\n          pop\n            /* \"#utility.yul\":6495:6499   */\n          0x20\n            /* \"#utility.yul\":6489:6493   */\n          dup2\n            /* \"#utility.yul\":6485:6500   */\n          add\n            /* \"#utility.yul\":6477:6500   */\n          swap1\n          pop\n            /* \"#utility.yul\":6199:6507   */\n          swap2\n          swap1\n          pop\n          jump\t// out\n            /* \"#utility.yul\":6513:6609   */\n        tag_130:\n            /* \"#utility.yul\":6550:6557   */\n          0x00\n            /* \"#utility.yul\":6579:6603   */\n          tag_132\n            /* \"#utility.yul\":6597:6602   */\n          dup3\n            /* \"#utility.yul\":6579:6603   */\n          tag_133\n          jump\t// in\n        tag_132:\n            /* \"#utility.yul\":6568:6603   */\n          swap1\n          pop\n            /* \"#utility.yul\":6513:6609   */\n          swap2\n          swap1\n          pop\n          jump\t// out\n            /* \"#utility.yul\":6615:6741   */\n        tag_133:\n            /* \"#utility.yul\":6652:6659   */\n          0x00\n            /* \"#utility.yul\":6692:6734   */\n          0xffffffffffffffffffffffffffffffffffffffff\n            /* \"#utility.yul\":6685:6690   */\n          dup3\n            /* \"#utility.yul\":6681:6735   */\n          and\n            /* \"#utility.yul\":6670:6735   */\n          swap1\n          pop\n            /* \"#utility.yul\":6615:6741   */\n          swap2\n          swap1\n          pop\n          jump\t// out\n            /* \"#utility.yul\":6747:6824   */\n        tag_135:\n            /* \"#utility.yul\":6784:6791   */\n          0x00\n            /* \"#utility.yul\":6813:6818   */\n          dup2\n            /* \"#utility.yul\":6802:6818   */\n          swap1\n          pop\n            /* \"#utility.yul\":6747:6824   */\n          swap2\n          swap1\n          pop\n          jump\t// out\n            /* \"#utility.yul\":6830:7137   */\n        tag_70:\n            /* \"#utility.yul\":6898:6899   */\n          0x00\n            /* \"#utility.yul\":6908:7021   */\n        tag_138:\n            /* \"#utility.yul\":6922:6928   */\n          dup4\n            /* \"#utility.yul\":6919:6920   */\n          dup2\n            /* \"#utility.yul\":6916:6929   */\n          lt\n            /* \"#utility.yul\":6908:7021   */\n          iszero\n          tag_140\n          jumpi\n            /* \"#utility.yul\":7007:7008   */\n          dup1\n            /* \"#utility.yul\":7002:7005   */\n          dup3\n            /* \"#utility.yul\":6998:7009   */\n          add\n            /* \"#utility.yul\":6992:7010   */\n          mload\n            /* \"#utility.yul\":6988:6989   */\n          dup2\n            /* \"#utility.yul\":6983:6986   */\n          dup5\n            /* \"#utility.yul\":6979:6990   */\n          add\n            /* \"#utility.yul\":6972:7011   */\n          mstore\n            /* \"#utility.yul\":6944:6946   */\n          0x20\n            /* \"#utility.yul\":6941:6942   */\n          dup2\n            /* \"#utility.yul\":6937:6947   */\n          add\n            /* \"#utility.yul\":6932:6947   */\n          swap1\n          pop\n            /* \"#utility.yul\":6908:7021   */\n          jump(tag_138)\n        tag_140:\n            /* \"#utility.yul\":7039:7045   */\n          dup4\n            /* \"#utility.yul\":7036:7037   */\n          dup2\n            /* \"#utility.yul\":7033:7046   */\n          gt\n            /* \"#utility.yul\":7030:7131   */\n          iszero\n          tag_141\n          jumpi\n            /* \"#utility.yul\":7119:7120   */\n          0x00\n            /* \"#utility.yul\":7110:7116   */\n          dup5\n            /* \"#utility.yul\":7105:7108   */\n          dup5\n            /* \"#utility.yul\":7101:7117   */\n          add\n            /* \"#utility.yul\":7094:7121   */\n          mstore\n            /* \"#utility.yul\":7030:7131   */\n        tag_141:\n            /* \"#utility.yul\":6879:7137   */\n          pop\n            /* \"#utility.yul\":6830:7137   */\n          pop\n          pop\n          pop\n          jump\t// out\n            /* \"#utility.yul\":7143:7463   */\n        tag_24:\n            /* \"#utility.yul\":7187:7193   */\n          0x00\n            /* \"#utility.yul\":7224:7225   */\n          0x02\n            /* \"#utility.yul\":7218:7222   */\n          dup3\n            /* \"#utility.yul\":7214:7226   */\n          div\n            /* \"#utility.yul\":7204:7226   */\n          swap1\n          pop\n            /* \"#utility.yul\":7271:7272   */\n          0x01\n            /* \"#utility.yul\":7265:7269   */\n          dup3\n            /* \"#utility.yul\":7261:7273   */\n          and\n            /* \"#utility.yul\":7292:7310   */\n          dup1\n            /* \"#utility.yul\":7282:7363   */\n          tag_143\n          jumpi\n            /* \"#utility.yul\":7348:7352   */\n          0x7f\n            /* \"#utility.yul\":7340:7346   */\n          dup3\n            /* \"#utility.yul\":7336:7353   */\n          and\n            /* \"#utility.yul\":7326:7353   */\n          swap2\n          pop\n            /* \"#utility.yul\":7282:7363   */\n        tag_143:\n            /* \"#utility.yul\":7410:7412   */\n          0x20\n            /* \"#utility.yul\":7402:7408   */\n          dup3\n            /* \"#utility.yul\":7399:7413   */\n          lt\n            /* \"#utility.yul\":7379:7397   */\n          dup2\n            /* \"#utility.yul\":7376:7414   */\n          eq\n            /* \"#utility.yul\":7373:7457   */\n          iszero\n          tag_144\n          jumpi\n            /* \"#utility.yul\":7429:7447   */\n          tag_145\n          tag_146\n          jump\t// in\n        tag_145:\n            /* \"#utility.yul\":7373:7457   */\n        tag_144:\n            /* \"#utility.yul\":7194:7463   */\n          pop\n            /* \"#utility.yul\":7143:7463   */\n          swap2\n          swap1\n          pop\n          jump\t// out\n            /* \"#utility.yul\":7469:7750   */\n        tag_116:\n            /* \"#utility.yul\":7552:7579   */\n          tag_148\n            /* \"#utility.yul\":7574:7578   */\n          dup3\n            /* \"#utility.yul\":7552:7579   */\n          tag_129\n          jump\t// in\n        tag_148:\n            /* \"#utility.yul\":7544:7550   */\n          dup2\n            /* \"#utility.yul\":7540:7580   */\n          add\n            /* \"#utility.yul\":7682:7688   */\n          dup2\n            /* \"#utility.yul\":7670:7680   */\n          dup2\n            /* \"#utility.yul\":7667:7689   */\n          lt\n            /* \"#utility.yul\":7646:7664   */\n          0xffffffffffffffff\n            /* \"#utility.yul\":7634:7644   */\n          dup3\n            /* \"#utility.yul\":7631:7665   */\n          gt\n            /* \"#utility.yul\":7628:7690   */\n          or\n            /* \"#utility.yul\":7625:7713   */\n          iszero\n          tag_149\n          jumpi\n            /* \"#utility.yul\":7693:7711   */\n          tag_150\n          tag_121\n          jump\t// in\n        tag_150:\n            /* \"#utility.yul\":7625:7713   */\n        tag_149:\n            /* \"#utility.yul\":7733:7743   */\n          dup1\n            /* \"#utility.yul\":7729:7731   */\n          0x40\n            /* \"#utility.yul\":7722:7744   */\n          mstore\n            /* \"#utility.yul\":7512:7750   */\n          pop\n            /* \"#utility.yul\":7469:7750   */\n          pop\n          pop\n          jump\t// out\n            /* \"#utility.yul\":7756:7989   */\n        tag_18:\n            /* \"#utility.yul\":7795:7798   */\n          0x00\n            /* \"#utility.yul\":7818:7842   */\n          tag_152\n            /* \"#utility.yul\":7836:7841   */\n          dup3\n            /* \"#utility.yul\":7818:7842   */\n          tag_135\n          jump\t// in\n        tag_152:\n            /* \"#utility.yul\":7809:7842   */\n          swap2\n          pop\n            /* \"#utility.yul\":7864:7930   */\n          0xffffffffffffffffffffffffffffffffffffffffffffffffffffffffffffffff\n            /* \"#utility.yul\":7857:7862   */\n          dup3\n            /* \"#utility.yul\":7854:7931   */\n          eq\n            /* \"#utility.yul\":7851:7954   */\n          iszero\n          tag_153\n          jumpi\n            /* \"#utility.yul\":7934:7952   */\n          tag_154\n          tag_155\n          jump\t// in\n        tag_154:\n            /* \"#utility.yul\":7851:7954   */\n        tag_153:\n            /* \"#utility.yul\":7981:7982   */\n          0x01\n            /* \"#utility.yul\":7974:7979   */\n          dup3\n            /* \"#utility.yul\":7970:7983   */\n          add\n            /* \"#utility.yul\":7963:7983   */\n          swap1\n          pop\n            /* \"#utility.yul\":7756:7989   */\n          swap2\n          swap1\n          pop\n          jump\t// out\n            /* \"#utility.yul\":7995:8175   */\n        tag_155:\n            /* \"#utility.yul\":8043:8120   */\n          0x4e487b7100000000000000000000000000000000000000000000000000000000\n            /* \"#utility.yul\":8040:8041   */\n          0x00\n            /* \"#utility.yul\":8033:8121   */\n          mstore\n            /* \"#utility.yul\":8140:8144   */\n          0x11\n            /* \"#utility.yul\":8137:8138   */\n          0x04\n            /* \"#utility.yul\":8130:8145   */\n          mstore\n            /* \"#utility.yul\":8164:8168   */\n          0x24\n            /* \"#utility.yul\":8161:8162   */\n          0x00\n            /* \"#utility.yul\":8154:8169   */\n          revert\n            /* \"#utility.yul\":8181:8361   */\n        tag_146:\n            /* \"#utility.yul\":8229:8306   */\n          0x4e487b7100000000000000000000000000000000000000000000000000000000\n            /* \"#utility.yul\":8226:8227   */\n          0x00\n            /* \"#utility.yul\":8219:8307   */\n          mstore\n            /* \"#utility.yul\":8326:8330   */\n          0x22\n            /* \"#utility.yul\":8323:8324   */\n          0x04\n            /* \"#utility.yul\":8316:8331   */\n          mstore\n            /* \"#utility.yul\":8350:8354   */\n          0x24\n            /* \"#utility.yul\":8347:8348   */\n          0x00\n            /* \"#utility.yul\":8340:8355   */\n          revert\n            /* \"#utility.yul\":8367:8547   */\n        tag_11:\n            /* \"#utility.yul\":8415:8492   */\n          0x4e487b7100000000000000000000000000000000000000000000000000000000\n            /* \"#utility.yul\":8412:8413   */\n          0x00\n            /* \"#utility.yul\":8405:8493   */\n          mstore\n            /* \"#utility.yul\":8512:8516   */\n          0x32\n            /* \"#utility.yul\":8509:8510   */\n          0x04\n            /* \"#utility.yul\":8502:8517   */\n          mstore\n            /* \"#utility.yul\":8536:8540   */\n          0x24\n            /* \"#utility.yul\":8533:8534   */\n          0x00\n            /* \"#utility.yul\":8526:8541   */\n          revert\n            /* \"#utility.yul\":8553:8733   */\n        tag_121:\n            /* \"#utility.yul\":8601:8678   */\n          0x4e487b7100000000000000000000000000000000000000000000000000000000\n            /* \"#utility.yul\":8598:8599   */\n          0x00\n            /* \"#utility.yul\":8591:8679   */\n          mstore\n            /* \"#utility.yul\":8698:8702   */\n          0x41\n            /* \"#utility.yul\":8695:8696   */\n          0x04\n            /* \"#utility.yul\":8688:8703   */\n          mstore\n            /* \"#utility.yul\":8722:8726   */\n          0x24\n            /* \"#utility.yul\":8719:8720   */\n          0x00\n            /* \"#utility.yul\":8712:8727   */\n          revert\n            /* \"#utility.yul\":8739:8856   */\n        tag_78:\n            /* \"#utility.yul\":8848:8849   */\n          0x00\n            /* \"#utility.yul\":8845:8846   */\n          dup1\n            /* \"#utility.yul\":8838:8850   */\n          revert\n            /* \"#utility.yul\":8862:8979   */\n        tag_43:\n            /* \"#utility.yul\":8971:8972   */\n          0x00\n            /* \"#utility.yul\":8968:8969   */\n          dup1\n            /* \"#utility.yul\":8961:8973   */\n          revert\n            /* \"#utility.yul\":8985:9102   */\n        tag_68:\n            /* \"#utility.yul\":9094:9095   */\n          0x00\n            /* \"#utility.yul\":9091:9092   */\n          dup1\n            /* \"#utility.yul\":9084:9096   */\n          revert\n            /* \"#utility.yul\":9108:9225   */\n        tag_100:\n            /* \"#utility.yul\":9217:9218   */\n          0x00\n            /* \"#utility.yul\":9214:9215   */\n          dup1\n            /* \"#utility.yul\":9207:9219   */\n          revert\n            /* \"#utility.yul\":9231:9348   */\n        tag_96:\n            /* \"#utility.yul\":9340:9341   */\n          0x00\n            /* \"#utility.yul\":9337:9338   */\n          dup1\n            /* \"#utility.yul\":9330:9342   */\n          revert\n            /* \"#utility.yul\":9354:9456   */\n        tag_129:\n            /* \"#utility.yul\":9395:9401   */\n          0x00\n            /* \"#utility.yul\":9446:9448   */\n          0x1f\n            /* \"#utility.yul\":9442:9449   */\n          not\n            /* \"#utility.yul\":9437:9439   */\n          0x1f\n            /* \"#utility.yul\":9430:9435   */\n          dup4\n            /* \"#utility.yul\":9426:9440   */\n          add\n            /* \"#utility.yul\":9422:9450   */\n          and\n            /* \"#utility.yul\":9412:9450   */\n          swap1\n          pop\n            /* \"#utility.yul\":9354:9456   */\n          swap2\n          swap1\n          pop\n          jump\t// out\n            /* \"#utility.yul\":9462:9584   */\n        tag_73:\n            /* \"#utility.yul\":9535:9559   */\n          tag_167\n            /* \"#utility.yul\":9553:9558   */\n          dup2\n            /* \"#utility.yul\":9535:9559   */\n          tag_130\n          jump\t// in\n        tag_167:\n            /* \"#utility.yul\":9528:9533   */\n          dup2\n            /* \"#utility.yul\":9525:9560   */\n          eq\n            /* \"#utility.yul\":9515:9578   */\n          tag_168\n          jumpi\n            /* \"#utility.yul\":9574:9575   */\n          0x00\n            /* \"#utility.yul\":9571:9572   */\n          dup1\n            /* \"#utility.yul\":9564:9576   */\n          revert\n            /* \"#utility.yul\":9515:9578   */\n        tag_168:\n            /* \"#utility.yul\":9462:9584   */\n          pop\n          jump\t// out\n            /* \"#utility.yul\":9590:9712   */\n        tag_92:\n            /* \"#utility.yul\":9663:9687   */\n          tag_170\n            /* \"#utility.yul\":9681:9686   */\n          dup2\n            /* \"#utility.yul\":9663:9687   */\n          tag_135\n          jump\t// in\n        tag_170:\n            /* \"#utility.yul\":9656:9661   */\n          dup2\n            /* \"#utility.yul\":9653:9688   */\n          eq\n            /* \"#utility.yul\":9643:9706   */\n          tag_171\n          jumpi\n            /* \"#utility.yul\":9702:9703   */\n          0x00\n            /* \"#utility.yul\":9699:9700   */\n          dup1\n            /* \"#utility.yul\":9692:9704   */\n          revert\n            /* \"#utility.yul\":9643:9706   */\n        tag_171:\n            /* \"#utility.yul\":9590:9712   */\n          pop\n          jump\t// out\n            /* \"tron/tokeniz.sol\":177:2509  contract Tokeniz{\r... */\n        tag_22:\n          dataSize(sub_0)\n          dup1\n          dataOffset(sub_0)\n          0x00\n          codecopy\n          0x00\n          return\n        stop\n\n        sub_0: assembly {\n                /* \"tron/tokeniz.sol\":177:2509  contract Tokeniz{\r... */\n              mstore(0x40, 0x80)\n              callvalue\n              dup1\n              iszero\n              tag_1\n              jumpi\n              0x00\n              dup1\n              revert\n            tag_1:\n              pop\n              jumpi(tag_2, lt(calldatasize, 0x04))\n              shr(0xe0, calldataload(0x00))\n              dup1\n              0x8f23d5f6\n              gt\n              tag_12\n              jumpi\n              dup1\n              0x8f23d5f6\n              eq\n              tag_7\n              jumpi\n              dup1\n              0x90d524a2\n              eq\n              tag_8\n              jumpi\n              dup1\n              0xe2c42e66\n              eq\n              tag_9\n              jumpi\n              dup1\n              0xeedc966a\n              eq\n              tag_10\n              jumpi\n              dup1\n              0xf7aca939\n              eq\n              tag_11\n              jumpi\n              jump(tag_2)\n            tag_12:\n              dup1\n              0x06fdde03\n              eq\n              tag_3\n              jumpi\n              dup1\n              0x17d70f7c\n              eq\n              tag_4\n              jumpi\n              dup1\n              0x3c130d90\n              eq\n              tag_5\n              jumpi\n              dup1\n              0x8da5cb5b\n              eq\n              tag_6\n              jumpi\n            tag_2:\n              0x00\n              dup1\n              revert\n                /* \"tron/tokeniz.sol\":316:334  string public name */\n            tag_3:\n              tag_13\n              tag_14\n              jump\t// in\n            tag_13:\n              mload(0x40)\n              tag_15\n              swap2\n              swap1\n              tag_16\n              jump\t// in\n            tag_15:\n              mload(0x40)\n              dup1\n              swap2\n              sub\n              swap1\n              return\n                /* \"tron/tokeniz.sol\":431:453  uint256 public tokenId */\n            tag_4:\n              tag_17\n              tag_18\n              jump\t// in\n            tag_17:\n              mload(0x40)\n              tag_19\n              swap2\n              swap1\n              tag_20\n              jump\t// in\n            tag_19:\n              mload(0x40)\n              dup1\n              swap2\n              sub\n              swap1\n              return\n                /* \"tron/tokeniz.sol\":287:309  string public tokenURI */\n            tag_5:\n              tag_21\n              tag_22\n              jump\t// in\n            tag_21:\n              mload(0x40)\n              tag_23\n              swap2\n              swap1\n              tag_16\n              jump\t// in\n            tag_23:\n              mload(0x40)\n              dup1\n              swap2\n              sub\n              swap1\n              return\n                /* \"tron/tokeniz.sol\":235:255  address public owner */\n            tag_6:\n              tag_24\n              tag_25\n              jump\t// in\n            tag_24:\n              mload(0x40)\n              tag_26\n              swap2\n              swap1\n              tag_27\n              jump\t// in\n            tag_26:\n              mload(0x40)\n              dup1\n              swap2\n              sub\n              swap1\n              return\n                /* \"tron/tokeniz.sol\":262:280  bool public packed */\n            tag_7:\n              tag_28\n              tag_29\n              jump\t// in\n            tag_28:\n              mload(0x40)\n              tag_30\n              swap2\n              swap1\n              tag_31\n              jump\t// in\n            tag_30:\n              mload(0x40)\n              dup1\n              swap2\n              sub\n              swap1\n              return\n                /* \"tron/tokeniz.sol\":1152:1698  function unPack() public{\r... */\n            tag_8:\n              tag_32\n              tag_33\n              jump\t// in\n            tag_32:\n              stop\n                /* \"tron/tokeniz.sol\":1063:1140  function isPacked() public view returns(bool){\r... */\n            tag_9:\n              tag_34\n              tag_35\n              jump\t// in\n            tag_34:\n              mload(0x40)\n              tag_36\n              swap2\n              swap1\n              tag_31\n              jump\t// in\n            tag_36:\n              mload(0x40)\n              dup1\n              swap2\n              sub\n              swap1\n              return\n                /* \"tron/tokeniz.sol\":341:385  mapping(address => uint) public tokenBalance */\n            tag_10:\n              tag_37\n              0x04\n              dup1\n              calldatasize\n              sub\n              dup2\n              add\n              swap1\n              tag_38\n              swap2\n              swap1\n              tag_39\n              jump\t// in\n            tag_38:\n              tag_40\n              jump\t// in\n            tag_37:\n              mload(0x40)\n              tag_41\n              swap2\n              swap1\n              tag_20\n              jump\t// in\n            tag_41:\n              mload(0x40)\n              dup1\n              swap2\n              sub\n              swap1\n              return\n                /* \"tron/tokeniz.sol\":392:424  address[] public tokensAddresses */\n            tag_11:\n              tag_42\n              0x04\n              dup1\n              calldatasize\n              sub\n              dup2\n              add\n              swap1\n              tag_43\n              swap2\n              swap1\n              tag_44\n              jump\t// in\n            tag_43:\n              tag_45\n              jump\t// in\n            tag_42:\n              mload(0x40)\n              tag_46\n              swap2\n              swap1\n              tag_27\n              jump\t// in\n            tag_46:\n              mload(0x40)\n              dup1\n              swap2\n              sub\n              swap1\n              return\n                /* \"tron/tokeniz.sol\":316:334  string public name */\n            tag_14:\n              0x03\n              dup1\n              sload\n              tag_47\n              swap1\n              tag_48\n              jump\t// in\n            tag_47:\n              dup1\n              0x1f\n              add\n              0x20\n              dup1\n              swap2\n              div\n              mul\n              0x20\n              add\n              mload(0x40)\n              swap1\n              dup2\n              add\n              0x40\n              mstore\n              dup1\n              swap3\n              swap2\n              swap1\n              dup2\n              dup2\n              mstore\n              0x20\n              add\n              dup3\n              dup1\n              sload\n              tag_49\n              swap1\n              tag_48\n              jump\t// in\n            tag_49:\n              dup1\n              iszero\n              tag_50\n              jumpi\n              dup1\n              0x1f\n              lt\n              tag_51\n              jumpi\n              0x0100\n              dup1\n              dup4\n              sload\n              div\n              mul\n              dup4\n              mstore\n              swap2\n              0x20\n              add\n              swap2\n              jump(tag_50)\n            tag_51:\n              dup3\n              add\n              swap2\n              swap1\n              0x00\n              mstore\n              keccak256(0x00, 0x20)\n              swap1\n            tag_52:\n              dup2\n              sload\n              dup2\n              mstore\n              swap1\n              0x01\n              add\n              swap1\n              0x20\n              add\n              dup1\n              dup4\n              gt\n              tag_52\n              jumpi\n              dup3\n              swap1\n              sub\n              0x1f\n              and\n              dup3\n              add\n              swap2\n            tag_50:\n              pop\n              pop\n              pop\n              pop\n              pop\n              dup2\n              jump\t// out\n                /* \"tron/tokeniz.sol\":431:453  uint256 public tokenId */\n            tag_18:\n              sload(0x06)\n              dup2\n              jump\t// out\n                /* \"tron/tokeniz.sol\":287:309  string public tokenURI */\n            tag_22:\n              0x02\n              dup1\n              sload\n              tag_53\n              swap1\n              tag_48\n              jump\t// in\n            tag_53:\n              dup1\n              0x1f\n              add\n              0x20\n              dup1\n              swap2\n              div\n              mul\n              0x20\n              add\n              mload(0x40)\n              swap1\n              dup2\n              add\n              0x40\n              mstore\n              dup1\n              swap3\n              swap2\n              swap1\n              dup2\n              dup2\n              mstore\n              0x20\n              add\n              dup3\n              dup1\n              sload\n              tag_54\n              swap1\n              tag_48\n              jump\t// in\n            tag_54:\n              dup1\n              iszero\n              tag_55\n              jumpi\n              dup1\n              0x1f\n              lt\n              tag_56\n              jumpi\n              0x0100\n              dup1\n              dup4\n              sload\n              div\n              mul\n              dup4\n              mstore\n              swap2\n              0x20\n              add\n              swap2\n              jump(tag_55)\n            tag_56:\n              dup3\n              add\n              swap2\n              swap1\n              0x00\n              mstore\n              keccak256(0x00, 0x20)\n              swap1\n            tag_57:\n              dup2\n              sload\n              dup2\n              mstore\n              swap1\n              0x01\n              add\n              swap1\n              0x20\n              add\n              dup1\n              dup4\n              gt\n              tag_57\n              jumpi\n              dup3\n              swap1\n              sub\n              0x1f\n              and\n              dup3\n              add\n              swap2\n            tag_55:\n              pop\n              pop\n              pop\n              pop\n              pop\n              dup2\n              jump\t// out\n                /* \"tron/tokeniz.sol\":235:255  address public owner */\n            tag_25:\n              0x01\n              0x00\n              swap1\n              sload\n              swap1\n              0x0100\n              exp\n              swap1\n              div\n              0xffffffffffffffffffffffffffffffffffffffff\n              and\n              dup2\n              jump\t// out\n                /* \"tron/tokeniz.sol\":262:280  bool public packed */\n            tag_29:\n              0x01\n              0x14\n              swap1\n              sload\n              swap1\n              0x0100\n              exp\n              swap1\n              div\n              0xff\n              and\n              dup2\n              jump\t// out\n                /* \"tron/tokeniz.sol\":1152:1698  function unPack() public{\r... */\n            tag_33:\n                /* \"tron/tokeniz.sol\":1222:1227  owner */\n              0x01\n              0x00\n              swap1\n              sload\n              swap1\n              0x0100\n              exp\n              swap1\n              div\n              0xffffffffffffffffffffffffffffffffffffffff\n              and\n                /* \"tron/tokeniz.sol\":1209:1227  msg.sender== owner */\n              0xffffffffffffffffffffffffffffffffffffffff\n              and\n                /* \"tron/tokeniz.sol\":1209:1219  msg.sender */\n              caller\n                /* \"tron/tokeniz.sol\":1209:1227  msg.sender== owner */\n              0xffffffffffffffffffffffffffffffffffffffff\n              and\n              eq\n                /* \"tron/tokeniz.sol\":1187:1289  require(\r... */\n              tag_59\n              jumpi\n              mload(0x40)\n              0x08c379a000000000000000000000000000000000000000000000000000000000\n              dup2\n              mstore\n              0x04\n              add\n              tag_60\n              swap1\n              tag_61\n              jump\t// in\n            tag_60:\n              mload(0x40)\n              dup1\n              swap2\n              sub\n              swap1\n              revert\n            tag_59:\n                /* \"tron/tokeniz.sol\":1308:1314  packed */\n              0x01\n              0x14\n              swap1\n              sload\n              swap1\n              0x0100\n              exp\n              swap1\n              div\n              0xff\n              and\n                /* \"tron/tokeniz.sol\":1300:1343  require(packed, \"Already unpacked Tokeniz\") */\n              tag_62\n              jumpi\n              mload(0x40)\n              0x08c379a000000000000000000000000000000000000000000000000000000000\n              dup2\n              mstore\n              0x04\n              add\n              tag_63\n              swap1\n              tag_64\n              jump\t// in\n            tag_63:\n              mload(0x40)\n              dup1\n              swap2\n              sub\n              swap1\n              revert\n            tag_62:\n                /* \"tron/tokeniz.sol\":1362:1367  owner */\n              0x01\n              0x00\n              swap1\n              sload\n              swap1\n              0x0100\n              exp\n              swap1\n              div\n              0xffffffffffffffffffffffffffffffffffffffff\n              and\n                /* \"tron/tokeniz.sol\":1354:1377  payable(owner).transfer */\n              0xffffffffffffffffffffffffffffffffffffffff\n              and\n                /* \"tron/tokeniz.sol\":1354:1400  payable(owner).transfer(address(this).balance) */\n              0x08fc\n                /* \"tron/tokeniz.sol\":1378:1399  address(this).balance */\n              selfbalance\n                /* \"tron/tokeniz.sol\":1354:1400  payable(owner).transfer(address(this).balance) */\n              swap1\n              dup2\n              iszero\n              mul\n              swap1\n              mload(0x40)\n              0x00\n              mload(0x40)\n              dup1\n              dup4\n              sub\n              dup2\n              dup6\n              dup9\n              dup9\n              call\n              swap4\n              pop\n              pop\n              pop\n              pop\n              iszero\n              dup1\n              iszero\n              tag_66\n              jumpi\n              returndatasize\n              0x00\n              dup1\n              returndatacopy\n              revert(0x00, returndatasize)\n            tag_66:\n              pop\n                /* \"tron/tokeniz.sol\":1416:1422  uint i */\n              0x00\n                /* \"tron/tokeniz.sol\":1411:1667  for (uint i = 0; i < tokensAddresses.length; i++) {\r... */\n            tag_67:\n                /* \"tron/tokeniz.sol\":1432:1447  tokensAddresses */\n              0x05\n                /* \"tron/tokeniz.sol\":1432:1454  tokensAddresses.length */\n              dup1\n              sload\n              swap1\n              pop\n                /* \"tron/tokeniz.sol\":1428:1429  i */\n              dup2\n                /* \"tron/tokeniz.sol\":1428:1454  i < tokensAddresses.length */\n              lt\n                /* \"tron/tokeniz.sol\":1411:1667  for (uint i = 0; i < tokensAddresses.length; i++) {\r... */\n              iszero\n              tag_68\n              jumpi\n                /* \"tron/tokeniz.sol\":1476:1499  address _tokenContracts */\n              0x00\n                /* \"tron/tokeniz.sol\":1501:1516  tokensAddresses */\n              0x05\n                /* \"tron/tokeniz.sol\":1517:1518  i */\n              dup3\n                /* \"tron/tokeniz.sol\":1501:1519  tokensAddresses[i] */\n              dup2\n              sload\n              dup2\n              lt\n              tag_70\n              jumpi\n              tag_71\n              tag_72\n              jump\t// in\n            tag_71:\n            tag_70:\n              swap1\n              0x00\n              mstore\n              keccak256(0x00, 0x20)\n              add\n              0x00\n              swap1\n              sload\n              swap1\n              0x0100\n              exp\n              swap1\n              div\n              0xffffffffffffffffffffffffffffffffffffffff\n              and\n                /* \"tron/tokeniz.sol\":1476:1519  address _tokenContracts= tokensAddresses[i] */\n              swap1\n              pop\n                /* \"tron/tokeniz.sol\":1534:1554  IERC20 tokenContract */\n              0x00\n                /* \"tron/tokeniz.sol\":1564:1579  _tokenContracts */\n              dup2\n                /* \"tron/tokeniz.sol\":1534:1580  IERC20 tokenContract = IERC20(_tokenContracts) */\n              swap1\n              pop\n                /* \"tron/tokeniz.sol\":1595:1608  tokenContract */\n              dup1\n                /* \"tron/tokeniz.sol\":1595:1617  tokenContract.transfer */\n              0xffffffffffffffffffffffffffffffffffffffff\n              and\n              0xa9059cbb\n                /* \"tron/tokeniz.sol\":1618:1623  owner */\n              0x01\n              0x00\n              swap1\n              sload\n              swap1\n              0x0100\n              exp\n              swap1\n              div\n              0xffffffffffffffffffffffffffffffffffffffff\n              and\n                /* \"tron/tokeniz.sol\":1625:1637  tokenBalance */\n              0x04\n                /* \"tron/tokeniz.sol\":1625:1654  tokenBalance[_tokenContracts] */\n              0x00\n                /* \"tron/tokeniz.sol\":1638:1653  _tokenContracts */\n              dup7\n                /* \"tron/tokeniz.sol\":1625:1654  tokenBalance[_tokenContracts] */\n              0xffffffffffffffffffffffffffffffffffffffff\n              and\n              0xffffffffffffffffffffffffffffffffffffffff\n              and\n              dup2\n              mstore\n              0x20\n              add\n              swap1\n              dup2\n              mstore\n              0x20\n              add\n              0x00\n              keccak256\n              sload\n                /* \"tron/tokeniz.sol\":1595:1655  tokenContract.transfer(owner, tokenBalance[_tokenContracts]) */\n              mload(0x40)\n              dup4\n              0xffffffff\n              and\n              0xe0\n              shl\n              dup2\n              mstore\n              0x04\n              add\n              tag_74\n              swap3\n              swap2\n              swap1\n              tag_75\n              jump\t// in\n            tag_74:\n              0x20\n              mload(0x40)\n              dup1\n              dup4\n              sub\n              dup2\n              0x00\n              dup8\n              dup1\n              extcodesize\n              iszero\n              dup1\n              iszero\n              tag_76\n              jumpi\n              0x00\n              dup1\n              revert\n            tag_76:\n              pop\n              gas\n              call\n              iszero\n              dup1\n              iszero\n              tag_78\n              jumpi\n              returndatasize\n              0x00\n              dup1\n              returndatacopy\n              revert(0x00, returndatasize)\n            tag_78:\n              pop\n              pop\n              pop\n              pop\n              mload(0x40)\n              returndatasize\n              not(0x1f)\n              0x1f\n              dup3\n              add\n              and\n              dup3\n              add\n              dup1\n              0x40\n              mstore\n              pop\n              dup2\n              add\n              swap1\n              tag_79\n              swap2\n              swap1\n              tag_80\n              jump\t// in\n            tag_79:\n              pop\n                /* \"tron/tokeniz.sol\":1461:1667  {\r... */\n              pop\n              pop\n                /* \"tron/tokeniz.sol\":1456:1459  i++ */\n              dup1\n              dup1\n              tag_81\n              swap1\n              tag_82\n              jump\t// in\n            tag_81:\n              swap2\n              pop\n              pop\n                /* \"tron/tokeniz.sol\":1411:1667  for (uint i = 0; i < tokensAddresses.length; i++) {\r... */\n              jump(tag_67)\n            tag_68:\n              pop\n                /* \"tron/tokeniz.sol\":1685:1690  false */\n              0x00\n                /* \"tron/tokeniz.sol\":1677:1683  packed */\n              0x01\n              0x14\n                /* \"tron/tokeniz.sol\":1677:1690  packed= false */\n              0x0100\n              exp\n              dup2\n              sload\n              dup2\n              0xff\n              mul\n              not\n              and\n              swap1\n              dup4\n              iszero\n              iszero\n              mul\n              or\n              swap1\n              sstore\n              pop\n                /* \"tron/tokeniz.sol\":1152:1698  function unPack() public{\r... */\n              jump\t// out\n                /* \"tron/tokeniz.sol\":1063:1140  function isPacked() public view returns(bool){\r... */\n            tag_35:\n                /* \"tron/tokeniz.sol\":1103:1107  bool */\n              0x00\n                /* \"tron/tokeniz.sol\":1126:1132  packed */\n              0x01\n              0x14\n              swap1\n              sload\n              swap1\n              0x0100\n              exp\n              swap1\n              div\n              0xff\n              and\n                /* \"tron/tokeniz.sol\":1119:1132  return packed */\n              swap1\n              pop\n                /* \"tron/tokeniz.sol\":1063:1140  function isPacked() public view returns(bool){\r... */\n              swap1\n              jump\t// out\n                /* \"tron/tokeniz.sol\":341:385  mapping(address => uint) public tokenBalance */\n            tag_40:\n              mstore(0x20, 0x04)\n              dup1\n              0x00\n              mstore\n              keccak256(0x00, 0x40)\n              0x00\n              swap2\n              pop\n              swap1\n              pop\n              sload\n              dup2\n              jump\t// out\n                /* \"tron/tokeniz.sol\":392:424  address[] public tokensAddresses */\n            tag_45:\n              0x05\n              dup2\n              dup2\n              sload\n              dup2\n              lt\n              tag_84\n              jumpi\n              0x00\n              dup1\n              revert\n            tag_84:\n              swap1\n              0x00\n              mstore\n              keccak256(0x00, 0x20)\n              add\n              0x00\n              swap2\n              pop\n              sload\n              swap1\n              0x0100\n              exp\n              swap1\n              div\n              0xffffffffffffffffffffffffffffffffffffffff\n              and\n              dup2\n              jump\t// out\n                /* \"#utility.yul\":7:146   */\n            tag_87:\n                /* \"#utility.yul\":53:58   */\n              0x00\n                /* \"#utility.yul\":91:97   */\n              dup2\n                /* \"#utility.yul\":78:98   */\n              calldataload\n                /* \"#utility.yul\":69:98   */\n              swap1\n              pop\n                /* \"#utility.yul\":107:140   */\n              tag_89\n                /* \"#utility.yul\":134:139   */\n              dup2\n                /* \"#utility.yul\":107:140   */\n              tag_90\n              jump\t// in\n            tag_89:\n                /* \"#utility.yul\":7:146   */\n              swap3\n              swap2\n              pop\n              pop\n              jump\t// out\n                /* \"#utility.yul\":152:289   */\n            tag_91:\n                /* \"#utility.yul\":206:211   */\n              0x00\n                /* \"#utility.yul\":237:243   */\n              dup2\n                /* \"#utility.yul\":231:244   */\n              mload\n                /* \"#utility.yul\":222:244   */\n              swap1\n              pop\n                /* \"#utility.yul\":253:283   */\n              tag_93\n                /* \"#utility.yul\":277:282   */\n              dup2\n                /* \"#utility.yul\":253:283   */\n              tag_94\n              jump\t// in\n            tag_93:\n                /* \"#utility.yul\":152:289   */\n              swap3\n              swap2\n              pop\n              pop\n              jump\t// out\n                /* \"#utility.yul\":295:434   */\n            tag_95:\n                /* \"#utility.yul\":341:346   */\n              0x00\n                /* \"#utility.yul\":379:385   */\n              dup2\n                /* \"#utility.yul\":366:386   */\n              calldataload\n                /* \"#utility.yul\":357:386   */\n              swap1\n              pop\n                /* \"#utility.yul\":395:428   */\n              tag_97\n                /* \"#utility.yul\":422:427   */\n              dup2\n                /* \"#utility.yul\":395:428   */\n              tag_98\n              jump\t// in\n            tag_97:\n                /* \"#utility.yul\":295:434   */\n              swap3\n              swap2\n              pop\n              pop\n              jump\t// out\n                /* \"#utility.yul\":440:769   */\n            tag_39:\n                /* \"#utility.yul\":499:505   */\n              0x00\n                /* \"#utility.yul\":548:550   */\n              0x20\n                /* \"#utility.yul\":536:545   */\n              dup3\n                /* \"#utility.yul\":527:534   */\n              dup5\n                /* \"#utility.yul\":523:546   */\n              sub\n                /* \"#utility.yul\":519:551   */\n              slt\n                /* \"#utility.yul\":516:635   */\n              iszero\n              tag_100\n              jumpi\n                /* \"#utility.yul\":554:633   */\n              tag_101\n              tag_102\n              jump\t// in\n            tag_101:\n                /* \"#utility.yul\":516:635   */\n            tag_100:\n                /* \"#utility.yul\":674:675   */\n              0x00\n                /* \"#utility.yul\":699:752   */\n              tag_103\n                /* \"#utility.yul\":744:751   */\n              dup5\n                /* \"#utility.yul\":735:741   */\n              dup3\n                /* \"#utility.yul\":724:733   */\n              dup6\n                /* \"#utility.yul\":720:742   */\n              add\n                /* \"#utility.yul\":699:752   */\n              tag_87\n              jump\t// in\n            tag_103:\n                /* \"#utility.yul\":689:752   */\n              swap2\n              pop\n                /* \"#utility.yul\":645:762   */\n              pop\n                /* \"#utility.yul\":440:769   */\n              swap3\n              swap2\n              pop\n              pop\n              jump\t// out\n                /* \"#utility.yul\":775:1120   */\n            tag_80:\n                /* \"#utility.yul\":842:848   */\n              0x00\n                /* \"#utility.yul\":891:893   */\n              0x20\n                /* \"#utility.yul\":879:888   */\n              dup3\n                /* \"#utility.yul\":870:877   */\n              dup5\n                /* \"#utility.yul\":866:889   */\n              sub\n                /* \"#utility.yul\":862:894   */\n              slt\n                /* \"#utility.yul\":859:978   */\n              iszero\n              tag_105\n              jumpi\n                /* \"#utility.yul\":897:976   */\n              tag_106\n              tag_102\n              jump\t// in\n            tag_106:\n                /* \"#utility.yul\":859:978   */\n            tag_105:\n                /* \"#utility.yul\":1017:1018   */\n              0x00\n                /* \"#utility.yul\":1042:1103   */\n              tag_107\n                /* \"#utility.yul\":1095:1102   */\n              dup5\n                /* \"#utility.yul\":1086:1092   */\n              dup3\n                /* \"#utility.yul\":1075:1084   */\n              dup6\n                /* \"#utility.yul\":1071:1093   */\n              add\n                /* \"#utility.yul\":1042:1103   */\n              tag_91\n              jump\t// in\n            tag_107:\n                /* \"#utility.yul\":1032:1103   */\n              swap2\n              pop\n                /* \"#utility.yul\":988:1113   */\n              pop\n                /* \"#utility.yul\":775:1120   */\n              swap3\n              swap2\n              pop\n              pop\n              jump\t// out\n                /* \"#utility.yul\":1126:1455   */\n            tag_44:\n                /* \"#utility.yul\":1185:1191   */\n              0x00\n                /* \"#utility.yul\":1234:1236   */\n              0x20\n                /* \"#utility.yul\":1222:1231   */\n              dup3\n                /* \"#utility.yul\":1213:1220   */\n              dup5\n                /* \"#utility.yul\":1209:1232   */\n              sub\n                /* \"#utility.yul\":1205:1237   */\n              slt\n                /* \"#utility.yul\":1202:1321   */\n              iszero\n              tag_109\n              jumpi\n                /* \"#utility.yul\":1240:1319   */\n              tag_110\n              tag_102\n              jump\t// in\n            tag_110:\n                /* \"#utility.yul\":1202:1321   */\n            tag_109:\n                /* \"#utility.yul\":1360:1361   */\n              0x00\n                /* \"#utility.yul\":1385:1438   */\n              tag_111\n                /* \"#utility.yul\":1430:1437   */\n              dup5\n                /* \"#utility.yul\":1421:1427   */\n              dup3\n                /* \"#utility.yul\":1410:1419   */\n              dup6\n                /* \"#utility.yul\":1406:1428   */\n              add\n                /* \"#utility.yul\":1385:1438   */\n              tag_95\n              jump\t// in\n            tag_111:\n                /* \"#utility.yul\":1375:1438   */\n              swap2\n              pop\n                /* \"#utility.yul\":1331:1448   */\n              pop\n                /* \"#utility.yul\":1126:1455   */\n              swap3\n              swap2\n              pop\n              pop\n              jump\t// out\n                /* \"#utility.yul\":1461:1579   */\n            tag_112:\n                /* \"#utility.yul\":1548:1572   */\n              tag_114\n                /* \"#utility.yul\":1566:1571   */\n              dup2\n                /* \"#utility.yul\":1548:1572   */\n              tag_115\n              jump\t// in\n            tag_114:\n                /* \"#utility.yul\":1543:1546   */\n              dup3\n                /* \"#utility.yul\":1536:1573   */\n              mstore\n                /* \"#utility.yul\":1461:1579   */\n              pop\n              pop\n              jump\t// out\n                /* \"#utility.yul\":1585:1694   */\n            tag_116:\n                /* \"#utility.yul\":1666:1687   */\n              tag_118\n                /* \"#utility.yul\":1681:1686   */\n              dup2\n                /* \"#utility.yul\":1666:1687   */\n              tag_119\n              jump\t// in\n            tag_118:\n                /* \"#utility.yul\":1661:1664   */\n              dup3\n                /* \"#utility.yul\":1654:1688   */\n              mstore\n                /* \"#utility.yul\":1585:1694   */\n              pop\n              pop\n              jump\t// out\n                /* \"#utility.yul\":1700:2064   */\n            tag_120:\n                /* \"#utility.yul\":1788:1791   */\n              0x00\n                /* \"#utility.yul\":1816:1855   */\n              tag_122\n                /* \"#utility.yul\":1849:1854   */\n              dup3\n                /* \"#utility.yul\":1816:1855   */\n              tag_123\n              jump\t// in\n            tag_122:\n                /* \"#utility.yul\":1871:1942   */\n              tag_124\n                /* \"#utility.yul\":1935:1941   */\n              dup2\n                /* \"#utility.yul\":1930:1933   */\n              dup6\n                /* \"#utility.yul\":1871:1942   */\n              tag_125\n              jump\t// in\n            tag_124:\n                /* \"#utility.yul\":1864:1942   */\n              swap4\n              pop\n                /* \"#utility.yul\":1951:2003   */\n              tag_126\n                /* \"#utility.yul\":1996:2002   */\n              dup2\n                /* \"#utility.yul\":1991:1994   */\n              dup6\n                /* \"#utility.yul\":1984:1988   */\n              0x20\n                /* \"#utility.yul\":1977:1982   */\n              dup7\n                /* \"#utility.yul\":1973:1989   */\n              add\n                /* \"#utility.yul\":1951:2003   */\n              tag_127\n              jump\t// in\n            tag_126:\n                /* \"#utility.yul\":2028:2057   */\n              tag_128\n                /* \"#utility.yul\":2050:2056   */\n              dup2\n                /* \"#utility.yul\":2028:2057   */\n              tag_129\n              jump\t// in\n            tag_128:\n                /* \"#utility.yul\":2023:2026   */\n              dup5\n                /* \"#utility.yul\":2019:2058   */\n              add\n                /* \"#utility.yul\":2012:2058   */\n              swap2\n              pop\n                /* \"#utility.yul\":1792:2064   */\n              pop\n                /* \"#utility.yul\":1700:2064   */\n              swap3\n              swap2\n              pop\n              pop\n              jump\t// out\n                /* \"#utility.yul\":2070:2436   */\n            tag_130:\n                /* \"#utility.yul\":2212:2215   */\n              0x00\n                /* \"#utility.yul\":2233:2300   */\n              tag_132\n                /* \"#utility.yul\":2297:2299   */\n              0x1e\n                /* \"#utility.yul\":2292:2295   */\n              dup4\n                /* \"#utility.yul\":2233:2300   */\n              tag_125\n              jump\t// in\n            tag_132:\n                /* \"#utility.yul\":2226:2300   */\n              swap2\n              pop\n                /* \"#utility.yul\":2309:2402   */\n              tag_133\n                /* \"#utility.yul\":2398:2401   */\n              dup3\n                /* \"#utility.yul\":2309:2402   */\n              tag_134\n              jump\t// in\n            tag_133:\n                /* \"#utility.yul\":2427:2429   */\n              0x20\n                /* \"#utility.yul\":2422:2425   */\n              dup3\n                /* \"#utility.yul\":2418:2430   */\n              add\n                /* \"#utility.yul\":2411:2430   */\n              swap1\n              pop\n                /* \"#utility.yul\":2070:2436   */\n              swap2\n              swap1\n              pop\n              jump\t// out\n                /* \"#utility.yul\":2442:2808   */\n            tag_135:\n                /* \"#utility.yul\":2584:2587   */\n              0x00\n                /* \"#utility.yul\":2605:2672   */\n              tag_137\n                /* \"#utility.yul\":2669:2671   */\n              0x18\n                /* \"#utility.yul\":2664:2667   */\n              dup4\n                /* \"#utility.yul\":2605:2672   */\n              tag_125\n              jump\t// in\n            tag_137:\n                /* \"#utility.yul\":2598:2672   */\n              swap2\n              pop\n                /* \"#utility.yul\":2681:2774   */\n              tag_138\n                /* \"#utility.yul\":2770:2773   */\n              dup3\n                /* \"#utility.yul\":2681:2774   */\n              tag_139\n              jump\t// in\n            tag_138:\n                /* \"#utility.yul\":2799:2801   */\n              0x20\n                /* \"#utility.yul\":2794:2797   */\n              dup3\n                /* \"#utility.yul\":2790:2802   */\n              add\n                /* \"#utility.yul\":2783:2802   */\n              swap1\n              pop\n                /* \"#utility.yul\":2442:2808   */\n              swap2\n              swap1\n              pop\n              jump\t// out\n                /* \"#utility.yul\":2814:2932   */\n            tag_140:\n                /* \"#utility.yul\":2901:2925   */\n              tag_142\n                /* \"#utility.yul\":2919:2924   */\n              dup2\n                /* \"#utility.yul\":2901:2925   */\n              tag_143\n              jump\t// in\n            tag_142:\n                /* \"#utility.yul\":2896:2899   */\n              dup3\n                /* \"#utility.yul\":2889:2926   */\n              mstore\n                /* \"#utility.yul\":2814:2932   */\n              pop\n              pop\n              jump\t// out\n                /* \"#utility.yul\":2938:3160   */\n            tag_27:\n                /* \"#utility.yul\":3031:3035   */\n              0x00\n                /* \"#utility.yul\":3069:3071   */\n              0x20\n                /* \"#utility.yul\":3058:3067   */\n              dup3\n                /* \"#utility.yul\":3054:3072   */\n              add\n                /* \"#utility.yul\":3046:3072   */\n              swap1\n              pop\n                /* \"#utility.yul\":3082:3153   */\n              tag_145\n                /* \"#utility.yul\":3150:3151   */\n              0x00\n                /* \"#utility.yul\":3139:3148   */\n              dup4\n                /* \"#utility.yul\":3135:3152   */\n              add\n                /* \"#utility.yul\":3126:3132   */\n              dup5\n                /* \"#utility.yul\":3082:3153   */\n              tag_112\n              jump\t// in\n            tag_145:\n                /* \"#utility.yul\":2938:3160   */\n              swap3\n              swap2\n              pop\n              pop\n              jump\t// out\n                /* \"#utility.yul\":3166:3498   */\n            tag_75:\n                /* \"#utility.yul\":3287:3291   */\n              0x00\n                /* \"#utility.yul\":3325:3327   */\n              0x40\n                /* \"#utility.yul\":3314:3323   */\n              dup3\n                /* \"#utility.yul\":3310:3328   */\n              add\n                /* \"#utility.yul\":3302:3328   */\n              swap1\n              pop\n                /* \"#utility.yul\":3338:3409   */\n              tag_147\n                /* \"#utility.yul\":3406:3407   */\n              0x00\n                /* \"#utility.yul\":3395:3404   */\n              dup4\n                /* \"#utility.yul\":3391:3408   */\n              add\n                /* \"#utility.yul\":3382:3388   */\n              dup6\n                /* \"#utility.yul\":3338:3409   */\n              tag_112\n              jump\t// in\n            tag_147:\n                /* \"#utility.yul\":3419:3491   */\n              tag_148\n                /* \"#utility.yul\":3487:3489   */\n              0x20\n                /* \"#utility.yul\":3476:3485   */\n              dup4\n                /* \"#utility.yul\":3472:3490   */\n              add\n                /* \"#utility.yul\":3463:3469   */\n              dup5\n                /* \"#utility.yul\":3419:3491   */\n              tag_140\n              jump\t// in\n            tag_148:\n                /* \"#utility.yul\":3166:3498   */\n              swap4\n              swap3\n              pop\n              pop\n              pop\n              jump\t// out\n                /* \"#utility.yul\":3504:3714   */\n            tag_31:\n                /* \"#utility.yul\":3591:3595   */\n              0x00\n                /* \"#utility.yul\":3629:3631   */\n              0x20\n                /* \"#utility.yul\":3618:3627   */\n              dup3\n                /* \"#utility.yul\":3614:3632   */\n              add\n                /* \"#utility.yul\":3606:3632   */\n              swap1\n              pop\n                /* \"#utility.yul\":3642:3707   */\n              tag_150\n                /* \"#utility.yul\":3704:3705   */\n              0x00\n                /* \"#utility.yul\":3693:3702   */\n              dup4\n                /* \"#utility.yul\":3689:3706   */\n              add\n                /* \"#utility.yul\":3680:3686   */\n              dup5\n                /* \"#utility.yul\":3642:3707   */\n              tag_116\n              jump\t// in\n            tag_150:\n                /* \"#utility.yul\":3504:3714   */\n              swap3\n              swap2\n              pop\n              pop\n              jump\t// out\n                /* \"#utility.yul\":3720:4033   */\n            tag_16:\n                /* \"#utility.yul\":3833:3837   */\n              0x00\n                /* \"#utility.yul\":3871:3873   */\n              0x20\n                /* \"#utility.yul\":3860:3869   */\n              dup3\n                /* \"#utility.yul\":3856:3874   */\n              add\n                /* \"#utility.yul\":3848:3874   */\n              swap1\n              pop\n                /* \"#utility.yul\":3920:3929   */\n              dup2\n                /* \"#utility.yul\":3914:3918   */\n              dup2\n                /* \"#utility.yul\":3910:3930   */\n              sub\n                /* \"#utility.yul\":3906:3907   */\n              0x00\n                /* \"#utility.yul\":3895:3904   */\n              dup4\n                /* \"#utility.yul\":3891:3908   */\n              add\n                /* \"#utility.yul\":3884:3931   */\n              mstore\n                /* \"#utility.yul\":3948:4026   */\n              tag_152\n                /* \"#utility.yul\":4021:4025   */\n              dup2\n                /* \"#utility.yul\":4012:4018   */\n              dup5\n                /* \"#utility.yul\":3948:4026   */\n              tag_120\n              jump\t// in\n            tag_152:\n                /* \"#utility.yul\":3940:4026   */\n              swap1\n              pop\n                /* \"#utility.yul\":3720:4033   */\n              swap3\n              swap2\n              pop\n              pop\n              jump\t// out\n                /* \"#utility.yul\":4039:4458   */\n            tag_61:\n                /* \"#utility.yul\":4205:4209   */\n              0x00\n                /* \"#utility.yul\":4243:4245   */\n              0x20\n                /* \"#utility.yul\":4232:4241   */\n              dup3\n                /* \"#utility.yul\":4228:4246   */\n              add\n                /* \"#utility.yul\":4220:4246   */\n              swap1\n              pop\n                /* \"#utility.yul\":4292:4301   */\n              dup2\n                /* \"#utility.yul\":4286:4290   */\n              dup2\n                /* \"#utility.yul\":4282:4302   */\n              sub\n                /* \"#utility.yul\":4278:4279   */\n              0x00\n                /* \"#utility.yul\":4267:4276   */\n              dup4\n                /* \"#utility.yul\":4263:4280   */\n              add\n                /* \"#utility.yul\":4256:4303   */\n              mstore\n                /* \"#utility.yul\":4320:4451   */\n              tag_154\n                /* \"#utility.yul\":4446:4450   */\n              dup2\n                /* \"#utility.yul\":4320:4451   */\n              tag_130\n              jump\t// in\n            tag_154:\n                /* \"#utility.yul\":4312:4451   */\n              swap1\n              pop\n                /* \"#utility.yul\":4039:4458   */\n              swap2\n              swap1\n              pop\n              jump\t// out\n                /* \"#utility.yul\":4464:4883   */\n            tag_64:\n                /* \"#utility.yul\":4630:4634   */\n              0x00\n                /* \"#utility.yul\":4668:4670   */\n              0x20\n                /* \"#utility.yul\":4657:4666   */\n              dup3\n                /* \"#utility.yul\":4653:4671   */\n              add\n                /* \"#utility.yul\":4645:4671   */\n              swap1\n              pop\n                /* \"#utility.yul\":4717:4726   */\n              dup2\n                /* \"#utility.yul\":4711:4715   */\n              dup2\n                /* \"#utility.yul\":4707:4727   */\n              sub\n                /* \"#utility.yul\":4703:4704   */\n              0x00\n                /* \"#utility.yul\":4692:4701   */\n              dup4\n                /* \"#utility.yul\":4688:4705   */\n              add\n                /* \"#utility.yul\":4681:4728   */\n              mstore\n                /* \"#utility.yul\":4745:4876   */\n              tag_156\n                /* \"#utility.yul\":4871:4875   */\n              dup2\n                /* \"#utility.yul\":4745:4876   */\n              tag_135\n              jump\t// in\n            tag_156:\n                /* \"#utility.yul\":4737:4876   */\n              swap1\n              pop\n                /* \"#utility.yul\":4464:4883   */\n              swap2\n              swap1\n              pop\n              jump\t// out\n                /* \"#utility.yul\":4889:5111   */\n            tag_20:\n                /* \"#utility.yul\":4982:4986   */\n              0x00\n                /* \"#utility.yul\":5020:5022   */\n              0x20\n                /* \"#utility.yul\":5009:5018   */\n              dup3\n                /* \"#utility.yul\":5005:5023   */\n              add\n                /* \"#utility.yul\":4997:5023   */\n              swap1\n              pop\n                /* \"#utility.yul\":5033:5104   */\n              tag_158\n                /* \"#utility.yul\":5101:5102   */\n              0x00\n                /* \"#utility.yul\":5090:5099   */\n              dup4\n                /* \"#utility.yul\":5086:5103   */\n              add\n                /* \"#utility.yul\":5077:5083   */\n              dup5\n                /* \"#utility.yul\":5033:5104   */\n              tag_140\n              jump\t// in\n            tag_158:\n                /* \"#utility.yul\":4889:5111   */\n              swap3\n              swap2\n              pop\n              pop\n              jump\t// out\n                /* \"#utility.yul\":5198:5297   */\n            tag_123:\n                /* \"#utility.yul\":5250:5256   */\n              0x00\n                /* \"#utility.yul\":5284:5289   */\n              dup2\n                /* \"#utility.yul\":5278:5290   */\n              mload\n                /* \"#utility.yul\":5268:5290   */\n              swap1\n              pop\n                /* \"#utility.yul\":5198:5297   */\n              swap2\n              swap1\n              pop\n              jump\t// out\n                /* \"#utility.yul\":5303:5472   */\n            tag_125:\n                /* \"#utility.yul\":5387:5398   */\n              0x00\n                /* \"#utility.yul\":5421:5427   */\n              dup3\n                /* \"#utility.yul\":5416:5419   */\n              dup3\n                /* \"#utility.yul\":5409:5428   */\n              mstore\n                /* \"#utility.yul\":5461:5465   */\n              0x20\n                /* \"#utility.yul\":5456:5459   */\n              dup3\n                /* \"#utility.yul\":5452:5466   */\n              add\n                /* \"#utility.yul\":5437:5466   */\n              swap1\n              pop\n                /* \"#utility.yul\":5303:5472   */\n              swap3\n              swap2\n              pop\n              pop\n              jump\t// out\n                /* \"#utility.yul\":5478:5574   */\n            tag_115:\n                /* \"#utility.yul\":5515:5522   */\n              0x00\n                /* \"#utility.yul\":5544:5568   */\n              tag_164\n                /* \"#utility.yul\":5562:5567   */\n              dup3\n                /* \"#utility.yul\":5544:5568   */\n              tag_165\n              jump\t// in\n            tag_164:\n                /* \"#utility.yul\":5533:5568   */\n              swap1\n              pop\n                /* \"#utility.yul\":5478:5574   */\n              swap2\n              swap1\n              pop\n              jump\t// out\n                /* \"#utility.yul\":5580:5670   */\n            tag_119:\n                /* \"#utility.yul\":5614:5621   */\n              0x00\n                /* \"#utility.yul\":5657:5662   */\n              dup2\n                /* \"#utility.yul\":5650:5663   */\n              iszero\n                /* \"#utility.yul\":5643:5664   */\n              iszero\n                /* \"#utility.yul\":5632:5664   */\n              swap1\n              pop\n                /* \"#utility.yul\":5580:5670   */\n              swap2\n              swap1\n              pop\n              jump\t// out\n                /* \"#utility.yul\":5676:5802   */\n            tag_165:\n                /* \"#utility.yul\":5713:5720   */\n              0x00\n                /* \"#utility.yul\":5753:5795   */\n              0xffffffffffffffffffffffffffffffffffffffff\n                /* \"#utility.yul\":5746:5751   */\n              dup3\n                /* \"#utility.yul\":5742:5796   */\n              and\n                /* \"#utility.yul\":5731:5796   */\n              swap1\n              pop\n                /* \"#utility.yul\":5676:5802   */\n              swap2\n              swap1\n              pop\n              jump\t// out\n                /* \"#utility.yul\":5808:5885   */\n            tag_143:\n                /* \"#utility.yul\":5845:5852   */\n              0x00\n                /* \"#utility.yul\":5874:5879   */\n              dup2\n                /* \"#utility.yul\":5863:5879   */\n              swap1\n              pop\n                /* \"#utility.yul\":5808:5885   */\n              swap2\n              swap1\n              pop\n              jump\t// out\n                /* \"#utility.yul\":5891:6198   */\n            tag_127:\n                /* \"#utility.yul\":5959:5960   */\n              0x00\n                /* \"#utility.yul\":5969:6082   */\n            tag_170:\n                /* \"#utility.yul\":5983:5989   */\n              dup4\n                /* \"#utility.yul\":5980:5981   */\n              dup2\n                /* \"#utility.yul\":5977:5990   */\n              lt\n                /* \"#utility.yul\":5969:6082   */\n              iszero\n              tag_172\n              jumpi\n                /* \"#utility.yul\":6068:6069   */\n              dup1\n                /* \"#utility.yul\":6063:6066   */\n              dup3\n                /* \"#utility.yul\":6059:6070   */\n              add\n                /* \"#utility.yul\":6053:6071   */\n              mload\n                /* \"#utility.yul\":6049:6050   */\n              dup2\n                /* \"#utility.yul\":6044:6047   */\n              dup5\n                /* \"#utility.yul\":6040:6051   */\n              add\n                /* \"#utility.yul\":6033:6072   */\n              mstore\n                /* \"#utility.yul\":6005:6007   */\n              0x20\n                /* \"#utility.yul\":6002:6003   */\n              dup2\n                /* \"#utility.yul\":5998:6008   */\n              add\n                /* \"#utility.yul\":5993:6008   */\n              swap1\n              pop\n                /* \"#utility.yul\":5969:6082   */\n              jump(tag_170)\n            tag_172:\n                /* \"#utility.yul\":6100:6106   */\n              dup4\n                /* \"#utility.yul\":6097:6098   */\n              dup2\n                /* \"#utility.yul\":6094:6107   */\n              gt\n                /* \"#utility.yul\":6091:6192   */\n              iszero\n              tag_173\n              jumpi\n                /* \"#utility.yul\":6180:6181   */\n              0x00\n                /* \"#utility.yul\":6171:6177   */\n              dup5\n                /* \"#utility.yul\":6166:6169   */\n              dup5\n                /* \"#utility.yul\":6162:6178   */\n              add\n                /* \"#utility.yul\":6155:6182   */\n              mstore\n                /* \"#utility.yul\":6091:6192   */\n            tag_173:\n                /* \"#utility.yul\":5940:6198   */\n              pop\n                /* \"#utility.yul\":5891:6198   */\n              pop\n              pop\n              pop\n              jump\t// out\n                /* \"#utility.yul\":6204:6524   */\n            tag_48:\n                /* \"#utility.yul\":6248:6254   */\n              0x00\n                /* \"#utility.yul\":6285:6286   */\n              0x02\n                /* \"#utility.yul\":6279:6283   */\n              dup3\n                /* \"#utility.yul\":6275:6287   */\n              div\n                /* \"#utility.yul\":6265:6287   */\n              swap1\n              pop\n                /* \"#utility.yul\":6332:6333   */\n              0x01\n                /* \"#utility.yul\":6326:6330   */\n              dup3\n                /* \"#utility.yul\":6322:6334   */\n              and\n                /* \"#utility.yul\":6353:6371   */\n              dup1\n                /* \"#utility.yul\":6343:6424   */\n              tag_175\n              jumpi\n                /* \"#utility.yul\":6409:6413   */\n              0x7f\n                /* \"#utility.yul\":6401:6407   */\n              dup3\n                /* \"#utility.yul\":6397:6414   */\n              and\n                /* \"#utility.yul\":6387:6414   */\n              swap2\n              pop\n                /* \"#utility.yul\":6343:6424   */\n            tag_175:\n                /* \"#utility.yul\":6471:6473   */\n              0x20\n                /* \"#utility.yul\":6463:6469   */\n              dup3\n                /* \"#utility.yul\":6460:6474   */\n              lt\n                /* \"#utility.yul\":6440:6458   */\n              dup2\n                /* \"#utility.yul\":6437:6475   */\n              eq\n                /* \"#utility.yul\":6434:6518   */\n              iszero\n              tag_176\n              jumpi\n                /* \"#utility.yul\":6490:6508   */\n              tag_177\n              tag_178\n              jump\t// in\n            tag_177:\n                /* \"#utility.yul\":6434:6518   */\n            tag_176:\n                /* \"#utility.yul\":6255:6524   */\n              pop\n                /* \"#utility.yul\":6204:6524   */\n              swap2\n              swap1\n              pop\n              jump\t// out\n                /* \"#utility.yul\":6530:6763   */\n            tag_82:\n                /* \"#utility.yul\":6569:6572   */\n              0x00\n                /* \"#utility.yul\":6592:6616   */\n              tag_180\n                /* \"#utility.yul\":6610:6615   */\n              dup3\n                /* \"#utility.yul\":6592:6616   */\n              tag_143\n              jump\t// in\n            tag_180:\n                /* \"#utility.yul\":6583:6616   */\n              swap2\n              pop\n                /* \"#utility.yul\":6638:6704   */\n              0xffffffffffffffffffffffffffffffffffffffffffffffffffffffffffffffff\n                /* \"#utility.yul\":6631:6636   */\n              dup3\n                /* \"#utility.yul\":6628:6705   */\n              eq\n                /* \"#utility.yul\":6625:6728   */\n              iszero\n              tag_181\n              jumpi\n                /* \"#utility.yul\":6708:6726   */\n              tag_182\n              tag_183\n              jump\t// in\n            tag_182:\n                /* \"#utility.yul\":6625:6728   */\n            tag_181:\n                /* \"#utility.yul\":6755:6756   */\n              0x01\n                /* \"#utility.yul\":6748:6753   */\n              dup3\n                /* \"#utility.yul\":6744:6757   */\n              add\n                /* \"#utility.yul\":6737:6757   */\n              swap1\n              pop\n                /* \"#utility.yul\":6530:6763   */\n              swap2\n              swap1\n              pop\n              jump\t// out\n                /* \"#utility.yul\":6769:6949   */\n            tag_183:\n                /* \"#utility.yul\":6817:6894   */\n              0x4e487b7100000000000000000000000000000000000000000000000000000000\n                /* \"#utility.yul\":6814:6815   */\n              0x00\n                /* \"#utility.yul\":6807:6895   */\n              mstore\n                /* \"#utility.yul\":6914:6918   */\n              0x11\n                /* \"#utility.yul\":6911:6912   */\n              0x04\n                /* \"#utility.yul\":6904:6919   */\n              mstore\n                /* \"#utility.yul\":6938:6942   */\n              0x24\n                /* \"#utility.yul\":6935:6936   */\n              0x00\n                /* \"#utility.yul\":6928:6943   */\n              revert\n                /* \"#utility.yul\":6955:7135   */\n            tag_178:\n                /* \"#utility.yul\":7003:7080   */\n              0x4e487b7100000000000000000000000000000000000000000000000000000000\n                /* \"#utility.yul\":7000:7001   */\n              0x00\n                /* \"#utility.yul\":6993:7081   */\n              mstore\n                /* \"#utility.yul\":7100:7104   */\n              0x22\n                /* \"#utility.yul\":7097:7098   */\n              0x04\n                /* \"#utility.yul\":7090:7105   */\n              mstore\n                /* \"#utility.yul\":7124:7128   */\n              0x24\n                /* \"#utility.yul\":7121:7122   */\n              0x00\n                /* \"#utility.yul\":7114:7129   */\n              revert\n                /* \"#utility.yul\":7141:7321   */\n            tag_72:\n                /* \"#utility.yul\":7189:7266   */\n              0x4e487b7100000000000000000000000000000000000000000000000000000000\n                /* \"#utility.yul\":7186:7187   */\n              0x00\n                /* \"#utility.yul\":7179:7267   */\n              mstore\n                /* \"#utility.yul\":7286:7290   */\n              0x32\n                /* \"#utility.yul\":7283:7284   */\n              0x04\n                /* \"#utility.yul\":7276:7291   */\n              mstore\n                /* \"#utility.yul\":7310:7314   */\n              0x24\n                /* \"#utility.yul\":7307:7308   */\n              0x00\n                /* \"#utility.yul\":7300:7315   */\n              revert\n                /* \"#utility.yul\":7450:7567   */\n            tag_102:\n                /* \"#utility.yul\":7559:7560   */\n              0x00\n                /* \"#utility.yul\":7556:7557   */\n              dup1\n                /* \"#utility.yul\":7549:7561   */\n              revert\n                /* \"#utility.yul\":7573:7675   */\n            tag_129:\n                /* \"#utility.yul\":7614:7620   */\n              0x00\n                /* \"#utility.yul\":7665:7667   */\n              0x1f\n                /* \"#utility.yul\":7661:7668   */\n              not\n                /* \"#utility.yul\":7656:7658   */\n              0x1f\n                /* \"#utility.yul\":7649:7654   */\n              dup4\n                /* \"#utility.yul\":7645:7659   */\n              add\n                /* \"#utility.yul\":7641:7669   */\n              and\n                /* \"#utility.yul\":7631:7669   */\n              swap1\n              pop\n                /* \"#utility.yul\":7573:7675   */\n              swap2\n              swap1\n              pop\n              jump\t// out\n                /* \"#utility.yul\":7681:7861   */\n            tag_134:\n                /* \"#utility.yul\":7821:7853   */\n              0x4f6e6c79204f776e65722063616e20756e7061636b20546f6b656e697a2e0000\n                /* \"#utility.yul\":7817:7818   */\n              0x00\n                /* \"#utility.yul\":7809:7815   */\n              dup3\n                /* \"#utility.yul\":7805:7819   */\n              add\n                /* \"#utility.yul\":7798:7854   */\n              mstore\n                /* \"#utility.yul\":7681:7861   */\n              pop\n              jump\t// out\n                /* \"#utility.yul\":7867:8041   */\n            tag_139:\n                /* \"#utility.yul\":8007:8033   */\n              0x416c726561647920756e7061636b656420546f6b656e697a0000000000000000\n                /* \"#utility.yul\":8003:8004   */\n              0x00\n                /* \"#utility.yul\":7995:8001   */\n              dup3\n                /* \"#utility.yul\":7991:8005   */\n              add\n                /* \"#utility.yul\":7984:8034   */\n              mstore\n                /* \"#utility.yul\":7867:8041   */\n              pop\n              jump\t// out\n                /* \"#utility.yul\":8047:8169   */\n            tag_90:\n                /* \"#utility.yul\":8120:8144   */\n              tag_194\n                /* \"#utility.yul\":8138:8143   */\n              dup2\n                /* \"#utility.yul\":8120:8144   */\n              tag_115\n              jump\t// in\n            tag_194:\n                /* \"#utility.yul\":8113:8118   */\n              dup2\n                /* \"#utility.yul\":8110:8145   */\n              eq\n                /* \"#utility.yul\":8100:8163   */\n              tag_195\n              jumpi\n                /* \"#utility.yul\":8159:8160   */\n              0x00\n                /* \"#utility.yul\":8156:8157   */\n              dup1\n                /* \"#utility.yul\":8149:8161   */\n              revert\n                /* \"#utility.yul\":8100:8163   */\n            tag_195:\n                /* \"#utility.yul\":8047:8169   */\n              pop\n              jump\t// out\n                /* \"#utility.yul\":8175:8291   */\n            tag_94:\n                /* \"#utility.yul\":8245:8266   */\n              tag_197\n                /* \"#utility.yul\":8260:8265   */\n              dup2\n                /* \"#utility.yul\":8245:8266   */\n              tag_119\n              jump\t// in\n            tag_197:\n                /* \"#utility.yul\":8238:8243   */\n              dup2\n                /* \"#utility.yul\":8235:8267   */\n              eq\n                /* \"#utility.yul\":8225:8285   */\n              tag_198\n              jumpi\n                /* \"#utility.yul\":8281:8282   */\n              0x00\n                /* \"#utility.yul\":8278:8279   */\n              dup1\n                /* \"#utility.yul\":8271:8283   */\n              revert\n                /* \"#utility.yul\":8225:8285   */\n            tag_198:\n                /* \"#utility.yul\":8175:8291   */\n              pop\n              jump\t// out\n                /* \"#utility.yul\":8297:8419   */\n            tag_98:\n                /* \"#utility.yul\":8370:8394   */\n              tag_200\n                /* \"#utility.yul\":8388:8393   */\n              dup2\n                /* \"#utility.yul\":8370:8394   */\n              tag_143\n              jump\t// in\n            tag_200:\n                /* \"#utility.yul\":8363:8368   */\n              dup2\n                /* \"#utility.yul\":8360:8395   */\n              eq\n                /* \"#utility.yul\":8350:8413   */\n              tag_201\n              jumpi\n                /* \"#utility.yul\":8409:8410   */\n              0x00\n                /* \"#utility.yul\":8406:8407   */\n              dup1\n                /* \"#utility.yul\":8399:8411   */\n              revert\n                /* \"#utility.yul\":8350:8413   */\n            tag_201:\n                /* \"#utility.yul\":8297:8419   */\n              pop\n              jump\t// out\n\n            auxdata: 0xa2646970667358221220b3ba41bea1deda5b4b5f442b71b1be00fb615fa50c10e5338a13ebd0affc01f164736f6c63430008070033\n        }\n    }\n\n    auxdata: 0xa2646970667358221220947e6fd968999adeb06d54530f6af05547178ee39d00712158fc09a31067d5be64736f6c63430008070033\n}\n",
				"bytecode": {
					"linkReferences": {},
					"object": "608060405234801561001057600080fd5b50611e2d806100206000396000f3fe60806040523480156200001157600080fd5b50600436106200003a5760003560e01c8063334ddae9146200003f5780633ab664e41462000075575b600080fd5b6200005d600480360381019062000057919062000382565b62000097565b6040516200006c919062000638565b60405180910390f35b6200007f62000148565b6040516200008e9190620006de565b60405180910390f35b6000868686868686604051620000ad906200016c565b620000be9695949392919062000655565b604051809103906000f080158015620000db573d6000803e3d6000fd5b506000806101000a81548173ffffffffffffffffffffffffffffffffffffffff021916908373ffffffffffffffffffffffffffffffffffffffff16021790555060008054906101000a900473ffffffffffffffffffffffffffffffffffffffff1690509695505050505050565b60008054906101000a900473ffffffffffffffffffffffffffffffffffffffff1681565b61142f80620009c983390190565b6000620001916200018b8462000724565b620006fb565b90508083825260208201905082856020860282011115620001b757620001b66200096f565b5b60005b85811015620001eb5781620001d08882620002bb565b845260208401935060208301925050600181019050620001ba565b5050509392505050565b60006200020c620002068462000753565b620006fb565b905080838252602082019050828560208602820111156200023257620002316200096f565b5b60005b858110156200026657816200024b88826200036b565b84526020840193506020830192505060018101905062000235565b5050509392505050565b600062000287620002818462000782565b620006fb565b905082815260208101848484011115620002a657620002a562000974565b5b620002b3848285620008c0565b509392505050565b600081359050620002cc8162000994565b92915050565b600082601f830112620002ea57620002e96200096a565b5b8135620002fc8482602086016200017a565b91505092915050565b600082601f8301126200031d576200031c6200096a565b5b81356200032f848260208601620001f5565b91505092915050565b600082601f83011262000350576200034f6200096a565b5b81356200036284826020860162000270565b91505092915050565b6000813590506200037c81620009ae565b92915050565b60008060008060008060c08789031215620003a257620003a16200097e565b5b6000620003b289828a01620002bb565b965050602087013567ffffffffffffffff811115620003d657620003d562000979565b5b620003e489828a0162000338565b955050604087013567ffffffffffffffff81111562000408576200040762000979565b5b6200041689828a0162000338565b945050606087013567ffffffffffffffff8111156200043a576200043962000979565b5b6200044889828a01620002d2565b935050608087013567ffffffffffffffff8111156200046c576200046b62000979565b5b6200047a89828a0162000305565b92505060a06200048d89828a016200036b565b9150509295509295509295565b6000620004a88383620004ce565b60208301905092915050565b6000620004c2838362000616565b60208301905092915050565b620004d98162000846565b82525050565b620004ea8162000846565b82525050565b6000620004fd82620007d8565b62000509818562000813565b93506200051683620007b8565b8060005b838110156200054d5781516200053188826200049a565b97506200053e83620007f9565b9250506001810190506200051a565b5085935050505092915050565b60006200056782620007e3565b62000573818562000824565b93506200058083620007c8565b8060005b83811015620005b75781516200059b8882620004b4565b9750620005a88362000806565b92505060018101905062000584565b5085935050505092915050565b620005cf8162000884565b82525050565b6000620005e282620007ee565b620005ee818562000835565b935062000600818560208601620008cf565b6200060b8162000983565b840191505092915050565b62000621816200087a565b82525050565b62000632816200087a565b82525050565b60006020820190506200064f6000830184620004df565b92915050565b600060c0820190506200066c6000830189620004df565b8181036020830152620006808188620005d5565b90508181036040830152620006968187620005d5565b90508181036060830152620006ac8186620004f0565b90508181036080830152620006c281856200055a565b9050620006d360a083018462000627565b979650505050505050565b6000602082019050620006f56000830184620005c4565b92915050565b6000620007076200071a565b905062000715828262000905565b919050565b6000604051905090565b600067ffffffffffffffff8211156200074257620007416200093b565b5b602082029050602081019050919050565b600067ffffffffffffffff8211156200077157620007706200093b565b5b602082029050602081019050919050565b600067ffffffffffffffff821115620007a0576200079f6200093b565b5b620007ab8262000983565b9050602081019050919050565b6000819050602082019050919050565b6000819050602082019050919050565b600081519050919050565b600081519050919050565b600081519050919050565b6000602082019050919050565b6000602082019050919050565b600082825260208201905092915050565b600082825260208201905092915050565b600082825260208201905092915050565b600062000853826200085a565b9050919050565b600073ffffffffffffffffffffffffffffffffffffffff82169050919050565b6000819050919050565b6000620008918262000898565b9050919050565b6000620008a582620008ac565b9050919050565b6000620008b9826200085a565b9050919050565b82818337600083830152505050565b60005b83811015620008ef578082015181840152602081019050620008d2565b83811115620008ff576000848401525b50505050565b620009108262000983565b810181811067ffffffffffffffff821117156200093257620009316200093b565b5b80604052505050565b7f4e487b7100000000000000000000000000000000000000000000000000000000600052604160045260246000fd5b600080fd5b600080fd5b600080fd5b600080fd5b600080fd5b6000601f19601f8301169050919050565b6200099f8162000846565b8114620009ab57600080fd5b50565b620009b9816200087a565b8114620009c557600080fd5b5056fe60806040523480156200001157600080fd5b506040516200142f3803806200142f8339818101604052810190620000379190620004f1565b336000806101000a81548173ffffffffffffffffffffffffffffffffffffffff021916908373ffffffffffffffffffffffffffffffffffffffff16021790555085600160006101000a81548173ffffffffffffffffffffffffffffffffffffffff021916908373ffffffffffffffffffffffffffffffffffffffff16021790555060018060146101000a81548160ff02191690831515021790555060005b8351811015620001f3576005848281518110620000f757620000f662000852565b5b60200260200101519080600181540180825580915050600190039060005260206000200160009091909190916101000a81548173ffffffffffffffffffffffffffffffffffffffff021916908373ffffffffffffffffffffffffffffffffffffffff16021790555082818151811062000175576200017462000852565b5b60200260200101516004600086848151811062000197576200019662000852565b5b602002602001015173ffffffffffffffffffffffffffffffffffffffff1673ffffffffffffffffffffffffffffffffffffffff168152602001908152602001600020819055508080620001ea90620007a6565b915050620000d5565b5083600290805190602001906200020c92919062000239565b5084600390805190602001906200022592919062000239565b50806006819055505050505050506200090e565b82805462000247906200073a565b90600052602060002090601f0160209004810192826200026b5760008555620002b7565b82601f106200028657805160ff1916838001178555620002b7565b82800160010185558215620002b7579182015b82811115620002b657825182559160200191906001019062000299565b5b509050620002c69190620002ca565b5090565b5b80821115620002e5576000816000905550600101620002cb565b5090565b600062000300620002fa8462000632565b62000609565b90508083825260208201905082856020860282011115620003265762000325620008b5565b5b60005b858110156200035a57816200033f88826200042a565b84526020840193506020830192505060018101905062000329565b5050509392505050565b60006200037b620003758462000661565b62000609565b90508083825260208201905082856020860282011115620003a157620003a0620008b5565b5b60005b85811015620003d55781620003ba8882620004da565b845260208401935060208301925050600181019050620003a4565b5050509392505050565b6000620003f6620003f08462000690565b62000609565b905082815260208101848484011115620004155762000414620008ba565b5b6200042284828562000704565b509392505050565b6000815190506200043b81620008da565b92915050565b600082601f830112620004595762000458620008b0565b5b81516200046b848260208601620002e9565b91505092915050565b600082601f8301126200048c576200048b620008b0565b5b81516200049e84826020860162000364565b91505092915050565b600082601f830112620004bf57620004be620008b0565b5b8151620004d1848260208601620003df565b91505092915050565b600081519050620004eb81620008f4565b92915050565b60008060008060008060c08789031215620005115762000510620008c4565b5b60006200052189828a016200042a565b965050602087015167ffffffffffffffff811115620005455762000544620008bf565b5b6200055389828a01620004a7565b955050604087015167ffffffffffffffff811115620005775762000576620008bf565b5b6200058589828a01620004a7565b945050606087015167ffffffffffffffff811115620005a957620005a8620008bf565b5b620005b789828a0162000441565b935050608087015167ffffffffffffffff811115620005db57620005da620008bf565b5b620005e989828a0162000474565b92505060a0620005fc89828a01620004da565b9150509295509295509295565b60006200061562000628565b905062000623828262000770565b919050565b6000604051905090565b600067ffffffffffffffff82111562000650576200064f62000881565b5b602082029050602081019050919050565b600067ffffffffffffffff8211156200067f576200067e62000881565b5b602082029050602081019050919050565b600067ffffffffffffffff821115620006ae57620006ad62000881565b5b620006b982620008c9565b9050602081019050919050565b6000620006d382620006da565b9050919050565b600073ffffffffffffffffffffffffffffffffffffffff82169050919050565b6000819050919050565b60005b838110156200072457808201518184015260208101905062000707565b8381111562000734576000848401525b50505050565b600060028204905060018216806200075357607f821691505b602082108114156200076a576200076962000823565b5b50919050565b6200077b82620008c9565b810181811067ffffffffffffffff821117156200079d576200079c62000881565b5b80604052505050565b6000620007b382620006fa565b91507fffffffffffffffffffffffffffffffffffffffffffffffffffffffffffffffff821415620007e957620007e8620007f4565b5b600182019050919050565b7f4e487b7100000000000000000000000000000000000000000000000000000000600052601160045260246000fd5b7f4e487b7100000000000000000000000000000000000000000000000000000000600052602260045260246000fd5b7f4e487b7100000000000000000000000000000000000000000000000000000000600052603260045260246000fd5b7f4e487b7100000000000000000000000000000000000000000000000000000000600052604160045260246000fd5b600080fd5b600080fd5b600080fd5b600080fd5b600080fd5b6000601f19601f8301169050919050565b620008e581620006c6565b8114620008f157600080fd5b50565b620008ff81620006fa565b81146200090b57600080fd5b50565b610b11806200091e6000396000f3fe608060405234801561001057600080fd5b50600436106100935760003560e01c80638f23d5f6116100665780638f23d5f61461011057806390d524a21461012e578063e2c42e6614610138578063eedc966a14610156578063f7aca9391461018657610093565b806306fdde031461009857806317d70f7c146100b65780633c130d90146100d45780638da5cb5b146100f2575b600080fd5b6100a06101b6565b6040516100ad9190610812565b60405180910390f35b6100be610244565b6040516100cb9190610874565b60405180910390f35b6100dc61024a565b6040516100e99190610812565b60405180910390f35b6100fa6102d8565b60405161010791906107b3565b60405180910390f35b6101186102fe565b60405161012591906107f7565b60405180910390f35b610136610311565b005b6101406105d3565b60405161014d91906107f7565b60405180910390f35b610170600480360381019061016b9190610680565b6105ea565b60405161017d9190610874565b60405180910390f35b6101a0600480360381019061019b91906106da565b610602565b6040516101ad91906107b3565b60405180910390f35b600380546101c390610926565b80601f01602080910402602001604051908101604052809291908181526020018280546101ef90610926565b801561023c5780601f106102115761010080835404028352916020019161023c565b820191906000526020600020905b81548152906001019060200180831161021f57829003601f168201915b505050505081565b60065481565b6002805461025790610926565b80601f016020809104026020016040519081016040528092919081815260200182805461028390610926565b80156102d05780601f106102a5576101008083540402835291602001916102d0565b820191906000526020600020905b8154815290600101906020018083116102b357829003601f168201915b505050505081565b600160009054906101000a900473ffffffffffffffffffffffffffffffffffffffff1681565b600160149054906101000a900460ff1681565b600160009054906101000a900473ffffffffffffffffffffffffffffffffffffffff1673ffffffffffffffffffffffffffffffffffffffff163373ffffffffffffffffffffffffffffffffffffffff16146103a1576040517f08c379a000000000000000000000000000000000000000000000000000000000815260040161039890610834565b60405180910390fd5b600160149054906101000a900460ff166103f0576040517f08c379a00000000000000000000000000000000000000000000000000000000081526004016103e790610854565b60405180910390fd5b600160009054906101000a900473ffffffffffffffffffffffffffffffffffffffff1673ffffffffffffffffffffffffffffffffffffffff166108fc479081150290604051600060405180830381858888f19350505050158015610458573d6000803e3d6000fd5b5060005b6005805490508110156105b55760006005828154811061047f5761047e6109ff565b5b9060005260206000200160009054906101000a900473ffffffffffffffffffffffffffffffffffffffff16905060008190508073ffffffffffffffffffffffffffffffffffffffff1663a9059cbb600160009054906101000a900473ffffffffffffffffffffffffffffffffffffffff16600460008673ffffffffffffffffffffffffffffffffffffffff1673ffffffffffffffffffffffffffffffffffffffff168152602001908152602001600020546040518363ffffffff1660e01b815260040161054d9291906107ce565b602060405180830381600087803b15801561056757600080fd5b505af115801561057b573d6000803e3d6000fd5b505050506040513d601f19601f8201168201806040525081019061059f91906106ad565b50505080806105ad90610958565b91505061045c565b506000600160146101000a81548160ff021916908315150217905550565b6000600160149054906101000a900460ff16905090565b60046020528060005260406000206000915090505481565b6005818154811061061257600080fd5b906000526020600020016000915054906101000a900473ffffffffffffffffffffffffffffffffffffffff1681565b60008135905061065081610a96565b92915050565b60008151905061066581610aad565b92915050565b60008135905061067a81610ac4565b92915050565b60006020828403121561069657610695610a2e565b5b60006106a484828501610641565b91505092915050565b6000602082840312156106c3576106c2610a2e565b5b60006106d184828501610656565b91505092915050565b6000602082840312156106f0576106ef610a2e565b5b60006106fe8482850161066b565b91505092915050565b610710816108ab565b82525050565b61071f816108bd565b82525050565b60006107308261088f565b61073a818561089a565b935061074a8185602086016108f3565b61075381610a33565b840191505092915050565b600061076b601e8361089a565b915061077682610a44565b602082019050919050565b600061078e60188361089a565b915061079982610a6d565b602082019050919050565b6107ad816108e9565b82525050565b60006020820190506107c86000830184610707565b92915050565b60006040820190506107e36000830185610707565b6107f060208301846107a4565b9392505050565b600060208201905061080c6000830184610716565b92915050565b6000602082019050818103600083015261082c8184610725565b905092915050565b6000602082019050818103600083015261084d8161075e565b9050919050565b6000602082019050818103600083015261086d81610781565b9050919050565b600060208201905061088960008301846107a4565b92915050565b600081519050919050565b600082825260208201905092915050565b60006108b6826108c9565b9050919050565b60008115159050919050565b600073ffffffffffffffffffffffffffffffffffffffff82169050919050565b6000819050919050565b60005b838110156109115780820151818401526020810190506108f6565b83811115610920576000848401525b50505050565b6000600282049050600182168061093e57607f821691505b60208210811415610952576109516109d0565b5b50919050565b6000610963826108e9565b91507fffffffffffffffffffffffffffffffffffffffffffffffffffffffffffffffff821415610996576109956109a1565b5b600182019050919050565b7f4e487b7100000000000000000000000000000000000000000000000000000000600052601160045260246000fd5b7f4e487b7100000000000000000000000000000000000000000000000000000000600052602260045260246000fd5b7f4e487b7100000000000000000000000000000000000000000000000000000000600052603260045260246000fd5b600080fd5b6000601f19601f8301169050919050565b7f4f6e6c79204f776e65722063616e20756e7061636b20546f6b656e697a2e0000600082015250565b7f416c726561647920756e7061636b656420546f6b656e697a0000000000000000600082015250565b610a9f816108ab565b8114610aaa57600080fd5b50565b610ab6816108bd565b8114610ac157600080fd5b50565b610acd816108e9565b8114610ad857600080fd5b5056fea2646970667358221220b3ba41bea1deda5b4b5f442b71b1be00fb615fa50c10e5338a13ebd0affc01f164736f6c63430008070033a2646970667358221220947e6fd968999adeb06d54530f6af05547178ee39d00712158fc09a31067d5be64736f6c63430008070033",
					"opcodes": "PUSH1 0x80 PUSH1 0x40 MSTORE CALLVALUE DUP1 ISZERO PUSH2 0x10 JUMPI PUSH1 0x0 DUP1 REVERT JUMPDEST POP PUSH2 0x1E2D DUP1 PUSH2 0x20 PUSH1 0x0 CODECOPY PUSH1 0x0 RETURN INVALID PUSH1 0x80 PUSH1 0x40 MSTORE CALLVALUE DUP1 ISZERO PUSH3 0x11 JUMPI PUSH1 0x0 DUP1 REVERT JUMPDEST POP PUSH1 0x4 CALLDATASIZE LT PUSH3 0x3A JUMPI PUSH1 0x0 CALLDATALOAD PUSH1 0xE0 SHR DUP1 PUSH4 0x334DDAE9 EQ PUSH3 0x3F JUMPI DUP1 PUSH4 0x3AB664E4 EQ PUSH3 0x75 JUMPI JUMPDEST PUSH1 0x0 DUP1 REVERT JUMPDEST PUSH3 0x5D PUSH1 0x4 DUP1 CALLDATASIZE SUB DUP2 ADD SWAP1 PUSH3 0x57 SWAP2 SWAP1 PUSH3 0x382 JUMP JUMPDEST PUSH3 0x97 JUMP JUMPDEST PUSH1 0x40 MLOAD PUSH3 0x6C SWAP2 SWAP1 PUSH3 0x638 JUMP JUMPDEST PUSH1 0x40 MLOAD DUP1 SWAP2 SUB SWAP1 RETURN JUMPDEST PUSH3 0x7F PUSH3 0x148 JUMP JUMPDEST PUSH1 0x40 MLOAD PUSH3 0x8E SWAP2 SWAP1 PUSH3 0x6DE JUMP JUMPDEST PUSH1 0x40 MLOAD DUP1 SWAP2 SUB SWAP1 RETURN JUMPDEST PUSH1 0x0 DUP7 DUP7 DUP7 DUP7 DUP7 DUP7 PUSH1 0x40 MLOAD PUSH3 0xAD SWAP1 PUSH3 0x16C JUMP JUMPDEST PUSH3 0xBE SWAP7 SWAP6 SWAP5 SWAP4 SWAP3 SWAP2 SWAP1 PUSH3 0x655 JUMP JUMPDEST PUSH1 0x40 MLOAD DUP1 SWAP2 SUB SWAP1 PUSH1 0x0 CREATE DUP1 ISZERO DUP1 ISZERO PUSH3 0xDB JUMPI RETURNDATASIZE PUSH1 0x0 DUP1 RETURNDATACOPY RETURNDATASIZE PUSH1 0x0 REVERT JUMPDEST POP PUSH1 0x0 DUP1 PUSH2 0x100 EXP DUP2 SLOAD DUP2 PUSH20 0xFFFFFFFFFFFFFFFFFFFFFFFFFFFFFFFFFFFFFFFF MUL NOT AND SWAP1 DUP4 PUSH20 0xFFFFFFFFFFFFFFFFFFFFFFFFFFFFFFFFFFFFFFFF AND MUL OR SWAP1 SSTORE POP PUSH1 0x0 DUP1 SLOAD SWAP1 PUSH2 0x100 EXP SWAP1 DIV PUSH20 0xFFFFFFFFFFFFFFFFFFFFFFFFFFFFFFFFFFFFFFFF AND SWAP1 POP SWAP7 SWAP6 POP POP POP POP POP POP JUMP JUMPDEST PUSH1 0x0 DUP1 SLOAD SWAP1 PUSH2 0x100 EXP SWAP1 DIV PUSH20 0xFFFFFFFFFFFFFFFFFFFFFFFFFFFFFFFFFFFFFFFF AND DUP2 JUMP JUMPDEST PUSH2 0x142F DUP1 PUSH3 0x9C9 DUP4 CODECOPY ADD SWAP1 JUMP JUMPDEST PUSH1 0x0 PUSH3 0x191 PUSH3 0x18B DUP5 PUSH3 0x724 JUMP JUMPDEST PUSH3 0x6FB JUMP JUMPDEST SWAP1 POP DUP1 DUP4 DUP3 MSTORE PUSH1 0x20 DUP3 ADD SWAP1 POP DUP3 DUP6 PUSH1 0x20 DUP7 MUL DUP3 ADD GT ISZERO PUSH3 0x1B7 JUMPI PUSH3 0x1B6 PUSH3 0x96F JUMP JUMPDEST JUMPDEST PUSH1 0x0 JUMPDEST DUP6 DUP2 LT ISZERO PUSH3 0x1EB JUMPI DUP2 PUSH3 0x1D0 DUP9 DUP3 PUSH3 0x2BB JUMP JUMPDEST DUP5 MSTORE PUSH1 0x20 DUP5 ADD SWAP4 POP PUSH1 0x20 DUP4 ADD SWAP3 POP POP PUSH1 0x1 DUP2 ADD SWAP1 POP PUSH3 0x1BA JUMP JUMPDEST POP POP POP SWAP4 SWAP3 POP POP POP JUMP JUMPDEST PUSH1 0x0 PUSH3 0x20C PUSH3 0x206 DUP5 PUSH3 0x753 JUMP JUMPDEST PUSH3 0x6FB JUMP JUMPDEST SWAP1 POP DUP1 DUP4 DUP3 MSTORE PUSH1 0x20 DUP3 ADD SWAP1 POP DUP3 DUP6 PUSH1 0x20 DUP7 MUL DUP3 ADD GT ISZERO PUSH3 0x232 JUMPI PUSH3 0x231 PUSH3 0x96F JUMP JUMPDEST JUMPDEST PUSH1 0x0 JUMPDEST DUP6 DUP2 LT ISZERO PUSH3 0x266 JUMPI DUP2 PUSH3 0x24B DUP9 DUP3 PUSH3 0x36B JUMP JUMPDEST DUP5 MSTORE PUSH1 0x20 DUP5 ADD SWAP4 POP PUSH1 0x20 DUP4 ADD SWAP3 POP POP PUSH1 0x1 DUP2 ADD SWAP1 POP PUSH3 0x235 JUMP JUMPDEST POP POP POP SWAP4 SWAP3 POP POP POP JUMP JUMPDEST PUSH1 0x0 PUSH3 0x287 PUSH3 0x281 DUP5 PUSH3 0x782 JUMP JUMPDEST PUSH3 0x6FB JUMP JUMPDEST SWAP1 POP DUP3 DUP2 MSTORE PUSH1 0x20 DUP2 ADD DUP5 DUP5 DUP5 ADD GT ISZERO PUSH3 0x2A6 JUMPI PUSH3 0x2A5 PUSH3 0x974 JUMP JUMPDEST JUMPDEST PUSH3 0x2B3 DUP5 DUP3 DUP6 PUSH3 0x8C0 JUMP JUMPDEST POP SWAP4 SWAP3 POP POP POP JUMP JUMPDEST PUSH1 0x0 DUP2 CALLDATALOAD SWAP1 POP PUSH3 0x2CC DUP2 PUSH3 0x994 JUMP JUMPDEST SWAP3 SWAP2 POP POP JUMP JUMPDEST PUSH1 0x0 DUP3 PUSH1 0x1F DUP4 ADD SLT PUSH3 0x2EA JUMPI PUSH3 0x2E9 PUSH3 0x96A JUMP JUMPDEST JUMPDEST DUP2 CALLDATALOAD PUSH3 0x2FC DUP5 DUP3 PUSH1 0x20 DUP7 ADD PUSH3 0x17A JUMP JUMPDEST SWAP2 POP POP SWAP3 SWAP2 POP POP JUMP JUMPDEST PUSH1 0x0 DUP3 PUSH1 0x1F DUP4 ADD SLT PUSH3 0x31D JUMPI PUSH3 0x31C PUSH3 0x96A JUMP JUMPDEST JUMPDEST DUP2 CALLDATALOAD PUSH3 0x32F DUP5 DUP3 PUSH1 0x20 DUP7 ADD PUSH3 0x1F5 JUMP JUMPDEST SWAP2 POP POP SWAP3 SWAP2 POP POP JUMP JUMPDEST PUSH1 0x0 DUP3 PUSH1 0x1F DUP4 ADD SLT PUSH3 0x350 JUMPI PUSH3 0x34F PUSH3 0x96A JUMP JUMPDEST JUMPDEST DUP2 CALLDATALOAD PUSH3 0x362 DUP5 DUP3 PUSH1 0x20 DUP7 ADD PUSH3 0x270 JUMP JUMPDEST SWAP2 POP POP SWAP3 SWAP2 POP POP JUMP JUMPDEST PUSH1 0x0 DUP2 CALLDATALOAD SWAP1 POP PUSH3 0x37C DUP2 PUSH3 0x9AE JUMP JUMPDEST SWAP3 SWAP2 POP POP JUMP JUMPDEST PUSH1 0x0 DUP1 PUSH1 0x0 DUP1 PUSH1 0x0 DUP1 PUSH1 0xC0 DUP8 DUP10 SUB SLT ISZERO PUSH3 0x3A2 JUMPI PUSH3 0x3A1 PUSH3 0x97E JUMP JUMPDEST JUMPDEST PUSH1 0x0 PUSH3 0x3B2 DUP10 DUP3 DUP11 ADD PUSH3 0x2BB JUMP JUMPDEST SWAP7 POP POP PUSH1 0x20 DUP8 ADD CALLDATALOAD PUSH8 0xFFFFFFFFFFFFFFFF DUP2 GT ISZERO PUSH3 0x3D6 JUMPI PUSH3 0x3D5 PUSH3 0x979 JUMP JUMPDEST JUMPDEST PUSH3 0x3E4 DUP10 DUP3 DUP11 ADD PUSH3 0x338 JUMP JUMPDEST SWAP6 POP POP PUSH1 0x40 DUP8 ADD CALLDATALOAD PUSH8 0xFFFFFFFFFFFFFFFF DUP2 GT ISZERO PUSH3 0x408 JUMPI PUSH3 0x407 PUSH3 0x979 JUMP JUMPDEST JUMPDEST PUSH3 0x416 DUP10 DUP3 DUP11 ADD PUSH3 0x338 JUMP JUMPDEST SWAP5 POP POP PUSH1 0x60 DUP8 ADD CALLDATALOAD PUSH8 0xFFFFFFFFFFFFFFFF DUP2 GT ISZERO PUSH3 0x43A JUMPI PUSH3 0x439 PUSH3 0x979 JUMP JUMPDEST JUMPDEST PUSH3 0x448 DUP10 DUP3 DUP11 ADD PUSH3 0x2D2 JUMP JUMPDEST SWAP4 POP POP PUSH1 0x80 DUP8 ADD CALLDATALOAD PUSH8 0xFFFFFFFFFFFFFFFF DUP2 GT ISZERO PUSH3 0x46C JUMPI PUSH3 0x46B PUSH3 0x979 JUMP JUMPDEST JUMPDEST PUSH3 0x47A DUP10 DUP3 DUP11 ADD PUSH3 0x305 JUMP JUMPDEST SWAP3 POP POP PUSH1 0xA0 PUSH3 0x48D DUP10 DUP3 DUP11 ADD PUSH3 0x36B JUMP JUMPDEST SWAP2 POP POP SWAP3 SWAP6 POP SWAP3 SWAP6 POP SWAP3 SWAP6 JUMP JUMPDEST PUSH1 0x0 PUSH3 0x4A8 DUP4 DUP4 PUSH3 0x4CE JUMP JUMPDEST PUSH1 0x20 DUP4 ADD SWAP1 POP SWAP3 SWAP2 POP POP JUMP JUMPDEST PUSH1 0x0 PUSH3 0x4C2 DUP4 DUP4 PUSH3 0x616 JUMP JUMPDEST PUSH1 0x20 DUP4 ADD SWAP1 POP SWAP3 SWAP2 POP POP JUMP JUMPDEST PUSH3 0x4D9 DUP2 PUSH3 0x846 JUMP JUMPDEST DUP3 MSTORE POP POP JUMP JUMPDEST PUSH3 0x4EA DUP2 PUSH3 0x846 JUMP JUMPDEST DUP3 MSTORE POP POP JUMP JUMPDEST PUSH1 0x0 PUSH3 0x4FD DUP3 PUSH3 0x7D8 JUMP JUMPDEST PUSH3 0x509 DUP2 DUP6 PUSH3 0x813 JUMP JUMPDEST SWAP4 POP PUSH3 0x516 DUP4 PUSH3 0x7B8 JUMP JUMPDEST DUP1 PUSH1 0x0 JUMPDEST DUP4 DUP2 LT ISZERO PUSH3 0x54D JUMPI DUP2 MLOAD PUSH3 0x531 DUP9 DUP3 PUSH3 0x49A JUMP JUMPDEST SWAP8 POP PUSH3 0x53E DUP4 PUSH3 0x7F9 JUMP JUMPDEST SWAP3 POP POP PUSH1 0x1 DUP2 ADD SWAP1 POP PUSH3 0x51A JUMP JUMPDEST POP DUP6 SWAP4 POP POP POP POP SWAP3 SWAP2 POP POP JUMP JUMPDEST PUSH1 0x0 PUSH3 0x567 DUP3 PUSH3 0x7E3 JUMP JUMPDEST PUSH3 0x573 DUP2 DUP6 PUSH3 0x824 JUMP JUMPDEST SWAP4 POP PUSH3 0x580 DUP4 PUSH3 0x7C8 JUMP JUMPDEST DUP1 PUSH1 0x0 JUMPDEST DUP4 DUP2 LT ISZERO PUSH3 0x5B7 JUMPI DUP2 MLOAD PUSH3 0x59B DUP9 DUP3 PUSH3 0x4B4 JUMP JUMPDEST SWAP8 POP PUSH3 0x5A8 DUP4 PUSH3 0x806 JUMP JUMPDEST SWAP3 POP POP PUSH1 0x1 DUP2 ADD SWAP1 POP PUSH3 0x584 JUMP JUMPDEST POP DUP6 SWAP4 POP POP POP POP SWAP3 SWAP2 POP POP JUMP JUMPDEST PUSH3 0x5CF DUP2 PUSH3 0x884 JUMP JUMPDEST DUP3 MSTORE POP POP JUMP JUMPDEST PUSH1 0x0 PUSH3 0x5E2 DUP3 PUSH3 0x7EE JUMP JUMPDEST PUSH3 0x5EE DUP2 DUP6 PUSH3 0x835 JUMP JUMPDEST SWAP4 POP PUSH3 0x600 DUP2 DUP6 PUSH1 0x20 DUP7 ADD PUSH3 0x8CF JUMP JUMPDEST PUSH3 0x60B DUP2 PUSH3 0x983 JUMP JUMPDEST DUP5 ADD SWAP2 POP POP SWAP3 SWAP2 POP POP JUMP JUMPDEST PUSH3 0x621 DUP2 PUSH3 0x87A JUMP JUMPDEST DUP3 MSTORE POP POP JUMP JUMPDEST PUSH3 0x632 DUP2 PUSH3 0x87A JUMP JUMPDEST DUP3 MSTORE POP POP JUMP JUMPDEST PUSH1 0x0 PUSH1 0x20 DUP3 ADD SWAP1 POP PUSH3 0x64F PUSH1 0x0 DUP4 ADD DUP5 PUSH3 0x4DF JUMP JUMPDEST SWAP3 SWAP2 POP POP JUMP JUMPDEST PUSH1 0x0 PUSH1 0xC0 DUP3 ADD SWAP1 POP PUSH3 0x66C PUSH1 0x0 DUP4 ADD DUP10 PUSH3 0x4DF JUMP JUMPDEST DUP2 DUP2 SUB PUSH1 0x20 DUP4 ADD MSTORE PUSH3 0x680 DUP2 DUP9 PUSH3 0x5D5 JUMP JUMPDEST SWAP1 POP DUP2 DUP2 SUB PUSH1 0x40 DUP4 ADD MSTORE PUSH3 0x696 DUP2 DUP8 PUSH3 0x5D5 JUMP JUMPDEST SWAP1 POP DUP2 DUP2 SUB PUSH1 0x60 DUP4 ADD MSTORE PUSH3 0x6AC DUP2 DUP7 PUSH3 0x4F0 JUMP JUMPDEST SWAP1 POP DUP2 DUP2 SUB PUSH1 0x80 DUP4 ADD MSTORE PUSH3 0x6C2 DUP2 DUP6 PUSH3 0x55A JUMP JUMPDEST SWAP1 POP PUSH3 0x6D3 PUSH1 0xA0 DUP4 ADD DUP5 PUSH3 0x627 JUMP JUMPDEST SWAP8 SWAP7 POP POP POP POP POP POP POP JUMP JUMPDEST PUSH1 0x0 PUSH1 0x20 DUP3 ADD SWAP1 POP PUSH3 0x6F5 PUSH1 0x0 DUP4 ADD DUP5 PUSH3 0x5C4 JUMP JUMPDEST SWAP3 SWAP2 POP POP JUMP JUMPDEST PUSH1 0x0 PUSH3 0x707 PUSH3 0x71A JUMP JUMPDEST SWAP1 POP PUSH3 0x715 DUP3 DUP3 PUSH3 0x905 JUMP JUMPDEST SWAP2 SWAP1 POP JUMP JUMPDEST PUSH1 0x0 PUSH1 0x40 MLOAD SWAP1 POP SWAP1 JUMP JUMPDEST PUSH1 0x0 PUSH8 0xFFFFFFFFFFFFFFFF DUP3 GT ISZERO PUSH3 0x742 JUMPI PUSH3 0x741 PUSH3 0x93B JUMP JUMPDEST JUMPDEST PUSH1 0x20 DUP3 MUL SWAP1 POP PUSH1 0x20 DUP2 ADD SWAP1 POP SWAP2 SWAP1 POP JUMP JUMPDEST PUSH1 0x0 PUSH8 0xFFFFFFFFFFFFFFFF DUP3 GT ISZERO PUSH3 0x771 JUMPI PUSH3 0x770 PUSH3 0x93B JUMP JUMPDEST JUMPDEST PUSH1 0x20 DUP3 MUL SWAP1 POP PUSH1 0x20 DUP2 ADD SWAP1 POP SWAP2 SWAP1 POP JUMP JUMPDEST PUSH1 0x0 PUSH8 0xFFFFFFFFFFFFFFFF DUP3 GT ISZERO PUSH3 0x7A0 JUMPI PUSH3 0x79F PUSH3 0x93B JUMP JUMPDEST JUMPDEST PUSH3 0x7AB DUP3 PUSH3 0x983 JUMP JUMPDEST SWAP1 POP PUSH1 0x20 DUP2 ADD SWAP1 POP SWAP2 SWAP1 POP JUMP JUMPDEST PUSH1 0x0 DUP2 SWAP1 POP PUSH1 0x20 DUP3 ADD SWAP1 POP SWAP2 SWAP1 POP JUMP JUMPDEST PUSH1 0x0 DUP2 SWAP1 POP PUSH1 0x20 DUP3 ADD SWAP1 POP SWAP2 SWAP1 POP JUMP JUMPDEST PUSH1 0x0 DUP2 MLOAD SWAP1 POP SWAP2 SWAP1 POP JUMP JUMPDEST PUSH1 0x0 DUP2 MLOAD SWAP1 POP SWAP2 SWAP1 POP JUMP JUMPDEST PUSH1 0x0 DUP2 MLOAD SWAP1 POP SWAP2 SWAP1 POP JUMP JUMPDEST PUSH1 0x0 PUSH1 0x20 DUP3 ADD SWAP1 POP SWAP2 SWAP1 POP JUMP JUMPDEST PUSH1 0x0 PUSH1 0x20 DUP3 ADD SWAP1 POP SWAP2 SWAP1 POP JUMP JUMPDEST PUSH1 0x0 DUP3 DUP3 MSTORE PUSH1 0x20 DUP3 ADD SWAP1 POP SWAP3 SWAP2 POP POP JUMP JUMPDEST PUSH1 0x0 DUP3 DUP3 MSTORE PUSH1 0x20 DUP3 ADD SWAP1 POP SWAP3 SWAP2 POP POP JUMP JUMPDEST PUSH1 0x0 DUP3 DUP3 MSTORE PUSH1 0x20 DUP3 ADD SWAP1 POP SWAP3 SWAP2 POP POP JUMP JUMPDEST PUSH1 0x0 PUSH3 0x853 DUP3 PUSH3 0x85A JUMP JUMPDEST SWAP1 POP SWAP2 SWAP1 POP JUMP JUMPDEST PUSH1 0x0 PUSH20 0xFFFFFFFFFFFFFFFFFFFFFFFFFFFFFFFFFFFFFFFF DUP3 AND SWAP1 POP SWAP2 SWAP1 POP JUMP JUMPDEST PUSH1 0x0 DUP2 SWAP1 POP SWAP2 SWAP1 POP JUMP JUMPDEST PUSH1 0x0 PUSH3 0x891 DUP3 PUSH3 0x898 JUMP JUMPDEST SWAP1 POP SWAP2 SWAP1 POP JUMP JUMPDEST PUSH1 0x0 PUSH3 0x8A5 DUP3 PUSH3 0x8AC JUMP JUMPDEST SWAP1 POP SWAP2 SWAP1 POP JUMP JUMPDEST PUSH1 0x0 PUSH3 0x8B9 DUP3 PUSH3 0x85A JUMP JUMPDEST SWAP1 POP SWAP2 SWAP1 POP JUMP JUMPDEST DUP3 DUP2 DUP4 CALLDATACOPY PUSH1 0x0 DUP4 DUP4 ADD MSTORE POP POP POP JUMP JUMPDEST PUSH1 0x0 JUMPDEST DUP4 DUP2 LT ISZERO PUSH3 0x8EF JUMPI DUP1 DUP3 ADD MLOAD DUP2 DUP5 ADD MSTORE PUSH1 0x20 DUP2 ADD SWAP1 POP PUSH3 0x8D2 JUMP JUMPDEST DUP4 DUP2 GT ISZERO PUSH3 0x8FF JUMPI PUSH1 0x0 DUP5 DUP5 ADD MSTORE JUMPDEST POP POP POP POP JUMP JUMPDEST PUSH3 0x910 DUP3 PUSH3 0x983 JUMP JUMPDEST DUP2 ADD DUP2 DUP2 LT PUSH8 0xFFFFFFFFFFFFFFFF DUP3 GT OR ISZERO PUSH3 0x932 JUMPI PUSH3 0x931 PUSH3 0x93B JUMP JUMPDEST JUMPDEST DUP1 PUSH1 0x40 MSTORE POP POP POP JUMP JUMPDEST PUSH32 0x4E487B7100000000000000000000000000000000000000000000000000000000 PUSH1 0x0 MSTORE PUSH1 0x41 PUSH1 0x4 MSTORE PUSH1 0x24 PUSH1 0x0 REVERT JUMPDEST PUSH1 0x0 DUP1 REVERT JUMPDEST PUSH1 0x0 DUP1 REVERT JUMPDEST PUSH1 0x0 DUP1 REVERT JUMPDEST PUSH1 0x0 DUP1 REVERT JUMPDEST PUSH1 0x0 DUP1 REVERT JUMPDEST PUSH1 0x0 PUSH1 0x1F NOT PUSH1 0x1F DUP4 ADD AND SWAP1 POP SWAP2 SWAP1 POP JUMP JUMPDEST PUSH3 0x99F DUP2 PUSH3 0x846 JUMP JUMPDEST DUP2 EQ PUSH3 0x9AB JUMPI PUSH1 0x0 DUP1 REVERT JUMPDEST POP JUMP JUMPDEST PUSH3 0x9B9 DUP2 PUSH3 0x87A JUMP JUMPDEST DUP2 EQ PUSH3 0x9C5 JUMPI PUSH1 0x0 DUP1 REVERT JUMPDEST POP JUMP INVALID PUSH1 0x80 PUSH1 0x40 MSTORE CALLVALUE DUP1 ISZERO PUSH3 0x11 JUMPI PUSH1 0x0 DUP1 REVERT JUMPDEST POP PUSH1 0x40 MLOAD PUSH3 0x142F CODESIZE SUB DUP1 PUSH3 0x142F DUP4 CODECOPY DUP2 DUP2 ADD PUSH1 0x40 MSTORE DUP2 ADD SWAP1 PUSH3 0x37 SWAP2 SWAP1 PUSH3 0x4F1 JUMP JUMPDEST CALLER PUSH1 0x0 DUP1 PUSH2 0x100 EXP DUP2 SLOAD DUP2 PUSH20 0xFFFFFFFFFFFFFFFFFFFFFFFFFFFFFFFFFFFFFFFF MUL NOT AND SWAP1 DUP4 PUSH20 0xFFFFFFFFFFFFFFFFFFFFFFFFFFFFFFFFFFFFFFFF AND MUL OR SWAP1 SSTORE POP DUP6 PUSH1 0x1 PUSH1 0x0 PUSH2 0x100 EXP DUP2 SLOAD DUP2 PUSH20 0xFFFFFFFFFFFFFFFFFFFFFFFFFFFFFFFFFFFFFFFF MUL NOT AND SWAP1 DUP4 PUSH20 0xFFFFFFFFFFFFFFFFFFFFFFFFFFFFFFFFFFFFFFFF AND MUL OR SWAP1 SSTORE POP PUSH1 0x1 DUP1 PUSH1 0x14 PUSH2 0x100 EXP DUP2 SLOAD DUP2 PUSH1 0xFF MUL NOT AND SWAP1 DUP4 ISZERO ISZERO MUL OR SWAP1 SSTORE POP PUSH1 0x0 JUMPDEST DUP4 MLOAD DUP2 LT ISZERO PUSH3 0x1F3 JUMPI PUSH1 0x5 DUP5 DUP3 DUP2 MLOAD DUP2 LT PUSH3 0xF7 JUMPI PUSH3 0xF6 PUSH3 0x852 JUMP JUMPDEST JUMPDEST PUSH1 0x20 MUL PUSH1 0x20 ADD ADD MLOAD SWAP1 DUP1 PUSH1 0x1 DUP2 SLOAD ADD DUP1 DUP3 SSTORE DUP1 SWAP2 POP POP PUSH1 0x1 SWAP1 SUB SWAP1 PUSH1 0x0 MSTORE PUSH1 0x20 PUSH1 0x0 KECCAK256 ADD PUSH1 0x0 SWAP1 SWAP2 SWAP1 SWAP2 SWAP1 SWAP2 PUSH2 0x100 EXP DUP2 SLOAD DUP2 PUSH20 0xFFFFFFFFFFFFFFFFFFFFFFFFFFFFFFFFFFFFFFFF MUL NOT AND SWAP1 DUP4 PUSH20 0xFFFFFFFFFFFFFFFFFFFFFFFFFFFFFFFFFFFFFFFF AND MUL OR SWAP1 SSTORE POP DUP3 DUP2 DUP2 MLOAD DUP2 LT PUSH3 0x175 JUMPI PUSH3 0x174 PUSH3 0x852 JUMP JUMPDEST JUMPDEST PUSH1 0x20 MUL PUSH1 0x20 ADD ADD MLOAD PUSH1 0x4 PUSH1 0x0 DUP7 DUP5 DUP2 MLOAD DUP2 LT PUSH3 0x197 JUMPI PUSH3 0x196 PUSH3 0x852 JUMP JUMPDEST JUMPDEST PUSH1 0x20 MUL PUSH1 0x20 ADD ADD MLOAD PUSH20 0xFFFFFFFFFFFFFFFFFFFFFFFFFFFFFFFFFFFFFFFF AND PUSH20 0xFFFFFFFFFFFFFFFFFFFFFFFFFFFFFFFFFFFFFFFF AND DUP2 MSTORE PUSH1 0x20 ADD SWAP1 DUP2 MSTORE PUSH1 0x20 ADD PUSH1 0x0 KECCAK256 DUP2 SWAP1 SSTORE POP DUP1 DUP1 PUSH3 0x1EA SWAP1 PUSH3 0x7A6 JUMP JUMPDEST SWAP2 POP POP PUSH3 0xD5 JUMP JUMPDEST POP DUP4 PUSH1 0x2 SWAP1 DUP1 MLOAD SWAP1 PUSH1 0x20 ADD SWAP1 PUSH3 0x20C SWAP3 SWAP2 SWAP1 PUSH3 0x239 JUMP JUMPDEST POP DUP5 PUSH1 0x3 SWAP1 DUP1 MLOAD SWAP1 PUSH1 0x20 ADD SWAP1 PUSH3 0x225 SWAP3 SWAP2 SWAP1 PUSH3 0x239 JUMP JUMPDEST POP DUP1 PUSH1 0x6 DUP2 SWAP1 SSTORE POP POP POP POP POP POP POP PUSH3 0x90E JUMP JUMPDEST DUP3 DUP1 SLOAD PUSH3 0x247 SWAP1 PUSH3 0x73A JUMP JUMPDEST SWAP1 PUSH1 0x0 MSTORE PUSH1 0x20 PUSH1 0x0 KECCAK256 SWAP1 PUSH1 0x1F ADD PUSH1 0x20 SWAP1 DIV DUP2 ADD SWAP3 DUP3 PUSH3 0x26B JUMPI PUSH1 0x0 DUP6 SSTORE PUSH3 0x2B7 JUMP JUMPDEST DUP3 PUSH1 0x1F LT PUSH3 0x286 JUMPI DUP1 MLOAD PUSH1 0xFF NOT AND DUP4 DUP1 ADD OR DUP6 SSTORE PUSH3 0x2B7 JUMP JUMPDEST DUP3 DUP1 ADD PUSH1 0x1 ADD DUP6 SSTORE DUP3 ISZERO PUSH3 0x2B7 JUMPI SWAP2 DUP3 ADD JUMPDEST DUP3 DUP2 GT ISZERO PUSH3 0x2B6 JUMPI DUP3 MLOAD DUP3 SSTORE SWAP2 PUSH1 0x20 ADD SWAP2 SWAP1 PUSH1 0x1 ADD SWAP1 PUSH3 0x299 JUMP JUMPDEST JUMPDEST POP SWAP1 POP PUSH3 0x2C6 SWAP2 SWAP1 PUSH3 0x2CA JUMP JUMPDEST POP SWAP1 JUMP JUMPDEST JUMPDEST DUP1 DUP3 GT ISZERO PUSH3 0x2E5 JUMPI PUSH1 0x0 DUP2 PUSH1 0x0 SWAP1 SSTORE POP PUSH1 0x1 ADD PUSH3 0x2CB JUMP JUMPDEST POP SWAP1 JUMP JUMPDEST PUSH1 0x0 PUSH3 0x300 PUSH3 0x2FA DUP5 PUSH3 0x632 JUMP JUMPDEST PUSH3 0x609 JUMP JUMPDEST SWAP1 POP DUP1 DUP4 DUP3 MSTORE PUSH1 0x20 DUP3 ADD SWAP1 POP DUP3 DUP6 PUSH1 0x20 DUP7 MUL DUP3 ADD GT ISZERO PUSH3 0x326 JUMPI PUSH3 0x325 PUSH3 0x8B5 JUMP JUMPDEST JUMPDEST PUSH1 0x0 JUMPDEST DUP6 DUP2 LT ISZERO PUSH3 0x35A JUMPI DUP2 PUSH3 0x33F DUP9 DUP3 PUSH3 0x42A JUMP JUMPDEST DUP5 MSTORE PUSH1 0x20 DUP5 ADD SWAP4 POP PUSH1 0x20 DUP4 ADD SWAP3 POP POP PUSH1 0x1 DUP2 ADD SWAP1 POP PUSH3 0x329 JUMP JUMPDEST POP POP POP SWAP4 SWAP3 POP POP POP JUMP JUMPDEST PUSH1 0x0 PUSH3 0x37B PUSH3 0x375 DUP5 PUSH3 0x661 JUMP JUMPDEST PUSH3 0x609 JUMP JUMPDEST SWAP1 POP DUP1 DUP4 DUP3 MSTORE PUSH1 0x20 DUP3 ADD SWAP1 POP DUP3 DUP6 PUSH1 0x20 DUP7 MUL DUP3 ADD GT ISZERO PUSH3 0x3A1 JUMPI PUSH3 0x3A0 PUSH3 0x8B5 JUMP JUMPDEST JUMPDEST PUSH1 0x0 JUMPDEST DUP6 DUP2 LT ISZERO PUSH3 0x3D5 JUMPI DUP2 PUSH3 0x3BA DUP9 DUP3 PUSH3 0x4DA JUMP JUMPDEST DUP5 MSTORE PUSH1 0x20 DUP5 ADD SWAP4 POP PUSH1 0x20 DUP4 ADD SWAP3 POP POP PUSH1 0x1 DUP2 ADD SWAP1 POP PUSH3 0x3A4 JUMP JUMPDEST POP POP POP SWAP4 SWAP3 POP POP POP JUMP JUMPDEST PUSH1 0x0 PUSH3 0x3F6 PUSH3 0x3F0 DUP5 PUSH3 0x690 JUMP JUMPDEST PUSH3 0x609 JUMP JUMPDEST SWAP1 POP DUP3 DUP2 MSTORE PUSH1 0x20 DUP2 ADD DUP5 DUP5 DUP5 ADD GT ISZERO PUSH3 0x415 JUMPI PUSH3 0x414 PUSH3 0x8BA JUMP JUMPDEST JUMPDEST PUSH3 0x422 DUP5 DUP3 DUP6 PUSH3 0x704 JUMP JUMPDEST POP SWAP4 SWAP3 POP POP POP JUMP JUMPDEST PUSH1 0x0 DUP2 MLOAD SWAP1 POP PUSH3 0x43B DUP2 PUSH3 0x8DA JUMP JUMPDEST SWAP3 SWAP2 POP POP JUMP JUMPDEST PUSH1 0x0 DUP3 PUSH1 0x1F DUP4 ADD SLT PUSH3 0x459 JUMPI PUSH3 0x458 PUSH3 0x8B0 JUMP JUMPDEST JUMPDEST DUP2 MLOAD PUSH3 0x46B DUP5 DUP3 PUSH1 0x20 DUP7 ADD PUSH3 0x2E9 JUMP JUMPDEST SWAP2 POP POP SWAP3 SWAP2 POP POP JUMP JUMPDEST PUSH1 0x0 DUP3 PUSH1 0x1F DUP4 ADD SLT PUSH3 0x48C JUMPI PUSH3 0x48B PUSH3 0x8B0 JUMP JUMPDEST JUMPDEST DUP2 MLOAD PUSH3 0x49E DUP5 DUP3 PUSH1 0x20 DUP7 ADD PUSH3 0x364 JUMP JUMPDEST SWAP2 POP POP SWAP3 SWAP2 POP POP JUMP JUMPDEST PUSH1 0x0 DUP3 PUSH1 0x1F DUP4 ADD SLT PUSH3 0x4BF JUMPI PUSH3 0x4BE PUSH3 0x8B0 JUMP JUMPDEST JUMPDEST DUP2 MLOAD PUSH3 0x4D1 DUP5 DUP3 PUSH1 0x20 DUP7 ADD PUSH3 0x3DF JUMP JUMPDEST SWAP2 POP POP SWAP3 SWAP2 POP POP JUMP JUMPDEST PUSH1 0x0 DUP2 MLOAD SWAP1 POP PUSH3 0x4EB DUP2 PUSH3 0x8F4 JUMP JUMPDEST SWAP3 SWAP2 POP POP JUMP JUMPDEST PUSH1 0x0 DUP1 PUSH1 0x0 DUP1 PUSH1 0x0 DUP1 PUSH1 0xC0 DUP8 DUP10 SUB SLT ISZERO PUSH3 0x511 JUMPI PUSH3 0x510 PUSH3 0x8C4 JUMP JUMPDEST JUMPDEST PUSH1 0x0 PUSH3 0x521 DUP10 DUP3 DUP11 ADD PUSH3 0x42A JUMP JUMPDEST SWAP7 POP POP PUSH1 0x20 DUP8 ADD MLOAD PUSH8 0xFFFFFFFFFFFFFFFF DUP2 GT ISZERO PUSH3 0x545 JUMPI PUSH3 0x544 PUSH3 0x8BF JUMP JUMPDEST JUMPDEST PUSH3 0x553 DUP10 DUP3 DUP11 ADD PUSH3 0x4A7 JUMP JUMPDEST SWAP6 POP POP PUSH1 0x40 DUP8 ADD MLOAD PUSH8 0xFFFFFFFFFFFFFFFF DUP2 GT ISZERO PUSH3 0x577 JUMPI PUSH3 0x576 PUSH3 0x8BF JUMP JUMPDEST JUMPDEST PUSH3 0x585 DUP10 DUP3 DUP11 ADD PUSH3 0x4A7 JUMP JUMPDEST SWAP5 POP POP PUSH1 0x60 DUP8 ADD MLOAD PUSH8 0xFFFFFFFFFFFFFFFF DUP2 GT ISZERO PUSH3 0x5A9 JUMPI PUSH3 0x5A8 PUSH3 0x8BF JUMP JUMPDEST JUMPDEST PUSH3 0x5B7 DUP10 DUP3 DUP11 ADD PUSH3 0x441 JUMP JUMPDEST SWAP4 POP POP PUSH1 0x80 DUP8 ADD MLOAD PUSH8 0xFFFFFFFFFFFFFFFF DUP2 GT ISZERO PUSH3 0x5DB JUMPI PUSH3 0x5DA PUSH3 0x8BF JUMP JUMPDEST JUMPDEST PUSH3 0x5E9 DUP10 DUP3 DUP11 ADD PUSH3 0x474 JUMP JUMPDEST SWAP3 POP POP PUSH1 0xA0 PUSH3 0x5FC DUP10 DUP3 DUP11 ADD PUSH3 0x4DA JUMP JUMPDEST SWAP2 POP POP SWAP3 SWAP6 POP SWAP3 SWAP6 POP SWAP3 SWAP6 JUMP JUMPDEST PUSH1 0x0 PUSH3 0x615 PUSH3 0x628 JUMP JUMPDEST SWAP1 POP PUSH3 0x623 DUP3 DUP3 PUSH3 0x770 JUMP JUMPDEST SWAP2 SWAP1 POP JUMP JUMPDEST PUSH1 0x0 PUSH1 0x40 MLOAD SWAP1 POP SWAP1 JUMP JUMPDEST PUSH1 0x0 PUSH8 0xFFFFFFFFFFFFFFFF DUP3 GT ISZERO PUSH3 0x650 JUMPI PUSH3 0x64F PUSH3 0x881 JUMP JUMPDEST JUMPDEST PUSH1 0x20 DUP3 MUL SWAP1 POP PUSH1 0x20 DUP2 ADD SWAP1 POP SWAP2 SWAP1 POP JUMP JUMPDEST PUSH1 0x0 PUSH8 0xFFFFFFFFFFFFFFFF DUP3 GT ISZERO PUSH3 0x67F JUMPI PUSH3 0x67E PUSH3 0x881 JUMP JUMPDEST JUMPDEST PUSH1 0x20 DUP3 MUL SWAP1 POP PUSH1 0x20 DUP2 ADD SWAP1 POP SWAP2 SWAP1 POP JUMP JUMPDEST PUSH1 0x0 PUSH8 0xFFFFFFFFFFFFFFFF DUP3 GT ISZERO PUSH3 0x6AE JUMPI PUSH3 0x6AD PUSH3 0x881 JUMP JUMPDEST JUMPDEST PUSH3 0x6B9 DUP3 PUSH3 0x8C9 JUMP JUMPDEST SWAP1 POP PUSH1 0x20 DUP2 ADD SWAP1 POP SWAP2 SWAP1 POP JUMP JUMPDEST PUSH1 0x0 PUSH3 0x6D3 DUP3 PUSH3 0x6DA JUMP JUMPDEST SWAP1 POP SWAP2 SWAP1 POP JUMP JUMPDEST PUSH1 0x0 PUSH20 0xFFFFFFFFFFFFFFFFFFFFFFFFFFFFFFFFFFFFFFFF DUP3 AND SWAP1 POP SWAP2 SWAP1 POP JUMP JUMPDEST PUSH1 0x0 DUP2 SWAP1 POP SWAP2 SWAP1 POP JUMP JUMPDEST PUSH1 0x0 JUMPDEST DUP4 DUP2 LT ISZERO PUSH3 0x724 JUMPI DUP1 DUP3 ADD MLOAD DUP2 DUP5 ADD MSTORE PUSH1 0x20 DUP2 ADD SWAP1 POP PUSH3 0x707 JUMP JUMPDEST DUP4 DUP2 GT ISZERO PUSH3 0x734 JUMPI PUSH1 0x0 DUP5 DUP5 ADD MSTORE JUMPDEST POP POP POP POP JUMP JUMPDEST PUSH1 0x0 PUSH1 0x2 DUP3 DIV SWAP1 POP PUSH1 0x1 DUP3 AND DUP1 PUSH3 0x753 JUMPI PUSH1 0x7F DUP3 AND SWAP2 POP JUMPDEST PUSH1 0x20 DUP3 LT DUP2 EQ ISZERO PUSH3 0x76A JUMPI PUSH3 0x769 PUSH3 0x823 JUMP JUMPDEST JUMPDEST POP SWAP2 SWAP1 POP JUMP JUMPDEST PUSH3 0x77B DUP3 PUSH3 0x8C9 JUMP JUMPDEST DUP2 ADD DUP2 DUP2 LT PUSH8 0xFFFFFFFFFFFFFFFF DUP3 GT OR ISZERO PUSH3 0x79D JUMPI PUSH3 0x79C PUSH3 0x881 JUMP JUMPDEST JUMPDEST DUP1 PUSH1 0x40 MSTORE POP POP POP JUMP JUMPDEST PUSH1 0x0 PUSH3 0x7B3 DUP3 PUSH3 0x6FA JUMP JUMPDEST SWAP2 POP PUSH32 0xFFFFFFFFFFFFFFFFFFFFFFFFFFFFFFFFFFFFFFFFFFFFFFFFFFFFFFFFFFFFFFFF DUP3 EQ ISZERO PUSH3 0x7E9 JUMPI PUSH3 0x7E8 PUSH3 0x7F4 JUMP JUMPDEST JUMPDEST PUSH1 0x1 DUP3 ADD SWAP1 POP SWAP2 SWAP1 POP JUMP JUMPDEST PUSH32 0x4E487B7100000000000000000000000000000000000000000000000000000000 PUSH1 0x0 MSTORE PUSH1 0x11 PUSH1 0x4 MSTORE PUSH1 0x24 PUSH1 0x0 REVERT JUMPDEST PUSH32 0x4E487B7100000000000000000000000000000000000000000000000000000000 PUSH1 0x0 MSTORE PUSH1 0x22 PUSH1 0x4 MSTORE PUSH1 0x24 PUSH1 0x0 REVERT JUMPDEST PUSH32 0x4E487B7100000000000000000000000000000000000000000000000000000000 PUSH1 0x0 MSTORE PUSH1 0x32 PUSH1 0x4 MSTORE PUSH1 0x24 PUSH1 0x0 REVERT JUMPDEST PUSH32 0x4E487B7100000000000000000000000000000000000000000000000000000000 PUSH1 0x0 MSTORE PUSH1 0x41 PUSH1 0x4 MSTORE PUSH1 0x24 PUSH1 0x0 REVERT JUMPDEST PUSH1 0x0 DUP1 REVERT JUMPDEST PUSH1 0x0 DUP1 REVERT JUMPDEST PUSH1 0x0 DUP1 REVERT JUMPDEST PUSH1 0x0 DUP1 REVERT JUMPDEST PUSH1 0x0 DUP1 REVERT JUMPDEST PUSH1 0x0 PUSH1 0x1F NOT PUSH1 0x1F DUP4 ADD AND SWAP1 POP SWAP2 SWAP1 POP JUMP JUMPDEST PUSH3 0x8E5 DUP2 PUSH3 0x6C6 JUMP JUMPDEST DUP2 EQ PUSH3 0x8F1 JUMPI PUSH1 0x0 DUP1 REVERT JUMPDEST POP JUMP JUMPDEST PUSH3 0x8FF DUP2 PUSH3 0x6FA JUMP JUMPDEST DUP2 EQ PUSH3 0x90B JUMPI PUSH1 0x0 DUP1 REVERT JUMPDEST POP JUMP JUMPDEST PUSH2 0xB11 DUP1 PUSH3 0x91E PUSH1 0x0 CODECOPY PUSH1 0x0 RETURN INVALID PUSH1 0x80 PUSH1 0x40 MSTORE CALLVALUE DUP1 ISZERO PUSH2 0x10 JUMPI PUSH1 0x0 DUP1 REVERT JUMPDEST POP PUSH1 0x4 CALLDATASIZE LT PUSH2 0x93 JUMPI PUSH1 0x0 CALLDATALOAD PUSH1 0xE0 SHR DUP1 PUSH4 0x8F23D5F6 GT PUSH2 0x66 JUMPI DUP1 PUSH4 0x8F23D5F6 EQ PUSH2 0x110 JUMPI DUP1 PUSH4 0x90D524A2 EQ PUSH2 0x12E JUMPI DUP1 PUSH4 0xE2C42E66 EQ PUSH2 0x138 JUMPI DUP1 PUSH4 0xEEDC966A EQ PUSH2 0x156 JUMPI DUP1 PUSH4 0xF7ACA939 EQ PUSH2 0x186 JUMPI PUSH2 0x93 JUMP JUMPDEST DUP1 PUSH4 0x6FDDE03 EQ PUSH2 0x98 JUMPI DUP1 PUSH4 0x17D70F7C EQ PUSH2 0xB6 JUMPI DUP1 PUSH4 0x3C130D90 EQ PUSH2 0xD4 JUMPI DUP1 PUSH4 0x8DA5CB5B EQ PUSH2 0xF2 JUMPI JUMPDEST PUSH1 0x0 DUP1 REVERT JUMPDEST PUSH2 0xA0 PUSH2 0x1B6 JUMP JUMPDEST PUSH1 0x40 MLOAD PUSH2 0xAD SWAP2 SWAP1 PUSH2 0x812 JUMP JUMPDEST PUSH1 0x40 MLOAD DUP1 SWAP2 SUB SWAP1 RETURN JUMPDEST PUSH2 0xBE PUSH2 0x244 JUMP JUMPDEST PUSH1 0x40 MLOAD PUSH2 0xCB SWAP2 SWAP1 PUSH2 0x874 JUMP JUMPDEST PUSH1 0x40 MLOAD DUP1 SWAP2 SUB SWAP1 RETURN JUMPDEST PUSH2 0xDC PUSH2 0x24A JUMP JUMPDEST PUSH1 0x40 MLOAD PUSH2 0xE9 SWAP2 SWAP1 PUSH2 0x812 JUMP JUMPDEST PUSH1 0x40 MLOAD DUP1 SWAP2 SUB SWAP1 RETURN JUMPDEST PUSH2 0xFA PUSH2 0x2D8 JUMP JUMPDEST PUSH1 0x40 MLOAD PUSH2 0x107 SWAP2 SWAP1 PUSH2 0x7B3 JUMP JUMPDEST PUSH1 0x40 MLOAD DUP1 SWAP2 SUB SWAP1 RETURN JUMPDEST PUSH2 0x118 PUSH2 0x2FE JUMP JUMPDEST PUSH1 0x40 MLOAD PUSH2 0x125 SWAP2 SWAP1 PUSH2 0x7F7 JUMP JUMPDEST PUSH1 0x40 MLOAD DUP1 SWAP2 SUB SWAP1 RETURN JUMPDEST PUSH2 0x136 PUSH2 0x311 JUMP JUMPDEST STOP JUMPDEST PUSH2 0x140 PUSH2 0x5D3 JUMP JUMPDEST PUSH1 0x40 MLOAD PUSH2 0x14D SWAP2 SWAP1 PUSH2 0x7F7 JUMP JUMPDEST PUSH1 0x40 MLOAD DUP1 SWAP2 SUB SWAP1 RETURN JUMPDEST PUSH2 0x170 PUSH1 0x4 DUP1 CALLDATASIZE SUB DUP2 ADD SWAP1 PUSH2 0x16B SWAP2 SWAP1 PUSH2 0x680 JUMP JUMPDEST PUSH2 0x5EA JUMP JUMPDEST PUSH1 0x40 MLOAD PUSH2 0x17D SWAP2 SWAP1 PUSH2 0x874 JUMP JUMPDEST PUSH1 0x40 MLOAD DUP1 SWAP2 SUB SWAP1 RETURN JUMPDEST PUSH2 0x1A0 PUSH1 0x4 DUP1 CALLDATASIZE SUB DUP2 ADD SWAP1 PUSH2 0x19B SWAP2 SWAP1 PUSH2 0x6DA JUMP JUMPDEST PUSH2 0x602 JUMP JUMPDEST PUSH1 0x40 MLOAD PUSH2 0x1AD SWAP2 SWAP1 PUSH2 0x7B3 JUMP JUMPDEST PUSH1 0x40 MLOAD DUP1 SWAP2 SUB SWAP1 RETURN JUMPDEST PUSH1 0x3 DUP1 SLOAD PUSH2 0x1C3 SWAP1 PUSH2 0x926 JUMP JUMPDEST DUP1 PUSH1 0x1F ADD PUSH1 0x20 DUP1 SWAP2 DIV MUL PUSH1 0x20 ADD PUSH1 0x40 MLOAD SWAP1 DUP2 ADD PUSH1 0x40 MSTORE DUP1 SWAP3 SWAP2 SWAP1 DUP2 DUP2 MSTORE PUSH1 0x20 ADD DUP3 DUP1 SLOAD PUSH2 0x1EF SWAP1 PUSH2 0x926 JUMP JUMPDEST DUP1 ISZERO PUSH2 0x23C JUMPI DUP1 PUSH1 0x1F LT PUSH2 0x211 JUMPI PUSH2 0x100 DUP1 DUP4 SLOAD DIV MUL DUP4 MSTORE SWAP2 PUSH1 0x20 ADD SWAP2 PUSH2 0x23C JUMP JUMPDEST DUP3 ADD SWAP2 SWAP1 PUSH1 0x0 MSTORE PUSH1 0x20 PUSH1 0x0 KECCAK256 SWAP1 JUMPDEST DUP2 SLOAD DUP2 MSTORE SWAP1 PUSH1 0x1 ADD SWAP1 PUSH1 0x20 ADD DUP1 DUP4 GT PUSH2 0x21F JUMPI DUP3 SWAP1 SUB PUSH1 0x1F AND DUP3 ADD SWAP2 JUMPDEST POP POP POP POP POP DUP2 JUMP JUMPDEST PUSH1 0x6 SLOAD DUP2 JUMP JUMPDEST PUSH1 0x2 DUP1 SLOAD PUSH2 0x257 SWAP1 PUSH2 0x926 JUMP JUMPDEST DUP1 PUSH1 0x1F ADD PUSH1 0x20 DUP1 SWAP2 DIV MUL PUSH1 0x20 ADD PUSH1 0x40 MLOAD SWAP1 DUP2 ADD PUSH1 0x40 MSTORE DUP1 SWAP3 SWAP2 SWAP1 DUP2 DUP2 MSTORE PUSH1 0x20 ADD DUP3 DUP1 SLOAD PUSH2 0x283 SWAP1 PUSH2 0x926 JUMP JUMPDEST DUP1 ISZERO PUSH2 0x2D0 JUMPI DUP1 PUSH1 0x1F LT PUSH2 0x2A5 JUMPI PUSH2 0x100 DUP1 DUP4 SLOAD DIV MUL DUP4 MSTORE SWAP2 PUSH1 0x20 ADD SWAP2 PUSH2 0x2D0 JUMP JUMPDEST DUP3 ADD SWAP2 SWAP1 PUSH1 0x0 MSTORE PUSH1 0x20 PUSH1 0x0 KECCAK256 SWAP1 JUMPDEST DUP2 SLOAD DUP2 MSTORE SWAP1 PUSH1 0x1 ADD SWAP1 PUSH1 0x20 ADD DUP1 DUP4 GT PUSH2 0x2B3 JUMPI DUP3 SWAP1 SUB PUSH1 0x1F AND DUP3 ADD SWAP2 JUMPDEST POP POP POP POP POP DUP2 JUMP JUMPDEST PUSH1 0x1 PUSH1 0x0 SWAP1 SLOAD SWAP1 PUSH2 0x100 EXP SWAP1 DIV PUSH20 0xFFFFFFFFFFFFFFFFFFFFFFFFFFFFFFFFFFFFFFFF AND DUP2 JUMP JUMPDEST PUSH1 0x1 PUSH1 0x14 SWAP1 SLOAD SWAP1 PUSH2 0x100 EXP SWAP1 DIV PUSH1 0xFF AND DUP2 JUMP JUMPDEST PUSH1 0x1 PUSH1 0x0 SWAP1 SLOAD SWAP1 PUSH2 0x100 EXP SWAP1 DIV PUSH20 0xFFFFFFFFFFFFFFFFFFFFFFFFFFFFFFFFFFFFFFFF AND PUSH20 0xFFFFFFFFFFFFFFFFFFFFFFFFFFFFFFFFFFFFFFFF AND CALLER PUSH20 0xFFFFFFFFFFFFFFFFFFFFFFFFFFFFFFFFFFFFFFFF AND EQ PUSH2 0x3A1 JUMPI PUSH1 0x40 MLOAD PUSH32 0x8C379A000000000000000000000000000000000000000000000000000000000 DUP2 MSTORE PUSH1 0x4 ADD PUSH2 0x398 SWAP1 PUSH2 0x834 JUMP JUMPDEST PUSH1 0x40 MLOAD DUP1 SWAP2 SUB SWAP1 REVERT JUMPDEST PUSH1 0x1 PUSH1 0x14 SWAP1 SLOAD SWAP1 PUSH2 0x100 EXP SWAP1 DIV PUSH1 0xFF AND PUSH2 0x3F0 JUMPI PUSH1 0x40 MLOAD PUSH32 0x8C379A000000000000000000000000000000000000000000000000000000000 DUP2 MSTORE PUSH1 0x4 ADD PUSH2 0x3E7 SWAP1 PUSH2 0x854 JUMP JUMPDEST PUSH1 0x40 MLOAD DUP1 SWAP2 SUB SWAP1 REVERT JUMPDEST PUSH1 0x1 PUSH1 0x0 SWAP1 SLOAD SWAP1 PUSH2 0x100 EXP SWAP1 DIV PUSH20 0xFFFFFFFFFFFFFFFFFFFFFFFFFFFFFFFFFFFFFFFF AND PUSH20 0xFFFFFFFFFFFFFFFFFFFFFFFFFFFFFFFFFFFFFFFF AND PUSH2 0x8FC SELFBALANCE SWAP1 DUP2 ISZERO MUL SWAP1 PUSH1 0x40 MLOAD PUSH1 0x0 PUSH1 0x40 MLOAD DUP1 DUP4 SUB DUP2 DUP6 DUP9 DUP9 CALL SWAP4 POP POP POP POP ISZERO DUP1 ISZERO PUSH2 0x458 JUMPI RETURNDATASIZE PUSH1 0x0 DUP1 RETURNDATACOPY RETURNDATASIZE PUSH1 0x0 REVERT JUMPDEST POP PUSH1 0x0 JUMPDEST PUSH1 0x5 DUP1 SLOAD SWAP1 POP DUP2 LT ISZERO PUSH2 0x5B5 JUMPI PUSH1 0x0 PUSH1 0x5 DUP3 DUP2 SLOAD DUP2 LT PUSH2 0x47F JUMPI PUSH2 0x47E PUSH2 0x9FF JUMP JUMPDEST JUMPDEST SWAP1 PUSH1 0x0 MSTORE PUSH1 0x20 PUSH1 0x0 KECCAK256 ADD PUSH1 0x0 SWAP1 SLOAD SWAP1 PUSH2 0x100 EXP SWAP1 DIV PUSH20 0xFFFFFFFFFFFFFFFFFFFFFFFFFFFFFFFFFFFFFFFF AND SWAP1 POP PUSH1 0x0 DUP2 SWAP1 POP DUP1 PUSH20 0xFFFFFFFFFFFFFFFFFFFFFFFFFFFFFFFFFFFFFFFF AND PUSH4 0xA9059CBB PUSH1 0x1 PUSH1 0x0 SWAP1 SLOAD SWAP1 PUSH2 0x100 EXP SWAP1 DIV PUSH20 0xFFFFFFFFFFFFFFFFFFFFFFFFFFFFFFFFFFFFFFFF AND PUSH1 0x4 PUSH1 0x0 DUP7 PUSH20 0xFFFFFFFFFFFFFFFFFFFFFFFFFFFFFFFFFFFFFFFF AND PUSH20 0xFFFFFFFFFFFFFFFFFFFFFFFFFFFFFFFFFFFFFFFF AND DUP2 MSTORE PUSH1 0x20 ADD SWAP1 DUP2 MSTORE PUSH1 0x20 ADD PUSH1 0x0 KECCAK256 SLOAD PUSH1 0x40 MLOAD DUP4 PUSH4 0xFFFFFFFF AND PUSH1 0xE0 SHL DUP2 MSTORE PUSH1 0x4 ADD PUSH2 0x54D SWAP3 SWAP2 SWAP1 PUSH2 0x7CE JUMP JUMPDEST PUSH1 0x20 PUSH1 0x40 MLOAD DUP1 DUP4 SUB DUP2 PUSH1 0x0 DUP8 DUP1 EXTCODESIZE ISZERO DUP1 ISZERO PUSH2 0x567 JUMPI PUSH1 0x0 DUP1 REVERT JUMPDEST POP GAS CALL ISZERO DUP1 ISZERO PUSH2 0x57B JUMPI RETURNDATASIZE PUSH1 0x0 DUP1 RETURNDATACOPY RETURNDATASIZE PUSH1 0x0 REVERT JUMPDEST POP POP POP POP PUSH1 0x40 MLOAD RETURNDATASIZE PUSH1 0x1F NOT PUSH1 0x1F DUP3 ADD AND DUP3 ADD DUP1 PUSH1 0x40 MSTORE POP DUP2 ADD SWAP1 PUSH2 0x59F SWAP2 SWAP1 PUSH2 0x6AD JUMP JUMPDEST POP POP POP DUP1 DUP1 PUSH2 0x5AD SWAP1 PUSH2 0x958 JUMP JUMPDEST SWAP2 POP POP PUSH2 0x45C JUMP JUMPDEST POP PUSH1 0x0 PUSH1 0x1 PUSH1 0x14 PUSH2 0x100 EXP DUP2 SLOAD DUP2 PUSH1 0xFF MUL NOT AND SWAP1 DUP4 ISZERO ISZERO MUL OR SWAP1 SSTORE POP JUMP JUMPDEST PUSH1 0x0 PUSH1 0x1 PUSH1 0x14 SWAP1 SLOAD SWAP1 PUSH2 0x100 EXP SWAP1 DIV PUSH1 0xFF AND SWAP1 POP SWAP1 JUMP JUMPDEST PUSH1 0x4 PUSH1 0x20 MSTORE DUP1 PUSH1 0x0 MSTORE PUSH1 0x40 PUSH1 0x0 KECCAK256 PUSH1 0x0 SWAP2 POP SWAP1 POP SLOAD DUP2 JUMP JUMPDEST PUSH1 0x5 DUP2 DUP2 SLOAD DUP2 LT PUSH2 0x612 JUMPI PUSH1 0x0 DUP1 REVERT JUMPDEST SWAP1 PUSH1 0x0 MSTORE PUSH1 0x20 PUSH1 0x0 KECCAK256 ADD PUSH1 0x0 SWAP2 POP SLOAD SWAP1 PUSH2 0x100 EXP SWAP1 DIV PUSH20 0xFFFFFFFFFFFFFFFFFFFFFFFFFFFFFFFFFFFFFFFF AND DUP2 JUMP JUMPDEST PUSH1 0x0 DUP2 CALLDATALOAD SWAP1 POP PUSH2 0x650 DUP2 PUSH2 0xA96 JUMP JUMPDEST SWAP3 SWAP2 POP POP JUMP JUMPDEST PUSH1 0x0 DUP2 MLOAD SWAP1 POP PUSH2 0x665 DUP2 PUSH2 0xAAD JUMP JUMPDEST SWAP3 SWAP2 POP POP JUMP JUMPDEST PUSH1 0x0 DUP2 CALLDATALOAD SWAP1 POP PUSH2 0x67A DUP2 PUSH2 0xAC4 JUMP JUMPDEST SWAP3 SWAP2 POP POP JUMP JUMPDEST PUSH1 0x0 PUSH1 0x20 DUP3 DUP5 SUB SLT ISZERO PUSH2 0x696 JUMPI PUSH2 0x695 PUSH2 0xA2E JUMP JUMPDEST JUMPDEST PUSH1 0x0 PUSH2 0x6A4 DUP5 DUP3 DUP6 ADD PUSH2 0x641 JUMP JUMPDEST SWAP2 POP POP SWAP3 SWAP2 POP POP JUMP JUMPDEST PUSH1 0x0 PUSH1 0x20 DUP3 DUP5 SUB SLT ISZERO PUSH2 0x6C3 JUMPI PUSH2 0x6C2 PUSH2 0xA2E JUMP JUMPDEST JUMPDEST PUSH1 0x0 PUSH2 0x6D1 DUP5 DUP3 DUP6 ADD PUSH2 0x656 JUMP JUMPDEST SWAP2 POP POP SWAP3 SWAP2 POP POP JUMP JUMPDEST PUSH1 0x0 PUSH1 0x20 DUP3 DUP5 SUB SLT ISZERO PUSH2 0x6F0 JUMPI PUSH2 0x6EF PUSH2 0xA2E JUMP JUMPDEST JUMPDEST PUSH1 0x0 PUSH2 0x6FE DUP5 DUP3 DUP6 ADD PUSH2 0x66B JUMP JUMPDEST SWAP2 POP POP SWAP3 SWAP2 POP POP JUMP JUMPDEST PUSH2 0x710 DUP2 PUSH2 0x8AB JUMP JUMPDEST DUP3 MSTORE POP POP JUMP JUMPDEST PUSH2 0x71F DUP2 PUSH2 0x8BD JUMP JUMPDEST DUP3 MSTORE POP POP JUMP JUMPDEST PUSH1 0x0 PUSH2 0x730 DUP3 PUSH2 0x88F JUMP JUMPDEST PUSH2 0x73A DUP2 DUP6 PUSH2 0x89A JUMP JUMPDEST SWAP4 POP PUSH2 0x74A DUP2 DUP6 PUSH1 0x20 DUP7 ADD PUSH2 0x8F3 JUMP JUMPDEST PUSH2 0x753 DUP2 PUSH2 0xA33 JUMP JUMPDEST DUP5 ADD SWAP2 POP POP SWAP3 SWAP2 POP POP JUMP JUMPDEST PUSH1 0x0 PUSH2 0x76B PUSH1 0x1E DUP4 PUSH2 0x89A JUMP JUMPDEST SWAP2 POP PUSH2 0x776 DUP3 PUSH2 0xA44 JUMP JUMPDEST PUSH1 0x20 DUP3 ADD SWAP1 POP SWAP2 SWAP1 POP JUMP JUMPDEST PUSH1 0x0 PUSH2 0x78E PUSH1 0x18 DUP4 PUSH2 0x89A JUMP JUMPDEST SWAP2 POP PUSH2 0x799 DUP3 PUSH2 0xA6D JUMP JUMPDEST PUSH1 0x20 DUP3 ADD SWAP1 POP SWAP2 SWAP1 POP JUMP JUMPDEST PUSH2 0x7AD DUP2 PUSH2 0x8E9 JUMP JUMPDEST DUP3 MSTORE POP POP JUMP JUMPDEST PUSH1 0x0 PUSH1 0x20 DUP3 ADD SWAP1 POP PUSH2 0x7C8 PUSH1 0x0 DUP4 ADD DUP5 PUSH2 0x707 JUMP JUMPDEST SWAP3 SWAP2 POP POP JUMP JUMPDEST PUSH1 0x0 PUSH1 0x40 DUP3 ADD SWAP1 POP PUSH2 0x7E3 PUSH1 0x0 DUP4 ADD DUP6 PUSH2 0x707 JUMP JUMPDEST PUSH2 0x7F0 PUSH1 0x20 DUP4 ADD DUP5 PUSH2 0x7A4 JUMP JUMPDEST SWAP4 SWAP3 POP POP POP JUMP JUMPDEST PUSH1 0x0 PUSH1 0x20 DUP3 ADD SWAP1 POP PUSH2 0x80C PUSH1 0x0 DUP4 ADD DUP5 PUSH2 0x716 JUMP JUMPDEST SWAP3 SWAP2 POP POP JUMP JUMPDEST PUSH1 0x0 PUSH1 0x20 DUP3 ADD SWAP1 POP DUP2 DUP2 SUB PUSH1 0x0 DUP4 ADD MSTORE PUSH2 0x82C DUP2 DUP5 PUSH2 0x725 JUMP JUMPDEST SWAP1 POP SWAP3 SWAP2 POP POP JUMP JUMPDEST PUSH1 0x0 PUSH1 0x20 DUP3 ADD SWAP1 POP DUP2 DUP2 SUB PUSH1 0x0 DUP4 ADD MSTORE PUSH2 0x84D DUP2 PUSH2 0x75E JUMP JUMPDEST SWAP1 POP SWAP2 SWAP1 POP JUMP JUMPDEST PUSH1 0x0 PUSH1 0x20 DUP3 ADD SWAP1 POP DUP2 DUP2 SUB PUSH1 0x0 DUP4 ADD MSTORE PUSH2 0x86D DUP2 PUSH2 0x781 JUMP JUMPDEST SWAP1 POP SWAP2 SWAP1 POP JUMP JUMPDEST PUSH1 0x0 PUSH1 0x20 DUP3 ADD SWAP1 POP PUSH2 0x889 PUSH1 0x0 DUP4 ADD DUP5 PUSH2 0x7A4 JUMP JUMPDEST SWAP3 SWAP2 POP POP JUMP JUMPDEST PUSH1 0x0 DUP2 MLOAD SWAP1 POP SWAP2 SWAP1 POP JUMP JUMPDEST PUSH1 0x0 DUP3 DUP3 MSTORE PUSH1 0x20 DUP3 ADD SWAP1 POP SWAP3 SWAP2 POP POP JUMP JUMPDEST PUSH1 0x0 PUSH2 0x8B6 DUP3 PUSH2 0x8C9 JUMP JUMPDEST SWAP1 POP SWAP2 SWAP1 POP JUMP JUMPDEST PUSH1 0x0 DUP2 ISZERO ISZERO SWAP1 POP SWAP2 SWAP1 POP JUMP JUMPDEST PUSH1 0x0 PUSH20 0xFFFFFFFFFFFFFFFFFFFFFFFFFFFFFFFFFFFFFFFF DUP3 AND SWAP1 POP SWAP2 SWAP1 POP JUMP JUMPDEST PUSH1 0x0 DUP2 SWAP1 POP SWAP2 SWAP1 POP JUMP JUMPDEST PUSH1 0x0 JUMPDEST DUP4 DUP2 LT ISZERO PUSH2 0x911 JUMPI DUP1 DUP3 ADD MLOAD DUP2 DUP5 ADD MSTORE PUSH1 0x20 DUP2 ADD SWAP1 POP PUSH2 0x8F6 JUMP JUMPDEST DUP4 DUP2 GT ISZERO PUSH2 0x920 JUMPI PUSH1 0x0 DUP5 DUP5 ADD MSTORE JUMPDEST POP POP POP POP JUMP JUMPDEST PUSH1 0x0 PUSH1 0x2 DUP3 DIV SWAP1 POP PUSH1 0x1 DUP3 AND DUP1 PUSH2 0x93E JUMPI PUSH1 0x7F DUP3 AND SWAP2 POP JUMPDEST PUSH1 0x20 DUP3 LT DUP2 EQ ISZERO PUSH2 0x952 JUMPI PUSH2 0x951 PUSH2 0x9D0 JUMP JUMPDEST JUMPDEST POP SWAP2 SWAP1 POP JUMP JUMPDEST PUSH1 0x0 PUSH2 0x963 DUP3 PUSH2 0x8E9 JUMP JUMPDEST SWAP2 POP PUSH32 0xFFFFFFFFFFFFFFFFFFFFFFFFFFFFFFFFFFFFFFFFFFFFFFFFFFFFFFFFFFFFFFFF DUP3 EQ ISZERO PUSH2 0x996 JUMPI PUSH2 0x995 PUSH2 0x9A1 JUMP JUMPDEST JUMPDEST PUSH1 0x1 DUP3 ADD SWAP1 POP SWAP2 SWAP1 POP JUMP JUMPDEST PUSH32 0x4E487B7100000000000000000000000000000000000000000000000000000000 PUSH1 0x0 MSTORE PUSH1 0x11 PUSH1 0x4 MSTORE PUSH1 0x24 PUSH1 0x0 REVERT JUMPDEST PUSH32 0x4E487B7100000000000000000000000000000000000000000000000000000000 PUSH1 0x0 MSTORE PUSH1 0x22 PUSH1 0x4 MSTORE PUSH1 0x24 PUSH1 0x0 REVERT JUMPDEST PUSH32 0x4E487B7100000000000000000000000000000000000000000000000000000000 PUSH1 0x0 MSTORE PUSH1 0x32 PUSH1 0x4 MSTORE PUSH1 0x24 PUSH1 0x0 REVERT JUMPDEST PUSH1 0x0 DUP1 REVERT JUMPDEST PUSH1 0x0 PUSH1 0x1F NOT PUSH1 0x1F DUP4 ADD AND SWAP1 POP SWAP2 SWAP1 POP JUMP JUMPDEST PUSH32 0x4F6E6C79204F776E65722063616E20756E7061636B20546F6B656E697A2E0000 PUSH1 0x0 DUP3 ADD MSTORE POP JUMP JUMPDEST PUSH32 0x416C726561647920756E7061636B656420546F6B656E697A0000000000000000 PUSH1 0x0 DUP3 ADD MSTORE POP JUMP JUMPDEST PUSH2 0xA9F DUP2 PUSH2 0x8AB JUMP JUMPDEST DUP2 EQ PUSH2 0xAAA JUMPI PUSH1 0x0 DUP1 REVERT JUMPDEST POP JUMP JUMPDEST PUSH2 0xAB6 DUP2 PUSH2 0x8BD JUMP JUMPDEST DUP2 EQ PUSH2 0xAC1 JUMPI PUSH1 0x0 DUP1 REVERT JUMPDEST POP JUMP JUMPDEST PUSH2 0xACD DUP2 PUSH2 0x8E9 JUMP JUMPDEST DUP2 EQ PUSH2 0xAD8 JUMPI PUSH1 0x0 DUP1 REVERT JUMPDEST POP JUMP INVALID LOG2 PUSH5 0x6970667358 0x22 SLT KECCAK256 0xB3 0xBA COINBASE 0xBE LOG1 0xDE 0xDA JUMPDEST 0x4B 0x5F DIFFICULTY 0x2B PUSH18 0xB1BE00FB615FA50C10E5338A13EBD0AFFC01 CALL PUSH5 0x736F6C6343 STOP ADDMOD SMOD STOP CALLER LOG2 PUSH5 0x6970667358 0x22 SLT KECCAK256 SWAP5 PUSH31 0x6FD968999ADEB06D54530F6AF05547178EE39D00712158FC09A31067D5BE64 PUSH20 0x6F6C634300080700330000000000000000000000 "
				},
				"gasEstimates": {
					"creation": {
						"codeDepositCost": "1545000",
						"executionCost": "1617",
						"totalCost": "1546617"
					},
					"external": {
						"newTokeniz(address,string,string,address[],uint256[],uint256)": "infinite",
						"tokeniz()": "2597"
					}
				},
				"methodIdentifiers": {
					"newTokeniz(address,string,string,address[],uint256[],uint256)": "334ddae9",
					"tokeniz()": "3ab664e4"
				}
			},
			"storageLayout": {
				"storage": [
					{
						"astId": 5,
						"contract": "tron/proxy.sol:proxy",
						"label": "tokeniz",
						"offset": 0,
						"slot": "0",
						"type": "t_contract(Tokeniz)322"
					}
				],
				"types": {
					"t_contract(Tokeniz)322": {
						"encoding": "inplace",
						"label": "contract Tokeniz",
						"numberOfBytes": "20"
					}
				}
			},
			"userdoc": {
				"kind": "user",
				"methods": {},
				"version": 1
			}
		}
	}
}