{
	"tron/tokeniz.sol": {
		"Tokeniz": {
			"abi": [
				{
					"inputs": [
						{
							"internalType": "address",
							"name": "_initiator",
							"type": "address"
						},
						{
							"internalType": "string",
							"name": "_name",
							"type": "string"
						},
						{
							"internalType": "string",
							"name": "_tokenURI",
							"type": "string"
						},
						{
							"internalType": "address[]",
							"name": "_tokensAddresses",
							"type": "address[]"
						},
						{
							"internalType": "uint256[]",
							"name": "_amounts",
							"type": "uint256[]"
						},
						{
							"internalType": "uint256",
							"name": "_tokenID",
							"type": "uint256"
						}
					],
					"stateMutability": "nonpayable",
					"type": "constructor"
				},
				{
					"inputs": [],
					"name": "addr",
					"outputs": [
						{
							"internalType": "address",
							"name": "",
							"type": "address"
						}
					],
					"stateMutability": "view",
					"type": "function"
				},
				{
					"inputs": [],
					"name": "isPacked",
					"outputs": [
						{
							"internalType": "bool",
							"name": "",
							"type": "bool"
						}
					],
					"stateMutability": "view",
					"type": "function"
				},
				{
					"inputs": [],
					"name": "name",
					"outputs": [
						{
							"internalType": "string",
							"name": "",
							"type": "string"
						}
					],
					"stateMutability": "view",
					"type": "function"
				},
				{
					"inputs": [],
					"name": "owner",
					"outputs": [
						{
							"internalType": "address",
							"name": "",
							"type": "address"
						}
					],
					"stateMutability": "view",
					"type": "function"
				},
				{
					"inputs": [],
					"name": "packed",
					"outputs": [
						{
							"internalType": "bool",
							"name": "",
							"type": "bool"
						}
					],
					"stateMutability": "view",
					"type": "function"
				},
				{
					"inputs": [
						{
							"internalType": "address",
							"name": "",
							"type": "address"
						}
					],
					"name": "tokenBalance",
					"outputs": [
						{
							"internalType": "uint256",
							"name": "",
							"type": "uint256"
						}
					],
					"stateMutability": "view",
					"type": "function"
				},
				{
					"inputs": [],
					"name": "tokenId",
					"outputs": [
						{
							"internalType": "uint256",
							"name": "",
							"type": "uint256"
						}
					],
					"stateMutability": "view",
					"type": "function"
				},
				{
					"inputs": [],
					"name": "tokenURI",
					"outputs": [
						{
							"internalType": "string",
							"name": "",
							"type": "string"
						}
					],
					"stateMutability": "view",
					"type": "function"
				},
				{
					"inputs": [
						{
							"internalType": "uint256",
							"name": "",
							"type": "uint256"
						}
					],
					"name": "tokensAddresses",
					"outputs": [
						{
							"internalType": "address",
							"name": "",
							"type": "address"
						}
					],
					"stateMutability": "view",
					"type": "function"
				},
				{
					"inputs": [],
					"name": "unPack",
					"outputs": [],
					"stateMutability": "nonpayable",
					"type": "function"
				}
			],
			"devdoc": {
				"kind": "dev",
				"methods": {
					"constructor": {
						"details": "Create a new Tokeniz to choose one of."
					}
				},
				"version": 1
			},
			"evm": {
				"assembly": "    /* \"tron/tokeniz.sol\":177:2581  contract Tokeniz{\r... */\n  mstore(0x40, 0x80)\n    /* \"tron/tokeniz.sol\":536:1057  constructor(address _initiator, string memory _name, string memory _tokenURI, address[] memory _tokensAddresses, uint[] memory _amounts, uint256 _tokenID) {\r... */\n  callvalue\n  dup1\n  iszero\n  tag_1\n  jumpi\n  0x00\n  dup1\n  revert\ntag_1:\n  pop\n  mload(0x40)\n  sub(codesize, bytecodeSize)\n  dup1\n  bytecodeSize\n  dup4\n  codecopy\n  dup2\n  dup2\n  add\n  0x40\n  mstore\n  dup2\n  add\n  swap1\n  tag_2\n  swap2\n  swap1\n  tag_3\n  jump\t// in\ntag_2:\n    /* \"tron/tokeniz.sol\":717:727  msg.sender */\n  caller\n    /* \"tron/tokeniz.sol\":702:714  TokenizAdmin */\n  0x00\n  dup1\n    /* \"tron/tokeniz.sol\":702:727  TokenizAdmin = msg.sender */\n  0x0100\n  exp\n  dup2\n  sload\n  dup2\n  0xffffffffffffffffffffffffffffffffffffffff\n  mul\n  not\n  and\n  swap1\n  dup4\n  0xffffffffffffffffffffffffffffffffffffffff\n  and\n  mul\n  or\n  swap1\n  sstore\n  pop\n    /* \"tron/tokeniz.sol\":746:756  _initiator */\n  dup6\n    /* \"tron/tokeniz.sol\":738:743  owner */\n  0x01\n  0x00\n    /* \"tron/tokeniz.sol\":738:756  owner = _initiator */\n  0x0100\n  exp\n  dup2\n  sload\n  dup2\n  0xffffffffffffffffffffffffffffffffffffffff\n  mul\n  not\n  and\n  swap1\n  dup4\n  0xffffffffffffffffffffffffffffffffffffffff\n  and\n  mul\n  or\n  swap1\n  sstore\n  pop\n    /* \"tron/tokeniz.sol\":777:781  true */\n  0x01\n    /* \"tron/tokeniz.sol\":768:774  packed */\n  dup1\n  0x14\n    /* \"tron/tokeniz.sol\":768:781  packed = true */\n  0x0100\n  exp\n  dup2\n  sload\n  dup2\n  0xff\n  mul\n  not\n  and\n  swap1\n  dup4\n  iszero\n  iszero\n  mul\n  or\n  swap1\n  sstore\n  pop\n    /* \"tron/tokeniz.sol\":797:803  uint i */\n  0x00\n    /* \"tron/tokeniz.sol\":792:971  for (uint i = 0; i < _tokensAddresses.length; i++) {\r... */\ntag_6:\n    /* \"tron/tokeniz.sol\":813:829  _tokensAddresses */\n  dup4\n    /* \"tron/tokeniz.sol\":813:836  _tokensAddresses.length */\n  mload\n    /* \"tron/tokeniz.sol\":809:810  i */\n  dup2\n    /* \"tron/tokeniz.sol\":809:836  i < _tokensAddresses.length */\n  lt\n    /* \"tron/tokeniz.sol\":792:971  for (uint i = 0; i < _tokensAddresses.length; i++) {\r... */\n  iszero\n  tag_7\n  jumpi\n    /* \"tron/tokeniz.sol\":858:873  tokensAddresses */\n  0x05\n    /* \"tron/tokeniz.sol\":879:895  _tokensAddresses */\n  dup5\n    /* \"tron/tokeniz.sol\":896:897  i */\n  dup3\n    /* \"tron/tokeniz.sol\":879:898  _tokensAddresses[i] */\n  dup2\n  mload\n  dup2\n  lt\n  tag_9\n  jumpi\n  tag_10\n  tag_11\n  jump\t// in\ntag_10:\ntag_9:\n  0x20\n  mul\n  0x20\n  add\n  add\n  mload\n    /* \"tron/tokeniz.sol\":858:899  tokensAddresses.push(_tokensAddresses[i]) */\n  swap1\n  dup1\n  0x01\n  dup2\n  sload\n  add\n  dup1\n  dup3\n  sstore\n  dup1\n  swap2\n  pop\n  pop\n  0x01\n  swap1\n  sub\n  swap1\n  0x00\n  mstore\n  keccak256(0x00, 0x20)\n  add\n  0x00\n  swap1\n  swap2\n  swap1\n  swap2\n  swap1\n  swap2\n  0x0100\n  exp\n  dup2\n  sload\n  dup2\n  0xffffffffffffffffffffffffffffffffffffffff\n  mul\n  not\n  and\n  swap1\n  dup4\n  0xffffffffffffffffffffffffffffffffffffffff\n  and\n  mul\n  or\n  swap1\n  sstore\n  pop\n    /* \"tron/tokeniz.sol\":948:956  _amounts */\n  dup3\n    /* \"tron/tokeniz.sol\":957:958  i */\n  dup2\n    /* \"tron/tokeniz.sol\":948:959  _amounts[i] */\n  dup2\n  mload\n  dup2\n  lt\n  tag_13\n  jumpi\n  tag_14\n  tag_11\n  jump\t// in\ntag_14:\ntag_13:\n  0x20\n  mul\n  0x20\n  add\n  add\n  mload\n    /* \"tron/tokeniz.sol\":914:926  tokenBalance */\n  0x04\n    /* \"tron/tokeniz.sol\":914:947  tokenBalance[_tokensAddresses[i]] */\n  0x00\n    /* \"tron/tokeniz.sol\":927:943  _tokensAddresses */\n  dup7\n    /* \"tron/tokeniz.sol\":944:945  i */\n  dup5\n    /* \"tron/tokeniz.sol\":927:946  _tokensAddresses[i] */\n  dup2\n  mload\n  dup2\n  lt\n  tag_15\n  jumpi\n  tag_16\n  tag_11\n  jump\t// in\ntag_16:\ntag_15:\n  0x20\n  mul\n  0x20\n  add\n  add\n  mload\n    /* \"tron/tokeniz.sol\":914:947  tokenBalance[_tokensAddresses[i]] */\n  0xffffffffffffffffffffffffffffffffffffffff\n  and\n  0xffffffffffffffffffffffffffffffffffffffff\n  and\n  dup2\n  mstore\n  0x20\n  add\n  swap1\n  dup2\n  mstore\n  0x20\n  add\n  0x00\n  keccak256\n    /* \"tron/tokeniz.sol\":914:959  tokenBalance[_tokensAddresses[i]]=_amounts[i] */\n  dup2\n  swap1\n  sstore\n  pop\n    /* \"tron/tokeniz.sol\":838:841  i++ */\n  dup1\n  dup1\n  tag_17\n  swap1\n  tag_18\n  jump\t// in\ntag_17:\n  swap2\n  pop\n  pop\n    /* \"tron/tokeniz.sol\":792:971  for (uint i = 0; i < _tokensAddresses.length; i++) {\r... */\n  jump(tag_6)\ntag_7:\n  pop\n    /* \"tron/tokeniz.sol\":990:999  _tokenURI */\n  dup4\n    /* \"tron/tokeniz.sol\":981:989  tokenURI */\n  0x02\n    /* \"tron/tokeniz.sol\":981:999  tokenURI=_tokenURI */\n  swap1\n  dup1\n  mload\n  swap1\n  0x20\n  add\n  swap1\n  tag_19\n  swap3\n  swap2\n  swap1\n  tag_20\n  jump\t// in\ntag_19:\n  pop\n    /* \"tron/tokeniz.sol\":1016:1021  _name */\n  dup5\n    /* \"tron/tokeniz.sol\":1010:1014  name */\n  0x03\n    /* \"tron/tokeniz.sol\":1010:1021  name= _name */\n  swap1\n  dup1\n  mload\n  swap1\n  0x20\n  add\n  swap1\n  tag_21\n  swap3\n  swap2\n  swap1\n  tag_20\n  jump\t// in\ntag_21:\n  pop\n    /* \"tron/tokeniz.sol\":1041:1049  _tokenID */\n  dup1\n    /* \"tron/tokeniz.sol\":1032:1039  tokenId */\n  0x06\n    /* \"tron/tokeniz.sol\":1032:1049  tokenId= _tokenID */\n  dup2\n  swap1\n  sstore\n  pop\n    /* \"tron/tokeniz.sol\":536:1057  constructor(address _initiator, string memory _name, string memory _tokenURI, address[] memory _tokensAddresses, uint[] memory _amounts, uint256 _tokenID) {\r... */\n  pop\n  pop\n  pop\n  pop\n  pop\n  pop\n    /* \"tron/tokeniz.sol\":177:2581  contract Tokeniz{\r... */\n  jump(tag_22)\ntag_20:\n  dup3\n  dup1\n  sload\n  tag_23\n  swap1\n  tag_24\n  jump\t// in\ntag_23:\n  swap1\n  0x00\n  mstore\n  keccak256(0x00, 0x20)\n  swap1\n  0x1f\n  add\n  0x20\n  swap1\n  div\n  dup2\n  add\n  swap3\n  dup3\n  tag_26\n  jumpi\n  0x00\n  dup6\n  sstore\n  jump(tag_25)\ntag_26:\n  dup3\n  0x1f\n  lt\n  tag_27\n  jumpi\n  dup1\n  mload\n  not(0xff)\n  and\n  dup4\n  dup1\n  add\n  or\n  dup6\n  sstore\n  jump(tag_25)\ntag_27:\n  dup3\n  dup1\n  add\n  0x01\n  add\n  dup6\n  sstore\n  dup3\n  iszero\n  tag_25\n  jumpi\n  swap2\n  dup3\n  add\ntag_28:\n  dup3\n  dup2\n  gt\n  iszero\n  tag_29\n  jumpi\n  dup3\n  mload\n  dup3\n  sstore\n  swap2\n  0x20\n  add\n  swap2\n  swap1\n  0x01\n  add\n  swap1\n  jump(tag_28)\ntag_29:\ntag_25:\n  pop\n  swap1\n  pop\n  tag_30\n  swap2\n  swap1\n  tag_31\n  jump\t// in\ntag_30:\n  pop\n  swap1\n  jump\t// out\ntag_31:\ntag_32:\n  dup1\n  dup3\n  gt\n  iszero\n  tag_33\n  jumpi\n  0x00\n  dup2\n  0x00\n  swap1\n  sstore\n  pop\n  0x01\n  add\n  jump(tag_32)\ntag_33:\n  pop\n  swap1\n  jump\t// out\n    /* \"#utility.yul\":24:768   */\ntag_35:\n    /* \"#utility.yul\":131:136   */\n  0x00\n    /* \"#utility.yul\":156:237   */\n  tag_37\n    /* \"#utility.yul\":172:236   */\n  tag_38\n    /* \"#utility.yul\":229:235   */\n  dup5\n    /* \"#utility.yul\":172:236   */\n  tag_39\n  jump\t// in\ntag_38:\n    /* \"#utility.yul\":156:237   */\n  tag_40\n  jump\t// in\ntag_37:\n    /* \"#utility.yul\":147:237   */\n  swap1\n  pop\n    /* \"#utility.yul\":257:262   */\n  dup1\n    /* \"#utility.yul\":286:292   */\n  dup4\n    /* \"#utility.yul\":279:284   */\n  dup3\n    /* \"#utility.yul\":272:293   */\n  mstore\n    /* \"#utility.yul\":320:324   */\n  0x20\n    /* \"#utility.yul\":313:318   */\n  dup3\n    /* \"#utility.yul\":309:325   */\n  add\n    /* \"#utility.yul\":302:325   */\n  swap1\n  pop\n    /* \"#utility.yul\":346:352   */\n  dup3\n    /* \"#utility.yul\":396:399   */\n  dup6\n    /* \"#utility.yul\":388:392   */\n  0x20\n    /* \"#utility.yul\":380:386   */\n  dup7\n    /* \"#utility.yul\":376:393   */\n  mul\n    /* \"#utility.yul\":371:374   */\n  dup3\n    /* \"#utility.yul\":367:394   */\n  add\n    /* \"#utility.yul\":364:400   */\n  gt\n    /* \"#utility.yul\":361:504   */\n  iszero\n  tag_41\n  jumpi\n    /* \"#utility.yul\":415:494   */\n  tag_42\n  tag_43\n  jump\t// in\ntag_42:\n    /* \"#utility.yul\":361:504   */\ntag_41:\n    /* \"#utility.yul\":528:529   */\n  0x00\n    /* \"#utility.yul\":513:762   */\ntag_44:\n    /* \"#utility.yul\":538:544   */\n  dup6\n    /* \"#utility.yul\":535:536   */\n  dup2\n    /* \"#utility.yul\":532:545   */\n  lt\n    /* \"#utility.yul\":513:762   */\n  iszero\n  tag_46\n  jumpi\n    /* \"#utility.yul\":606:609   */\n  dup2\n    /* \"#utility.yul\":635:683   */\n  tag_47\n    /* \"#utility.yul\":679:682   */\n  dup9\n    /* \"#utility.yul\":667:677   */\n  dup3\n    /* \"#utility.yul\":635:683   */\n  tag_48\n  jump\t// in\ntag_47:\n    /* \"#utility.yul\":630:633   */\n  dup5\n    /* \"#utility.yul\":623:684   */\n  mstore\n    /* \"#utility.yul\":713:717   */\n  0x20\n    /* \"#utility.yul\":708:711   */\n  dup5\n    /* \"#utility.yul\":704:718   */\n  add\n    /* \"#utility.yul\":697:718   */\n  swap4\n  pop\n    /* \"#utility.yul\":747:751   */\n  0x20\n    /* \"#utility.yul\":742:745   */\n  dup4\n    /* \"#utility.yul\":738:752   */\n  add\n    /* \"#utility.yul\":731:752   */\n  swap3\n  pop\n    /* \"#utility.yul\":573:762   */\n  pop\n    /* \"#utility.yul\":560:561   */\n  0x01\n    /* \"#utility.yul\":557:558   */\n  dup2\n    /* \"#utility.yul\":553:562   */\n  add\n    /* \"#utility.yul\":548:562   */\n  swap1\n  pop\n    /* \"#utility.yul\":513:762   */\n  jump(tag_44)\ntag_46:\n    /* \"#utility.yul\":517:531   */\n  pop\n    /* \"#utility.yul\":137:768   */\n  pop\n  pop\n    /* \"#utility.yul\":24:768   */\n  swap4\n  swap3\n  pop\n  pop\n  pop\n  jump\t// out\n    /* \"#utility.yul\":791:1535   */\ntag_49:\n    /* \"#utility.yul\":898:903   */\n  0x00\n    /* \"#utility.yul\":923:1004   */\n  tag_51\n    /* \"#utility.yul\":939:1003   */\n  tag_52\n    /* \"#utility.yul\":996:1002   */\n  dup5\n    /* \"#utility.yul\":939:1003   */\n  tag_53\n  jump\t// in\ntag_52:\n    /* \"#utility.yul\":923:1004   */\n  tag_40\n  jump\t// in\ntag_51:\n    /* \"#utility.yul\":914:1004   */\n  swap1\n  pop\n    /* \"#utility.yul\":1024:1029   */\n  dup1\n    /* \"#utility.yul\":1053:1059   */\n  dup4\n    /* \"#utility.yul\":1046:1051   */\n  dup3\n    /* \"#utility.yul\":1039:1060   */\n  mstore\n    /* \"#utility.yul\":1087:1091   */\n  0x20\n    /* \"#utility.yul\":1080:1085   */\n  dup3\n    /* \"#utility.yul\":1076:1092   */\n  add\n    /* \"#utility.yul\":1069:1092   */\n  swap1\n  pop\n    /* \"#utility.yul\":1113:1119   */\n  dup3\n    /* \"#utility.yul\":1163:1166   */\n  dup6\n    /* \"#utility.yul\":1155:1159   */\n  0x20\n    /* \"#utility.yul\":1147:1153   */\n  dup7\n    /* \"#utility.yul\":1143:1160   */\n  mul\n    /* \"#utility.yul\":1138:1141   */\n  dup3\n    /* \"#utility.yul\":1134:1161   */\n  add\n    /* \"#utility.yul\":1131:1167   */\n  gt\n    /* \"#utility.yul\":1128:1271   */\n  iszero\n  tag_54\n  jumpi\n    /* \"#utility.yul\":1182:1261   */\n  tag_55\n  tag_43\n  jump\t// in\ntag_55:\n    /* \"#utility.yul\":1128:1271   */\ntag_54:\n    /* \"#utility.yul\":1295:1296   */\n  0x00\n    /* \"#utility.yul\":1280:1529   */\ntag_56:\n    /* \"#utility.yul\":1305:1311   */\n  dup6\n    /* \"#utility.yul\":1302:1303   */\n  dup2\n    /* \"#utility.yul\":1299:1312   */\n  lt\n    /* \"#utility.yul\":1280:1529   */\n  iszero\n  tag_58\n  jumpi\n    /* \"#utility.yul\":1373:1376   */\n  dup2\n    /* \"#utility.yul\":1402:1450   */\n  tag_59\n    /* \"#utility.yul\":1446:1449   */\n  dup9\n    /* \"#utility.yul\":1434:1444   */\n  dup3\n    /* \"#utility.yul\":1402:1450   */\n  tag_60\n  jump\t// in\ntag_59:\n    /* \"#utility.yul\":1397:1400   */\n  dup5\n    /* \"#utility.yul\":1390:1451   */\n  mstore\n    /* \"#utility.yul\":1480:1484   */\n  0x20\n    /* \"#utility.yul\":1475:1478   */\n  dup5\n    /* \"#utility.yul\":1471:1485   */\n  add\n    /* \"#utility.yul\":1464:1485   */\n  swap4\n  pop\n    /* \"#utility.yul\":1514:1518   */\n  0x20\n    /* \"#utility.yul\":1509:1512   */\n  dup4\n    /* \"#utility.yul\":1505:1519   */\n  add\n    /* \"#utility.yul\":1498:1519   */\n  swap3\n  pop\n    /* \"#utility.yul\":1340:1529   */\n  pop\n    /* \"#utility.yul\":1327:1328   */\n  0x01\n    /* \"#utility.yul\":1324:1325   */\n  dup2\n    /* \"#utility.yul\":1320:1329   */\n  add\n    /* \"#utility.yul\":1315:1329   */\n  swap1\n  pop\n    /* \"#utility.yul\":1280:1529   */\n  jump(tag_56)\ntag_58:\n    /* \"#utility.yul\":1284:1298   */\n  pop\n    /* \"#utility.yul\":904:1535   */\n  pop\n  pop\n    /* \"#utility.yul\":791:1535   */\n  swap4\n  swap3\n  pop\n  pop\n  pop\n  jump\t// out\n    /* \"#utility.yul\":1541:1962   */\ntag_61:\n    /* \"#utility.yul\":1630:1635   */\n  0x00\n    /* \"#utility.yul\":1655:1721   */\n  tag_63\n    /* \"#utility.yul\":1671:1720   */\n  tag_64\n    /* \"#utility.yul\":1713:1719   */\n  dup5\n    /* \"#utility.yul\":1671:1720   */\n  tag_65\n  jump\t// in\ntag_64:\n    /* \"#utility.yul\":1655:1721   */\n  tag_40\n  jump\t// in\ntag_63:\n    /* \"#utility.yul\":1646:1721   */\n  swap1\n  pop\n    /* \"#utility.yul\":1744:1750   */\n  dup3\n    /* \"#utility.yul\":1737:1742   */\n  dup2\n    /* \"#utility.yul\":1730:1751   */\n  mstore\n    /* \"#utility.yul\":1782:1786   */\n  0x20\n    /* \"#utility.yul\":1775:1780   */\n  dup2\n    /* \"#utility.yul\":1771:1787   */\n  add\n    /* \"#utility.yul\":1820:1823   */\n  dup5\n    /* \"#utility.yul\":1811:1817   */\n  dup5\n    /* \"#utility.yul\":1806:1809   */\n  dup5\n    /* \"#utility.yul\":1802:1818   */\n  add\n    /* \"#utility.yul\":1799:1824   */\n  gt\n    /* \"#utility.yul\":1796:1908   */\n  iszero\n  tag_66\n  jumpi\n    /* \"#utility.yul\":1827:1906   */\n  tag_67\n  tag_68\n  jump\t// in\ntag_67:\n    /* \"#utility.yul\":1796:1908   */\ntag_66:\n    /* \"#utility.yul\":1917:1956   */\n  tag_69\n    /* \"#utility.yul\":1949:1955   */\n  dup5\n    /* \"#utility.yul\":1944:1947   */\n  dup3\n    /* \"#utility.yul\":1939:1942   */\n  dup6\n    /* \"#utility.yul\":1917:1956   */\n  tag_70\n  jump\t// in\ntag_69:\n    /* \"#utility.yul\":1636:1962   */\n  pop\n    /* \"#utility.yul\":1541:1962   */\n  swap4\n  swap3\n  pop\n  pop\n  pop\n  jump\t// out\n    /* \"#utility.yul\":1968:2111   */\ntag_48:\n    /* \"#utility.yul\":2025:2030   */\n  0x00\n    /* \"#utility.yul\":2056:2062   */\n  dup2\n    /* \"#utility.yul\":2050:2063   */\n  mload\n    /* \"#utility.yul\":2041:2063   */\n  swap1\n  pop\n    /* \"#utility.yul\":2072:2105   */\n  tag_72\n    /* \"#utility.yul\":2099:2104   */\n  dup2\n    /* \"#utility.yul\":2072:2105   */\n  tag_73\n  jump\t// in\ntag_72:\n    /* \"#utility.yul\":1968:2111   */\n  swap3\n  swap2\n  pop\n  pop\n  jump\t// out\n    /* \"#utility.yul\":2134:2519   */\ntag_74:\n    /* \"#utility.yul\":2216:2221   */\n  0x00\n    /* \"#utility.yul\":2265:2268   */\n  dup3\n    /* \"#utility.yul\":2258:2262   */\n  0x1f\n    /* \"#utility.yul\":2250:2256   */\n  dup4\n    /* \"#utility.yul\":2246:2263   */\n  add\n    /* \"#utility.yul\":2242:2269   */\n  slt\n    /* \"#utility.yul\":2232:2354   */\n  tag_76\n  jumpi\n    /* \"#utility.yul\":2273:2352   */\n  tag_77\n  tag_78\n  jump\t// in\ntag_77:\n    /* \"#utility.yul\":2232:2354   */\ntag_76:\n    /* \"#utility.yul\":2383:2389   */\n  dup2\n    /* \"#utility.yul\":2377:2390   */\n  mload\n    /* \"#utility.yul\":2408:2513   */\n  tag_79\n    /* \"#utility.yul\":2509:2512   */\n  dup5\n    /* \"#utility.yul\":2501:2507   */\n  dup3\n    /* \"#utility.yul\":2494:2498   */\n  0x20\n    /* \"#utility.yul\":2486:2492   */\n  dup7\n    /* \"#utility.yul\":2482:2499   */\n  add\n    /* \"#utility.yul\":2408:2513   */\n  tag_35\n  jump\t// in\ntag_79:\n    /* \"#utility.yul\":2399:2513   */\n  swap2\n  pop\n    /* \"#utility.yul\":2222:2519   */\n  pop\n    /* \"#utility.yul\":2134:2519   */\n  swap3\n  swap2\n  pop\n  pop\n  jump\t// out\n    /* \"#utility.yul\":2542:2927   */\ntag_80:\n    /* \"#utility.yul\":2624:2629   */\n  0x00\n    /* \"#utility.yul\":2673:2676   */\n  dup3\n    /* \"#utility.yul\":2666:2670   */\n  0x1f\n    /* \"#utility.yul\":2658:2664   */\n  dup4\n    /* \"#utility.yul\":2654:2671   */\n  add\n    /* \"#utility.yul\":2650:2677   */\n  slt\n    /* \"#utility.yul\":2640:2762   */\n  tag_82\n  jumpi\n    /* \"#utility.yul\":2681:2760   */\n  tag_83\n  tag_78\n  jump\t// in\ntag_83:\n    /* \"#utility.yul\":2640:2762   */\ntag_82:\n    /* \"#utility.yul\":2791:2797   */\n  dup2\n    /* \"#utility.yul\":2785:2798   */\n  mload\n    /* \"#utility.yul\":2816:2921   */\n  tag_84\n    /* \"#utility.yul\":2917:2920   */\n  dup5\n    /* \"#utility.yul\":2909:2915   */\n  dup3\n    /* \"#utility.yul\":2902:2906   */\n  0x20\n    /* \"#utility.yul\":2894:2900   */\n  dup7\n    /* \"#utility.yul\":2890:2907   */\n  add\n    /* \"#utility.yul\":2816:2921   */\n  tag_49\n  jump\t// in\ntag_84:\n    /* \"#utility.yul\":2807:2921   */\n  swap2\n  pop\n    /* \"#utility.yul\":2630:2927   */\n  pop\n    /* \"#utility.yul\":2542:2927   */\n  swap3\n  swap2\n  pop\n  pop\n  jump\t// out\n    /* \"#utility.yul\":2947:3302   */\ntag_85:\n    /* \"#utility.yul\":3014:3019   */\n  0x00\n    /* \"#utility.yul\":3063:3066   */\n  dup3\n    /* \"#utility.yul\":3056:3060   */\n  0x1f\n    /* \"#utility.yul\":3048:3054   */\n  dup4\n    /* \"#utility.yul\":3044:3061   */\n  add\n    /* \"#utility.yul\":3040:3067   */\n  slt\n    /* \"#utility.yul\":3030:3152   */\n  tag_87\n  jumpi\n    /* \"#utility.yul\":3071:3150   */\n  tag_88\n  tag_78\n  jump\t// in\ntag_88:\n    /* \"#utility.yul\":3030:3152   */\ntag_87:\n    /* \"#utility.yul\":3181:3187   */\n  dup2\n    /* \"#utility.yul\":3175:3188   */\n  mload\n    /* \"#utility.yul\":3206:3296   */\n  tag_89\n    /* \"#utility.yul\":3292:3295   */\n  dup5\n    /* \"#utility.yul\":3284:3290   */\n  dup3\n    /* \"#utility.yul\":3277:3281   */\n  0x20\n    /* \"#utility.yul\":3269:3275   */\n  dup7\n    /* \"#utility.yul\":3265:3282   */\n  add\n    /* \"#utility.yul\":3206:3296   */\n  tag_61\n  jump\t// in\ntag_89:\n    /* \"#utility.yul\":3197:3296   */\n  swap2\n  pop\n    /* \"#utility.yul\":3020:3302   */\n  pop\n    /* \"#utility.yul\":2947:3302   */\n  swap3\n  swap2\n  pop\n  pop\n  jump\t// out\n    /* \"#utility.yul\":3308:3451   */\ntag_60:\n    /* \"#utility.yul\":3365:3370   */\n  0x00\n    /* \"#utility.yul\":3396:3402   */\n  dup2\n    /* \"#utility.yul\":3390:3403   */\n  mload\n    /* \"#utility.yul\":3381:3403   */\n  swap1\n  pop\n    /* \"#utility.yul\":3412:3445   */\n  tag_91\n    /* \"#utility.yul\":3439:3444   */\n  dup2\n    /* \"#utility.yul\":3412:3445   */\n  tag_92\n  jump\t// in\ntag_91:\n    /* \"#utility.yul\":3308:3451   */\n  swap3\n  swap2\n  pop\n  pop\n  jump\t// out\n    /* \"#utility.yul\":3457:5343   */\ntag_3:\n    /* \"#utility.yul\":3642:3648   */\n  0x00\n    /* \"#utility.yul\":3650:3656   */\n  dup1\n    /* \"#utility.yul\":3658:3664   */\n  0x00\n    /* \"#utility.yul\":3666:3672   */\n  dup1\n    /* \"#utility.yul\":3674:3680   */\n  0x00\n    /* \"#utility.yul\":3682:3688   */\n  dup1\n    /* \"#utility.yul\":3731:3734   */\n  0xc0\n    /* \"#utility.yul\":3719:3728   */\n  dup8\n    /* \"#utility.yul\":3710:3717   */\n  dup10\n    /* \"#utility.yul\":3706:3729   */\n  sub\n    /* \"#utility.yul\":3702:3735   */\n  slt\n    /* \"#utility.yul\":3699:3819   */\n  iszero\n  tag_94\n  jumpi\n    /* \"#utility.yul\":3738:3817   */\n  tag_95\n  tag_96\n  jump\t// in\ntag_95:\n    /* \"#utility.yul\":3699:3819   */\ntag_94:\n    /* \"#utility.yul\":3858:3859   */\n  0x00\n    /* \"#utility.yul\":3883:3947   */\n  tag_97\n    /* \"#utility.yul\":3939:3946   */\n  dup10\n    /* \"#utility.yul\":3930:3936   */\n  dup3\n    /* \"#utility.yul\":3919:3928   */\n  dup11\n    /* \"#utility.yul\":3915:3937   */\n  add\n    /* \"#utility.yul\":3883:3947   */\n  tag_48\n  jump\t// in\ntag_97:\n    /* \"#utility.yul\":3873:3947   */\n  swap7\n  pop\n    /* \"#utility.yul\":3829:3957   */\n  pop\n    /* \"#utility.yul\":4017:4019   */\n  0x20\n    /* \"#utility.yul\":4006:4015   */\n  dup8\n    /* \"#utility.yul\":4002:4020   */\n  add\n    /* \"#utility.yul\":3996:4021   */\n  mload\n    /* \"#utility.yul\":4048:4066   */\n  0xffffffffffffffff\n    /* \"#utility.yul\":4040:4046   */\n  dup2\n    /* \"#utility.yul\":4037:4067   */\n  gt\n    /* \"#utility.yul\":4034:4151   */\n  iszero\n  tag_98\n  jumpi\n    /* \"#utility.yul\":4070:4149   */\n  tag_99\n  tag_100\n  jump\t// in\ntag_99:\n    /* \"#utility.yul\":4034:4151   */\ntag_98:\n    /* \"#utility.yul\":4175:4249   */\n  tag_101\n    /* \"#utility.yul\":4241:4248   */\n  dup10\n    /* \"#utility.yul\":4232:4238   */\n  dup3\n    /* \"#utility.yul\":4221:4230   */\n  dup11\n    /* \"#utility.yul\":4217:4239   */\n  add\n    /* \"#utility.yul\":4175:4249   */\n  tag_85\n  jump\t// in\ntag_101:\n    /* \"#utility.yul\":4165:4249   */\n  swap6\n  pop\n    /* \"#utility.yul\":3967:4259   */\n  pop\n    /* \"#utility.yul\":4319:4321   */\n  0x40\n    /* \"#utility.yul\":4308:4317   */\n  dup8\n    /* \"#utility.yul\":4304:4322   */\n  add\n    /* \"#utility.yul\":4298:4323   */\n  mload\n    /* \"#utility.yul\":4350:4368   */\n  0xffffffffffffffff\n    /* \"#utility.yul\":4342:4348   */\n  dup2\n    /* \"#utility.yul\":4339:4369   */\n  gt\n    /* \"#utility.yul\":4336:4453   */\n  iszero\n  tag_102\n  jumpi\n    /* \"#utility.yul\":4372:4451   */\n  tag_103\n  tag_100\n  jump\t// in\ntag_103:\n    /* \"#utility.yul\":4336:4453   */\ntag_102:\n    /* \"#utility.yul\":4477:4551   */\n  tag_104\n    /* \"#utility.yul\":4543:4550   */\n  dup10\n    /* \"#utility.yul\":4534:4540   */\n  dup3\n    /* \"#utility.yul\":4523:4532   */\n  dup11\n    /* \"#utility.yul\":4519:4541   */\n  add\n    /* \"#utility.yul\":4477:4551   */\n  tag_85\n  jump\t// in\ntag_104:\n    /* \"#utility.yul\":4467:4551   */\n  swap5\n  pop\n    /* \"#utility.yul\":4269:4561   */\n  pop\n    /* \"#utility.yul\":4621:4623   */\n  0x60\n    /* \"#utility.yul\":4610:4619   */\n  dup8\n    /* \"#utility.yul\":4606:4624   */\n  add\n    /* \"#utility.yul\":4600:4625   */\n  mload\n    /* \"#utility.yul\":4652:4670   */\n  0xffffffffffffffff\n    /* \"#utility.yul\":4644:4650   */\n  dup2\n    /* \"#utility.yul\":4641:4671   */\n  gt\n    /* \"#utility.yul\":4638:4755   */\n  iszero\n  tag_105\n  jumpi\n    /* \"#utility.yul\":4674:4753   */\n  tag_106\n  tag_100\n  jump\t// in\ntag_106:\n    /* \"#utility.yul\":4638:4755   */\ntag_105:\n    /* \"#utility.yul\":4779:4868   */\n  tag_107\n    /* \"#utility.yul\":4860:4867   */\n  dup10\n    /* \"#utility.yul\":4851:4857   */\n  dup3\n    /* \"#utility.yul\":4840:4849   */\n  dup11\n    /* \"#utility.yul\":4836:4858   */\n  add\n    /* \"#utility.yul\":4779:4868   */\n  tag_74\n  jump\t// in\ntag_107:\n    /* \"#utility.yul\":4769:4868   */\n  swap4\n  pop\n    /* \"#utility.yul\":4571:4878   */\n  pop\n    /* \"#utility.yul\":4938:4941   */\n  0x80\n    /* \"#utility.yul\":4927:4936   */\n  dup8\n    /* \"#utility.yul\":4923:4942   */\n  add\n    /* \"#utility.yul\":4917:4943   */\n  mload\n    /* \"#utility.yul\":4970:4988   */\n  0xffffffffffffffff\n    /* \"#utility.yul\":4962:4968   */\n  dup2\n    /* \"#utility.yul\":4959:4989   */\n  gt\n    /* \"#utility.yul\":4956:5073   */\n  iszero\n  tag_108\n  jumpi\n    /* \"#utility.yul\":4992:5071   */\n  tag_109\n  tag_100\n  jump\t// in\ntag_109:\n    /* \"#utility.yul\":4956:5073   */\ntag_108:\n    /* \"#utility.yul\":5097:5186   */\n  tag_110\n    /* \"#utility.yul\":5178:5185   */\n  dup10\n    /* \"#utility.yul\":5169:5175   */\n  dup3\n    /* \"#utility.yul\":5158:5167   */\n  dup11\n    /* \"#utility.yul\":5154:5176   */\n  add\n    /* \"#utility.yul\":5097:5186   */\n  tag_80\n  jump\t// in\ntag_110:\n    /* \"#utility.yul\":5087:5186   */\n  swap3\n  pop\n    /* \"#utility.yul\":4888:5196   */\n  pop\n    /* \"#utility.yul\":5235:5238   */\n  0xa0\n    /* \"#utility.yul\":5262:5326   */\n  tag_111\n    /* \"#utility.yul\":5318:5325   */\n  dup10\n    /* \"#utility.yul\":5309:5315   */\n  dup3\n    /* \"#utility.yul\":5298:5307   */\n  dup11\n    /* \"#utility.yul\":5294:5316   */\n  add\n    /* \"#utility.yul\":5262:5326   */\n  tag_60\n  jump\t// in\ntag_111:\n    /* \"#utility.yul\":5252:5326   */\n  swap2\n  pop\n    /* \"#utility.yul\":5206:5336   */\n  pop\n    /* \"#utility.yul\":3457:5343   */\n  swap3\n  swap6\n  pop\n  swap3\n  swap6\n  pop\n  swap3\n  swap6\n  jump\t// out\n    /* \"#utility.yul\":5349:5478   */\ntag_40:\n    /* \"#utility.yul\":5383:5389   */\n  0x00\n    /* \"#utility.yul\":5410:5430   */\n  tag_113\n  tag_114\n  jump\t// in\ntag_113:\n    /* \"#utility.yul\":5400:5430   */\n  swap1\n  pop\n    /* \"#utility.yul\":5439:5472   */\n  tag_115\n    /* \"#utility.yul\":5467:5471   */\n  dup3\n    /* \"#utility.yul\":5459:5465   */\n  dup3\n    /* \"#utility.yul\":5439:5472   */\n  tag_116\n  jump\t// in\ntag_115:\n    /* \"#utility.yul\":5349:5478   */\n  swap2\n  swap1\n  pop\n  jump\t// out\n    /* \"#utility.yul\":5484:5559   */\ntag_114:\n    /* \"#utility.yul\":5517:5523   */\n  0x00\n    /* \"#utility.yul\":5550:5552   */\n  0x40\n    /* \"#utility.yul\":5544:5553   */\n  mload\n    /* \"#utility.yul\":5534:5553   */\n  swap1\n  pop\n    /* \"#utility.yul\":5484:5559   */\n  swap1\n  jump\t// out\n    /* \"#utility.yul\":5565:5876   */\ntag_39:\n    /* \"#utility.yul\":5642:5646   */\n  0x00\n    /* \"#utility.yul\":5732:5750   */\n  0xffffffffffffffff\n    /* \"#utility.yul\":5724:5730   */\n  dup3\n    /* \"#utility.yul\":5721:5751   */\n  gt\n    /* \"#utility.yul\":5718:5774   */\n  iszero\n  tag_119\n  jumpi\n    /* \"#utility.yul\":5754:5772   */\n  tag_120\n  tag_121\n  jump\t// in\ntag_120:\n    /* \"#utility.yul\":5718:5774   */\ntag_119:\n    /* \"#utility.yul\":5804:5808   */\n  0x20\n    /* \"#utility.yul\":5796:5802   */\n  dup3\n    /* \"#utility.yul\":5792:5809   */\n  mul\n    /* \"#utility.yul\":5784:5809   */\n  swap1\n  pop\n    /* \"#utility.yul\":5864:5868   */\n  0x20\n    /* \"#utility.yul\":5858:5862   */\n  dup2\n    /* \"#utility.yul\":5854:5869   */\n  add\n    /* \"#utility.yul\":5846:5869   */\n  swap1\n  pop\n    /* \"#utility.yul\":5565:5876   */\n  swap2\n  swap1\n  pop\n  jump\t// out\n    /* \"#utility.yul\":5882:6193   */\ntag_53:\n    /* \"#utility.yul\":5959:5963   */\n  0x00\n    /* \"#utility.yul\":6049:6067   */\n  0xffffffffffffffff\n    /* \"#utility.yul\":6041:6047   */\n  dup3\n    /* \"#utility.yul\":6038:6068   */\n  gt\n    /* \"#utility.yul\":6035:6091   */\n  iszero\n  tag_123\n  jumpi\n    /* \"#utility.yul\":6071:6089   */\n  tag_124\n  tag_121\n  jump\t// in\ntag_124:\n    /* \"#utility.yul\":6035:6091   */\ntag_123:\n    /* \"#utility.yul\":6121:6125   */\n  0x20\n    /* \"#utility.yul\":6113:6119   */\n  dup3\n    /* \"#utility.yul\":6109:6126   */\n  mul\n    /* \"#utility.yul\":6101:6126   */\n  swap1\n  pop\n    /* \"#utility.yul\":6181:6185   */\n  0x20\n    /* \"#utility.yul\":6175:6179   */\n  dup2\n    /* \"#utility.yul\":6171:6186   */\n  add\n    /* \"#utility.yul\":6163:6186   */\n  swap1\n  pop\n    /* \"#utility.yul\":5882:6193   */\n  swap2\n  swap1\n  pop\n  jump\t// out\n    /* \"#utility.yul\":6199:6507   */\ntag_65:\n    /* \"#utility.yul\":6261:6265   */\n  0x00\n    /* \"#utility.yul\":6351:6369   */\n  0xffffffffffffffff\n    /* \"#utility.yul\":6343:6349   */\n  dup3\n    /* \"#utility.yul\":6340:6370   */\n  gt\n    /* \"#utility.yul\":6337:6393   */\n  iszero\n  tag_126\n  jumpi\n    /* \"#utility.yul\":6373:6391   */\n  tag_127\n  tag_121\n  jump\t// in\ntag_127:\n    /* \"#utility.yul\":6337:6393   */\ntag_126:\n    /* \"#utility.yul\":6411:6440   */\n  tag_128\n    /* \"#utility.yul\":6433:6439   */\n  dup3\n    /* \"#utility.yul\":6411:6440   */\n  tag_129\n  jump\t// in\ntag_128:\n    /* \"#utility.yul\":6403:6440   */\n  swap1\n  pop\n    /* \"#utility.yul\":6495:6499   */\n  0x20\n    /* \"#utility.yul\":6489:6493   */\n  dup2\n    /* \"#utility.yul\":6485:6500   */\n  add\n    /* \"#utility.yul\":6477:6500   */\n  swap1\n  pop\n    /* \"#utility.yul\":6199:6507   */\n  swap2\n  swap1\n  pop\n  jump\t// out\n    /* \"#utility.yul\":6513:6609   */\ntag_130:\n    /* \"#utility.yul\":6550:6557   */\n  0x00\n    /* \"#utility.yul\":6579:6603   */\n  tag_132\n    /* \"#utility.yul\":6597:6602   */\n  dup3\n    /* \"#utility.yul\":6579:6603   */\n  tag_133\n  jump\t// in\ntag_132:\n    /* \"#utility.yul\":6568:6603   */\n  swap1\n  pop\n    /* \"#utility.yul\":6513:6609   */\n  swap2\n  swap1\n  pop\n  jump\t// out\n    /* \"#utility.yul\":6615:6741   */\ntag_133:\n    /* \"#utility.yul\":6652:6659   */\n  0x00\n    /* \"#utility.yul\":6692:6734   */\n  0xffffffffffffffffffffffffffffffffffffffff\n    /* \"#utility.yul\":6685:6690   */\n  dup3\n    /* \"#utility.yul\":6681:6735   */\n  and\n    /* \"#utility.yul\":6670:6735   */\n  swap1\n  pop\n    /* \"#utility.yul\":6615:6741   */\n  swap2\n  swap1\n  pop\n  jump\t// out\n    /* \"#utility.yul\":6747:6824   */\ntag_135:\n    /* \"#utility.yul\":6784:6791   */\n  0x00\n    /* \"#utility.yul\":6813:6818   */\n  dup2\n    /* \"#utility.yul\":6802:6818   */\n  swap1\n  pop\n    /* \"#utility.yul\":6747:6824   */\n  swap2\n  swap1\n  pop\n  jump\t// out\n    /* \"#utility.yul\":6830:7137   */\ntag_70:\n    /* \"#utility.yul\":6898:6899   */\n  0x00\n    /* \"#utility.yul\":6908:7021   */\ntag_138:\n    /* \"#utility.yul\":6922:6928   */\n  dup4\n    /* \"#utility.yul\":6919:6920   */\n  dup2\n    /* \"#utility.yul\":6916:6929   */\n  lt\n    /* \"#utility.yul\":6908:7021   */\n  iszero\n  tag_140\n  jumpi\n    /* \"#utility.yul\":7007:7008   */\n  dup1\n    /* \"#utility.yul\":7002:7005   */\n  dup3\n    /* \"#utility.yul\":6998:7009   */\n  add\n    /* \"#utility.yul\":6992:7010   */\n  mload\n    /* \"#utility.yul\":6988:6989   */\n  dup2\n    /* \"#utility.yul\":6983:6986   */\n  dup5\n    /* \"#utility.yul\":6979:6990   */\n  add\n    /* \"#utility.yul\":6972:7011   */\n  mstore\n    /* \"#utility.yul\":6944:6946   */\n  0x20\n    /* \"#utility.yul\":6941:6942   */\n  dup2\n    /* \"#utility.yul\":6937:6947   */\n  add\n    /* \"#utility.yul\":6932:6947   */\n  swap1\n  pop\n    /* \"#utility.yul\":6908:7021   */\n  jump(tag_138)\ntag_140:\n    /* \"#utility.yul\":7039:7045   */\n  dup4\n    /* \"#utility.yul\":7036:7037   */\n  dup2\n    /* \"#utility.yul\":7033:7046   */\n  gt\n    /* \"#utility.yul\":7030:7131   */\n  iszero\n  tag_141\n  jumpi\n    /* \"#utility.yul\":7119:7120   */\n  0x00\n    /* \"#utility.yul\":7110:7116   */\n  dup5\n    /* \"#utility.yul\":7105:7108   */\n  dup5\n    /* \"#utility.yul\":7101:7117   */\n  add\n    /* \"#utility.yul\":7094:7121   */\n  mstore\n    /* \"#utility.yul\":7030:7131   */\ntag_141:\n    /* \"#utility.yul\":6879:7137   */\n  pop\n    /* \"#utility.yul\":6830:7137   */\n  pop\n  pop\n  pop\n  jump\t// out\n    /* \"#utility.yul\":7143:7463   */\ntag_24:\n    /* \"#utility.yul\":7187:7193   */\n  0x00\n    /* \"#utility.yul\":7224:7225   */\n  0x02\n    /* \"#utility.yul\":7218:7222   */\n  dup3\n    /* \"#utility.yul\":7214:7226   */\n  div\n    /* \"#utility.yul\":7204:7226   */\n  swap1\n  pop\n    /* \"#utility.yul\":7271:7272   */\n  0x01\n    /* \"#utility.yul\":7265:7269   */\n  dup3\n    /* \"#utility.yul\":7261:7273   */\n  and\n    /* \"#utility.yul\":7292:7310   */\n  dup1\n    /* \"#utility.yul\":7282:7363   */\n  tag_143\n  jumpi\n    /* \"#utility.yul\":7348:7352   */\n  0x7f\n    /* \"#utility.yul\":7340:7346   */\n  dup3\n    /* \"#utility.yul\":7336:7353   */\n  and\n    /* \"#utility.yul\":7326:7353   */\n  swap2\n  pop\n    /* \"#utility.yul\":7282:7363   */\ntag_143:\n    /* \"#utility.yul\":7410:7412   */\n  0x20\n    /* \"#utility.yul\":7402:7408   */\n  dup3\n    /* \"#utility.yul\":7399:7413   */\n  lt\n    /* \"#utility.yul\":7379:7397   */\n  dup2\n    /* \"#utility.yul\":7376:7414   */\n  eq\n    /* \"#utility.yul\":7373:7457   */\n  iszero\n  tag_144\n  jumpi\n    /* \"#utility.yul\":7429:7447   */\n  tag_145\n  tag_146\n  jump\t// in\ntag_145:\n    /* \"#utility.yul\":7373:7457   */\ntag_144:\n    /* \"#utility.yul\":7194:7463   */\n  pop\n    /* \"#utility.yul\":7143:7463   */\n  swap2\n  swap1\n  pop\n  jump\t// out\n    /* \"#utility.yul\":7469:7750   */\ntag_116:\n    /* \"#utility.yul\":7552:7579   */\n  tag_148\n    /* \"#utility.yul\":7574:7578   */\n  dup3\n    /* \"#utility.yul\":7552:7579   */\n  tag_129\n  jump\t// in\ntag_148:\n    /* \"#utility.yul\":7544:7550   */\n  dup2\n    /* \"#utility.yul\":7540:7580   */\n  add\n    /* \"#utility.yul\":7682:7688   */\n  dup2\n    /* \"#utility.yul\":7670:7680   */\n  dup2\n    /* \"#utility.yul\":7667:7689   */\n  lt\n    /* \"#utility.yul\":7646:7664   */\n  0xffffffffffffffff\n    /* \"#utility.yul\":7634:7644   */\n  dup3\n    /* \"#utility.yul\":7631:7665   */\n  gt\n    /* \"#utility.yul\":7628:7690   */\n  or\n    /* \"#utility.yul\":7625:7713   */\n  iszero\n  tag_149\n  jumpi\n    /* \"#utility.yul\":7693:7711   */\n  tag_150\n  tag_121\n  jump\t// in\ntag_150:\n    /* \"#utility.yul\":7625:7713   */\ntag_149:\n    /* \"#utility.yul\":7733:7743   */\n  dup1\n    /* \"#utility.yul\":7729:7731   */\n  0x40\n    /* \"#utility.yul\":7722:7744   */\n  mstore\n    /* \"#utility.yul\":7512:7750   */\n  pop\n    /* \"#utility.yul\":7469:7750   */\n  pop\n  pop\n  jump\t// out\n    /* \"#utility.yul\":7756:7989   */\ntag_18:\n    /* \"#utility.yul\":7795:7798   */\n  0x00\n    /* \"#utility.yul\":7818:7842   */\n  tag_152\n    /* \"#utility.yul\":7836:7841   */\n  dup3\n    /* \"#utility.yul\":7818:7842   */\n  tag_135\n  jump\t// in\ntag_152:\n    /* \"#utility.yul\":7809:7842   */\n  swap2\n  pop\n    /* \"#utility.yul\":7864:7930   */\n  0xffffffffffffffffffffffffffffffffffffffffffffffffffffffffffffffff\n    /* \"#utility.yul\":7857:7862   */\n  dup3\n    /* \"#utility.yul\":7854:7931   */\n  eq\n    /* \"#utility.yul\":7851:7954   */\n  iszero\n  tag_153\n  jumpi\n    /* \"#utility.yul\":7934:7952   */\n  tag_154\n  tag_155\n  jump\t// in\ntag_154:\n    /* \"#utility.yul\":7851:7954   */\ntag_153:\n    /* \"#utility.yul\":7981:7982   */\n  0x01\n    /* \"#utility.yul\":7974:7979   */\n  dup3\n    /* \"#utility.yul\":7970:7983   */\n  add\n    /* \"#utility.yul\":7963:7983   */\n  swap1\n  pop\n    /* \"#utility.yul\":7756:7989   */\n  swap2\n  swap1\n  pop\n  jump\t// out\n    /* \"#utility.yul\":7995:8175   */\ntag_155:\n    /* \"#utility.yul\":8043:8120   */\n  0x4e487b7100000000000000000000000000000000000000000000000000000000\n    /* \"#utility.yul\":8040:8041   */\n  0x00\n    /* \"#utility.yul\":8033:8121   */\n  mstore\n    /* \"#utility.yul\":8140:8144   */\n  0x11\n    /* \"#utility.yul\":8137:8138   */\n  0x04\n    /* \"#utility.yul\":8130:8145   */\n  mstore\n    /* \"#utility.yul\":8164:8168   */\n  0x24\n    /* \"#utility.yul\":8161:8162   */\n  0x00\n    /* \"#utility.yul\":8154:8169   */\n  revert\n    /* \"#utility.yul\":8181:8361   */\ntag_146:\n    /* \"#utility.yul\":8229:8306   */\n  0x4e487b7100000000000000000000000000000000000000000000000000000000\n    /* \"#utility.yul\":8226:8227   */\n  0x00\n    /* \"#utility.yul\":8219:8307   */\n  mstore\n    /* \"#utility.yul\":8326:8330   */\n  0x22\n    /* \"#utility.yul\":8323:8324   */\n  0x04\n    /* \"#utility.yul\":8316:8331   */\n  mstore\n    /* \"#utility.yul\":8350:8354   */\n  0x24\n    /* \"#utility.yul\":8347:8348   */\n  0x00\n    /* \"#utility.yul\":8340:8355   */\n  revert\n    /* \"#utility.yul\":8367:8547   */\ntag_11:\n    /* \"#utility.yul\":8415:8492   */\n  0x4e487b7100000000000000000000000000000000000000000000000000000000\n    /* \"#utility.yul\":8412:8413   */\n  0x00\n    /* \"#utility.yul\":8405:8493   */\n  mstore\n    /* \"#utility.yul\":8512:8516   */\n  0x32\n    /* \"#utility.yul\":8509:8510   */\n  0x04\n    /* \"#utility.yul\":8502:8517   */\n  mstore\n    /* \"#utility.yul\":8536:8540   */\n  0x24\n    /* \"#utility.yul\":8533:8534   */\n  0x00\n    /* \"#utility.yul\":8526:8541   */\n  revert\n    /* \"#utility.yul\":8553:8733   */\ntag_121:\n    /* \"#utility.yul\":8601:8678   */\n  0x4e487b7100000000000000000000000000000000000000000000000000000000\n    /* \"#utility.yul\":8598:8599   */\n  0x00\n    /* \"#utility.yul\":8591:8679   */\n  mstore\n    /* \"#utility.yul\":8698:8702   */\n  0x41\n    /* \"#utility.yul\":8695:8696   */\n  0x04\n    /* \"#utility.yul\":8688:8703   */\n  mstore\n    /* \"#utility.yul\":8722:8726   */\n  0x24\n    /* \"#utility.yul\":8719:8720   */\n  0x00\n    /* \"#utility.yul\":8712:8727   */\n  revert\n    /* \"#utility.yul\":8739:8856   */\ntag_78:\n    /* \"#utility.yul\":8848:8849   */\n  0x00\n    /* \"#utility.yul\":8845:8846   */\n  dup1\n    /* \"#utility.yul\":8838:8850   */\n  revert\n    /* \"#utility.yul\":8862:8979   */\ntag_43:\n    /* \"#utility.yul\":8971:8972   */\n  0x00\n    /* \"#utility.yul\":8968:8969   */\n  dup1\n    /* \"#utility.yul\":8961:8973   */\n  revert\n    /* \"#utility.yul\":8985:9102   */\ntag_68:\n    /* \"#utility.yul\":9094:9095   */\n  0x00\n    /* \"#utility.yul\":9091:9092   */\n  dup1\n    /* \"#utility.yul\":9084:9096   */\n  revert\n    /* \"#utility.yul\":9108:9225   */\ntag_100:\n    /* \"#utility.yul\":9217:9218   */\n  0x00\n    /* \"#utility.yul\":9214:9215   */\n  dup1\n    /* \"#utility.yul\":9207:9219   */\n  revert\n    /* \"#utility.yul\":9231:9348   */\ntag_96:\n    /* \"#utility.yul\":9340:9341   */\n  0x00\n    /* \"#utility.yul\":9337:9338   */\n  dup1\n    /* \"#utility.yul\":9330:9342   */\n  revert\n    /* \"#utility.yul\":9354:9456   */\ntag_129:\n    /* \"#utility.yul\":9395:9401   */\n  0x00\n    /* \"#utility.yul\":9446:9448   */\n  0x1f\n    /* \"#utility.yul\":9442:9449   */\n  not\n    /* \"#utility.yul\":9437:9439   */\n  0x1f\n    /* \"#utility.yul\":9430:9435   */\n  dup4\n    /* \"#utility.yul\":9426:9440   */\n  add\n    /* \"#utility.yul\":9422:9450   */\n  and\n    /* \"#utility.yul\":9412:9450   */\n  swap1\n  pop\n    /* \"#utility.yul\":9354:9456   */\n  swap2\n  swap1\n  pop\n  jump\t// out\n    /* \"#utility.yul\":9462:9584   */\ntag_73:\n    /* \"#utility.yul\":9535:9559   */\n  tag_167\n    /* \"#utility.yul\":9553:9558   */\n  dup2\n    /* \"#utility.yul\":9535:9559   */\n  tag_130\n  jump\t// in\ntag_167:\n    /* \"#utility.yul\":9528:9533   */\n  dup2\n    /* \"#utility.yul\":9525:9560   */\n  eq\n    /* \"#utility.yul\":9515:9578   */\n  tag_168\n  jumpi\n    /* \"#utility.yul\":9574:9575   */\n  0x00\n    /* \"#utility.yul\":9571:9572   */\n  dup1\n    /* \"#utility.yul\":9564:9576   */\n  revert\n    /* \"#utility.yul\":9515:9578   */\ntag_168:\n    /* \"#utility.yul\":9462:9584   */\n  pop\n  jump\t// out\n    /* \"#utility.yul\":9590:9712   */\ntag_92:\n    /* \"#utility.yul\":9663:9687   */\n  tag_170\n    /* \"#utility.yul\":9681:9686   */\n  dup2\n    /* \"#utility.yul\":9663:9687   */\n  tag_135\n  jump\t// in\ntag_170:\n    /* \"#utility.yul\":9656:9661   */\n  dup2\n    /* \"#utility.yul\":9653:9688   */\n  eq\n    /* \"#utility.yul\":9643:9706   */\n  tag_171\n  jumpi\n    /* \"#utility.yul\":9702:9703   */\n  0x00\n    /* \"#utility.yul\":9699:9700   */\n  dup1\n    /* \"#utility.yul\":9692:9704   */\n  revert\n    /* \"#utility.yul\":9643:9706   */\ntag_171:\n    /* \"#utility.yul\":9590:9712   */\n  pop\n  jump\t// out\n    /* \"tron/tokeniz.sol\":177:2581  contract Tokeniz{\r... */\ntag_22:\n  dataSize(sub_0)\n  dup1\n  dataOffset(sub_0)\n  0x00\n  codecopy\n  0x00\n  return\nstop\n\nsub_0: assembly {\n        /* \"tron/tokeniz.sol\":177:2581  contract Tokeniz{\r... */\n      mstore(0x40, 0x80)\n      callvalue\n      dup1\n      iszero\n      tag_1\n      jumpi\n      0x00\n      dup1\n      revert\n    tag_1:\n      pop\n      jumpi(tag_2, lt(calldatasize, 0x04))\n      shr(0xe0, calldataload(0x00))\n      dup1\n      0x8f23d5f6\n      gt\n      tag_13\n      jumpi\n      dup1\n      0x8f23d5f6\n      eq\n      tag_8\n      jumpi\n      dup1\n      0x90d524a2\n      eq\n      tag_9\n      jumpi\n      dup1\n      0xe2c42e66\n      eq\n      tag_10\n      jumpi\n      dup1\n      0xeedc966a\n      eq\n      tag_11\n      jumpi\n      dup1\n      0xf7aca939\n      eq\n      tag_12\n      jumpi\n      jump(tag_2)\n    tag_13:\n      dup1\n      0x06fdde03\n      eq\n      tag_3\n      jumpi\n      dup1\n      0x17d70f7c\n      eq\n      tag_4\n      jumpi\n      dup1\n      0x3c130d90\n      eq\n      tag_5\n      jumpi\n      dup1\n      0x767800de\n      eq\n      tag_6\n      jumpi\n      dup1\n      0x8da5cb5b\n      eq\n      tag_7\n      jumpi\n    tag_2:\n      0x00\n      dup1\n      revert\n        /* \"tron/tokeniz.sol\":316:334  string public name */\n    tag_3:\n      tag_14\n      tag_15\n      jump\t// in\n    tag_14:\n      mload(0x40)\n      tag_16\n      swap2\n      swap1\n      tag_17\n      jump\t// in\n    tag_16:\n      mload(0x40)\n      dup1\n      swap2\n      sub\n      swap1\n      return\n        /* \"tron/tokeniz.sol\":431:453  uint256 public tokenId */\n    tag_4:\n      tag_18\n      tag_19\n      jump\t// in\n    tag_18:\n      mload(0x40)\n      tag_20\n      swap2\n      swap1\n      tag_21\n      jump\t// in\n    tag_20:\n      mload(0x40)\n      dup1\n      swap2\n      sub\n      swap1\n      return\n        /* \"tron/tokeniz.sol\":287:309  string public tokenURI */\n    tag_5:\n      tag_22\n      tag_23\n      jump\t// in\n    tag_22:\n      mload(0x40)\n      tag_24\n      swap2\n      swap1\n      tag_17\n      jump\t// in\n    tag_24:\n      mload(0x40)\n      dup1\n      swap2\n      sub\n      swap1\n      return\n        /* \"tron/tokeniz.sol\":1063:1129  function addr()public view returns(address){return address(this);} */\n    tag_6:\n      tag_25\n      tag_26\n      jump\t// in\n    tag_25:\n      mload(0x40)\n      tag_27\n      swap2\n      swap1\n      tag_28\n      jump\t// in\n    tag_27:\n      mload(0x40)\n      dup1\n      swap2\n      sub\n      swap1\n      return\n        /* \"tron/tokeniz.sol\":235:255  address public owner */\n    tag_7:\n      tag_29\n      tag_30\n      jump\t// in\n    tag_29:\n      mload(0x40)\n      tag_31\n      swap2\n      swap1\n      tag_28\n      jump\t// in\n    tag_31:\n      mload(0x40)\n      dup1\n      swap2\n      sub\n      swap1\n      return\n        /* \"tron/tokeniz.sol\":262:280  bool public packed */\n    tag_8:\n      tag_32\n      tag_33\n      jump\t// in\n    tag_32:\n      mload(0x40)\n      tag_34\n      swap2\n      swap1\n      tag_35\n      jump\t// in\n    tag_34:\n      mload(0x40)\n      dup1\n      swap2\n      sub\n      swap1\n      return\n        /* \"tron/tokeniz.sol\":1224:1770  function unPack() public{\r... */\n    tag_9:\n      tag_36\n      tag_37\n      jump\t// in\n    tag_36:\n      stop\n        /* \"tron/tokeniz.sol\":1135:1212  function isPacked() public view returns(bool){\r... */\n    tag_10:\n      tag_38\n      tag_39\n      jump\t// in\n    tag_38:\n      mload(0x40)\n      tag_40\n      swap2\n      swap1\n      tag_35\n      jump\t// in\n    tag_40:\n      mload(0x40)\n      dup1\n      swap2\n      sub\n      swap1\n      return\n        /* \"tron/tokeniz.sol\":341:385  mapping(address => uint) public tokenBalance */\n    tag_11:\n      tag_41\n      0x04\n      dup1\n      calldatasize\n      sub\n      dup2\n      add\n      swap1\n      tag_42\n      swap2\n      swap1\n      tag_43\n      jump\t// in\n    tag_42:\n      tag_44\n      jump\t// in\n    tag_41:\n      mload(0x40)\n      tag_45\n      swap2\n      swap1\n      tag_21\n      jump\t// in\n    tag_45:\n      mload(0x40)\n      dup1\n      swap2\n      sub\n      swap1\n      return\n        /* \"tron/tokeniz.sol\":392:424  address[] public tokensAddresses */\n    tag_12:\n      tag_46\n      0x04\n      dup1\n      calldatasize\n      sub\n      dup2\n      add\n      swap1\n      tag_47\n      swap2\n      swap1\n      tag_48\n      jump\t// in\n    tag_47:\n      tag_49\n      jump\t// in\n    tag_46:\n      mload(0x40)\n      tag_50\n      swap2\n      swap1\n      tag_28\n      jump\t// in\n    tag_50:\n      mload(0x40)\n      dup1\n      swap2\n      sub\n      swap1\n      return\n        /* \"tron/tokeniz.sol\":316:334  string public name */\n    tag_15:\n      0x03\n      dup1\n      sload\n      tag_51\n      swap1\n      tag_52\n      jump\t// in\n    tag_51:\n      dup1\n      0x1f\n      add\n      0x20\n      dup1\n      swap2\n      div\n      mul\n      0x20\n      add\n      mload(0x40)\n      swap1\n      dup2\n      add\n      0x40\n      mstore\n      dup1\n      swap3\n      swap2\n      swap1\n      dup2\n      dup2\n      mstore\n      0x20\n      add\n      dup3\n      dup1\n      sload\n      tag_53\n      swap1\n      tag_52\n      jump\t// in\n    tag_53:\n      dup1\n      iszero\n      tag_54\n      jumpi\n      dup1\n      0x1f\n      lt\n      tag_55\n      jumpi\n      0x0100\n      dup1\n      dup4\n      sload\n      div\n      mul\n      dup4\n      mstore\n      swap2\n      0x20\n      add\n      swap2\n      jump(tag_54)\n    tag_55:\n      dup3\n      add\n      swap2\n      swap1\n      0x00\n      mstore\n      keccak256(0x00, 0x20)\n      swap1\n    tag_56:\n      dup2\n      sload\n      dup2\n      mstore\n      swap1\n      0x01\n      add\n      swap1\n      0x20\n      add\n      dup1\n      dup4\n      gt\n      tag_56\n      jumpi\n      dup3\n      swap1\n      sub\n      0x1f\n      and\n      dup3\n      add\n      swap2\n    tag_54:\n      pop\n      pop\n      pop\n      pop\n      pop\n      dup2\n      jump\t// out\n        /* \"tron/tokeniz.sol\":431:453  uint256 public tokenId */\n    tag_19:\n      sload(0x06)\n      dup2\n      jump\t// out\n        /* \"tron/tokeniz.sol\":287:309  string public tokenURI */\n    tag_23:\n      0x02\n      dup1\n      sload\n      tag_57\n      swap1\n      tag_52\n      jump\t// in\n    tag_57:\n      dup1\n      0x1f\n      add\n      0x20\n      dup1\n      swap2\n      div\n      mul\n      0x20\n      add\n      mload(0x40)\n      swap1\n      dup2\n      add\n      0x40\n      mstore\n      dup1\n      swap3\n      swap2\n      swap1\n      dup2\n      dup2\n      mstore\n      0x20\n      add\n      dup3\n      dup1\n      sload\n      tag_58\n      swap1\n      tag_52\n      jump\t// in\n    tag_58:\n      dup1\n      iszero\n      tag_59\n      jumpi\n      dup1\n      0x1f\n      lt\n      tag_60\n      jumpi\n      0x0100\n      dup1\n      dup4\n      sload\n      div\n      mul\n      dup4\n      mstore\n      swap2\n      0x20\n      add\n      swap2\n      jump(tag_59)\n    tag_60:\n      dup3\n      add\n      swap2\n      swap1\n      0x00\n      mstore\n      keccak256(0x00, 0x20)\n      swap1\n    tag_61:\n      dup2\n      sload\n      dup2\n      mstore\n      swap1\n      0x01\n      add\n      swap1\n      0x20\n      add\n      dup1\n      dup4\n      gt\n      tag_61\n      jumpi\n      dup3\n      swap1\n      sub\n      0x1f\n      and\n      dup3\n      add\n      swap2\n    tag_59:\n      pop\n      pop\n      pop\n      pop\n      pop\n      dup2\n      jump\t// out\n        /* \"tron/tokeniz.sol\":1063:1129  function addr()public view returns(address){return address(this);} */\n    tag_26:\n        /* \"tron/tokeniz.sol\":1098:1105  address */\n      0x00\n        /* \"tron/tokeniz.sol\":1122:1126  this */\n      address\n        /* \"tron/tokeniz.sol\":1107:1127  return address(this) */\n      swap1\n      pop\n        /* \"tron/tokeniz.sol\":1063:1129  function addr()public view returns(address){return address(this);} */\n      swap1\n      jump\t// out\n        /* \"tron/tokeniz.sol\":235:255  address public owner */\n    tag_30:\n      0x01\n      0x00\n      swap1\n      sload\n      swap1\n      0x0100\n      exp\n      swap1\n      div\n      0xffffffffffffffffffffffffffffffffffffffff\n      and\n      dup2\n      jump\t// out\n        /* \"tron/tokeniz.sol\":262:280  bool public packed */\n    tag_33:\n      0x01\n      0x14\n      swap1\n      sload\n      swap1\n      0x0100\n      exp\n      swap1\n      div\n      0xff\n      and\n      dup2\n      jump\t// out\n        /* \"tron/tokeniz.sol\":1224:1770  function unPack() public{\r... */\n    tag_37:\n        /* \"tron/tokeniz.sol\":1294:1299  owner */\n      0x01\n      0x00\n      swap1\n      sload\n      swap1\n      0x0100\n      exp\n      swap1\n      div\n      0xffffffffffffffffffffffffffffffffffffffff\n      and\n        /* \"tron/tokeniz.sol\":1281:1299  msg.sender== owner */\n      0xffffffffffffffffffffffffffffffffffffffff\n      and\n        /* \"tron/tokeniz.sol\":1281:1291  msg.sender */\n      caller\n        /* \"tron/tokeniz.sol\":1281:1299  msg.sender== owner */\n      0xffffffffffffffffffffffffffffffffffffffff\n      and\n      eq\n        /* \"tron/tokeniz.sol\":1259:1361  require(\r... */\n      tag_64\n      jumpi\n      mload(0x40)\n      0x08c379a000000000000000000000000000000000000000000000000000000000\n      dup2\n      mstore\n      0x04\n      add\n      tag_65\n      swap1\n      tag_66\n      jump\t// in\n    tag_65:\n      mload(0x40)\n      dup1\n      swap2\n      sub\n      swap1\n      revert\n    tag_64:\n        /* \"tron/tokeniz.sol\":1380:1386  packed */\n      0x01\n      0x14\n      swap1\n      sload\n      swap1\n      0x0100\n      exp\n      swap1\n      div\n      0xff\n      and\n        /* \"tron/tokeniz.sol\":1372:1415  require(packed, \"Already unpacked Tokeniz\") */\n      tag_67\n      jumpi\n      mload(0x40)\n      0x08c379a000000000000000000000000000000000000000000000000000000000\n      dup2\n      mstore\n      0x04\n      add\n      tag_68\n      swap1\n      tag_69\n      jump\t// in\n    tag_68:\n      mload(0x40)\n      dup1\n      swap2\n      sub\n      swap1\n      revert\n    tag_67:\n        /* \"tron/tokeniz.sol\":1434:1439  owner */\n      0x01\n      0x00\n      swap1\n      sload\n      swap1\n      0x0100\n      exp\n      swap1\n      div\n      0xffffffffffffffffffffffffffffffffffffffff\n      and\n        /* \"tron/tokeniz.sol\":1426:1449  payable(owner).transfer */\n      0xffffffffffffffffffffffffffffffffffffffff\n      and\n        /* \"tron/tokeniz.sol\":1426:1472  payable(owner).transfer(address(this).balance) */\n      0x08fc\n        /* \"tron/tokeniz.sol\":1450:1471  address(this).balance */\n      selfbalance\n        /* \"tron/tokeniz.sol\":1426:1472  payable(owner).transfer(address(this).balance) */\n      swap1\n      dup2\n      iszero\n      mul\n      swap1\n      mload(0x40)\n      0x00\n      mload(0x40)\n      dup1\n      dup4\n      sub\n      dup2\n      dup6\n      dup9\n      dup9\n      call\n      swap4\n      pop\n      pop\n      pop\n      pop\n      iszero\n      dup1\n      iszero\n      tag_71\n      jumpi\n      returndatasize\n      0x00\n      dup1\n      returndatacopy\n      revert(0x00, returndatasize)\n    tag_71:\n      pop\n        /* \"tron/tokeniz.sol\":1488:1494  uint i */\n      0x00\n        /* \"tron/tokeniz.sol\":1483:1739  for (uint i = 0; i < tokensAddresses.length; i++) {\r... */\n    tag_72:\n        /* \"tron/tokeniz.sol\":1504:1519  tokensAddresses */\n      0x05\n        /* \"tron/tokeniz.sol\":1504:1526  tokensAddresses.length */\n      dup1\n      sload\n      swap1\n      pop\n        /* \"tron/tokeniz.sol\":1500:1501  i */\n      dup2\n        /* \"tron/tokeniz.sol\":1500:1526  i < tokensAddresses.length */\n      lt\n        /* \"tron/tokeniz.sol\":1483:1739  for (uint i = 0; i < tokensAddresses.length; i++) {\r... */\n      iszero\n      tag_73\n      jumpi\n        /* \"tron/tokeniz.sol\":1548:1571  address _tokenContracts */\n      0x00\n        /* \"tron/tokeniz.sol\":1573:1588  tokensAddresses */\n      0x05\n        /* \"tron/tokeniz.sol\":1589:1590  i */\n      dup3\n        /* \"tron/tokeniz.sol\":1573:1591  tokensAddresses[i] */\n      dup2\n      sload\n      dup2\n      lt\n      tag_75\n      jumpi\n      tag_76\n      tag_77\n      jump\t// in\n    tag_76:\n    tag_75:\n      swap1\n      0x00\n      mstore\n      keccak256(0x00, 0x20)\n      add\n      0x00\n      swap1\n      sload\n      swap1\n      0x0100\n      exp\n      swap1\n      div\n      0xffffffffffffffffffffffffffffffffffffffff\n      and\n        /* \"tron/tokeniz.sol\":1548:1591  address _tokenContracts= tokensAddresses[i] */\n      swap1\n      pop\n        /* \"tron/tokeniz.sol\":1606:1626  IERC20 tokenContract */\n      0x00\n        /* \"tron/tokeniz.sol\":1636:1651  _tokenContracts */\n      dup2\n        /* \"tron/tokeniz.sol\":1606:1652  IERC20 tokenContract = IERC20(_tokenContracts) */\n      swap1\n      pop\n        /* \"tron/tokeniz.sol\":1667:1680  tokenContract */\n      dup1\n        /* \"tron/tokeniz.sol\":1667:1689  tokenContract.transfer */\n      0xffffffffffffffffffffffffffffffffffffffff\n      and\n      0xa9059cbb\n        /* \"tron/tokeniz.sol\":1690:1695  owner */\n      0x01\n      0x00\n      swap1\n      sload\n      swap1\n      0x0100\n      exp\n      swap1\n      div\n      0xffffffffffffffffffffffffffffffffffffffff\n      and\n        /* \"tron/tokeniz.sol\":1697:1709  tokenBalance */\n      0x04\n        /* \"tron/tokeniz.sol\":1697:1726  tokenBalance[_tokenContracts] */\n      0x00\n        /* \"tron/tokeniz.sol\":1710:1725  _tokenContracts */\n      dup7\n        /* \"tron/tokeniz.sol\":1697:1726  tokenBalance[_tokenContracts] */\n      0xffffffffffffffffffffffffffffffffffffffff\n      and\n      0xffffffffffffffffffffffffffffffffffffffff\n      and\n      dup2\n      mstore\n      0x20\n      add\n      swap1\n      dup2\n      mstore\n      0x20\n      add\n      0x00\n      keccak256\n      sload\n        /* \"tron/tokeniz.sol\":1667:1727  tokenContract.transfer(owner, tokenBalance[_tokenContracts]) */\n      mload(0x40)\n      dup4\n      0xffffffff\n      and\n      0xe0\n      shl\n      dup2\n      mstore\n      0x04\n      add\n      tag_79\n      swap3\n      swap2\n      swap1\n      tag_80\n      jump\t// in\n    tag_79:\n      0x20\n      mload(0x40)\n      dup1\n      dup4\n      sub\n      dup2\n      0x00\n      dup8\n      dup1\n      extcodesize\n      iszero\n      dup1\n      iszero\n      tag_81\n      jumpi\n      0x00\n      dup1\n      revert\n    tag_81:\n      pop\n      gas\n      call\n      iszero\n      dup1\n      iszero\n      tag_83\n      jumpi\n      returndatasize\n      0x00\n      dup1\n      returndatacopy\n      revert(0x00, returndatasize)\n    tag_83:\n      pop\n      pop\n      pop\n      pop\n      mload(0x40)\n      returndatasize\n      not(0x1f)\n      0x1f\n      dup3\n      add\n      and\n      dup3\n      add\n      dup1\n      0x40\n      mstore\n      pop\n      dup2\n      add\n      swap1\n      tag_84\n      swap2\n      swap1\n      tag_85\n      jump\t// in\n    tag_84:\n      pop\n        /* \"tron/tokeniz.sol\":1533:1739  {\r... */\n      pop\n      pop\n        /* \"tron/tokeniz.sol\":1528:1531  i++ */\n      dup1\n      dup1\n      tag_86\n      swap1\n      tag_87\n      jump\t// in\n    tag_86:\n      swap2\n      pop\n      pop\n        /* \"tron/tokeniz.sol\":1483:1739  for (uint i = 0; i < tokensAddresses.length; i++) {\r... */\n      jump(tag_72)\n    tag_73:\n      pop\n        /* \"tron/tokeniz.sol\":1757:1762  false */\n      0x00\n        /* \"tron/tokeniz.sol\":1749:1755  packed */\n      0x01\n      0x14\n        /* \"tron/tokeniz.sol\":1749:1762  packed= false */\n      0x0100\n      exp\n      dup2\n      sload\n      dup2\n      0xff\n      mul\n      not\n      and\n      swap1\n      dup4\n      iszero\n      iszero\n      mul\n      or\n      swap1\n      sstore\n      pop\n        /* \"tron/tokeniz.sol\":1224:1770  function unPack() public{\r... */\n      jump\t// out\n        /* \"tron/tokeniz.sol\":1135:1212  function isPacked() public view returns(bool){\r... */\n    tag_39:\n        /* \"tron/tokeniz.sol\":1175:1179  bool */\n      0x00\n        /* \"tron/tokeniz.sol\":1198:1204  packed */\n      0x01\n      0x14\n      swap1\n      sload\n      swap1\n      0x0100\n      exp\n      swap1\n      div\n      0xff\n      and\n        /* \"tron/tokeniz.sol\":1191:1204  return packed */\n      swap1\n      pop\n        /* \"tron/tokeniz.sol\":1135:1212  function isPacked() public view returns(bool){\r... */\n      swap1\n      jump\t// out\n        /* \"tron/tokeniz.sol\":341:385  mapping(address => uint) public tokenBalance */\n    tag_44:\n      mstore(0x20, 0x04)\n      dup1\n      0x00\n      mstore\n      keccak256(0x00, 0x40)\n      0x00\n      swap2\n      pop\n      swap1\n      pop\n      sload\n      dup2\n      jump\t// out\n        /* \"tron/tokeniz.sol\":392:424  address[] public tokensAddresses */\n    tag_49:\n      0x05\n      dup2\n      dup2\n      sload\n      dup2\n      lt\n      tag_89\n      jumpi\n      0x00\n      dup1\n      revert\n    tag_89:\n      swap1\n      0x00\n      mstore\n      keccak256(0x00, 0x20)\n      add\n      0x00\n      swap2\n      pop\n      sload\n      swap1\n      0x0100\n      exp\n      swap1\n      div\n      0xffffffffffffffffffffffffffffffffffffffff\n      and\n      dup2\n      jump\t// out\n        /* \"#utility.yul\":7:146   */\n    tag_92:\n        /* \"#utility.yul\":53:58   */\n      0x00\n        /* \"#utility.yul\":91:97   */\n      dup2\n        /* \"#utility.yul\":78:98   */\n      calldataload\n        /* \"#utility.yul\":69:98   */\n      swap1\n      pop\n        /* \"#utility.yul\":107:140   */\n      tag_94\n        /* \"#utility.yul\":134:139   */\n      dup2\n        /* \"#utility.yul\":107:140   */\n      tag_95\n      jump\t// in\n    tag_94:\n        /* \"#utility.yul\":7:146   */\n      swap3\n      swap2\n      pop\n      pop\n      jump\t// out\n        /* \"#utility.yul\":152:289   */\n    tag_96:\n        /* \"#utility.yul\":206:211   */\n      0x00\n        /* \"#utility.yul\":237:243   */\n      dup2\n        /* \"#utility.yul\":231:244   */\n      mload\n        /* \"#utility.yul\":222:244   */\n      swap1\n      pop\n        /* \"#utility.yul\":253:283   */\n      tag_98\n        /* \"#utility.yul\":277:282   */\n      dup2\n        /* \"#utility.yul\":253:283   */\n      tag_99\n      jump\t// in\n    tag_98:\n        /* \"#utility.yul\":152:289   */\n      swap3\n      swap2\n      pop\n      pop\n      jump\t// out\n        /* \"#utility.yul\":295:434   */\n    tag_100:\n        /* \"#utility.yul\":341:346   */\n      0x00\n        /* \"#utility.yul\":379:385   */\n      dup2\n        /* \"#utility.yul\":366:386   */\n      calldataload\n        /* \"#utility.yul\":357:386   */\n      swap1\n      pop\n        /* \"#utility.yul\":395:428   */\n      tag_102\n        /* \"#utility.yul\":422:427   */\n      dup2\n        /* \"#utility.yul\":395:428   */\n      tag_103\n      jump\t// in\n    tag_102:\n        /* \"#utility.yul\":295:434   */\n      swap3\n      swap2\n      pop\n      pop\n      jump\t// out\n        /* \"#utility.yul\":440:769   */\n    tag_43:\n        /* \"#utility.yul\":499:505   */\n      0x00\n        /* \"#utility.yul\":548:550   */\n      0x20\n        /* \"#utility.yul\":536:545   */\n      dup3\n        /* \"#utility.yul\":527:534   */\n      dup5\n        /* \"#utility.yul\":523:546   */\n      sub\n        /* \"#utility.yul\":519:551   */\n      slt\n        /* \"#utility.yul\":516:635   */\n      iszero\n      tag_105\n      jumpi\n        /* \"#utility.yul\":554:633   */\n      tag_106\n      tag_107\n      jump\t// in\n    tag_106:\n        /* \"#utility.yul\":516:635   */\n    tag_105:\n        /* \"#utility.yul\":674:675   */\n      0x00\n        /* \"#utility.yul\":699:752   */\n      tag_108\n        /* \"#utility.yul\":744:751   */\n      dup5\n        /* \"#utility.yul\":735:741   */\n      dup3\n        /* \"#utility.yul\":724:733   */\n      dup6\n        /* \"#utility.yul\":720:742   */\n      add\n        /* \"#utility.yul\":699:752   */\n      tag_92\n      jump\t// in\n    tag_108:\n        /* \"#utility.yul\":689:752   */\n      swap2\n      pop\n        /* \"#utility.yul\":645:762   */\n      pop\n        /* \"#utility.yul\":440:769   */\n      swap3\n      swap2\n      pop\n      pop\n      jump\t// out\n        /* \"#utility.yul\":775:1120   */\n    tag_85:\n        /* \"#utility.yul\":842:848   */\n      0x00\n        /* \"#utility.yul\":891:893   */\n      0x20\n        /* \"#utility.yul\":879:888   */\n      dup3\n        /* \"#utility.yul\":870:877   */\n      dup5\n        /* \"#utility.yul\":866:889   */\n      sub\n        /* \"#utility.yul\":862:894   */\n      slt\n        /* \"#utility.yul\":859:978   */\n      iszero\n      tag_110\n      jumpi\n        /* \"#utility.yul\":897:976   */\n      tag_111\n      tag_107\n      jump\t// in\n    tag_111:\n        /* \"#utility.yul\":859:978   */\n    tag_110:\n        /* \"#utility.yul\":1017:1018   */\n      0x00\n        /* \"#utility.yul\":1042:1103   */\n      tag_112\n        /* \"#utility.yul\":1095:1102   */\n      dup5\n        /* \"#utility.yul\":1086:1092   */\n      dup3\n        /* \"#utility.yul\":1075:1084   */\n      dup6\n        /* \"#utility.yul\":1071:1093   */\n      add\n        /* \"#utility.yul\":1042:1103   */\n      tag_96\n      jump\t// in\n    tag_112:\n        /* \"#utility.yul\":1032:1103   */\n      swap2\n      pop\n        /* \"#utility.yul\":988:1113   */\n      pop\n        /* \"#utility.yul\":775:1120   */\n      swap3\n      swap2\n      pop\n      pop\n      jump\t// out\n        /* \"#utility.yul\":1126:1455   */\n    tag_48:\n        /* \"#utility.yul\":1185:1191   */\n      0x00\n        /* \"#utility.yul\":1234:1236   */\n      0x20\n        /* \"#utility.yul\":1222:1231   */\n      dup3\n        /* \"#utility.yul\":1213:1220   */\n      dup5\n        /* \"#utility.yul\":1209:1232   */\n      sub\n        /* \"#utility.yul\":1205:1237   */\n      slt\n        /* \"#utility.yul\":1202:1321   */\n      iszero\n      tag_114\n      jumpi\n        /* \"#utility.yul\":1240:1319   */\n      tag_115\n      tag_107\n      jump\t// in\n    tag_115:\n        /* \"#utility.yul\":1202:1321   */\n    tag_114:\n        /* \"#utility.yul\":1360:1361   */\n      0x00\n        /* \"#utility.yul\":1385:1438   */\n      tag_116\n        /* \"#utility.yul\":1430:1437   */\n      dup5\n        /* \"#utility.yul\":1421:1427   */\n      dup3\n        /* \"#utility.yul\":1410:1419   */\n      dup6\n        /* \"#utility.yul\":1406:1428   */\n      add\n        /* \"#utility.yul\":1385:1438   */\n      tag_100\n      jump\t// in\n    tag_116:\n        /* \"#utility.yul\":1375:1438   */\n      swap2\n      pop\n        /* \"#utility.yul\":1331:1448   */\n      pop\n        /* \"#utility.yul\":1126:1455   */\n      swap3\n      swap2\n      pop\n      pop\n      jump\t// out\n        /* \"#utility.yul\":1461:1579   */\n    tag_117:\n        /* \"#utility.yul\":1548:1572   */\n      tag_119\n        /* \"#utility.yul\":1566:1571   */\n      dup2\n        /* \"#utility.yul\":1548:1572   */\n      tag_120\n      jump\t// in\n    tag_119:\n        /* \"#utility.yul\":1543:1546   */\n      dup3\n        /* \"#utility.yul\":1536:1573   */\n      mstore\n        /* \"#utility.yul\":1461:1579   */\n      pop\n      pop\n      jump\t// out\n        /* \"#utility.yul\":1585:1694   */\n    tag_121:\n        /* \"#utility.yul\":1666:1687   */\n      tag_123\n        /* \"#utility.yul\":1681:1686   */\n      dup2\n        /* \"#utility.yul\":1666:1687   */\n      tag_124\n      jump\t// in\n    tag_123:\n        /* \"#utility.yul\":1661:1664   */\n      dup3\n        /* \"#utility.yul\":1654:1688   */\n      mstore\n        /* \"#utility.yul\":1585:1694   */\n      pop\n      pop\n      jump\t// out\n        /* \"#utility.yul\":1700:2064   */\n    tag_125:\n        /* \"#utility.yul\":1788:1791   */\n      0x00\n        /* \"#utility.yul\":1816:1855   */\n      tag_127\n        /* \"#utility.yul\":1849:1854   */\n      dup3\n        /* \"#utility.yul\":1816:1855   */\n      tag_128\n      jump\t// in\n    tag_127:\n        /* \"#utility.yul\":1871:1942   */\n      tag_129\n        /* \"#utility.yul\":1935:1941   */\n      dup2\n        /* \"#utility.yul\":1930:1933   */\n      dup6\n        /* \"#utility.yul\":1871:1942   */\n      tag_130\n      jump\t// in\n    tag_129:\n        /* \"#utility.yul\":1864:1942   */\n      swap4\n      pop\n        /* \"#utility.yul\":1951:2003   */\n      tag_131\n        /* \"#utility.yul\":1996:2002   */\n      dup2\n        /* \"#utility.yul\":1991:1994   */\n      dup6\n        /* \"#utility.yul\":1984:1988   */\n      0x20\n        /* \"#utility.yul\":1977:1982   */\n      dup7\n        /* \"#utility.yul\":1973:1989   */\n      add\n        /* \"#utility.yul\":1951:2003   */\n      tag_132\n      jump\t// in\n    tag_131:\n        /* \"#utility.yul\":2028:2057   */\n      tag_133\n        /* \"#utility.yul\":2050:2056   */\n      dup2\n        /* \"#utility.yul\":2028:2057   */\n      tag_134\n      jump\t// in\n    tag_133:\n        /* \"#utility.yul\":2023:2026   */\n      dup5\n        /* \"#utility.yul\":2019:2058   */\n      add\n        /* \"#utility.yul\":2012:2058   */\n      swap2\n      pop\n        /* \"#utility.yul\":1792:2064   */\n      pop\n        /* \"#utility.yul\":1700:2064   */\n      swap3\n      swap2\n      pop\n      pop\n      jump\t// out\n        /* \"#utility.yul\":2070:2436   */\n    tag_135:\n        /* \"#utility.yul\":2212:2215   */\n      0x00\n        /* \"#utility.yul\":2233:2300   */\n      tag_137\n        /* \"#utility.yul\":2297:2299   */\n      0x1e\n        /* \"#utility.yul\":2292:2295   */\n      dup4\n        /* \"#utility.yul\":2233:2300   */\n      tag_130\n      jump\t// in\n    tag_137:\n        /* \"#utility.yul\":2226:2300   */\n      swap2\n      pop\n        /* \"#utility.yul\":2309:2402   */\n      tag_138\n        /* \"#utility.yul\":2398:2401   */\n      dup3\n        /* \"#utility.yul\":2309:2402   */\n      tag_139\n      jump\t// in\n    tag_138:\n        /* \"#utility.yul\":2427:2429   */\n      0x20\n        /* \"#utility.yul\":2422:2425   */\n      dup3\n        /* \"#utility.yul\":2418:2430   */\n      add\n        /* \"#utility.yul\":2411:2430   */\n      swap1\n      pop\n        /* \"#utility.yul\":2070:2436   */\n      swap2\n      swap1\n      pop\n      jump\t// out\n        /* \"#utility.yul\":2442:2808   */\n    tag_140:\n        /* \"#utility.yul\":2584:2587   */\n      0x00\n        /* \"#utility.yul\":2605:2672   */\n      tag_142\n        /* \"#utility.yul\":2669:2671   */\n      0x18\n        /* \"#utility.yul\":2664:2667   */\n      dup4\n        /* \"#utility.yul\":2605:2672   */\n      tag_130\n      jump\t// in\n    tag_142:\n        /* \"#utility.yul\":2598:2672   */\n      swap2\n      pop\n        /* \"#utility.yul\":2681:2774   */\n      tag_143\n        /* \"#utility.yul\":2770:2773   */\n      dup3\n        /* \"#utility.yul\":2681:2774   */\n      tag_144\n      jump\t// in\n    tag_143:\n        /* \"#utility.yul\":2799:2801   */\n      0x20\n        /* \"#utility.yul\":2794:2797   */\n      dup3\n        /* \"#utility.yul\":2790:2802   */\n      add\n        /* \"#utility.yul\":2783:2802   */\n      swap1\n      pop\n        /* \"#utility.yul\":2442:2808   */\n      swap2\n      swap1\n      pop\n      jump\t// out\n        /* \"#utility.yul\":2814:2932   */\n    tag_145:\n        /* \"#utility.yul\":2901:2925   */\n      tag_147\n        /* \"#utility.yul\":2919:2924   */\n      dup2\n        /* \"#utility.yul\":2901:2925   */\n      tag_148\n      jump\t// in\n    tag_147:\n        /* \"#utility.yul\":2896:2899   */\n      dup3\n        /* \"#utility.yul\":2889:2926   */\n      mstore\n        /* \"#utility.yul\":2814:2932   */\n      pop\n      pop\n      jump\t// out\n        /* \"#utility.yul\":2938:3160   */\n    tag_28:\n        /* \"#utility.yul\":3031:3035   */\n      0x00\n        /* \"#utility.yul\":3069:3071   */\n      0x20\n        /* \"#utility.yul\":3058:3067   */\n      dup3\n        /* \"#utility.yul\":3054:3072   */\n      add\n        /* \"#utility.yul\":3046:3072   */\n      swap1\n      pop\n        /* \"#utility.yul\":3082:3153   */\n      tag_150\n        /* \"#utility.yul\":3150:3151   */\n      0x00\n        /* \"#utility.yul\":3139:3148   */\n      dup4\n        /* \"#utility.yul\":3135:3152   */\n      add\n        /* \"#utility.yul\":3126:3132   */\n      dup5\n        /* \"#utility.yul\":3082:3153   */\n      tag_117\n      jump\t// in\n    tag_150:\n        /* \"#utility.yul\":2938:3160   */\n      swap3\n      swap2\n      pop\n      pop\n      jump\t// out\n        /* \"#utility.yul\":3166:3498   */\n    tag_80:\n        /* \"#utility.yul\":3287:3291   */\n      0x00\n        /* \"#utility.yul\":3325:3327   */\n      0x40\n        /* \"#utility.yul\":3314:3323   */\n      dup3\n        /* \"#utility.yul\":3310:3328   */\n      add\n        /* \"#utility.yul\":3302:3328   */\n      swap1\n      pop\n        /* \"#utility.yul\":3338:3409   */\n      tag_152\n        /* \"#utility.yul\":3406:3407   */\n      0x00\n        /* \"#utility.yul\":3395:3404   */\n      dup4\n        /* \"#utility.yul\":3391:3408   */\n      add\n        /* \"#utility.yul\":3382:3388   */\n      dup6\n        /* \"#utility.yul\":3338:3409   */\n      tag_117\n      jump\t// in\n    tag_152:\n        /* \"#utility.yul\":3419:3491   */\n      tag_153\n        /* \"#utility.yul\":3487:3489   */\n      0x20\n        /* \"#utility.yul\":3476:3485   */\n      dup4\n        /* \"#utility.yul\":3472:3490   */\n      add\n        /* \"#utility.yul\":3463:3469   */\n      dup5\n        /* \"#utility.yul\":3419:3491   */\n      tag_145\n      jump\t// in\n    tag_153:\n        /* \"#utility.yul\":3166:3498   */\n      swap4\n      swap3\n      pop\n      pop\n      pop\n      jump\t// out\n        /* \"#utility.yul\":3504:3714   */\n    tag_35:\n        /* \"#utility.yul\":3591:3595   */\n      0x00\n        /* \"#utility.yul\":3629:3631   */\n      0x20\n        /* \"#utility.yul\":3618:3627   */\n      dup3\n        /* \"#utility.yul\":3614:3632   */\n      add\n        /* \"#utility.yul\":3606:3632   */\n      swap1\n      pop\n        /* \"#utility.yul\":3642:3707   */\n      tag_155\n        /* \"#utility.yul\":3704:3705   */\n      0x00\n        /* \"#utility.yul\":3693:3702   */\n      dup4\n        /* \"#utility.yul\":3689:3706   */\n      add\n        /* \"#utility.yul\":3680:3686   */\n      dup5\n        /* \"#utility.yul\":3642:3707   */\n      tag_121\n      jump\t// in\n    tag_155:\n        /* \"#utility.yul\":3504:3714   */\n      swap3\n      swap2\n      pop\n      pop\n      jump\t// out\n        /* \"#utility.yul\":3720:4033   */\n    tag_17:\n        /* \"#utility.yul\":3833:3837   */\n      0x00\n        /* \"#utility.yul\":3871:3873   */\n      0x20\n        /* \"#utility.yul\":3860:3869   */\n      dup3\n        /* \"#utility.yul\":3856:3874   */\n      add\n        /* \"#utility.yul\":3848:3874   */\n      swap1\n      pop\n        /* \"#utility.yul\":3920:3929   */\n      dup2\n        /* \"#utility.yul\":3914:3918   */\n      dup2\n        /* \"#utility.yul\":3910:3930   */\n      sub\n        /* \"#utility.yul\":3906:3907   */\n      0x00\n        /* \"#utility.yul\":3895:3904   */\n      dup4\n        /* \"#utility.yul\":3891:3908   */\n      add\n        /* \"#utility.yul\":3884:3931   */\n      mstore\n        /* \"#utility.yul\":3948:4026   */\n      tag_157\n        /* \"#utility.yul\":4021:4025   */\n      dup2\n        /* \"#utility.yul\":4012:4018   */\n      dup5\n        /* \"#utility.yul\":3948:4026   */\n      tag_125\n      jump\t// in\n    tag_157:\n        /* \"#utility.yul\":3940:4026   */\n      swap1\n      pop\n        /* \"#utility.yul\":3720:4033   */\n      swap3\n      swap2\n      pop\n      pop\n      jump\t// out\n        /* \"#utility.yul\":4039:4458   */\n    tag_66:\n        /* \"#utility.yul\":4205:4209   */\n      0x00\n        /* \"#utility.yul\":4243:4245   */\n      0x20\n        /* \"#utility.yul\":4232:4241   */\n      dup3\n        /* \"#utility.yul\":4228:4246   */\n      add\n        /* \"#utility.yul\":4220:4246   */\n      swap1\n      pop\n        /* \"#utility.yul\":4292:4301   */\n      dup2\n        /* \"#utility.yul\":4286:4290   */\n      dup2\n        /* \"#utility.yul\":4282:4302   */\n      sub\n        /* \"#utility.yul\":4278:4279   */\n      0x00\n        /* \"#utility.yul\":4267:4276   */\n      dup4\n        /* \"#utility.yul\":4263:4280   */\n      add\n        /* \"#utility.yul\":4256:4303   */\n      mstore\n        /* \"#utility.yul\":4320:4451   */\n      tag_159\n        /* \"#utility.yul\":4446:4450   */\n      dup2\n        /* \"#utility.yul\":4320:4451   */\n      tag_135\n      jump\t// in\n    tag_159:\n        /* \"#utility.yul\":4312:4451   */\n      swap1\n      pop\n        /* \"#utility.yul\":4039:4458   */\n      swap2\n      swap1\n      pop\n      jump\t// out\n        /* \"#utility.yul\":4464:4883   */\n    tag_69:\n        /* \"#utility.yul\":4630:4634   */\n      0x00\n        /* \"#utility.yul\":4668:4670   */\n      0x20\n        /* \"#utility.yul\":4657:4666   */\n      dup3\n        /* \"#utility.yul\":4653:4671   */\n      add\n        /* \"#utility.yul\":4645:4671   */\n      swap1\n      pop\n        /* \"#utility.yul\":4717:4726   */\n      dup2\n        /* \"#utility.yul\":4711:4715   */\n      dup2\n        /* \"#utility.yul\":4707:4727   */\n      sub\n        /* \"#utility.yul\":4703:4704   */\n      0x00\n        /* \"#utility.yul\":4692:4701   */\n      dup4\n        /* \"#utility.yul\":4688:4705   */\n      add\n        /* \"#utility.yul\":4681:4728   */\n      mstore\n        /* \"#utility.yul\":4745:4876   */\n      tag_161\n        /* \"#utility.yul\":4871:4875   */\n      dup2\n        /* \"#utility.yul\":4745:4876   */\n      tag_140\n      jump\t// in\n    tag_161:\n        /* \"#utility.yul\":4737:4876   */\n      swap1\n      pop\n        /* \"#utility.yul\":4464:4883   */\n      swap2\n      swap1\n      pop\n      jump\t// out\n        /* \"#utility.yul\":4889:5111   */\n    tag_21:\n        /* \"#utility.yul\":4982:4986   */\n      0x00\n        /* \"#utility.yul\":5020:5022   */\n      0x20\n        /* \"#utility.yul\":5009:5018   */\n      dup3\n        /* \"#utility.yul\":5005:5023   */\n      add\n        /* \"#utility.yul\":4997:5023   */\n      swap1\n      pop\n        /* \"#utility.yul\":5033:5104   */\n      tag_163\n        /* \"#utility.yul\":5101:5102   */\n      0x00\n        /* \"#utility.yul\":5090:5099   */\n      dup4\n        /* \"#utility.yul\":5086:5103   */\n      add\n        /* \"#utility.yul\":5077:5083   */\n      dup5\n        /* \"#utility.yul\":5033:5104   */\n      tag_145\n      jump\t// in\n    tag_163:\n        /* \"#utility.yul\":4889:5111   */\n      swap3\n      swap2\n      pop\n      pop\n      jump\t// out\n        /* \"#utility.yul\":5198:5297   */\n    tag_128:\n        /* \"#utility.yul\":5250:5256   */\n      0x00\n        /* \"#utility.yul\":5284:5289   */\n      dup2\n        /* \"#utility.yul\":5278:5290   */\n      mload\n        /* \"#utility.yul\":5268:5290   */\n      swap1\n      pop\n        /* \"#utility.yul\":5198:5297   */\n      swap2\n      swap1\n      pop\n      jump\t// out\n        /* \"#utility.yul\":5303:5472   */\n    tag_130:\n        /* \"#utility.yul\":5387:5398   */\n      0x00\n        /* \"#utility.yul\":5421:5427   */\n      dup3\n        /* \"#utility.yul\":5416:5419   */\n      dup3\n        /* \"#utility.yul\":5409:5428   */\n      mstore\n        /* \"#utility.yul\":5461:5465   */\n      0x20\n        /* \"#utility.yul\":5456:5459   */\n      dup3\n        /* \"#utility.yul\":5452:5466   */\n      add\n        /* \"#utility.yul\":5437:5466   */\n      swap1\n      pop\n        /* \"#utility.yul\":5303:5472   */\n      swap3\n      swap2\n      pop\n      pop\n      jump\t// out\n        /* \"#utility.yul\":5478:5574   */\n    tag_120:\n        /* \"#utility.yul\":5515:5522   */\n      0x00\n        /* \"#utility.yul\":5544:5568   */\n      tag_169\n        /* \"#utility.yul\":5562:5567   */\n      dup3\n        /* \"#utility.yul\":5544:5568   */\n      tag_170\n      jump\t// in\n    tag_169:\n        /* \"#utility.yul\":5533:5568   */\n      swap1\n      pop\n        /* \"#utility.yul\":5478:5574   */\n      swap2\n      swap1\n      pop\n      jump\t// out\n        /* \"#utility.yul\":5580:5670   */\n    tag_124:\n        /* \"#utility.yul\":5614:5621   */\n      0x00\n        /* \"#utility.yul\":5657:5662   */\n      dup2\n        /* \"#utility.yul\":5650:5663   */\n      iszero\n        /* \"#utility.yul\":5643:5664   */\n      iszero\n        /* \"#utility.yul\":5632:5664   */\n      swap1\n      pop\n        /* \"#utility.yul\":5580:5670   */\n      swap2\n      swap1\n      pop\n      jump\t// out\n        /* \"#utility.yul\":5676:5802   */\n    tag_170:\n        /* \"#utility.yul\":5713:5720   */\n      0x00\n        /* \"#utility.yul\":5753:5795   */\n      0xffffffffffffffffffffffffffffffffffffffff\n        /* \"#utility.yul\":5746:5751   */\n      dup3\n        /* \"#utility.yul\":5742:5796   */\n      and\n        /* \"#utility.yul\":5731:5796   */\n      swap1\n      pop\n        /* \"#utility.yul\":5676:5802   */\n      swap2\n      swap1\n      pop\n      jump\t// out\n        /* \"#utility.yul\":5808:5885   */\n    tag_148:\n        /* \"#utility.yul\":5845:5852   */\n      0x00\n        /* \"#utility.yul\":5874:5879   */\n      dup2\n        /* \"#utility.yul\":5863:5879   */\n      swap1\n      pop\n        /* \"#utility.yul\":5808:5885   */\n      swap2\n      swap1\n      pop\n      jump\t// out\n        /* \"#utility.yul\":5891:6198   */\n    tag_132:\n        /* \"#utility.yul\":5959:5960   */\n      0x00\n        /* \"#utility.yul\":5969:6082   */\n    tag_175:\n        /* \"#utility.yul\":5983:5989   */\n      dup4\n        /* \"#utility.yul\":5980:5981   */\n      dup2\n        /* \"#utility.yul\":5977:5990   */\n      lt\n        /* \"#utility.yul\":5969:6082   */\n      iszero\n      tag_177\n      jumpi\n        /* \"#utility.yul\":6068:6069   */\n      dup1\n        /* \"#utility.yul\":6063:6066   */\n      dup3\n        /* \"#utility.yul\":6059:6070   */\n      add\n        /* \"#utility.yul\":6053:6071   */\n      mload\n        /* \"#utility.yul\":6049:6050   */\n      dup2\n        /* \"#utility.yul\":6044:6047   */\n      dup5\n        /* \"#utility.yul\":6040:6051   */\n      add\n        /* \"#utility.yul\":6033:6072   */\n      mstore\n        /* \"#utility.yul\":6005:6007   */\n      0x20\n        /* \"#utility.yul\":6002:6003   */\n      dup2\n        /* \"#utility.yul\":5998:6008   */\n      add\n        /* \"#utility.yul\":5993:6008   */\n      swap1\n      pop\n        /* \"#utility.yul\":5969:6082   */\n      jump(tag_175)\n    tag_177:\n        /* \"#utility.yul\":6100:6106   */\n      dup4\n        /* \"#utility.yul\":6097:6098   */\n      dup2\n        /* \"#utility.yul\":6094:6107   */\n      gt\n        /* \"#utility.yul\":6091:6192   */\n      iszero\n      tag_178\n      jumpi\n        /* \"#utility.yul\":6180:6181   */\n      0x00\n        /* \"#utility.yul\":6171:6177   */\n      dup5\n        /* \"#utility.yul\":6166:6169   */\n      dup5\n        /* \"#utility.yul\":6162:6178   */\n      add\n        /* \"#utility.yul\":6155:6182   */\n      mstore\n        /* \"#utility.yul\":6091:6192   */\n    tag_178:\n        /* \"#utility.yul\":5940:6198   */\n      pop\n        /* \"#utility.yul\":5891:6198   */\n      pop\n      pop\n      pop\n      jump\t// out\n        /* \"#utility.yul\":6204:6524   */\n    tag_52:\n        /* \"#utility.yul\":6248:6254   */\n      0x00\n        /* \"#utility.yul\":6285:6286   */\n      0x02\n        /* \"#utility.yul\":6279:6283   */\n      dup3\n        /* \"#utility.yul\":6275:6287   */\n      div\n        /* \"#utility.yul\":6265:6287   */\n      swap1\n      pop\n        /* \"#utility.yul\":6332:6333   */\n      0x01\n        /* \"#utility.yul\":6326:6330   */\n      dup3\n        /* \"#utility.yul\":6322:6334   */\n      and\n        /* \"#utility.yul\":6353:6371   */\n      dup1\n        /* \"#utility.yul\":6343:6424   */\n      tag_180\n      jumpi\n        /* \"#utility.yul\":6409:6413   */\n      0x7f\n        /* \"#utility.yul\":6401:6407   */\n      dup3\n        /* \"#utility.yul\":6397:6414   */\n      and\n        /* \"#utility.yul\":6387:6414   */\n      swap2\n      pop\n        /* \"#utility.yul\":6343:6424   */\n    tag_180:\n        /* \"#utility.yul\":6471:6473   */\n      0x20\n        /* \"#utility.yul\":6463:6469   */\n      dup3\n        /* \"#utility.yul\":6460:6474   */\n      lt\n        /* \"#utility.yul\":6440:6458   */\n      dup2\n        /* \"#utility.yul\":6437:6475   */\n      eq\n        /* \"#utility.yul\":6434:6518   */\n      iszero\n      tag_181\n      jumpi\n        /* \"#utility.yul\":6490:6508   */\n      tag_182\n      tag_183\n      jump\t// in\n    tag_182:\n        /* \"#utility.yul\":6434:6518   */\n    tag_181:\n        /* \"#utility.yul\":6255:6524   */\n      pop\n        /* \"#utility.yul\":6204:6524   */\n      swap2\n      swap1\n      pop\n      jump\t// out\n        /* \"#utility.yul\":6530:6763   */\n    tag_87:\n        /* \"#utility.yul\":6569:6572   */\n      0x00\n        /* \"#utility.yul\":6592:6616   */\n      tag_185\n        /* \"#utility.yul\":6610:6615   */\n      dup3\n        /* \"#utility.yul\":6592:6616   */\n      tag_148\n      jump\t// in\n    tag_185:\n        /* \"#utility.yul\":6583:6616   */\n      swap2\n      pop\n        /* \"#utility.yul\":6638:6704   */\n      0xffffffffffffffffffffffffffffffffffffffffffffffffffffffffffffffff\n        /* \"#utility.yul\":6631:6636   */\n      dup3\n        /* \"#utility.yul\":6628:6705   */\n      eq\n        /* \"#utility.yul\":6625:6728   */\n      iszero\n      tag_186\n      jumpi\n        /* \"#utility.yul\":6708:6726   */\n      tag_187\n      tag_188\n      jump\t// in\n    tag_187:\n        /* \"#utility.yul\":6625:6728   */\n    tag_186:\n        /* \"#utility.yul\":6755:6756   */\n      0x01\n        /* \"#utility.yul\":6748:6753   */\n      dup3\n        /* \"#utility.yul\":6744:6757   */\n      add\n        /* \"#utility.yul\":6737:6757   */\n      swap1\n      pop\n        /* \"#utility.yul\":6530:6763   */\n      swap2\n      swap1\n      pop\n      jump\t// out\n        /* \"#utility.yul\":6769:6949   */\n    tag_188:\n        /* \"#utility.yul\":6817:6894   */\n      0x4e487b7100000000000000000000000000000000000000000000000000000000\n        /* \"#utility.yul\":6814:6815   */\n      0x00\n        /* \"#utility.yul\":6807:6895   */\n      mstore\n        /* \"#utility.yul\":6914:6918   */\n      0x11\n        /* \"#utility.yul\":6911:6912   */\n      0x04\n        /* \"#utility.yul\":6904:6919   */\n      mstore\n        /* \"#utility.yul\":6938:6942   */\n      0x24\n        /* \"#utility.yul\":6935:6936   */\n      0x00\n        /* \"#utility.yul\":6928:6943   */\n      revert\n        /* \"#utility.yul\":6955:7135   */\n    tag_183:\n        /* \"#utility.yul\":7003:7080   */\n      0x4e487b7100000000000000000000000000000000000000000000000000000000\n        /* \"#utility.yul\":7000:7001   */\n      0x00\n        /* \"#utility.yul\":6993:7081   */\n      mstore\n        /* \"#utility.yul\":7100:7104   */\n      0x22\n        /* \"#utility.yul\":7097:7098   */\n      0x04\n        /* \"#utility.yul\":7090:7105   */\n      mstore\n        /* \"#utility.yul\":7124:7128   */\n      0x24\n        /* \"#utility.yul\":7121:7122   */\n      0x00\n        /* \"#utility.yul\":7114:7129   */\n      revert\n        /* \"#utility.yul\":7141:7321   */\n    tag_77:\n        /* \"#utility.yul\":7189:7266   */\n      0x4e487b7100000000000000000000000000000000000000000000000000000000\n        /* \"#utility.yul\":7186:7187   */\n      0x00\n        /* \"#utility.yul\":7179:7267   */\n      mstore\n        /* \"#utility.yul\":7286:7290   */\n      0x32\n        /* \"#utility.yul\":7283:7284   */\n      0x04\n        /* \"#utility.yul\":7276:7291   */\n      mstore\n        /* \"#utility.yul\":7310:7314   */\n      0x24\n        /* \"#utility.yul\":7307:7308   */\n      0x00\n        /* \"#utility.yul\":7300:7315   */\n      revert\n        /* \"#utility.yul\":7450:7567   */\n    tag_107:\n        /* \"#utility.yul\":7559:7560   */\n      0x00\n        /* \"#utility.yul\":7556:7557   */\n      dup1\n        /* \"#utility.yul\":7549:7561   */\n      revert\n        /* \"#utility.yul\":7573:7675   */\n    tag_134:\n        /* \"#utility.yul\":7614:7620   */\n      0x00\n        /* \"#utility.yul\":7665:7667   */\n      0x1f\n        /* \"#utility.yul\":7661:7668   */\n      not\n        /* \"#utility.yul\":7656:7658   */\n      0x1f\n        /* \"#utility.yul\":7649:7654   */\n      dup4\n        /* \"#utility.yul\":7645:7659   */\n      add\n        /* \"#utility.yul\":7641:7669   */\n      and\n        /* \"#utility.yul\":7631:7669   */\n      swap1\n      pop\n        /* \"#utility.yul\":7573:7675   */\n      swap2\n      swap1\n      pop\n      jump\t// out\n        /* \"#utility.yul\":7681:7861   */\n    tag_139:\n        /* \"#utility.yul\":7821:7853   */\n      0x4f6e6c79204f776e65722063616e20756e7061636b20546f6b656e697a2e0000\n        /* \"#utility.yul\":7817:7818   */\n      0x00\n        /* \"#utility.yul\":7809:7815   */\n      dup3\n        /* \"#utility.yul\":7805:7819   */\n      add\n        /* \"#utility.yul\":7798:7854   */\n      mstore\n        /* \"#utility.yul\":7681:7861   */\n      pop\n      jump\t// out\n        /* \"#utility.yul\":7867:8041   */\n    tag_144:\n        /* \"#utility.yul\":8007:8033   */\n      0x416c726561647920756e7061636b656420546f6b656e697a0000000000000000\n        /* \"#utility.yul\":8003:8004   */\n      0x00\n        /* \"#utility.yul\":7995:8001   */\n      dup3\n        /* \"#utility.yul\":7991:8005   */\n      add\n        /* \"#utility.yul\":7984:8034   */\n      mstore\n        /* \"#utility.yul\":7867:8041   */\n      pop\n      jump\t// out\n        /* \"#utility.yul\":8047:8169   */\n    tag_95:\n        /* \"#utility.yul\":8120:8144   */\n      tag_199\n        /* \"#utility.yul\":8138:8143   */\n      dup2\n        /* \"#utility.yul\":8120:8144   */\n      tag_120\n      jump\t// in\n    tag_199:\n        /* \"#utility.yul\":8113:8118   */\n      dup2\n        /* \"#utility.yul\":8110:8145   */\n      eq\n        /* \"#utility.yul\":8100:8163   */\n      tag_200\n      jumpi\n        /* \"#utility.yul\":8159:8160   */\n      0x00\n        /* \"#utility.yul\":8156:8157   */\n      dup1\n        /* \"#utility.yul\":8149:8161   */\n      revert\n        /* \"#utility.yul\":8100:8163   */\n    tag_200:\n        /* \"#utility.yul\":8047:8169   */\n      pop\n      jump\t// out\n        /* \"#utility.yul\":8175:8291   */\n    tag_99:\n        /* \"#utility.yul\":8245:8266   */\n      tag_202\n        /* \"#utility.yul\":8260:8265   */\n      dup2\n        /* \"#utility.yul\":8245:8266   */\n      tag_124\n      jump\t// in\n    tag_202:\n        /* \"#utility.yul\":8238:8243   */\n      dup2\n        /* \"#utility.yul\":8235:8267   */\n      eq\n        /* \"#utility.yul\":8225:8285   */\n      tag_203\n      jumpi\n        /* \"#utility.yul\":8281:8282   */\n      0x00\n        /* \"#utility.yul\":8278:8279   */\n      dup1\n        /* \"#utility.yul\":8271:8283   */\n      revert\n        /* \"#utility.yul\":8225:8285   */\n    tag_203:\n        /* \"#utility.yul\":8175:8291   */\n      pop\n      jump\t// out\n        /* \"#utility.yul\":8297:8419   */\n    tag_103:\n        /* \"#utility.yul\":8370:8394   */\n      tag_205\n        /* \"#utility.yul\":8388:8393   */\n      dup2\n        /* \"#utility.yul\":8370:8394   */\n      tag_148\n      jump\t// in\n    tag_205:\n        /* \"#utility.yul\":8363:8368   */\n      dup2\n        /* \"#utility.yul\":8360:8395   */\n      eq\n        /* \"#utility.yul\":8350:8413   */\n      tag_206\n      jumpi\n        /* \"#utility.yul\":8409:8410   */\n      0x00\n        /* \"#utility.yul\":8406:8407   */\n      dup1\n        /* \"#utility.yul\":8399:8411   */\n      revert\n        /* \"#utility.yul\":8350:8413   */\n    tag_206:\n        /* \"#utility.yul\":8297:8419   */\n      pop\n      jump\t// out\n\n    auxdata: 0xa26469706673582212205ee73747387313c6ad1900399c9dfa289699034a1162ffc75085638a5ecc34cf64736f6c63430008070033\n}\n",
				"bytecode": {
					"linkReferences": {},
					"object": "60806040523480156200001157600080fd5b5060405162001460380380620014608339818101604052810190620000379190620004f1565b336000806101000a81548173ffffffffffffffffffffffffffffffffffffffff021916908373ffffffffffffffffffffffffffffffffffffffff16021790555085600160006101000a81548173ffffffffffffffffffffffffffffffffffffffff021916908373ffffffffffffffffffffffffffffffffffffffff16021790555060018060146101000a81548160ff02191690831515021790555060005b8351811015620001f3576005848281518110620000f757620000f662000852565b5b60200260200101519080600181540180825580915050600190039060005260206000200160009091909190916101000a81548173ffffffffffffffffffffffffffffffffffffffff021916908373ffffffffffffffffffffffffffffffffffffffff16021790555082818151811062000175576200017462000852565b5b60200260200101516004600086848151811062000197576200019662000852565b5b602002602001015173ffffffffffffffffffffffffffffffffffffffff1673ffffffffffffffffffffffffffffffffffffffff168152602001908152602001600020819055508080620001ea90620007a6565b915050620000d5565b5083600290805190602001906200020c92919062000239565b5084600390805190602001906200022592919062000239565b50806006819055505050505050506200090e565b82805462000247906200073a565b90600052602060002090601f0160209004810192826200026b5760008555620002b7565b82601f106200028657805160ff1916838001178555620002b7565b82800160010185558215620002b7579182015b82811115620002b657825182559160200191906001019062000299565b5b509050620002c69190620002ca565b5090565b5b80821115620002e5576000816000905550600101620002cb565b5090565b600062000300620002fa8462000632565b62000609565b90508083825260208201905082856020860282011115620003265762000325620008b5565b5b60005b858110156200035a57816200033f88826200042a565b84526020840193506020830192505060018101905062000329565b5050509392505050565b60006200037b620003758462000661565b62000609565b90508083825260208201905082856020860282011115620003a157620003a0620008b5565b5b60005b85811015620003d55781620003ba8882620004da565b845260208401935060208301925050600181019050620003a4565b5050509392505050565b6000620003f6620003f08462000690565b62000609565b905082815260208101848484011115620004155762000414620008ba565b5b6200042284828562000704565b509392505050565b6000815190506200043b81620008da565b92915050565b600082601f830112620004595762000458620008b0565b5b81516200046b848260208601620002e9565b91505092915050565b600082601f8301126200048c576200048b620008b0565b5b81516200049e84826020860162000364565b91505092915050565b600082601f830112620004bf57620004be620008b0565b5b8151620004d1848260208601620003df565b91505092915050565b600081519050620004eb81620008f4565b92915050565b60008060008060008060c08789031215620005115762000510620008c4565b5b60006200052189828a016200042a565b965050602087015167ffffffffffffffff811115620005455762000544620008bf565b5b6200055389828a01620004a7565b955050604087015167ffffffffffffffff811115620005775762000576620008bf565b5b6200058589828a01620004a7565b945050606087015167ffffffffffffffff811115620005a957620005a8620008bf565b5b620005b789828a0162000441565b935050608087015167ffffffffffffffff811115620005db57620005da620008bf565b5b620005e989828a0162000474565b92505060a0620005fc89828a01620004da565b9150509295509295509295565b60006200061562000628565b905062000623828262000770565b919050565b6000604051905090565b600067ffffffffffffffff82111562000650576200064f62000881565b5b602082029050602081019050919050565b600067ffffffffffffffff8211156200067f576200067e62000881565b5b602082029050602081019050919050565b600067ffffffffffffffff821115620006ae57620006ad62000881565b5b620006b982620008c9565b9050602081019050919050565b6000620006d382620006da565b9050919050565b600073ffffffffffffffffffffffffffffffffffffffff82169050919050565b6000819050919050565b60005b838110156200072457808201518184015260208101905062000707565b8381111562000734576000848401525b50505050565b600060028204905060018216806200075357607f821691505b602082108114156200076a576200076962000823565b5b50919050565b6200077b82620008c9565b810181811067ffffffffffffffff821117156200079d576200079c62000881565b5b80604052505050565b6000620007b382620006fa565b91507fffffffffffffffffffffffffffffffffffffffffffffffffffffffffffffffff821415620007e957620007e8620007f4565b5b600182019050919050565b7f4e487b7100000000000000000000000000000000000000000000000000000000600052601160045260246000fd5b7f4e487b7100000000000000000000000000000000000000000000000000000000600052602260045260246000fd5b7f4e487b7100000000000000000000000000000000000000000000000000000000600052603260045260246000fd5b7f4e487b7100000000000000000000000000000000000000000000000000000000600052604160045260246000fd5b600080fd5b600080fd5b600080fd5b600080fd5b600080fd5b6000601f19601f8301169050919050565b620008e581620006c6565b8114620008f157600080fd5b50565b620008ff81620006fa565b81146200090b57600080fd5b50565b610b42806200091e6000396000f3fe608060405234801561001057600080fd5b506004361061009e5760003560e01c80638f23d5f6116100665780638f23d5f61461013957806390d524a214610157578063e2c42e6614610161578063eedc966a1461017f578063f7aca939146101af5761009e565b806306fdde03146100a357806317d70f7c146100c15780633c130d90146100df578063767800de146100fd5780638da5cb5b1461011b575b600080fd5b6100ab6101df565b6040516100b89190610843565b60405180910390f35b6100c961026d565b6040516100d691906108a5565b60405180910390f35b6100e7610273565b6040516100f49190610843565b60405180910390f35b610105610301565b60405161011291906107e4565b60405180910390f35b610123610309565b60405161013091906107e4565b60405180910390f35b61014161032f565b60405161014e9190610828565b60405180910390f35b61015f610342565b005b610169610604565b6040516101769190610828565b60405180910390f35b610199600480360381019061019491906106b1565b61061b565b6040516101a691906108a5565b60405180910390f35b6101c960048036038101906101c4919061070b565b610633565b6040516101d691906107e4565b60405180910390f35b600380546101ec90610957565b80601f016020809104026020016040519081016040528092919081815260200182805461021890610957565b80156102655780601f1061023a57610100808354040283529160200191610265565b820191906000526020600020905b81548152906001019060200180831161024857829003601f168201915b505050505081565b60065481565b6002805461028090610957565b80601f01602080910402602001604051908101604052809291908181526020018280546102ac90610957565b80156102f95780601f106102ce576101008083540402835291602001916102f9565b820191906000526020600020905b8154815290600101906020018083116102dc57829003601f168201915b505050505081565b600030905090565b600160009054906101000a900473ffffffffffffffffffffffffffffffffffffffff1681565b600160149054906101000a900460ff1681565b600160009054906101000a900473ffffffffffffffffffffffffffffffffffffffff1673ffffffffffffffffffffffffffffffffffffffff163373ffffffffffffffffffffffffffffffffffffffff16146103d2576040517f08c379a00000000000000000000000000000000000000000000000000000000081526004016103c990610865565b60405180910390fd5b600160149054906101000a900460ff16610421576040517f08c379a000000000000000000000000000000000000000000000000000000000815260040161041890610885565b60405180910390fd5b600160009054906101000a900473ffffffffffffffffffffffffffffffffffffffff1673ffffffffffffffffffffffffffffffffffffffff166108fc479081150290604051600060405180830381858888f19350505050158015610489573d6000803e3d6000fd5b5060005b6005805490508110156105e6576000600582815481106104b0576104af610a30565b5b9060005260206000200160009054906101000a900473ffffffffffffffffffffffffffffffffffffffff16905060008190508073ffffffffffffffffffffffffffffffffffffffff1663a9059cbb600160009054906101000a900473ffffffffffffffffffffffffffffffffffffffff16600460008673ffffffffffffffffffffffffffffffffffffffff1673ffffffffffffffffffffffffffffffffffffffff168152602001908152602001600020546040518363ffffffff1660e01b815260040161057e9291906107ff565b602060405180830381600087803b15801561059857600080fd5b505af11580156105ac573d6000803e3d6000fd5b505050506040513d601f19601f820116820180604052508101906105d091906106de565b50505080806105de90610989565b91505061048d565b506000600160146101000a81548160ff021916908315150217905550565b6000600160149054906101000a900460ff16905090565b60046020528060005260406000206000915090505481565b6005818154811061064357600080fd5b906000526020600020016000915054906101000a900473ffffffffffffffffffffffffffffffffffffffff1681565b60008135905061068181610ac7565b92915050565b60008151905061069681610ade565b92915050565b6000813590506106ab81610af5565b92915050565b6000602082840312156106c7576106c6610a5f565b5b60006106d584828501610672565b91505092915050565b6000602082840312156106f4576106f3610a5f565b5b600061070284828501610687565b91505092915050565b60006020828403121561072157610720610a5f565b5b600061072f8482850161069c565b91505092915050565b610741816108dc565b82525050565b610750816108ee565b82525050565b6000610761826108c0565b61076b81856108cb565b935061077b818560208601610924565b61078481610a64565b840191505092915050565b600061079c601e836108cb565b91506107a782610a75565b602082019050919050565b60006107bf6018836108cb565b91506107ca82610a9e565b602082019050919050565b6107de8161091a565b82525050565b60006020820190506107f96000830184610738565b92915050565b60006040820190506108146000830185610738565b61082160208301846107d5565b9392505050565b600060208201905061083d6000830184610747565b92915050565b6000602082019050818103600083015261085d8184610756565b905092915050565b6000602082019050818103600083015261087e8161078f565b9050919050565b6000602082019050818103600083015261089e816107b2565b9050919050565b60006020820190506108ba60008301846107d5565b92915050565b600081519050919050565b600082825260208201905092915050565b60006108e7826108fa565b9050919050565b60008115159050919050565b600073ffffffffffffffffffffffffffffffffffffffff82169050919050565b6000819050919050565b60005b83811015610942578082015181840152602081019050610927565b83811115610951576000848401525b50505050565b6000600282049050600182168061096f57607f821691505b6020821081141561098357610982610a01565b5b50919050565b60006109948261091a565b91507fffffffffffffffffffffffffffffffffffffffffffffffffffffffffffffffff8214156109c7576109c66109d2565b5b600182019050919050565b7f4e487b7100000000000000000000000000000000000000000000000000000000600052601160045260246000fd5b7f4e487b7100000000000000000000000000000000000000000000000000000000600052602260045260246000fd5b7f4e487b7100000000000000000000000000000000000000000000000000000000600052603260045260246000fd5b600080fd5b6000601f19601f8301169050919050565b7f4f6e6c79204f776e65722063616e20756e7061636b20546f6b656e697a2e0000600082015250565b7f416c726561647920756e7061636b656420546f6b656e697a0000000000000000600082015250565b610ad0816108dc565b8114610adb57600080fd5b50565b610ae7816108ee565b8114610af257600080fd5b50565b610afe8161091a565b8114610b0957600080fd5b5056fea26469706673582212205ee73747387313c6ad1900399c9dfa289699034a1162ffc75085638a5ecc34cf64736f6c63430008070033",
					"opcodes": "PUSH1 0x80 PUSH1 0x40 MSTORE CALLVALUE DUP1 ISZERO PUSH3 0x11 JUMPI PUSH1 0x0 DUP1 REVERT JUMPDEST POP PUSH1 0x40 MLOAD PUSH3 0x1460 CODESIZE SUB DUP1 PUSH3 0x1460 DUP4 CODECOPY DUP2 DUP2 ADD PUSH1 0x40 MSTORE DUP2 ADD SWAP1 PUSH3 0x37 SWAP2 SWAP1 PUSH3 0x4F1 JUMP JUMPDEST CALLER PUSH1 0x0 DUP1 PUSH2 0x100 EXP DUP2 SLOAD DUP2 PUSH20 0xFFFFFFFFFFFFFFFFFFFFFFFFFFFFFFFFFFFFFFFF MUL NOT AND SWAP1 DUP4 PUSH20 0xFFFFFFFFFFFFFFFFFFFFFFFFFFFFFFFFFFFFFFFF AND MUL OR SWAP1 SSTORE POP DUP6 PUSH1 0x1 PUSH1 0x0 PUSH2 0x100 EXP DUP2 SLOAD DUP2 PUSH20 0xFFFFFFFFFFFFFFFFFFFFFFFFFFFFFFFFFFFFFFFF MUL NOT AND SWAP1 DUP4 PUSH20 0xFFFFFFFFFFFFFFFFFFFFFFFFFFFFFFFFFFFFFFFF AND MUL OR SWAP1 SSTORE POP PUSH1 0x1 DUP1 PUSH1 0x14 PUSH2 0x100 EXP DUP2 SLOAD DUP2 PUSH1 0xFF MUL NOT AND SWAP1 DUP4 ISZERO ISZERO MUL OR SWAP1 SSTORE POP PUSH1 0x0 JUMPDEST DUP4 MLOAD DUP2 LT ISZERO PUSH3 0x1F3 JUMPI PUSH1 0x5 DUP5 DUP3 DUP2 MLOAD DUP2 LT PUSH3 0xF7 JUMPI PUSH3 0xF6 PUSH3 0x852 JUMP JUMPDEST JUMPDEST PUSH1 0x20 MUL PUSH1 0x20 ADD ADD MLOAD SWAP1 DUP1 PUSH1 0x1 DUP2 SLOAD ADD DUP1 DUP3 SSTORE DUP1 SWAP2 POP POP PUSH1 0x1 SWAP1 SUB SWAP1 PUSH1 0x0 MSTORE PUSH1 0x20 PUSH1 0x0 KECCAK256 ADD PUSH1 0x0 SWAP1 SWAP2 SWAP1 SWAP2 SWAP1 SWAP2 PUSH2 0x100 EXP DUP2 SLOAD DUP2 PUSH20 0xFFFFFFFFFFFFFFFFFFFFFFFFFFFFFFFFFFFFFFFF MUL NOT AND SWAP1 DUP4 PUSH20 0xFFFFFFFFFFFFFFFFFFFFFFFFFFFFFFFFFFFFFFFF AND MUL OR SWAP1 SSTORE POP DUP3 DUP2 DUP2 MLOAD DUP2 LT PUSH3 0x175 JUMPI PUSH3 0x174 PUSH3 0x852 JUMP JUMPDEST JUMPDEST PUSH1 0x20 MUL PUSH1 0x20 ADD ADD MLOAD PUSH1 0x4 PUSH1 0x0 DUP7 DUP5 DUP2 MLOAD DUP2 LT PUSH3 0x197 JUMPI PUSH3 0x196 PUSH3 0x852 JUMP JUMPDEST JUMPDEST PUSH1 0x20 MUL PUSH1 0x20 ADD ADD MLOAD PUSH20 0xFFFFFFFFFFFFFFFFFFFFFFFFFFFFFFFFFFFFFFFF AND PUSH20 0xFFFFFFFFFFFFFFFFFFFFFFFFFFFFFFFFFFFFFFFF AND DUP2 MSTORE PUSH1 0x20 ADD SWAP1 DUP2 MSTORE PUSH1 0x20 ADD PUSH1 0x0 KECCAK256 DUP2 SWAP1 SSTORE POP DUP1 DUP1 PUSH3 0x1EA SWAP1 PUSH3 0x7A6 JUMP JUMPDEST SWAP2 POP POP PUSH3 0xD5 JUMP JUMPDEST POP DUP4 PUSH1 0x2 SWAP1 DUP1 MLOAD SWAP1 PUSH1 0x20 ADD SWAP1 PUSH3 0x20C SWAP3 SWAP2 SWAP1 PUSH3 0x239 JUMP JUMPDEST POP DUP5 PUSH1 0x3 SWAP1 DUP1 MLOAD SWAP1 PUSH1 0x20 ADD SWAP1 PUSH3 0x225 SWAP3 SWAP2 SWAP1 PUSH3 0x239 JUMP JUMPDEST POP DUP1 PUSH1 0x6 DUP2 SWAP1 SSTORE POP POP POP POP POP POP POP PUSH3 0x90E JUMP JUMPDEST DUP3 DUP1 SLOAD PUSH3 0x247 SWAP1 PUSH3 0x73A JUMP JUMPDEST SWAP1 PUSH1 0x0 MSTORE PUSH1 0x20 PUSH1 0x0 KECCAK256 SWAP1 PUSH1 0x1F ADD PUSH1 0x20 SWAP1 DIV DUP2 ADD SWAP3 DUP3 PUSH3 0x26B JUMPI PUSH1 0x0 DUP6 SSTORE PUSH3 0x2B7 JUMP JUMPDEST DUP3 PUSH1 0x1F LT PUSH3 0x286 JUMPI DUP1 MLOAD PUSH1 0xFF NOT AND DUP4 DUP1 ADD OR DUP6 SSTORE PUSH3 0x2B7 JUMP JUMPDEST DUP3 DUP1 ADD PUSH1 0x1 ADD DUP6 SSTORE DUP3 ISZERO PUSH3 0x2B7 JUMPI SWAP2 DUP3 ADD JUMPDEST DUP3 DUP2 GT ISZERO PUSH3 0x2B6 JUMPI DUP3 MLOAD DUP3 SSTORE SWAP2 PUSH1 0x20 ADD SWAP2 SWAP1 PUSH1 0x1 ADD SWAP1 PUSH3 0x299 JUMP JUMPDEST JUMPDEST POP SWAP1 POP PUSH3 0x2C6 SWAP2 SWAP1 PUSH3 0x2CA JUMP JUMPDEST POP SWAP1 JUMP JUMPDEST JUMPDEST DUP1 DUP3 GT ISZERO PUSH3 0x2E5 JUMPI PUSH1 0x0 DUP2 PUSH1 0x0 SWAP1 SSTORE POP PUSH1 0x1 ADD PUSH3 0x2CB JUMP JUMPDEST POP SWAP1 JUMP JUMPDEST PUSH1 0x0 PUSH3 0x300 PUSH3 0x2FA DUP5 PUSH3 0x632 JUMP JUMPDEST PUSH3 0x609 JUMP JUMPDEST SWAP1 POP DUP1 DUP4 DUP3 MSTORE PUSH1 0x20 DUP3 ADD SWAP1 POP DUP3 DUP6 PUSH1 0x20 DUP7 MUL DUP3 ADD GT ISZERO PUSH3 0x326 JUMPI PUSH3 0x325 PUSH3 0x8B5 JUMP JUMPDEST JUMPDEST PUSH1 0x0 JUMPDEST DUP6 DUP2 LT ISZERO PUSH3 0x35A JUMPI DUP2 PUSH3 0x33F DUP9 DUP3 PUSH3 0x42A JUMP JUMPDEST DUP5 MSTORE PUSH1 0x20 DUP5 ADD SWAP4 POP PUSH1 0x20 DUP4 ADD SWAP3 POP POP PUSH1 0x1 DUP2 ADD SWAP1 POP PUSH3 0x329 JUMP JUMPDEST POP POP POP SWAP4 SWAP3 POP POP POP JUMP JUMPDEST PUSH1 0x0 PUSH3 0x37B PUSH3 0x375 DUP5 PUSH3 0x661 JUMP JUMPDEST PUSH3 0x609 JUMP JUMPDEST SWAP1 POP DUP1 DUP4 DUP3 MSTORE PUSH1 0x20 DUP3 ADD SWAP1 POP DUP3 DUP6 PUSH1 0x20 DUP7 MUL DUP3 ADD GT ISZERO PUSH3 0x3A1 JUMPI PUSH3 0x3A0 PUSH3 0x8B5 JUMP JUMPDEST JUMPDEST PUSH1 0x0 JUMPDEST DUP6 DUP2 LT ISZERO PUSH3 0x3D5 JUMPI DUP2 PUSH3 0x3BA DUP9 DUP3 PUSH3 0x4DA JUMP JUMPDEST DUP5 MSTORE PUSH1 0x20 DUP5 ADD SWAP4 POP PUSH1 0x20 DUP4 ADD SWAP3 POP POP PUSH1 0x1 DUP2 ADD SWAP1 POP PUSH3 0x3A4 JUMP JUMPDEST POP POP POP SWAP4 SWAP3 POP POP POP JUMP JUMPDEST PUSH1 0x0 PUSH3 0x3F6 PUSH3 0x3F0 DUP5 PUSH3 0x690 JUMP JUMPDEST PUSH3 0x609 JUMP JUMPDEST SWAP1 POP DUP3 DUP2 MSTORE PUSH1 0x20 DUP2 ADD DUP5 DUP5 DUP5 ADD GT ISZERO PUSH3 0x415 JUMPI PUSH3 0x414 PUSH3 0x8BA JUMP JUMPDEST JUMPDEST PUSH3 0x422 DUP5 DUP3 DUP6 PUSH3 0x704 JUMP JUMPDEST POP SWAP4 SWAP3 POP POP POP JUMP JUMPDEST PUSH1 0x0 DUP2 MLOAD SWAP1 POP PUSH3 0x43B DUP2 PUSH3 0x8DA JUMP JUMPDEST SWAP3 SWAP2 POP POP JUMP JUMPDEST PUSH1 0x0 DUP3 PUSH1 0x1F DUP4 ADD SLT PUSH3 0x459 JUMPI PUSH3 0x458 PUSH3 0x8B0 JUMP JUMPDEST JUMPDEST DUP2 MLOAD PUSH3 0x46B DUP5 DUP3 PUSH1 0x20 DUP7 ADD PUSH3 0x2E9 JUMP JUMPDEST SWAP2 POP POP SWAP3 SWAP2 POP POP JUMP JUMPDEST PUSH1 0x0 DUP3 PUSH1 0x1F DUP4 ADD SLT PUSH3 0x48C JUMPI PUSH3 0x48B PUSH3 0x8B0 JUMP JUMPDEST JUMPDEST DUP2 MLOAD PUSH3 0x49E DUP5 DUP3 PUSH1 0x20 DUP7 ADD PUSH3 0x364 JUMP JUMPDEST SWAP2 POP POP SWAP3 SWAP2 POP POP JUMP JUMPDEST PUSH1 0x0 DUP3 PUSH1 0x1F DUP4 ADD SLT PUSH3 0x4BF JUMPI PUSH3 0x4BE PUSH3 0x8B0 JUMP JUMPDEST JUMPDEST DUP2 MLOAD PUSH3 0x4D1 DUP5 DUP3 PUSH1 0x20 DUP7 ADD PUSH3 0x3DF JUMP JUMPDEST SWAP2 POP POP SWAP3 SWAP2 POP POP JUMP JUMPDEST PUSH1 0x0 DUP2 MLOAD SWAP1 POP PUSH3 0x4EB DUP2 PUSH3 0x8F4 JUMP JUMPDEST SWAP3 SWAP2 POP POP JUMP JUMPDEST PUSH1 0x0 DUP1 PUSH1 0x0 DUP1 PUSH1 0x0 DUP1 PUSH1 0xC0 DUP8 DUP10 SUB SLT ISZERO PUSH3 0x511 JUMPI PUSH3 0x510 PUSH3 0x8C4 JUMP JUMPDEST JUMPDEST PUSH1 0x0 PUSH3 0x521 DUP10 DUP3 DUP11 ADD PUSH3 0x42A JUMP JUMPDEST SWAP7 POP POP PUSH1 0x20 DUP8 ADD MLOAD PUSH8 0xFFFFFFFFFFFFFFFF DUP2 GT ISZERO PUSH3 0x545 JUMPI PUSH3 0x544 PUSH3 0x8BF JUMP JUMPDEST JUMPDEST PUSH3 0x553 DUP10 DUP3 DUP11 ADD PUSH3 0x4A7 JUMP JUMPDEST SWAP6 POP POP PUSH1 0x40 DUP8 ADD MLOAD PUSH8 0xFFFFFFFFFFFFFFFF DUP2 GT ISZERO PUSH3 0x577 JUMPI PUSH3 0x576 PUSH3 0x8BF JUMP JUMPDEST JUMPDEST PUSH3 0x585 DUP10 DUP3 DUP11 ADD PUSH3 0x4A7 JUMP JUMPDEST SWAP5 POP POP PUSH1 0x60 DUP8 ADD MLOAD PUSH8 0xFFFFFFFFFFFFFFFF DUP2 GT ISZERO PUSH3 0x5A9 JUMPI PUSH3 0x5A8 PUSH3 0x8BF JUMP JUMPDEST JUMPDEST PUSH3 0x5B7 DUP10 DUP3 DUP11 ADD PUSH3 0x441 JUMP JUMPDEST SWAP4 POP POP PUSH1 0x80 DUP8 ADD MLOAD PUSH8 0xFFFFFFFFFFFFFFFF DUP2 GT ISZERO PUSH3 0x5DB JUMPI PUSH3 0x5DA PUSH3 0x8BF JUMP JUMPDEST JUMPDEST PUSH3 0x5E9 DUP10 DUP3 DUP11 ADD PUSH3 0x474 JUMP JUMPDEST SWAP3 POP POP PUSH1 0xA0 PUSH3 0x5FC DUP10 DUP3 DUP11 ADD PUSH3 0x4DA JUMP JUMPDEST SWAP2 POP POP SWAP3 SWAP6 POP SWAP3 SWAP6 POP SWAP3 SWAP6 JUMP JUMPDEST PUSH1 0x0 PUSH3 0x615 PUSH3 0x628 JUMP JUMPDEST SWAP1 POP PUSH3 0x623 DUP3 DUP3 PUSH3 0x770 JUMP JUMPDEST SWAP2 SWAP1 POP JUMP JUMPDEST PUSH1 0x0 PUSH1 0x40 MLOAD SWAP1 POP SWAP1 JUMP JUMPDEST PUSH1 0x0 PUSH8 0xFFFFFFFFFFFFFFFF DUP3 GT ISZERO PUSH3 0x650 JUMPI PUSH3 0x64F PUSH3 0x881 JUMP JUMPDEST JUMPDEST PUSH1 0x20 DUP3 MUL SWAP1 POP PUSH1 0x20 DUP2 ADD SWAP1 POP SWAP2 SWAP1 POP JUMP JUMPDEST PUSH1 0x0 PUSH8 0xFFFFFFFFFFFFFFFF DUP3 GT ISZERO PUSH3 0x67F JUMPI PUSH3 0x67E PUSH3 0x881 JUMP JUMPDEST JUMPDEST PUSH1 0x20 DUP3 MUL SWAP1 POP PUSH1 0x20 DUP2 ADD SWAP1 POP SWAP2 SWAP1 POP JUMP JUMPDEST PUSH1 0x0 PUSH8 0xFFFFFFFFFFFFFFFF DUP3 GT ISZERO PUSH3 0x6AE JUMPI PUSH3 0x6AD PUSH3 0x881 JUMP JUMPDEST JUMPDEST PUSH3 0x6B9 DUP3 PUSH3 0x8C9 JUMP JUMPDEST SWAP1 POP PUSH1 0x20 DUP2 ADD SWAP1 POP SWAP2 SWAP1 POP JUMP JUMPDEST PUSH1 0x0 PUSH3 0x6D3 DUP3 PUSH3 0x6DA JUMP JUMPDEST SWAP1 POP SWAP2 SWAP1 POP JUMP JUMPDEST PUSH1 0x0 PUSH20 0xFFFFFFFFFFFFFFFFFFFFFFFFFFFFFFFFFFFFFFFF DUP3 AND SWAP1 POP SWAP2 SWAP1 POP JUMP JUMPDEST PUSH1 0x0 DUP2 SWAP1 POP SWAP2 SWAP1 POP JUMP JUMPDEST PUSH1 0x0 JUMPDEST DUP4 DUP2 LT ISZERO PUSH3 0x724 JUMPI DUP1 DUP3 ADD MLOAD DUP2 DUP5 ADD MSTORE PUSH1 0x20 DUP2 ADD SWAP1 POP PUSH3 0x707 JUMP JUMPDEST DUP4 DUP2 GT ISZERO PUSH3 0x734 JUMPI PUSH1 0x0 DUP5 DUP5 ADD MSTORE JUMPDEST POP POP POP POP JUMP JUMPDEST PUSH1 0x0 PUSH1 0x2 DUP3 DIV SWAP1 POP PUSH1 0x1 DUP3 AND DUP1 PUSH3 0x753 JUMPI PUSH1 0x7F DUP3 AND SWAP2 POP JUMPDEST PUSH1 0x20 DUP3 LT DUP2 EQ ISZERO PUSH3 0x76A JUMPI PUSH3 0x769 PUSH3 0x823 JUMP JUMPDEST JUMPDEST POP SWAP2 SWAP1 POP JUMP JUMPDEST PUSH3 0x77B DUP3 PUSH3 0x8C9 JUMP JUMPDEST DUP2 ADD DUP2 DUP2 LT PUSH8 0xFFFFFFFFFFFFFFFF DUP3 GT OR ISZERO PUSH3 0x79D JUMPI PUSH3 0x79C PUSH3 0x881 JUMP JUMPDEST JUMPDEST DUP1 PUSH1 0x40 MSTORE POP POP POP JUMP JUMPDEST PUSH1 0x0 PUSH3 0x7B3 DUP3 PUSH3 0x6FA JUMP JUMPDEST SWAP2 POP PUSH32 0xFFFFFFFFFFFFFFFFFFFFFFFFFFFFFFFFFFFFFFFFFFFFFFFFFFFFFFFFFFFFFFFF DUP3 EQ ISZERO PUSH3 0x7E9 JUMPI PUSH3 0x7E8 PUSH3 0x7F4 JUMP JUMPDEST JUMPDEST PUSH1 0x1 DUP3 ADD SWAP1 POP SWAP2 SWAP1 POP JUMP JUMPDEST PUSH32 0x4E487B7100000000000000000000000000000000000000000000000000000000 PUSH1 0x0 MSTORE PUSH1 0x11 PUSH1 0x4 MSTORE PUSH1 0x24 PUSH1 0x0 REVERT JUMPDEST PUSH32 0x4E487B7100000000000000000000000000000000000000000000000000000000 PUSH1 0x0 MSTORE PUSH1 0x22 PUSH1 0x4 MSTORE PUSH1 0x24 PUSH1 0x0 REVERT JUMPDEST PUSH32 0x4E487B7100000000000000000000000000000000000000000000000000000000 PUSH1 0x0 MSTORE PUSH1 0x32 PUSH1 0x4 MSTORE PUSH1 0x24 PUSH1 0x0 REVERT JUMPDEST PUSH32 0x4E487B7100000000000000000000000000000000000000000000000000000000 PUSH1 0x0 MSTORE PUSH1 0x41 PUSH1 0x4 MSTORE PUSH1 0x24 PUSH1 0x0 REVERT JUMPDEST PUSH1 0x0 DUP1 REVERT JUMPDEST PUSH1 0x0 DUP1 REVERT JUMPDEST PUSH1 0x0 DUP1 REVERT JUMPDEST PUSH1 0x0 DUP1 REVERT JUMPDEST PUSH1 0x0 DUP1 REVERT JUMPDEST PUSH1 0x0 PUSH1 0x1F NOT PUSH1 0x1F DUP4 ADD AND SWAP1 POP SWAP2 SWAP1 POP JUMP JUMPDEST PUSH3 0x8E5 DUP2 PUSH3 0x6C6 JUMP JUMPDEST DUP2 EQ PUSH3 0x8F1 JUMPI PUSH1 0x0 DUP1 REVERT JUMPDEST POP JUMP JUMPDEST PUSH3 0x8FF DUP2 PUSH3 0x6FA JUMP JUMPDEST DUP2 EQ PUSH3 0x90B JUMPI PUSH1 0x0 DUP1 REVERT JUMPDEST POP JUMP JUMPDEST PUSH2 0xB42 DUP1 PUSH3 0x91E PUSH1 0x0 CODECOPY PUSH1 0x0 RETURN INVALID PUSH1 0x80 PUSH1 0x40 MSTORE CALLVALUE DUP1 ISZERO PUSH2 0x10 JUMPI PUSH1 0x0 DUP1 REVERT JUMPDEST POP PUSH1 0x4 CALLDATASIZE LT PUSH2 0x9E JUMPI PUSH1 0x0 CALLDATALOAD PUSH1 0xE0 SHR DUP1 PUSH4 0x8F23D5F6 GT PUSH2 0x66 JUMPI DUP1 PUSH4 0x8F23D5F6 EQ PUSH2 0x139 JUMPI DUP1 PUSH4 0x90D524A2 EQ PUSH2 0x157 JUMPI DUP1 PUSH4 0xE2C42E66 EQ PUSH2 0x161 JUMPI DUP1 PUSH4 0xEEDC966A EQ PUSH2 0x17F JUMPI DUP1 PUSH4 0xF7ACA939 EQ PUSH2 0x1AF JUMPI PUSH2 0x9E JUMP JUMPDEST DUP1 PUSH4 0x6FDDE03 EQ PUSH2 0xA3 JUMPI DUP1 PUSH4 0x17D70F7C EQ PUSH2 0xC1 JUMPI DUP1 PUSH4 0x3C130D90 EQ PUSH2 0xDF JUMPI DUP1 PUSH4 0x767800DE EQ PUSH2 0xFD JUMPI DUP1 PUSH4 0x8DA5CB5B EQ PUSH2 0x11B JUMPI JUMPDEST PUSH1 0x0 DUP1 REVERT JUMPDEST PUSH2 0xAB PUSH2 0x1DF JUMP JUMPDEST PUSH1 0x40 MLOAD PUSH2 0xB8 SWAP2 SWAP1 PUSH2 0x843 JUMP JUMPDEST PUSH1 0x40 MLOAD DUP1 SWAP2 SUB SWAP1 RETURN JUMPDEST PUSH2 0xC9 PUSH2 0x26D JUMP JUMPDEST PUSH1 0x40 MLOAD PUSH2 0xD6 SWAP2 SWAP1 PUSH2 0x8A5 JUMP JUMPDEST PUSH1 0x40 MLOAD DUP1 SWAP2 SUB SWAP1 RETURN JUMPDEST PUSH2 0xE7 PUSH2 0x273 JUMP JUMPDEST PUSH1 0x40 MLOAD PUSH2 0xF4 SWAP2 SWAP1 PUSH2 0x843 JUMP JUMPDEST PUSH1 0x40 MLOAD DUP1 SWAP2 SUB SWAP1 RETURN JUMPDEST PUSH2 0x105 PUSH2 0x301 JUMP JUMPDEST PUSH1 0x40 MLOAD PUSH2 0x112 SWAP2 SWAP1 PUSH2 0x7E4 JUMP JUMPDEST PUSH1 0x40 MLOAD DUP1 SWAP2 SUB SWAP1 RETURN JUMPDEST PUSH2 0x123 PUSH2 0x309 JUMP JUMPDEST PUSH1 0x40 MLOAD PUSH2 0x130 SWAP2 SWAP1 PUSH2 0x7E4 JUMP JUMPDEST PUSH1 0x40 MLOAD DUP1 SWAP2 SUB SWAP1 RETURN JUMPDEST PUSH2 0x141 PUSH2 0x32F JUMP JUMPDEST PUSH1 0x40 MLOAD PUSH2 0x14E SWAP2 SWAP1 PUSH2 0x828 JUMP JUMPDEST PUSH1 0x40 MLOAD DUP1 SWAP2 SUB SWAP1 RETURN JUMPDEST PUSH2 0x15F PUSH2 0x342 JUMP JUMPDEST STOP JUMPDEST PUSH2 0x169 PUSH2 0x604 JUMP JUMPDEST PUSH1 0x40 MLOAD PUSH2 0x176 SWAP2 SWAP1 PUSH2 0x828 JUMP JUMPDEST PUSH1 0x40 MLOAD DUP1 SWAP2 SUB SWAP1 RETURN JUMPDEST PUSH2 0x199 PUSH1 0x4 DUP1 CALLDATASIZE SUB DUP2 ADD SWAP1 PUSH2 0x194 SWAP2 SWAP1 PUSH2 0x6B1 JUMP JUMPDEST PUSH2 0x61B JUMP JUMPDEST PUSH1 0x40 MLOAD PUSH2 0x1A6 SWAP2 SWAP1 PUSH2 0x8A5 JUMP JUMPDEST PUSH1 0x40 MLOAD DUP1 SWAP2 SUB SWAP1 RETURN JUMPDEST PUSH2 0x1C9 PUSH1 0x4 DUP1 CALLDATASIZE SUB DUP2 ADD SWAP1 PUSH2 0x1C4 SWAP2 SWAP1 PUSH2 0x70B JUMP JUMPDEST PUSH2 0x633 JUMP JUMPDEST PUSH1 0x40 MLOAD PUSH2 0x1D6 SWAP2 SWAP1 PUSH2 0x7E4 JUMP JUMPDEST PUSH1 0x40 MLOAD DUP1 SWAP2 SUB SWAP1 RETURN JUMPDEST PUSH1 0x3 DUP1 SLOAD PUSH2 0x1EC SWAP1 PUSH2 0x957 JUMP JUMPDEST DUP1 PUSH1 0x1F ADD PUSH1 0x20 DUP1 SWAP2 DIV MUL PUSH1 0x20 ADD PUSH1 0x40 MLOAD SWAP1 DUP2 ADD PUSH1 0x40 MSTORE DUP1 SWAP3 SWAP2 SWAP1 DUP2 DUP2 MSTORE PUSH1 0x20 ADD DUP3 DUP1 SLOAD PUSH2 0x218 SWAP1 PUSH2 0x957 JUMP JUMPDEST DUP1 ISZERO PUSH2 0x265 JUMPI DUP1 PUSH1 0x1F LT PUSH2 0x23A JUMPI PUSH2 0x100 DUP1 DUP4 SLOAD DIV MUL DUP4 MSTORE SWAP2 PUSH1 0x20 ADD SWAP2 PUSH2 0x265 JUMP JUMPDEST DUP3 ADD SWAP2 SWAP1 PUSH1 0x0 MSTORE PUSH1 0x20 PUSH1 0x0 KECCAK256 SWAP1 JUMPDEST DUP2 SLOAD DUP2 MSTORE SWAP1 PUSH1 0x1 ADD SWAP1 PUSH1 0x20 ADD DUP1 DUP4 GT PUSH2 0x248 JUMPI DUP3 SWAP1 SUB PUSH1 0x1F AND DUP3 ADD SWAP2 JUMPDEST POP POP POP POP POP DUP2 JUMP JUMPDEST PUSH1 0x6 SLOAD DUP2 JUMP JUMPDEST PUSH1 0x2 DUP1 SLOAD PUSH2 0x280 SWAP1 PUSH2 0x957 JUMP JUMPDEST DUP1 PUSH1 0x1F ADD PUSH1 0x20 DUP1 SWAP2 DIV MUL PUSH1 0x20 ADD PUSH1 0x40 MLOAD SWAP1 DUP2 ADD PUSH1 0x40 MSTORE DUP1 SWAP3 SWAP2 SWAP1 DUP2 DUP2 MSTORE PUSH1 0x20 ADD DUP3 DUP1 SLOAD PUSH2 0x2AC SWAP1 PUSH2 0x957 JUMP JUMPDEST DUP1 ISZERO PUSH2 0x2F9 JUMPI DUP1 PUSH1 0x1F LT PUSH2 0x2CE JUMPI PUSH2 0x100 DUP1 DUP4 SLOAD DIV MUL DUP4 MSTORE SWAP2 PUSH1 0x20 ADD SWAP2 PUSH2 0x2F9 JUMP JUMPDEST DUP3 ADD SWAP2 SWAP1 PUSH1 0x0 MSTORE PUSH1 0x20 PUSH1 0x0 KECCAK256 SWAP1 JUMPDEST DUP2 SLOAD DUP2 MSTORE SWAP1 PUSH1 0x1 ADD SWAP1 PUSH1 0x20 ADD DUP1 DUP4 GT PUSH2 0x2DC JUMPI DUP3 SWAP1 SUB PUSH1 0x1F AND DUP3 ADD SWAP2 JUMPDEST POP POP POP POP POP DUP2 JUMP JUMPDEST PUSH1 0x0 ADDRESS SWAP1 POP SWAP1 JUMP JUMPDEST PUSH1 0x1 PUSH1 0x0 SWAP1 SLOAD SWAP1 PUSH2 0x100 EXP SWAP1 DIV PUSH20 0xFFFFFFFFFFFFFFFFFFFFFFFFFFFFFFFFFFFFFFFF AND DUP2 JUMP JUMPDEST PUSH1 0x1 PUSH1 0x14 SWAP1 SLOAD SWAP1 PUSH2 0x100 EXP SWAP1 DIV PUSH1 0xFF AND DUP2 JUMP JUMPDEST PUSH1 0x1 PUSH1 0x0 SWAP1 SLOAD SWAP1 PUSH2 0x100 EXP SWAP1 DIV PUSH20 0xFFFFFFFFFFFFFFFFFFFFFFFFFFFFFFFFFFFFFFFF AND PUSH20 0xFFFFFFFFFFFFFFFFFFFFFFFFFFFFFFFFFFFFFFFF AND CALLER PUSH20 0xFFFFFFFFFFFFFFFFFFFFFFFFFFFFFFFFFFFFFFFF AND EQ PUSH2 0x3D2 JUMPI PUSH1 0x40 MLOAD PUSH32 0x8C379A000000000000000000000000000000000000000000000000000000000 DUP2 MSTORE PUSH1 0x4 ADD PUSH2 0x3C9 SWAP1 PUSH2 0x865 JUMP JUMPDEST PUSH1 0x40 MLOAD DUP1 SWAP2 SUB SWAP1 REVERT JUMPDEST PUSH1 0x1 PUSH1 0x14 SWAP1 SLOAD SWAP1 PUSH2 0x100 EXP SWAP1 DIV PUSH1 0xFF AND PUSH2 0x421 JUMPI PUSH1 0x40 MLOAD PUSH32 0x8C379A000000000000000000000000000000000000000000000000000000000 DUP2 MSTORE PUSH1 0x4 ADD PUSH2 0x418 SWAP1 PUSH2 0x885 JUMP JUMPDEST PUSH1 0x40 MLOAD DUP1 SWAP2 SUB SWAP1 REVERT JUMPDEST PUSH1 0x1 PUSH1 0x0 SWAP1 SLOAD SWAP1 PUSH2 0x100 EXP SWAP1 DIV PUSH20 0xFFFFFFFFFFFFFFFFFFFFFFFFFFFFFFFFFFFFFFFF AND PUSH20 0xFFFFFFFFFFFFFFFFFFFFFFFFFFFFFFFFFFFFFFFF AND PUSH2 0x8FC SELFBALANCE SWAP1 DUP2 ISZERO MUL SWAP1 PUSH1 0x40 MLOAD PUSH1 0x0 PUSH1 0x40 MLOAD DUP1 DUP4 SUB DUP2 DUP6 DUP9 DUP9 CALL SWAP4 POP POP POP POP ISZERO DUP1 ISZERO PUSH2 0x489 JUMPI RETURNDATASIZE PUSH1 0x0 DUP1 RETURNDATACOPY RETURNDATASIZE PUSH1 0x0 REVERT JUMPDEST POP PUSH1 0x0 JUMPDEST PUSH1 0x5 DUP1 SLOAD SWAP1 POP DUP2 LT ISZERO PUSH2 0x5E6 JUMPI PUSH1 0x0 PUSH1 0x5 DUP3 DUP2 SLOAD DUP2 LT PUSH2 0x4B0 JUMPI PUSH2 0x4AF PUSH2 0xA30 JUMP JUMPDEST JUMPDEST SWAP1 PUSH1 0x0 MSTORE PUSH1 0x20 PUSH1 0x0 KECCAK256 ADD PUSH1 0x0 SWAP1 SLOAD SWAP1 PUSH2 0x100 EXP SWAP1 DIV PUSH20 0xFFFFFFFFFFFFFFFFFFFFFFFFFFFFFFFFFFFFFFFF AND SWAP1 POP PUSH1 0x0 DUP2 SWAP1 POP DUP1 PUSH20 0xFFFFFFFFFFFFFFFFFFFFFFFFFFFFFFFFFFFFFFFF AND PUSH4 0xA9059CBB PUSH1 0x1 PUSH1 0x0 SWAP1 SLOAD SWAP1 PUSH2 0x100 EXP SWAP1 DIV PUSH20 0xFFFFFFFFFFFFFFFFFFFFFFFFFFFFFFFFFFFFFFFF AND PUSH1 0x4 PUSH1 0x0 DUP7 PUSH20 0xFFFFFFFFFFFFFFFFFFFFFFFFFFFFFFFFFFFFFFFF AND PUSH20 0xFFFFFFFFFFFFFFFFFFFFFFFFFFFFFFFFFFFFFFFF AND DUP2 MSTORE PUSH1 0x20 ADD SWAP1 DUP2 MSTORE PUSH1 0x20 ADD PUSH1 0x0 KECCAK256 SLOAD PUSH1 0x40 MLOAD DUP4 PUSH4 0xFFFFFFFF AND PUSH1 0xE0 SHL DUP2 MSTORE PUSH1 0x4 ADD PUSH2 0x57E SWAP3 SWAP2 SWAP1 PUSH2 0x7FF JUMP JUMPDEST PUSH1 0x20 PUSH1 0x40 MLOAD DUP1 DUP4 SUB DUP2 PUSH1 0x0 DUP8 DUP1 EXTCODESIZE ISZERO DUP1 ISZERO PUSH2 0x598 JUMPI PUSH1 0x0 DUP1 REVERT JUMPDEST POP GAS CALL ISZERO DUP1 ISZERO PUSH2 0x5AC JUMPI RETURNDATASIZE PUSH1 0x0 DUP1 RETURNDATACOPY RETURNDATASIZE PUSH1 0x0 REVERT JUMPDEST POP POP POP POP PUSH1 0x40 MLOAD RETURNDATASIZE PUSH1 0x1F NOT PUSH1 0x1F DUP3 ADD AND DUP3 ADD DUP1 PUSH1 0x40 MSTORE POP DUP2 ADD SWAP1 PUSH2 0x5D0 SWAP2 SWAP1 PUSH2 0x6DE JUMP JUMPDEST POP POP POP DUP1 DUP1 PUSH2 0x5DE SWAP1 PUSH2 0x989 JUMP JUMPDEST SWAP2 POP POP PUSH2 0x48D JUMP JUMPDEST POP PUSH1 0x0 PUSH1 0x1 PUSH1 0x14 PUSH2 0x100 EXP DUP2 SLOAD DUP2 PUSH1 0xFF MUL NOT AND SWAP1 DUP4 ISZERO ISZERO MUL OR SWAP1 SSTORE POP JUMP JUMPDEST PUSH1 0x0 PUSH1 0x1 PUSH1 0x14 SWAP1 SLOAD SWAP1 PUSH2 0x100 EXP SWAP1 DIV PUSH1 0xFF AND SWAP1 POP SWAP1 JUMP JUMPDEST PUSH1 0x4 PUSH1 0x20 MSTORE DUP1 PUSH1 0x0 MSTORE PUSH1 0x40 PUSH1 0x0 KECCAK256 PUSH1 0x0 SWAP2 POP SWAP1 POP SLOAD DUP2 JUMP JUMPDEST PUSH1 0x5 DUP2 DUP2 SLOAD DUP2 LT PUSH2 0x643 JUMPI PUSH1 0x0 DUP1 REVERT JUMPDEST SWAP1 PUSH1 0x0 MSTORE PUSH1 0x20 PUSH1 0x0 KECCAK256 ADD PUSH1 0x0 SWAP2 POP SLOAD SWAP1 PUSH2 0x100 EXP SWAP1 DIV PUSH20 0xFFFFFFFFFFFFFFFFFFFFFFFFFFFFFFFFFFFFFFFF AND DUP2 JUMP JUMPDEST PUSH1 0x0 DUP2 CALLDATALOAD SWAP1 POP PUSH2 0x681 DUP2 PUSH2 0xAC7 JUMP JUMPDEST SWAP3 SWAP2 POP POP JUMP JUMPDEST PUSH1 0x0 DUP2 MLOAD SWAP1 POP PUSH2 0x696 DUP2 PUSH2 0xADE JUMP JUMPDEST SWAP3 SWAP2 POP POP JUMP JUMPDEST PUSH1 0x0 DUP2 CALLDATALOAD SWAP1 POP PUSH2 0x6AB DUP2 PUSH2 0xAF5 JUMP JUMPDEST SWAP3 SWAP2 POP POP JUMP JUMPDEST PUSH1 0x0 PUSH1 0x20 DUP3 DUP5 SUB SLT ISZERO PUSH2 0x6C7 JUMPI PUSH2 0x6C6 PUSH2 0xA5F JUMP JUMPDEST JUMPDEST PUSH1 0x0 PUSH2 0x6D5 DUP5 DUP3 DUP6 ADD PUSH2 0x672 JUMP JUMPDEST SWAP2 POP POP SWAP3 SWAP2 POP POP JUMP JUMPDEST PUSH1 0x0 PUSH1 0x20 DUP3 DUP5 SUB SLT ISZERO PUSH2 0x6F4 JUMPI PUSH2 0x6F3 PUSH2 0xA5F JUMP JUMPDEST JUMPDEST PUSH1 0x0 PUSH2 0x702 DUP5 DUP3 DUP6 ADD PUSH2 0x687 JUMP JUMPDEST SWAP2 POP POP SWAP3 SWAP2 POP POP JUMP JUMPDEST PUSH1 0x0 PUSH1 0x20 DUP3 DUP5 SUB SLT ISZERO PUSH2 0x721 JUMPI PUSH2 0x720 PUSH2 0xA5F JUMP JUMPDEST JUMPDEST PUSH1 0x0 PUSH2 0x72F DUP5 DUP3 DUP6 ADD PUSH2 0x69C JUMP JUMPDEST SWAP2 POP POP SWAP3 SWAP2 POP POP JUMP JUMPDEST PUSH2 0x741 DUP2 PUSH2 0x8DC JUMP JUMPDEST DUP3 MSTORE POP POP JUMP JUMPDEST PUSH2 0x750 DUP2 PUSH2 0x8EE JUMP JUMPDEST DUP3 MSTORE POP POP JUMP JUMPDEST PUSH1 0x0 PUSH2 0x761 DUP3 PUSH2 0x8C0 JUMP JUMPDEST PUSH2 0x76B DUP2 DUP6 PUSH2 0x8CB JUMP JUMPDEST SWAP4 POP PUSH2 0x77B DUP2 DUP6 PUSH1 0x20 DUP7 ADD PUSH2 0x924 JUMP JUMPDEST PUSH2 0x784 DUP2 PUSH2 0xA64 JUMP JUMPDEST DUP5 ADD SWAP2 POP POP SWAP3 SWAP2 POP POP JUMP JUMPDEST PUSH1 0x0 PUSH2 0x79C PUSH1 0x1E DUP4 PUSH2 0x8CB JUMP JUMPDEST SWAP2 POP PUSH2 0x7A7 DUP3 PUSH2 0xA75 JUMP JUMPDEST PUSH1 0x20 DUP3 ADD SWAP1 POP SWAP2 SWAP1 POP JUMP JUMPDEST PUSH1 0x0 PUSH2 0x7BF PUSH1 0x18 DUP4 PUSH2 0x8CB JUMP JUMPDEST SWAP2 POP PUSH2 0x7CA DUP3 PUSH2 0xA9E JUMP JUMPDEST PUSH1 0x20 DUP3 ADD SWAP1 POP SWAP2 SWAP1 POP JUMP JUMPDEST PUSH2 0x7DE DUP2 PUSH2 0x91A JUMP JUMPDEST DUP3 MSTORE POP POP JUMP JUMPDEST PUSH1 0x0 PUSH1 0x20 DUP3 ADD SWAP1 POP PUSH2 0x7F9 PUSH1 0x0 DUP4 ADD DUP5 PUSH2 0x738 JUMP JUMPDEST SWAP3 SWAP2 POP POP JUMP JUMPDEST PUSH1 0x0 PUSH1 0x40 DUP3 ADD SWAP1 POP PUSH2 0x814 PUSH1 0x0 DUP4 ADD DUP6 PUSH2 0x738 JUMP JUMPDEST PUSH2 0x821 PUSH1 0x20 DUP4 ADD DUP5 PUSH2 0x7D5 JUMP JUMPDEST SWAP4 SWAP3 POP POP POP JUMP JUMPDEST PUSH1 0x0 PUSH1 0x20 DUP3 ADD SWAP1 POP PUSH2 0x83D PUSH1 0x0 DUP4 ADD DUP5 PUSH2 0x747 JUMP JUMPDEST SWAP3 SWAP2 POP POP JUMP JUMPDEST PUSH1 0x0 PUSH1 0x20 DUP3 ADD SWAP1 POP DUP2 DUP2 SUB PUSH1 0x0 DUP4 ADD MSTORE PUSH2 0x85D DUP2 DUP5 PUSH2 0x756 JUMP JUMPDEST SWAP1 POP SWAP3 SWAP2 POP POP JUMP JUMPDEST PUSH1 0x0 PUSH1 0x20 DUP3 ADD SWAP1 POP DUP2 DUP2 SUB PUSH1 0x0 DUP4 ADD MSTORE PUSH2 0x87E DUP2 PUSH2 0x78F JUMP JUMPDEST SWAP1 POP SWAP2 SWAP1 POP JUMP JUMPDEST PUSH1 0x0 PUSH1 0x20 DUP3 ADD SWAP1 POP DUP2 DUP2 SUB PUSH1 0x0 DUP4 ADD MSTORE PUSH2 0x89E DUP2 PUSH2 0x7B2 JUMP JUMPDEST SWAP1 POP SWAP2 SWAP1 POP JUMP JUMPDEST PUSH1 0x0 PUSH1 0x20 DUP3 ADD SWAP1 POP PUSH2 0x8BA PUSH1 0x0 DUP4 ADD DUP5 PUSH2 0x7D5 JUMP JUMPDEST SWAP3 SWAP2 POP POP JUMP JUMPDEST PUSH1 0x0 DUP2 MLOAD SWAP1 POP SWAP2 SWAP1 POP JUMP JUMPDEST PUSH1 0x0 DUP3 DUP3 MSTORE PUSH1 0x20 DUP3 ADD SWAP1 POP SWAP3 SWAP2 POP POP JUMP JUMPDEST PUSH1 0x0 PUSH2 0x8E7 DUP3 PUSH2 0x8FA JUMP JUMPDEST SWAP1 POP SWAP2 SWAP1 POP JUMP JUMPDEST PUSH1 0x0 DUP2 ISZERO ISZERO SWAP1 POP SWAP2 SWAP1 POP JUMP JUMPDEST PUSH1 0x0 PUSH20 0xFFFFFFFFFFFFFFFFFFFFFFFFFFFFFFFFFFFFFFFF DUP3 AND SWAP1 POP SWAP2 SWAP1 POP JUMP JUMPDEST PUSH1 0x0 DUP2 SWAP1 POP SWAP2 SWAP1 POP JUMP JUMPDEST PUSH1 0x0 JUMPDEST DUP4 DUP2 LT ISZERO PUSH2 0x942 JUMPI DUP1 DUP3 ADD MLOAD DUP2 DUP5 ADD MSTORE PUSH1 0x20 DUP2 ADD SWAP1 POP PUSH2 0x927 JUMP JUMPDEST DUP4 DUP2 GT ISZERO PUSH2 0x951 JUMPI PUSH1 0x0 DUP5 DUP5 ADD MSTORE JUMPDEST POP POP POP POP JUMP JUMPDEST PUSH1 0x0 PUSH1 0x2 DUP3 DIV SWAP1 POP PUSH1 0x1 DUP3 AND DUP1 PUSH2 0x96F JUMPI PUSH1 0x7F DUP3 AND SWAP2 POP JUMPDEST PUSH1 0x20 DUP3 LT DUP2 EQ ISZERO PUSH2 0x983 JUMPI PUSH2 0x982 PUSH2 0xA01 JUMP JUMPDEST JUMPDEST POP SWAP2 SWAP1 POP JUMP JUMPDEST PUSH1 0x0 PUSH2 0x994 DUP3 PUSH2 0x91A JUMP JUMPDEST SWAP2 POP PUSH32 0xFFFFFFFFFFFFFFFFFFFFFFFFFFFFFFFFFFFFFFFFFFFFFFFFFFFFFFFFFFFFFFFF DUP3 EQ ISZERO PUSH2 0x9C7 JUMPI PUSH2 0x9C6 PUSH2 0x9D2 JUMP JUMPDEST JUMPDEST PUSH1 0x1 DUP3 ADD SWAP1 POP SWAP2 SWAP1 POP JUMP JUMPDEST PUSH32 0x4E487B7100000000000000000000000000000000000000000000000000000000 PUSH1 0x0 MSTORE PUSH1 0x11 PUSH1 0x4 MSTORE PUSH1 0x24 PUSH1 0x0 REVERT JUMPDEST PUSH32 0x4E487B7100000000000000000000000000000000000000000000000000000000 PUSH1 0x0 MSTORE PUSH1 0x22 PUSH1 0x4 MSTORE PUSH1 0x24 PUSH1 0x0 REVERT JUMPDEST PUSH32 0x4E487B7100000000000000000000000000000000000000000000000000000000 PUSH1 0x0 MSTORE PUSH1 0x32 PUSH1 0x4 MSTORE PUSH1 0x24 PUSH1 0x0 REVERT JUMPDEST PUSH1 0x0 DUP1 REVERT JUMPDEST PUSH1 0x0 PUSH1 0x1F NOT PUSH1 0x1F DUP4 ADD AND SWAP1 POP SWAP2 SWAP1 POP JUMP JUMPDEST PUSH32 0x4F6E6C79204F776E65722063616E20756E7061636B20546F6B656E697A2E0000 PUSH1 0x0 DUP3 ADD MSTORE POP JUMP JUMPDEST PUSH32 0x416C726561647920756E7061636B656420546F6B656E697A0000000000000000 PUSH1 0x0 DUP3 ADD MSTORE POP JUMP JUMPDEST PUSH2 0xAD0 DUP2 PUSH2 0x8DC JUMP JUMPDEST DUP2 EQ PUSH2 0xADB JUMPI PUSH1 0x0 DUP1 REVERT JUMPDEST POP JUMP JUMPDEST PUSH2 0xAE7 DUP2 PUSH2 0x8EE JUMP JUMPDEST DUP2 EQ PUSH2 0xAF2 JUMPI PUSH1 0x0 DUP1 REVERT JUMPDEST POP JUMP JUMPDEST PUSH2 0xAFE DUP2 PUSH2 0x91A JUMP JUMPDEST DUP2 EQ PUSH2 0xB09 JUMPI PUSH1 0x0 DUP1 REVERT JUMPDEST POP JUMP INVALID LOG2 PUSH5 0x6970667358 0x22 SLT KECCAK256 0x5E 0xE7 CALLDATACOPY SELFBALANCE CODESIZE PUSH20 0x13C6AD1900399C9DFA289699034A1162FFC75085 PUSH4 0x8A5ECC34 0xCF PUSH5 0x736F6C6343 STOP ADDMOD SMOD STOP CALLER "
				},
				"gasEstimates": {
					"creation": {
						"codeDepositCost": "576400",
						"executionCost": "infinite",
						"totalCost": "infinite"
					},
					"external": {
						"addr()": "452",
						"isPacked()": "2573",
						"name()": "infinite",
						"owner()": "2603",
						"packed()": "2521",
						"tokenBalance(address)": "2880",
						"tokenId()": "2452",
						"tokenURI()": "infinite",
						"tokensAddresses(uint256)": "5044",
						"unPack()": "infinite"
					},
					"internal": {
						"_safeTransfer(address,address)": "infinite",
						"_safeUnPack()": "infinite"
					}
				},
				"methodIdentifiers": {
					"addr()": "767800de",
					"isPacked()": "e2c42e66",
					"name()": "06fdde03",
					"owner()": "8da5cb5b",
					"packed()": "8f23d5f6",
					"tokenBalance(address)": "eedc966a",
					"tokenId()": "17d70f7c",
					"tokenURI()": "3c130d90",
					"tokensAddresses(uint256)": "f7aca939",
					"unPack()": "90d524a2"
				}
			},
			"storageLayout": {
				"storage": [
					{
						"astId": 13,
						"contract": "tron/tokeniz.sol:Tokeniz",
						"label": "TokenizAdmin",
						"offset": 0,
						"slot": "0",
						"type": "t_address"
					},
					{
						"astId": 15,
						"contract": "tron/tokeniz.sol:Tokeniz",
						"label": "owner",
						"offset": 0,
						"slot": "1",
						"type": "t_address"
					},
					{
						"astId": 17,
						"contract": "tron/tokeniz.sol:Tokeniz",
						"label": "packed",
						"offset": 20,
						"slot": "1",
						"type": "t_bool"
					},
					{
						"astId": 19,
						"contract": "tron/tokeniz.sol:Tokeniz",
						"label": "tokenURI",
						"offset": 0,
						"slot": "2",
						"type": "t_string_storage"
					},
					{
						"astId": 21,
						"contract": "tron/tokeniz.sol:Tokeniz",
						"label": "name",
						"offset": 0,
						"slot": "3",
						"type": "t_string_storage"
					},
					{
						"astId": 25,
						"contract": "tron/tokeniz.sol:Tokeniz",
						"label": "tokenBalance",
						"offset": 0,
						"slot": "4",
						"type": "t_mapping(t_address,t_uint256)"
					},
					{
						"astId": 28,
						"contract": "tron/tokeniz.sol:Tokeniz",
						"label": "tokensAddresses",
						"offset": 0,
						"slot": "5",
						"type": "t_array(t_address)dyn_storage"
					},
					{
						"astId": 30,
						"contract": "tron/tokeniz.sol:Tokeniz",
						"label": "tokenId",
						"offset": 0,
						"slot": "6",
						"type": "t_uint256"
					}
				],
				"types": {
					"t_address": {
						"encoding": "inplace",
						"label": "address",
						"numberOfBytes": "20"
					},
					"t_array(t_address)dyn_storage": {
						"base": "t_address",
						"encoding": "dynamic_array",
						"label": "address[]",
						"numberOfBytes": "32"
					},
					"t_bool": {
						"encoding": "inplace",
						"label": "bool",
						"numberOfBytes": "1"
					},
					"t_mapping(t_address,t_uint256)": {
						"encoding": "mapping",
						"key": "t_address",
						"label": "mapping(address => uint256)",
						"numberOfBytes": "32",
						"value": "t_uint256"
					},
					"t_string_storage": {
						"encoding": "bytes",
						"label": "string",
						"numberOfBytes": "32"
					},
					"t_uint256": {
						"encoding": "inplace",
						"label": "uint256",
						"numberOfBytes": "32"
					}
				}
			},
			"userdoc": {
				"kind": "user",
				"methods": {},
				"version": 1
			}
		}
	}
}