{
	"tron/tokeniz.sol": {
		"Tokeniz": {
			"abi": [
				{
					"inputs": [
						{
							"internalType": "address",
							"name": "_initiator",
							"type": "address"
						},
						{
							"internalType": "string",
							"name": "_name",
							"type": "string"
						},
						{
							"internalType": "string",
							"name": "_tokenURI",
							"type": "string"
						},
						{
							"internalType": "address[]",
							"name": "_tokensAddresses",
							"type": "address[]"
						},
						{
							"internalType": "uint256[]",
							"name": "_amounts",
							"type": "uint256[]"
						},
						{
							"internalType": "uint256",
							"name": "_tokenID",
							"type": "uint256"
						},
						{
							"internalType": "address",
							"name": "_tokenizAdmin",
							"type": "address"
						}
					],
					"stateMutability": "nonpayable",
					"type": "constructor"
				},
				{
					"anonymous": false,
					"inputs": [
						{
							"indexed": false,
							"internalType": "uint256",
							"name": "stage",
							"type": "uint256"
						}
					],
					"name": "minttoken",
					"type": "event"
				},
				{
					"inputs": [
						{
							"internalType": "address",
							"name": "_initiator",
							"type": "address"
						},
						{
							"internalType": "address",
							"name": "receiver",
							"type": "address"
						}
					],
					"name": "_safeTransfer",
					"outputs": [],
					"stateMutability": "nonpayable",
					"type": "function"
				},
				{
					"inputs": [],
					"name": "_safeUnPack",
					"outputs": [],
					"stateMutability": "nonpayable",
					"type": "function"
				},
				{
					"inputs": [],
					"name": "isPacked",
					"outputs": [
						{
							"internalType": "bool",
							"name": "",
							"type": "bool"
						}
					],
					"stateMutability": "view",
					"type": "function"
				},
				{
					"inputs": [],
					"name": "name",
					"outputs": [
						{
							"internalType": "string",
							"name": "",
							"type": "string"
						}
					],
					"stateMutability": "view",
					"type": "function"
				},
				{
					"inputs": [],
					"name": "owner",
					"outputs": [
						{
							"internalType": "address",
							"name": "",
							"type": "address"
						}
					],
					"stateMutability": "view",
					"type": "function"
				},
				{
					"inputs": [],
					"name": "packed",
					"outputs": [
						{
							"internalType": "bool",
							"name": "",
							"type": "bool"
						}
					],
					"stateMutability": "view",
					"type": "function"
				},
				{
					"inputs": [
						{
							"internalType": "address",
							"name": "",
							"type": "address"
						}
					],
					"name": "tokenBalance",
					"outputs": [
						{
							"internalType": "uint256",
							"name": "",
							"type": "uint256"
						}
					],
					"stateMutability": "view",
					"type": "function"
				},
				{
					"inputs": [],
					"name": "tokenId",
					"outputs": [
						{
							"internalType": "uint256",
							"name": "",
							"type": "uint256"
						}
					],
					"stateMutability": "view",
					"type": "function"
				},
				{
					"inputs": [],
					"name": "tokenURI",
					"outputs": [
						{
							"internalType": "string",
							"name": "",
							"type": "string"
						}
					],
					"stateMutability": "view",
					"type": "function"
				},
				{
					"inputs": [
						{
							"internalType": "uint256",
							"name": "",
							"type": "uint256"
						}
					],
					"name": "tokensAddresses",
					"outputs": [
						{
							"internalType": "address",
							"name": "",
							"type": "address"
						}
					],
					"stateMutability": "view",
					"type": "function"
				},
				{
					"inputs": [],
					"name": "unPack",
					"outputs": [],
					"stateMutability": "nonpayable",
					"type": "function"
				}
			],
			"devdoc": {
				"kind": "dev",
				"methods": {
					"constructor": {
						"details": "Create a new Tokeniz to choose one of."
					}
				},
				"version": 1
			},
			"evm": {
				"assembly": "    /* \"tron/tokeniz.sol\":456:2871  contract Tokeniz{\r... */\n  mstore(0x40, 0x80)\n    /* \"tron/tokeniz.sol\":849:1423  constructor(address _initiator, string memory _name, string memory _tokenURI, address[] memory _tokensAddresses, uint[] memory _amounts, uint256 _tokenID,address _tokenizAdmin) {\r... */\n  callvalue\n  dup1\n  iszero\n  tag_1\n  jumpi\n  0x00\n  dup1\n  revert\ntag_1:\n  pop\n  mload(0x40)\n  sub(codesize, bytecodeSize)\n  dup1\n  bytecodeSize\n  dup4\n  codecopy\n  dup2\n  dup2\n  add\n  0x40\n  mstore\n  dup2\n  add\n  swap1\n  tag_2\n  swap2\n  swap1\n  tag_3\n  jump\t// in\ntag_2:\n    /* \"tron/tokeniz.sol\":1042:1054  minttoken(6) */\n  0xd4f7329e9171f08c730187171cde1ab6f70848b01b8ad54d350ccb5e554b957f\n    /* \"tron/tokeniz.sol\":1052:1053  6 */\n  0x06\n    /* \"tron/tokeniz.sol\":1042:1054  minttoken(6) */\n  mload(0x40)\n  tag_6\n  swap2\n  swap1\n  tag_7\n  jump\t// in\ntag_6:\n  mload(0x40)\n  dup1\n  swap2\n  sub\n  swap1\n  log1\n    /* \"tron/tokeniz.sol\":1080:1093  _tokenizAdmin */\n  dup1\n    /* \"tron/tokeniz.sol\":1065:1077  TokenizAdmin */\n  0x00\n  dup1\n    /* \"tron/tokeniz.sol\":1065:1093  TokenizAdmin = _tokenizAdmin */\n  0x0100\n  exp\n  dup2\n  sload\n  dup2\n  0xffffffffffffffffffffffffffffffffffffffff\n  mul\n  not\n  and\n  swap1\n  dup4\n  0xffffffffffffffffffffffffffffffffffffffff\n  and\n  mul\n  or\n  swap1\n  sstore\n  pop\n    /* \"tron/tokeniz.sol\":1112:1122  _initiator */\n  dup7\n    /* \"tron/tokeniz.sol\":1104:1109  owner */\n  0x01\n  0x00\n    /* \"tron/tokeniz.sol\":1104:1122  owner = _initiator */\n  0x0100\n  exp\n  dup2\n  sload\n  dup2\n  0xffffffffffffffffffffffffffffffffffffffff\n  mul\n  not\n  and\n  swap1\n  dup4\n  0xffffffffffffffffffffffffffffffffffffffff\n  and\n  mul\n  or\n  swap1\n  sstore\n  pop\n    /* \"tron/tokeniz.sol\":1143:1147  true */\n  0x01\n    /* \"tron/tokeniz.sol\":1134:1140  packed */\n  dup1\n  0x14\n    /* \"tron/tokeniz.sol\":1134:1147  packed = true */\n  0x0100\n  exp\n  dup2\n  sload\n  dup2\n  0xff\n  mul\n  not\n  and\n  swap1\n  dup4\n  iszero\n  iszero\n  mul\n  or\n  swap1\n  sstore\n  pop\n    /* \"tron/tokeniz.sol\":1163:1169  uint i */\n  0x00\n    /* \"tron/tokeniz.sol\":1158:1337  for (uint i = 0; i < _tokensAddresses.length; i++) {\r... */\ntag_8:\n    /* \"tron/tokeniz.sol\":1179:1195  _tokensAddresses */\n  dup5\n    /* \"tron/tokeniz.sol\":1179:1202  _tokensAddresses.length */\n  mload\n    /* \"tron/tokeniz.sol\":1175:1176  i */\n  dup2\n    /* \"tron/tokeniz.sol\":1175:1202  i < _tokensAddresses.length */\n  lt\n    /* \"tron/tokeniz.sol\":1158:1337  for (uint i = 0; i < _tokensAddresses.length; i++) {\r... */\n  iszero\n  tag_9\n  jumpi\n    /* \"tron/tokeniz.sol\":1224:1239  tokensAddresses */\n  0x05\n    /* \"tron/tokeniz.sol\":1245:1261  _tokensAddresses */\n  dup6\n    /* \"tron/tokeniz.sol\":1262:1263  i */\n  dup3\n    /* \"tron/tokeniz.sol\":1245:1264  _tokensAddresses[i] */\n  dup2\n  mload\n  dup2\n  lt\n  tag_11\n  jumpi\n  tag_12\n  tag_13\n  jump\t// in\ntag_12:\ntag_11:\n  0x20\n  mul\n  0x20\n  add\n  add\n  mload\n    /* \"tron/tokeniz.sol\":1224:1265  tokensAddresses.push(_tokensAddresses[i]) */\n  swap1\n  dup1\n  0x01\n  dup2\n  sload\n  add\n  dup1\n  dup3\n  sstore\n  dup1\n  swap2\n  pop\n  pop\n  0x01\n  swap1\n  sub\n  swap1\n  0x00\n  mstore\n  keccak256(0x00, 0x20)\n  add\n  0x00\n  swap1\n  swap2\n  swap1\n  swap2\n  swap1\n  swap2\n  0x0100\n  exp\n  dup2\n  sload\n  dup2\n  0xffffffffffffffffffffffffffffffffffffffff\n  mul\n  not\n  and\n  swap1\n  dup4\n  0xffffffffffffffffffffffffffffffffffffffff\n  and\n  mul\n  or\n  swap1\n  sstore\n  pop\n    /* \"tron/tokeniz.sol\":1314:1322  _amounts */\n  dup4\n    /* \"tron/tokeniz.sol\":1323:1324  i */\n  dup2\n    /* \"tron/tokeniz.sol\":1314:1325  _amounts[i] */\n  dup2\n  mload\n  dup2\n  lt\n  tag_15\n  jumpi\n  tag_16\n  tag_13\n  jump\t// in\ntag_16:\ntag_15:\n  0x20\n  mul\n  0x20\n  add\n  add\n  mload\n    /* \"tron/tokeniz.sol\":1280:1292  tokenBalance */\n  0x04\n    /* \"tron/tokeniz.sol\":1280:1313  tokenBalance[_tokensAddresses[i]] */\n  0x00\n    /* \"tron/tokeniz.sol\":1293:1309  _tokensAddresses */\n  dup8\n    /* \"tron/tokeniz.sol\":1310:1311  i */\n  dup5\n    /* \"tron/tokeniz.sol\":1293:1312  _tokensAddresses[i] */\n  dup2\n  mload\n  dup2\n  lt\n  tag_17\n  jumpi\n  tag_18\n  tag_13\n  jump\t// in\ntag_18:\ntag_17:\n  0x20\n  mul\n  0x20\n  add\n  add\n  mload\n    /* \"tron/tokeniz.sol\":1280:1313  tokenBalance[_tokensAddresses[i]] */\n  0xffffffffffffffffffffffffffffffffffffffff\n  and\n  0xffffffffffffffffffffffffffffffffffffffff\n  and\n  dup2\n  mstore\n  0x20\n  add\n  swap1\n  dup2\n  mstore\n  0x20\n  add\n  0x00\n  keccak256\n    /* \"tron/tokeniz.sol\":1280:1325  tokenBalance[_tokensAddresses[i]]=_amounts[i] */\n  dup2\n  swap1\n  sstore\n  pop\n    /* \"tron/tokeniz.sol\":1204:1207  i++ */\n  dup1\n  dup1\n  tag_19\n  swap1\n  tag_20\n  jump\t// in\ntag_19:\n  swap2\n  pop\n  pop\n    /* \"tron/tokeniz.sol\":1158:1337  for (uint i = 0; i < _tokensAddresses.length; i++) {\r... */\n  jump(tag_8)\ntag_9:\n  pop\n    /* \"tron/tokeniz.sol\":1356:1365  _tokenURI */\n  dup5\n    /* \"tron/tokeniz.sol\":1347:1355  tokenURI */\n  0x02\n    /* \"tron/tokeniz.sol\":1347:1365  tokenURI=_tokenURI */\n  swap1\n  dup1\n  mload\n  swap1\n  0x20\n  add\n  swap1\n  tag_21\n  swap3\n  swap2\n  swap1\n  tag_22\n  jump\t// in\ntag_21:\n  pop\n    /* \"tron/tokeniz.sol\":1382:1387  _name */\n  dup6\n    /* \"tron/tokeniz.sol\":1376:1380  name */\n  0x03\n    /* \"tron/tokeniz.sol\":1376:1387  name= _name */\n  swap1\n  dup1\n  mload\n  swap1\n  0x20\n  add\n  swap1\n  tag_23\n  swap3\n  swap2\n  swap1\n  tag_22\n  jump\t// in\ntag_23:\n  pop\n    /* \"tron/tokeniz.sol\":1407:1415  _tokenID */\n  dup2\n    /* \"tron/tokeniz.sol\":1398:1405  tokenId */\n  0x06\n    /* \"tron/tokeniz.sol\":1398:1415  tokenId= _tokenID */\n  dup2\n  swap1\n  sstore\n  pop\n    /* \"tron/tokeniz.sol\":849:1423  constructor(address _initiator, string memory _name, string memory _tokenURI, address[] memory _tokensAddresses, uint[] memory _amounts, uint256 _tokenID,address _tokenizAdmin) {\r... */\n  pop\n  pop\n  pop\n  pop\n  pop\n  pop\n  pop\n    /* \"tron/tokeniz.sol\":456:2871  contract Tokeniz{\r... */\n  jump(tag_24)\ntag_22:\n  dup3\n  dup1\n  sload\n  tag_25\n  swap1\n  tag_26\n  jump\t// in\ntag_25:\n  swap1\n  0x00\n  mstore\n  keccak256(0x00, 0x20)\n  swap1\n  0x1f\n  add\n  0x20\n  swap1\n  div\n  dup2\n  add\n  swap3\n  dup3\n  tag_28\n  jumpi\n  0x00\n  dup6\n  sstore\n  jump(tag_27)\ntag_28:\n  dup3\n  0x1f\n  lt\n  tag_29\n  jumpi\n  dup1\n  mload\n  not(0xff)\n  and\n  dup4\n  dup1\n  add\n  or\n  dup6\n  sstore\n  jump(tag_27)\ntag_29:\n  dup3\n  dup1\n  add\n  0x01\n  add\n  dup6\n  sstore\n  dup3\n  iszero\n  tag_27\n  jumpi\n  swap2\n  dup3\n  add\ntag_30:\n  dup3\n  dup2\n  gt\n  iszero\n  tag_31\n  jumpi\n  dup3\n  mload\n  dup3\n  sstore\n  swap2\n  0x20\n  add\n  swap2\n  swap1\n  0x01\n  add\n  swap1\n  jump(tag_30)\ntag_31:\ntag_27:\n  pop\n  swap1\n  pop\n  tag_32\n  swap2\n  swap1\n  tag_33\n  jump\t// in\ntag_32:\n  pop\n  swap1\n  jump\t// out\ntag_33:\ntag_34:\n  dup1\n  dup3\n  gt\n  iszero\n  tag_35\n  jumpi\n  0x00\n  dup2\n  0x00\n  swap1\n  sstore\n  pop\n  0x01\n  add\n  jump(tag_34)\ntag_35:\n  pop\n  swap1\n  jump\t// out\n    /* \"#utility.yul\":24:768   */\ntag_37:\n    /* \"#utility.yul\":131:136   */\n  0x00\n    /* \"#utility.yul\":156:237   */\n  tag_39\n    /* \"#utility.yul\":172:236   */\n  tag_40\n    /* \"#utility.yul\":229:235   */\n  dup5\n    /* \"#utility.yul\":172:236   */\n  tag_41\n  jump\t// in\ntag_40:\n    /* \"#utility.yul\":156:237   */\n  tag_42\n  jump\t// in\ntag_39:\n    /* \"#utility.yul\":147:237   */\n  swap1\n  pop\n    /* \"#utility.yul\":257:262   */\n  dup1\n    /* \"#utility.yul\":286:292   */\n  dup4\n    /* \"#utility.yul\":279:284   */\n  dup3\n    /* \"#utility.yul\":272:293   */\n  mstore\n    /* \"#utility.yul\":320:324   */\n  0x20\n    /* \"#utility.yul\":313:318   */\n  dup3\n    /* \"#utility.yul\":309:325   */\n  add\n    /* \"#utility.yul\":302:325   */\n  swap1\n  pop\n    /* \"#utility.yul\":346:352   */\n  dup3\n    /* \"#utility.yul\":396:399   */\n  dup6\n    /* \"#utility.yul\":388:392   */\n  0x20\n    /* \"#utility.yul\":380:386   */\n  dup7\n    /* \"#utility.yul\":376:393   */\n  mul\n    /* \"#utility.yul\":371:374   */\n  dup3\n    /* \"#utility.yul\":367:394   */\n  add\n    /* \"#utility.yul\":364:400   */\n  gt\n    /* \"#utility.yul\":361:504   */\n  iszero\n  tag_43\n  jumpi\n    /* \"#utility.yul\":415:494   */\n  tag_44\n  tag_45\n  jump\t// in\ntag_44:\n    /* \"#utility.yul\":361:504   */\ntag_43:\n    /* \"#utility.yul\":528:529   */\n  0x00\n    /* \"#utility.yul\":513:762   */\ntag_46:\n    /* \"#utility.yul\":538:544   */\n  dup6\n    /* \"#utility.yul\":535:536   */\n  dup2\n    /* \"#utility.yul\":532:545   */\n  lt\n    /* \"#utility.yul\":513:762   */\n  iszero\n  tag_48\n  jumpi\n    /* \"#utility.yul\":606:609   */\n  dup2\n    /* \"#utility.yul\":635:683   */\n  tag_49\n    /* \"#utility.yul\":679:682   */\n  dup9\n    /* \"#utility.yul\":667:677   */\n  dup3\n    /* \"#utility.yul\":635:683   */\n  tag_50\n  jump\t// in\ntag_49:\n    /* \"#utility.yul\":630:633   */\n  dup5\n    /* \"#utility.yul\":623:684   */\n  mstore\n    /* \"#utility.yul\":713:717   */\n  0x20\n    /* \"#utility.yul\":708:711   */\n  dup5\n    /* \"#utility.yul\":704:718   */\n  add\n    /* \"#utility.yul\":697:718   */\n  swap4\n  pop\n    /* \"#utility.yul\":747:751   */\n  0x20\n    /* \"#utility.yul\":742:745   */\n  dup4\n    /* \"#utility.yul\":738:752   */\n  add\n    /* \"#utility.yul\":731:752   */\n  swap3\n  pop\n    /* \"#utility.yul\":573:762   */\n  pop\n    /* \"#utility.yul\":560:561   */\n  0x01\n    /* \"#utility.yul\":557:558   */\n  dup2\n    /* \"#utility.yul\":553:562   */\n  add\n    /* \"#utility.yul\":548:562   */\n  swap1\n  pop\n    /* \"#utility.yul\":513:762   */\n  jump(tag_46)\ntag_48:\n    /* \"#utility.yul\":517:531   */\n  pop\n    /* \"#utility.yul\":137:768   */\n  pop\n  pop\n    /* \"#utility.yul\":24:768   */\n  swap4\n  swap3\n  pop\n  pop\n  pop\n  jump\t// out\n    /* \"#utility.yul\":791:1535   */\ntag_51:\n    /* \"#utility.yul\":898:903   */\n  0x00\n    /* \"#utility.yul\":923:1004   */\n  tag_53\n    /* \"#utility.yul\":939:1003   */\n  tag_54\n    /* \"#utility.yul\":996:1002   */\n  dup5\n    /* \"#utility.yul\":939:1003   */\n  tag_55\n  jump\t// in\ntag_54:\n    /* \"#utility.yul\":923:1004   */\n  tag_42\n  jump\t// in\ntag_53:\n    /* \"#utility.yul\":914:1004   */\n  swap1\n  pop\n    /* \"#utility.yul\":1024:1029   */\n  dup1\n    /* \"#utility.yul\":1053:1059   */\n  dup4\n    /* \"#utility.yul\":1046:1051   */\n  dup3\n    /* \"#utility.yul\":1039:1060   */\n  mstore\n    /* \"#utility.yul\":1087:1091   */\n  0x20\n    /* \"#utility.yul\":1080:1085   */\n  dup3\n    /* \"#utility.yul\":1076:1092   */\n  add\n    /* \"#utility.yul\":1069:1092   */\n  swap1\n  pop\n    /* \"#utility.yul\":1113:1119   */\n  dup3\n    /* \"#utility.yul\":1163:1166   */\n  dup6\n    /* \"#utility.yul\":1155:1159   */\n  0x20\n    /* \"#utility.yul\":1147:1153   */\n  dup7\n    /* \"#utility.yul\":1143:1160   */\n  mul\n    /* \"#utility.yul\":1138:1141   */\n  dup3\n    /* \"#utility.yul\":1134:1161   */\n  add\n    /* \"#utility.yul\":1131:1167   */\n  gt\n    /* \"#utility.yul\":1128:1271   */\n  iszero\n  tag_56\n  jumpi\n    /* \"#utility.yul\":1182:1261   */\n  tag_57\n  tag_45\n  jump\t// in\ntag_57:\n    /* \"#utility.yul\":1128:1271   */\ntag_56:\n    /* \"#utility.yul\":1295:1296   */\n  0x00\n    /* \"#utility.yul\":1280:1529   */\ntag_58:\n    /* \"#utility.yul\":1305:1311   */\n  dup6\n    /* \"#utility.yul\":1302:1303   */\n  dup2\n    /* \"#utility.yul\":1299:1312   */\n  lt\n    /* \"#utility.yul\":1280:1529   */\n  iszero\n  tag_60\n  jumpi\n    /* \"#utility.yul\":1373:1376   */\n  dup2\n    /* \"#utility.yul\":1402:1450   */\n  tag_61\n    /* \"#utility.yul\":1446:1449   */\n  dup9\n    /* \"#utility.yul\":1434:1444   */\n  dup3\n    /* \"#utility.yul\":1402:1450   */\n  tag_62\n  jump\t// in\ntag_61:\n    /* \"#utility.yul\":1397:1400   */\n  dup5\n    /* \"#utility.yul\":1390:1451   */\n  mstore\n    /* \"#utility.yul\":1480:1484   */\n  0x20\n    /* \"#utility.yul\":1475:1478   */\n  dup5\n    /* \"#utility.yul\":1471:1485   */\n  add\n    /* \"#utility.yul\":1464:1485   */\n  swap4\n  pop\n    /* \"#utility.yul\":1514:1518   */\n  0x20\n    /* \"#utility.yul\":1509:1512   */\n  dup4\n    /* \"#utility.yul\":1505:1519   */\n  add\n    /* \"#utility.yul\":1498:1519   */\n  swap3\n  pop\n    /* \"#utility.yul\":1340:1529   */\n  pop\n    /* \"#utility.yul\":1327:1328   */\n  0x01\n    /* \"#utility.yul\":1324:1325   */\n  dup2\n    /* \"#utility.yul\":1320:1329   */\n  add\n    /* \"#utility.yul\":1315:1329   */\n  swap1\n  pop\n    /* \"#utility.yul\":1280:1529   */\n  jump(tag_58)\ntag_60:\n    /* \"#utility.yul\":1284:1298   */\n  pop\n    /* \"#utility.yul\":904:1535   */\n  pop\n  pop\n    /* \"#utility.yul\":791:1535   */\n  swap4\n  swap3\n  pop\n  pop\n  pop\n  jump\t// out\n    /* \"#utility.yul\":1541:1962   */\ntag_63:\n    /* \"#utility.yul\":1630:1635   */\n  0x00\n    /* \"#utility.yul\":1655:1721   */\n  tag_65\n    /* \"#utility.yul\":1671:1720   */\n  tag_66\n    /* \"#utility.yul\":1713:1719   */\n  dup5\n    /* \"#utility.yul\":1671:1720   */\n  tag_67\n  jump\t// in\ntag_66:\n    /* \"#utility.yul\":1655:1721   */\n  tag_42\n  jump\t// in\ntag_65:\n    /* \"#utility.yul\":1646:1721   */\n  swap1\n  pop\n    /* \"#utility.yul\":1744:1750   */\n  dup3\n    /* \"#utility.yul\":1737:1742   */\n  dup2\n    /* \"#utility.yul\":1730:1751   */\n  mstore\n    /* \"#utility.yul\":1782:1786   */\n  0x20\n    /* \"#utility.yul\":1775:1780   */\n  dup2\n    /* \"#utility.yul\":1771:1787   */\n  add\n    /* \"#utility.yul\":1820:1823   */\n  dup5\n    /* \"#utility.yul\":1811:1817   */\n  dup5\n    /* \"#utility.yul\":1806:1809   */\n  dup5\n    /* \"#utility.yul\":1802:1818   */\n  add\n    /* \"#utility.yul\":1799:1824   */\n  gt\n    /* \"#utility.yul\":1796:1908   */\n  iszero\n  tag_68\n  jumpi\n    /* \"#utility.yul\":1827:1906   */\n  tag_69\n  tag_70\n  jump\t// in\ntag_69:\n    /* \"#utility.yul\":1796:1908   */\ntag_68:\n    /* \"#utility.yul\":1917:1956   */\n  tag_71\n    /* \"#utility.yul\":1949:1955   */\n  dup5\n    /* \"#utility.yul\":1944:1947   */\n  dup3\n    /* \"#utility.yul\":1939:1942   */\n  dup6\n    /* \"#utility.yul\":1917:1956   */\n  tag_72\n  jump\t// in\ntag_71:\n    /* \"#utility.yul\":1636:1962   */\n  pop\n    /* \"#utility.yul\":1541:1962   */\n  swap4\n  swap3\n  pop\n  pop\n  pop\n  jump\t// out\n    /* \"#utility.yul\":1968:2111   */\ntag_50:\n    /* \"#utility.yul\":2025:2030   */\n  0x00\n    /* \"#utility.yul\":2056:2062   */\n  dup2\n    /* \"#utility.yul\":2050:2063   */\n  mload\n    /* \"#utility.yul\":2041:2063   */\n  swap1\n  pop\n    /* \"#utility.yul\":2072:2105   */\n  tag_74\n    /* \"#utility.yul\":2099:2104   */\n  dup2\n    /* \"#utility.yul\":2072:2105   */\n  tag_75\n  jump\t// in\ntag_74:\n    /* \"#utility.yul\":1968:2111   */\n  swap3\n  swap2\n  pop\n  pop\n  jump\t// out\n    /* \"#utility.yul\":2134:2519   */\ntag_76:\n    /* \"#utility.yul\":2216:2221   */\n  0x00\n    /* \"#utility.yul\":2265:2268   */\n  dup3\n    /* \"#utility.yul\":2258:2262   */\n  0x1f\n    /* \"#utility.yul\":2250:2256   */\n  dup4\n    /* \"#utility.yul\":2246:2263   */\n  add\n    /* \"#utility.yul\":2242:2269   */\n  slt\n    /* \"#utility.yul\":2232:2354   */\n  tag_78\n  jumpi\n    /* \"#utility.yul\":2273:2352   */\n  tag_79\n  tag_80\n  jump\t// in\ntag_79:\n    /* \"#utility.yul\":2232:2354   */\ntag_78:\n    /* \"#utility.yul\":2383:2389   */\n  dup2\n    /* \"#utility.yul\":2377:2390   */\n  mload\n    /* \"#utility.yul\":2408:2513   */\n  tag_81\n    /* \"#utility.yul\":2509:2512   */\n  dup5\n    /* \"#utility.yul\":2501:2507   */\n  dup3\n    /* \"#utility.yul\":2494:2498   */\n  0x20\n    /* \"#utility.yul\":2486:2492   */\n  dup7\n    /* \"#utility.yul\":2482:2499   */\n  add\n    /* \"#utility.yul\":2408:2513   */\n  tag_37\n  jump\t// in\ntag_81:\n    /* \"#utility.yul\":2399:2513   */\n  swap2\n  pop\n    /* \"#utility.yul\":2222:2519   */\n  pop\n    /* \"#utility.yul\":2134:2519   */\n  swap3\n  swap2\n  pop\n  pop\n  jump\t// out\n    /* \"#utility.yul\":2542:2927   */\ntag_82:\n    /* \"#utility.yul\":2624:2629   */\n  0x00\n    /* \"#utility.yul\":2673:2676   */\n  dup3\n    /* \"#utility.yul\":2666:2670   */\n  0x1f\n    /* \"#utility.yul\":2658:2664   */\n  dup4\n    /* \"#utility.yul\":2654:2671   */\n  add\n    /* \"#utility.yul\":2650:2677   */\n  slt\n    /* \"#utility.yul\":2640:2762   */\n  tag_84\n  jumpi\n    /* \"#utility.yul\":2681:2760   */\n  tag_85\n  tag_80\n  jump\t// in\ntag_85:\n    /* \"#utility.yul\":2640:2762   */\ntag_84:\n    /* \"#utility.yul\":2791:2797   */\n  dup2\n    /* \"#utility.yul\":2785:2798   */\n  mload\n    /* \"#utility.yul\":2816:2921   */\n  tag_86\n    /* \"#utility.yul\":2917:2920   */\n  dup5\n    /* \"#utility.yul\":2909:2915   */\n  dup3\n    /* \"#utility.yul\":2902:2906   */\n  0x20\n    /* \"#utility.yul\":2894:2900   */\n  dup7\n    /* \"#utility.yul\":2890:2907   */\n  add\n    /* \"#utility.yul\":2816:2921   */\n  tag_51\n  jump\t// in\ntag_86:\n    /* \"#utility.yul\":2807:2921   */\n  swap2\n  pop\n    /* \"#utility.yul\":2630:2927   */\n  pop\n    /* \"#utility.yul\":2542:2927   */\n  swap3\n  swap2\n  pop\n  pop\n  jump\t// out\n    /* \"#utility.yul\":2947:3302   */\ntag_87:\n    /* \"#utility.yul\":3014:3019   */\n  0x00\n    /* \"#utility.yul\":3063:3066   */\n  dup3\n    /* \"#utility.yul\":3056:3060   */\n  0x1f\n    /* \"#utility.yul\":3048:3054   */\n  dup4\n    /* \"#utility.yul\":3044:3061   */\n  add\n    /* \"#utility.yul\":3040:3067   */\n  slt\n    /* \"#utility.yul\":3030:3152   */\n  tag_89\n  jumpi\n    /* \"#utility.yul\":3071:3150   */\n  tag_90\n  tag_80\n  jump\t// in\ntag_90:\n    /* \"#utility.yul\":3030:3152   */\ntag_89:\n    /* \"#utility.yul\":3181:3187   */\n  dup2\n    /* \"#utility.yul\":3175:3188   */\n  mload\n    /* \"#utility.yul\":3206:3296   */\n  tag_91\n    /* \"#utility.yul\":3292:3295   */\n  dup5\n    /* \"#utility.yul\":3284:3290   */\n  dup3\n    /* \"#utility.yul\":3277:3281   */\n  0x20\n    /* \"#utility.yul\":3269:3275   */\n  dup7\n    /* \"#utility.yul\":3265:3282   */\n  add\n    /* \"#utility.yul\":3206:3296   */\n  tag_63\n  jump\t// in\ntag_91:\n    /* \"#utility.yul\":3197:3296   */\n  swap2\n  pop\n    /* \"#utility.yul\":3020:3302   */\n  pop\n    /* \"#utility.yul\":2947:3302   */\n  swap3\n  swap2\n  pop\n  pop\n  jump\t// out\n    /* \"#utility.yul\":3308:3451   */\ntag_62:\n    /* \"#utility.yul\":3365:3370   */\n  0x00\n    /* \"#utility.yul\":3396:3402   */\n  dup2\n    /* \"#utility.yul\":3390:3403   */\n  mload\n    /* \"#utility.yul\":3381:3403   */\n  swap1\n  pop\n    /* \"#utility.yul\":3412:3445   */\n  tag_93\n    /* \"#utility.yul\":3439:3444   */\n  dup2\n    /* \"#utility.yul\":3412:3445   */\n  tag_94\n  jump\t// in\ntag_93:\n    /* \"#utility.yul\":3308:3451   */\n  swap3\n  swap2\n  pop\n  pop\n  jump\t// out\n    /* \"#utility.yul\":3457:5500   */\ntag_3:\n    /* \"#utility.yul\":3651:3657   */\n  0x00\n    /* \"#utility.yul\":3659:3665   */\n  dup1\n    /* \"#utility.yul\":3667:3673   */\n  0x00\n    /* \"#utility.yul\":3675:3681   */\n  dup1\n    /* \"#utility.yul\":3683:3689   */\n  0x00\n    /* \"#utility.yul\":3691:3697   */\n  dup1\n    /* \"#utility.yul\":3699:3705   */\n  0x00\n    /* \"#utility.yul\":3748:3751   */\n  0xe0\n    /* \"#utility.yul\":3736:3745   */\n  dup9\n    /* \"#utility.yul\":3727:3734   */\n  dup11\n    /* \"#utility.yul\":3723:3746   */\n  sub\n    /* \"#utility.yul\":3719:3752   */\n  slt\n    /* \"#utility.yul\":3716:3836   */\n  iszero\n  tag_96\n  jumpi\n    /* \"#utility.yul\":3755:3834   */\n  tag_97\n  tag_98\n  jump\t// in\ntag_97:\n    /* \"#utility.yul\":3716:3836   */\ntag_96:\n    /* \"#utility.yul\":3875:3876   */\n  0x00\n    /* \"#utility.yul\":3900:3964   */\n  tag_99\n    /* \"#utility.yul\":3956:3963   */\n  dup11\n    /* \"#utility.yul\":3947:3953   */\n  dup3\n    /* \"#utility.yul\":3936:3945   */\n  dup12\n    /* \"#utility.yul\":3932:3954   */\n  add\n    /* \"#utility.yul\":3900:3964   */\n  tag_50\n  jump\t// in\ntag_99:\n    /* \"#utility.yul\":3890:3964   */\n  swap8\n  pop\n    /* \"#utility.yul\":3846:3974   */\n  pop\n    /* \"#utility.yul\":4034:4036   */\n  0x20\n    /* \"#utility.yul\":4023:4032   */\n  dup9\n    /* \"#utility.yul\":4019:4037   */\n  add\n    /* \"#utility.yul\":4013:4038   */\n  mload\n    /* \"#utility.yul\":4065:4083   */\n  0xffffffffffffffff\n    /* \"#utility.yul\":4057:4063   */\n  dup2\n    /* \"#utility.yul\":4054:4084   */\n  gt\n    /* \"#utility.yul\":4051:4168   */\n  iszero\n  tag_100\n  jumpi\n    /* \"#utility.yul\":4087:4166   */\n  tag_101\n  tag_102\n  jump\t// in\ntag_101:\n    /* \"#utility.yul\":4051:4168   */\ntag_100:\n    /* \"#utility.yul\":4192:4266   */\n  tag_103\n    /* \"#utility.yul\":4258:4265   */\n  dup11\n    /* \"#utility.yul\":4249:4255   */\n  dup3\n    /* \"#utility.yul\":4238:4247   */\n  dup12\n    /* \"#utility.yul\":4234:4256   */\n  add\n    /* \"#utility.yul\":4192:4266   */\n  tag_87\n  jump\t// in\ntag_103:\n    /* \"#utility.yul\":4182:4266   */\n  swap7\n  pop\n    /* \"#utility.yul\":3984:4276   */\n  pop\n    /* \"#utility.yul\":4336:4338   */\n  0x40\n    /* \"#utility.yul\":4325:4334   */\n  dup9\n    /* \"#utility.yul\":4321:4339   */\n  add\n    /* \"#utility.yul\":4315:4340   */\n  mload\n    /* \"#utility.yul\":4367:4385   */\n  0xffffffffffffffff\n    /* \"#utility.yul\":4359:4365   */\n  dup2\n    /* \"#utility.yul\":4356:4386   */\n  gt\n    /* \"#utility.yul\":4353:4470   */\n  iszero\n  tag_104\n  jumpi\n    /* \"#utility.yul\":4389:4468   */\n  tag_105\n  tag_102\n  jump\t// in\ntag_105:\n    /* \"#utility.yul\":4353:4470   */\ntag_104:\n    /* \"#utility.yul\":4494:4568   */\n  tag_106\n    /* \"#utility.yul\":4560:4567   */\n  dup11\n    /* \"#utility.yul\":4551:4557   */\n  dup3\n    /* \"#utility.yul\":4540:4549   */\n  dup12\n    /* \"#utility.yul\":4536:4558   */\n  add\n    /* \"#utility.yul\":4494:4568   */\n  tag_87\n  jump\t// in\ntag_106:\n    /* \"#utility.yul\":4484:4568   */\n  swap6\n  pop\n    /* \"#utility.yul\":4286:4578   */\n  pop\n    /* \"#utility.yul\":4638:4640   */\n  0x60\n    /* \"#utility.yul\":4627:4636   */\n  dup9\n    /* \"#utility.yul\":4623:4641   */\n  add\n    /* \"#utility.yul\":4617:4642   */\n  mload\n    /* \"#utility.yul\":4669:4687   */\n  0xffffffffffffffff\n    /* \"#utility.yul\":4661:4667   */\n  dup2\n    /* \"#utility.yul\":4658:4688   */\n  gt\n    /* \"#utility.yul\":4655:4772   */\n  iszero\n  tag_107\n  jumpi\n    /* \"#utility.yul\":4691:4770   */\n  tag_108\n  tag_102\n  jump\t// in\ntag_108:\n    /* \"#utility.yul\":4655:4772   */\ntag_107:\n    /* \"#utility.yul\":4796:4885   */\n  tag_109\n    /* \"#utility.yul\":4877:4884   */\n  dup11\n    /* \"#utility.yul\":4868:4874   */\n  dup3\n    /* \"#utility.yul\":4857:4866   */\n  dup12\n    /* \"#utility.yul\":4853:4875   */\n  add\n    /* \"#utility.yul\":4796:4885   */\n  tag_76\n  jump\t// in\ntag_109:\n    /* \"#utility.yul\":4786:4885   */\n  swap5\n  pop\n    /* \"#utility.yul\":4588:4895   */\n  pop\n    /* \"#utility.yul\":4955:4958   */\n  0x80\n    /* \"#utility.yul\":4944:4953   */\n  dup9\n    /* \"#utility.yul\":4940:4959   */\n  add\n    /* \"#utility.yul\":4934:4960   */\n  mload\n    /* \"#utility.yul\":4987:5005   */\n  0xffffffffffffffff\n    /* \"#utility.yul\":4979:4985   */\n  dup2\n    /* \"#utility.yul\":4976:5006   */\n  gt\n    /* \"#utility.yul\":4973:5090   */\n  iszero\n  tag_110\n  jumpi\n    /* \"#utility.yul\":5009:5088   */\n  tag_111\n  tag_102\n  jump\t// in\ntag_111:\n    /* \"#utility.yul\":4973:5090   */\ntag_110:\n    /* \"#utility.yul\":5114:5203   */\n  tag_112\n    /* \"#utility.yul\":5195:5202   */\n  dup11\n    /* \"#utility.yul\":5186:5192   */\n  dup3\n    /* \"#utility.yul\":5175:5184   */\n  dup12\n    /* \"#utility.yul\":5171:5193   */\n  add\n    /* \"#utility.yul\":5114:5203   */\n  tag_82\n  jump\t// in\ntag_112:\n    /* \"#utility.yul\":5104:5203   */\n  swap4\n  pop\n    /* \"#utility.yul\":4905:5213   */\n  pop\n    /* \"#utility.yul\":5252:5255   */\n  0xa0\n    /* \"#utility.yul\":5279:5343   */\n  tag_113\n    /* \"#utility.yul\":5335:5342   */\n  dup11\n    /* \"#utility.yul\":5326:5332   */\n  dup3\n    /* \"#utility.yul\":5315:5324   */\n  dup12\n    /* \"#utility.yul\":5311:5333   */\n  add\n    /* \"#utility.yul\":5279:5343   */\n  tag_62\n  jump\t// in\ntag_113:\n    /* \"#utility.yul\":5269:5343   */\n  swap3\n  pop\n    /* \"#utility.yul\":5223:5353   */\n  pop\n    /* \"#utility.yul\":5392:5395   */\n  0xc0\n    /* \"#utility.yul\":5419:5483   */\n  tag_114\n    /* \"#utility.yul\":5475:5482   */\n  dup11\n    /* \"#utility.yul\":5466:5472   */\n  dup3\n    /* \"#utility.yul\":5455:5464   */\n  dup12\n    /* \"#utility.yul\":5451:5473   */\n  add\n    /* \"#utility.yul\":5419:5483   */\n  tag_50\n  jump\t// in\ntag_114:\n    /* \"#utility.yul\":5409:5483   */\n  swap2\n  pop\n    /* \"#utility.yul\":5363:5493   */\n  pop\n    /* \"#utility.yul\":3457:5500   */\n  swap3\n  swap6\n  swap9\n  swap2\n  swap5\n  swap8\n  pop\n  swap3\n  swap6\n  pop\n  jump\t// out\n    /* \"#utility.yul\":5506:5653   */\ntag_115:\n    /* \"#utility.yul\":5601:5646   */\n  tag_117\n    /* \"#utility.yul\":5640:5645   */\n  dup2\n    /* \"#utility.yul\":5601:5646   */\n  tag_118\n  jump\t// in\ntag_117:\n    /* \"#utility.yul\":5596:5599   */\n  dup3\n    /* \"#utility.yul\":5589:5647   */\n  mstore\n    /* \"#utility.yul\":5506:5653   */\n  pop\n  pop\n  jump\t// out\n    /* \"#utility.yul\":5659:5897   */\ntag_7:\n    /* \"#utility.yul\":5760:5764   */\n  0x00\n    /* \"#utility.yul\":5798:5800   */\n  0x20\n    /* \"#utility.yul\":5787:5796   */\n  dup3\n    /* \"#utility.yul\":5783:5801   */\n  add\n    /* \"#utility.yul\":5775:5801   */\n  swap1\n  pop\n    /* \"#utility.yul\":5811:5890   */\n  tag_120\n    /* \"#utility.yul\":5887:5888   */\n  0x00\n    /* \"#utility.yul\":5876:5885   */\n  dup4\n    /* \"#utility.yul\":5872:5889   */\n  add\n    /* \"#utility.yul\":5863:5869   */\n  dup5\n    /* \"#utility.yul\":5811:5890   */\n  tag_115\n  jump\t// in\ntag_120:\n    /* \"#utility.yul\":5659:5897   */\n  swap3\n  swap2\n  pop\n  pop\n  jump\t// out\n    /* \"#utility.yul\":5903:6032   */\ntag_42:\n    /* \"#utility.yul\":5937:5943   */\n  0x00\n    /* \"#utility.yul\":5964:5984   */\n  tag_122\n  tag_123\n  jump\t// in\ntag_122:\n    /* \"#utility.yul\":5954:5984   */\n  swap1\n  pop\n    /* \"#utility.yul\":5993:6026   */\n  tag_124\n    /* \"#utility.yul\":6021:6025   */\n  dup3\n    /* \"#utility.yul\":6013:6019   */\n  dup3\n    /* \"#utility.yul\":5993:6026   */\n  tag_125\n  jump\t// in\ntag_124:\n    /* \"#utility.yul\":5903:6032   */\n  swap2\n  swap1\n  pop\n  jump\t// out\n    /* \"#utility.yul\":6038:6113   */\ntag_123:\n    /* \"#utility.yul\":6071:6077   */\n  0x00\n    /* \"#utility.yul\":6104:6106   */\n  0x40\n    /* \"#utility.yul\":6098:6107   */\n  mload\n    /* \"#utility.yul\":6088:6107   */\n  swap1\n  pop\n    /* \"#utility.yul\":6038:6113   */\n  swap1\n  jump\t// out\n    /* \"#utility.yul\":6119:6430   */\ntag_41:\n    /* \"#utility.yul\":6196:6200   */\n  0x00\n    /* \"#utility.yul\":6286:6304   */\n  0xffffffffffffffff\n    /* \"#utility.yul\":6278:6284   */\n  dup3\n    /* \"#utility.yul\":6275:6305   */\n  gt\n    /* \"#utility.yul\":6272:6328   */\n  iszero\n  tag_128\n  jumpi\n    /* \"#utility.yul\":6308:6326   */\n  tag_129\n  tag_130\n  jump\t// in\ntag_129:\n    /* \"#utility.yul\":6272:6328   */\ntag_128:\n    /* \"#utility.yul\":6358:6362   */\n  0x20\n    /* \"#utility.yul\":6350:6356   */\n  dup3\n    /* \"#utility.yul\":6346:6363   */\n  mul\n    /* \"#utility.yul\":6338:6363   */\n  swap1\n  pop\n    /* \"#utility.yul\":6418:6422   */\n  0x20\n    /* \"#utility.yul\":6412:6416   */\n  dup2\n    /* \"#utility.yul\":6408:6423   */\n  add\n    /* \"#utility.yul\":6400:6423   */\n  swap1\n  pop\n    /* \"#utility.yul\":6119:6430   */\n  swap2\n  swap1\n  pop\n  jump\t// out\n    /* \"#utility.yul\":6436:6747   */\ntag_55:\n    /* \"#utility.yul\":6513:6517   */\n  0x00\n    /* \"#utility.yul\":6603:6621   */\n  0xffffffffffffffff\n    /* \"#utility.yul\":6595:6601   */\n  dup3\n    /* \"#utility.yul\":6592:6622   */\n  gt\n    /* \"#utility.yul\":6589:6645   */\n  iszero\n  tag_132\n  jumpi\n    /* \"#utility.yul\":6625:6643   */\n  tag_133\n  tag_130\n  jump\t// in\ntag_133:\n    /* \"#utility.yul\":6589:6645   */\ntag_132:\n    /* \"#utility.yul\":6675:6679   */\n  0x20\n    /* \"#utility.yul\":6667:6673   */\n  dup3\n    /* \"#utility.yul\":6663:6680   */\n  mul\n    /* \"#utility.yul\":6655:6680   */\n  swap1\n  pop\n    /* \"#utility.yul\":6735:6739   */\n  0x20\n    /* \"#utility.yul\":6729:6733   */\n  dup2\n    /* \"#utility.yul\":6725:6740   */\n  add\n    /* \"#utility.yul\":6717:6740   */\n  swap1\n  pop\n    /* \"#utility.yul\":6436:6747   */\n  swap2\n  swap1\n  pop\n  jump\t// out\n    /* \"#utility.yul\":6753:7061   */\ntag_67:\n    /* \"#utility.yul\":6815:6819   */\n  0x00\n    /* \"#utility.yul\":6905:6923   */\n  0xffffffffffffffff\n    /* \"#utility.yul\":6897:6903   */\n  dup3\n    /* \"#utility.yul\":6894:6924   */\n  gt\n    /* \"#utility.yul\":6891:6947   */\n  iszero\n  tag_135\n  jumpi\n    /* \"#utility.yul\":6927:6945   */\n  tag_136\n  tag_130\n  jump\t// in\ntag_136:\n    /* \"#utility.yul\":6891:6947   */\ntag_135:\n    /* \"#utility.yul\":6965:6994   */\n  tag_137\n    /* \"#utility.yul\":6987:6993   */\n  dup3\n    /* \"#utility.yul\":6965:6994   */\n  tag_138\n  jump\t// in\ntag_137:\n    /* \"#utility.yul\":6957:6994   */\n  swap1\n  pop\n    /* \"#utility.yul\":7049:7053   */\n  0x20\n    /* \"#utility.yul\":7043:7047   */\n  dup2\n    /* \"#utility.yul\":7039:7054   */\n  add\n    /* \"#utility.yul\":7031:7054   */\n  swap1\n  pop\n    /* \"#utility.yul\":6753:7061   */\n  swap2\n  swap1\n  pop\n  jump\t// out\n    /* \"#utility.yul\":7067:7163   */\ntag_139:\n    /* \"#utility.yul\":7104:7111   */\n  0x00\n    /* \"#utility.yul\":7133:7157   */\n  tag_141\n    /* \"#utility.yul\":7151:7156   */\n  dup3\n    /* \"#utility.yul\":7133:7157   */\n  tag_142\n  jump\t// in\ntag_141:\n    /* \"#utility.yul\":7122:7157   */\n  swap1\n  pop\n    /* \"#utility.yul\":7067:7163   */\n  swap2\n  swap1\n  pop\n  jump\t// out\n    /* \"#utility.yul\":7169:7295   */\ntag_142:\n    /* \"#utility.yul\":7206:7213   */\n  0x00\n    /* \"#utility.yul\":7246:7288   */\n  0xffffffffffffffffffffffffffffffffffffffff\n    /* \"#utility.yul\":7239:7244   */\n  dup3\n    /* \"#utility.yul\":7235:7289   */\n  and\n    /* \"#utility.yul\":7224:7289   */\n  swap1\n  pop\n    /* \"#utility.yul\":7169:7295   */\n  swap2\n  swap1\n  pop\n  jump\t// out\n    /* \"#utility.yul\":7301:7378   */\ntag_144:\n    /* \"#utility.yul\":7338:7345   */\n  0x00\n    /* \"#utility.yul\":7367:7372   */\n  dup2\n    /* \"#utility.yul\":7356:7372   */\n  swap1\n  pop\n    /* \"#utility.yul\":7301:7378   */\n  swap2\n  swap1\n  pop\n  jump\t// out\n    /* \"#utility.yul\":7384:7505   */\ntag_118:\n    /* \"#utility.yul\":7442:7451   */\n  0x00\n    /* \"#utility.yul\":7475:7499   */\n  tag_147\n    /* \"#utility.yul\":7493:7498   */\n  dup3\n    /* \"#utility.yul\":7475:7499   */\n  tag_144\n  jump\t// in\ntag_147:\n    /* \"#utility.yul\":7462:7499   */\n  swap1\n  pop\n    /* \"#utility.yul\":7384:7505   */\n  swap2\n  swap1\n  pop\n  jump\t// out\n    /* \"#utility.yul\":7511:7818   */\ntag_72:\n    /* \"#utility.yul\":7579:7580   */\n  0x00\n    /* \"#utility.yul\":7589:7702   */\ntag_149:\n    /* \"#utility.yul\":7603:7609   */\n  dup4\n    /* \"#utility.yul\":7600:7601   */\n  dup2\n    /* \"#utility.yul\":7597:7610   */\n  lt\n    /* \"#utility.yul\":7589:7702   */\n  iszero\n  tag_151\n  jumpi\n    /* \"#utility.yul\":7688:7689   */\n  dup1\n    /* \"#utility.yul\":7683:7686   */\n  dup3\n    /* \"#utility.yul\":7679:7690   */\n  add\n    /* \"#utility.yul\":7673:7691   */\n  mload\n    /* \"#utility.yul\":7669:7670   */\n  dup2\n    /* \"#utility.yul\":7664:7667   */\n  dup5\n    /* \"#utility.yul\":7660:7671   */\n  add\n    /* \"#utility.yul\":7653:7692   */\n  mstore\n    /* \"#utility.yul\":7625:7627   */\n  0x20\n    /* \"#utility.yul\":7622:7623   */\n  dup2\n    /* \"#utility.yul\":7618:7628   */\n  add\n    /* \"#utility.yul\":7613:7628   */\n  swap1\n  pop\n    /* \"#utility.yul\":7589:7702   */\n  jump(tag_149)\ntag_151:\n    /* \"#utility.yul\":7720:7726   */\n  dup4\n    /* \"#utility.yul\":7717:7718   */\n  dup2\n    /* \"#utility.yul\":7714:7727   */\n  gt\n    /* \"#utility.yul\":7711:7812   */\n  iszero\n  tag_152\n  jumpi\n    /* \"#utility.yul\":7800:7801   */\n  0x00\n    /* \"#utility.yul\":7791:7797   */\n  dup5\n    /* \"#utility.yul\":7786:7789   */\n  dup5\n    /* \"#utility.yul\":7782:7798   */\n  add\n    /* \"#utility.yul\":7775:7802   */\n  mstore\n    /* \"#utility.yul\":7711:7812   */\ntag_152:\n    /* \"#utility.yul\":7560:7818   */\n  pop\n    /* \"#utility.yul\":7511:7818   */\n  pop\n  pop\n  pop\n  jump\t// out\n    /* \"#utility.yul\":7824:8144   */\ntag_26:\n    /* \"#utility.yul\":7868:7874   */\n  0x00\n    /* \"#utility.yul\":7905:7906   */\n  0x02\n    /* \"#utility.yul\":7899:7903   */\n  dup3\n    /* \"#utility.yul\":7895:7907   */\n  div\n    /* \"#utility.yul\":7885:7907   */\n  swap1\n  pop\n    /* \"#utility.yul\":7952:7953   */\n  0x01\n    /* \"#utility.yul\":7946:7950   */\n  dup3\n    /* \"#utility.yul\":7942:7954   */\n  and\n    /* \"#utility.yul\":7973:7991   */\n  dup1\n    /* \"#utility.yul\":7963:8044   */\n  tag_154\n  jumpi\n    /* \"#utility.yul\":8029:8033   */\n  0x7f\n    /* \"#utility.yul\":8021:8027   */\n  dup3\n    /* \"#utility.yul\":8017:8034   */\n  and\n    /* \"#utility.yul\":8007:8034   */\n  swap2\n  pop\n    /* \"#utility.yul\":7963:8044   */\ntag_154:\n    /* \"#utility.yul\":8091:8093   */\n  0x20\n    /* \"#utility.yul\":8083:8089   */\n  dup3\n    /* \"#utility.yul\":8080:8094   */\n  lt\n    /* \"#utility.yul\":8060:8078   */\n  dup2\n    /* \"#utility.yul\":8057:8095   */\n  eq\n    /* \"#utility.yul\":8054:8138   */\n  iszero\n  tag_155\n  jumpi\n    /* \"#utility.yul\":8110:8128   */\n  tag_156\n  tag_157\n  jump\t// in\ntag_156:\n    /* \"#utility.yul\":8054:8138   */\ntag_155:\n    /* \"#utility.yul\":7875:8144   */\n  pop\n    /* \"#utility.yul\":7824:8144   */\n  swap2\n  swap1\n  pop\n  jump\t// out\n    /* \"#utility.yul\":8150:8431   */\ntag_125:\n    /* \"#utility.yul\":8233:8260   */\n  tag_159\n    /* \"#utility.yul\":8255:8259   */\n  dup3\n    /* \"#utility.yul\":8233:8260   */\n  tag_138\n  jump\t// in\ntag_159:\n    /* \"#utility.yul\":8225:8231   */\n  dup2\n    /* \"#utility.yul\":8221:8261   */\n  add\n    /* \"#utility.yul\":8363:8369   */\n  dup2\n    /* \"#utility.yul\":8351:8361   */\n  dup2\n    /* \"#utility.yul\":8348:8370   */\n  lt\n    /* \"#utility.yul\":8327:8345   */\n  0xffffffffffffffff\n    /* \"#utility.yul\":8315:8325   */\n  dup3\n    /* \"#utility.yul\":8312:8346   */\n  gt\n    /* \"#utility.yul\":8309:8371   */\n  or\n    /* \"#utility.yul\":8306:8394   */\n  iszero\n  tag_160\n  jumpi\n    /* \"#utility.yul\":8374:8392   */\n  tag_161\n  tag_130\n  jump\t// in\ntag_161:\n    /* \"#utility.yul\":8306:8394   */\ntag_160:\n    /* \"#utility.yul\":8414:8424   */\n  dup1\n    /* \"#utility.yul\":8410:8412   */\n  0x40\n    /* \"#utility.yul\":8403:8425   */\n  mstore\n    /* \"#utility.yul\":8193:8431   */\n  pop\n    /* \"#utility.yul\":8150:8431   */\n  pop\n  pop\n  jump\t// out\n    /* \"#utility.yul\":8437:8670   */\ntag_20:\n    /* \"#utility.yul\":8476:8479   */\n  0x00\n    /* \"#utility.yul\":8499:8523   */\n  tag_163\n    /* \"#utility.yul\":8517:8522   */\n  dup3\n    /* \"#utility.yul\":8499:8523   */\n  tag_144\n  jump\t// in\ntag_163:\n    /* \"#utility.yul\":8490:8523   */\n  swap2\n  pop\n    /* \"#utility.yul\":8545:8611   */\n  0xffffffffffffffffffffffffffffffffffffffffffffffffffffffffffffffff\n    /* \"#utility.yul\":8538:8543   */\n  dup3\n    /* \"#utility.yul\":8535:8612   */\n  eq\n    /* \"#utility.yul\":8532:8635   */\n  iszero\n  tag_164\n  jumpi\n    /* \"#utility.yul\":8615:8633   */\n  tag_165\n  tag_166\n  jump\t// in\ntag_165:\n    /* \"#utility.yul\":8532:8635   */\ntag_164:\n    /* \"#utility.yul\":8662:8663   */\n  0x01\n    /* \"#utility.yul\":8655:8660   */\n  dup3\n    /* \"#utility.yul\":8651:8664   */\n  add\n    /* \"#utility.yul\":8644:8664   */\n  swap1\n  pop\n    /* \"#utility.yul\":8437:8670   */\n  swap2\n  swap1\n  pop\n  jump\t// out\n    /* \"#utility.yul\":8676:8856   */\ntag_166:\n    /* \"#utility.yul\":8724:8801   */\n  0x4e487b7100000000000000000000000000000000000000000000000000000000\n    /* \"#utility.yul\":8721:8722   */\n  0x00\n    /* \"#utility.yul\":8714:8802   */\n  mstore\n    /* \"#utility.yul\":8821:8825   */\n  0x11\n    /* \"#utility.yul\":8818:8819   */\n  0x04\n    /* \"#utility.yul\":8811:8826   */\n  mstore\n    /* \"#utility.yul\":8845:8849   */\n  0x24\n    /* \"#utility.yul\":8842:8843   */\n  0x00\n    /* \"#utility.yul\":8835:8850   */\n  revert\n    /* \"#utility.yul\":8862:9042   */\ntag_157:\n    /* \"#utility.yul\":8910:8987   */\n  0x4e487b7100000000000000000000000000000000000000000000000000000000\n    /* \"#utility.yul\":8907:8908   */\n  0x00\n    /* \"#utility.yul\":8900:8988   */\n  mstore\n    /* \"#utility.yul\":9007:9011   */\n  0x22\n    /* \"#utility.yul\":9004:9005   */\n  0x04\n    /* \"#utility.yul\":8997:9012   */\n  mstore\n    /* \"#utility.yul\":9031:9035   */\n  0x24\n    /* \"#utility.yul\":9028:9029   */\n  0x00\n    /* \"#utility.yul\":9021:9036   */\n  revert\n    /* \"#utility.yul\":9048:9228   */\ntag_13:\n    /* \"#utility.yul\":9096:9173   */\n  0x4e487b7100000000000000000000000000000000000000000000000000000000\n    /* \"#utility.yul\":9093:9094   */\n  0x00\n    /* \"#utility.yul\":9086:9174   */\n  mstore\n    /* \"#utility.yul\":9193:9197   */\n  0x32\n    /* \"#utility.yul\":9190:9191   */\n  0x04\n    /* \"#utility.yul\":9183:9198   */\n  mstore\n    /* \"#utility.yul\":9217:9221   */\n  0x24\n    /* \"#utility.yul\":9214:9215   */\n  0x00\n    /* \"#utility.yul\":9207:9222   */\n  revert\n    /* \"#utility.yul\":9234:9414   */\ntag_130:\n    /* \"#utility.yul\":9282:9359   */\n  0x4e487b7100000000000000000000000000000000000000000000000000000000\n    /* \"#utility.yul\":9279:9280   */\n  0x00\n    /* \"#utility.yul\":9272:9360   */\n  mstore\n    /* \"#utility.yul\":9379:9383   */\n  0x41\n    /* \"#utility.yul\":9376:9377   */\n  0x04\n    /* \"#utility.yul\":9369:9384   */\n  mstore\n    /* \"#utility.yul\":9403:9407   */\n  0x24\n    /* \"#utility.yul\":9400:9401   */\n  0x00\n    /* \"#utility.yul\":9393:9408   */\n  revert\n    /* \"#utility.yul\":9420:9537   */\ntag_80:\n    /* \"#utility.yul\":9529:9530   */\n  0x00\n    /* \"#utility.yul\":9526:9527   */\n  dup1\n    /* \"#utility.yul\":9519:9531   */\n  revert\n    /* \"#utility.yul\":9543:9660   */\ntag_45:\n    /* \"#utility.yul\":9652:9653   */\n  0x00\n    /* \"#utility.yul\":9649:9650   */\n  dup1\n    /* \"#utility.yul\":9642:9654   */\n  revert\n    /* \"#utility.yul\":9666:9783   */\ntag_70:\n    /* \"#utility.yul\":9775:9776   */\n  0x00\n    /* \"#utility.yul\":9772:9773   */\n  dup1\n    /* \"#utility.yul\":9765:9777   */\n  revert\n    /* \"#utility.yul\":9789:9906   */\ntag_102:\n    /* \"#utility.yul\":9898:9899   */\n  0x00\n    /* \"#utility.yul\":9895:9896   */\n  dup1\n    /* \"#utility.yul\":9888:9900   */\n  revert\n    /* \"#utility.yul\":9912:10029   */\ntag_98:\n    /* \"#utility.yul\":10021:10022   */\n  0x00\n    /* \"#utility.yul\":10018:10019   */\n  dup1\n    /* \"#utility.yul\":10011:10023   */\n  revert\n    /* \"#utility.yul\":10035:10137   */\ntag_138:\n    /* \"#utility.yul\":10076:10082   */\n  0x00\n    /* \"#utility.yul\":10127:10129   */\n  0x1f\n    /* \"#utility.yul\":10123:10130   */\n  not\n    /* \"#utility.yul\":10118:10120   */\n  0x1f\n    /* \"#utility.yul\":10111:10116   */\n  dup4\n    /* \"#utility.yul\":10107:10121   */\n  add\n    /* \"#utility.yul\":10103:10131   */\n  and\n    /* \"#utility.yul\":10093:10131   */\n  swap1\n  pop\n    /* \"#utility.yul\":10035:10137   */\n  swap2\n  swap1\n  pop\n  jump\t// out\n    /* \"#utility.yul\":10143:10265   */\ntag_75:\n    /* \"#utility.yul\":10216:10240   */\n  tag_178\n    /* \"#utility.yul\":10234:10239   */\n  dup2\n    /* \"#utility.yul\":10216:10240   */\n  tag_139\n  jump\t// in\ntag_178:\n    /* \"#utility.yul\":10209:10214   */\n  dup2\n    /* \"#utility.yul\":10206:10241   */\n  eq\n    /* \"#utility.yul\":10196:10259   */\n  tag_179\n  jumpi\n    /* \"#utility.yul\":10255:10256   */\n  0x00\n    /* \"#utility.yul\":10252:10253   */\n  dup1\n    /* \"#utility.yul\":10245:10257   */\n  revert\n    /* \"#utility.yul\":10196:10259   */\ntag_179:\n    /* \"#utility.yul\":10143:10265   */\n  pop\n  jump\t// out\n    /* \"#utility.yul\":10271:10393   */\ntag_94:\n    /* \"#utility.yul\":10344:10368   */\n  tag_181\n    /* \"#utility.yul\":10362:10367   */\n  dup2\n    /* \"#utility.yul\":10344:10368   */\n  tag_144\n  jump\t// in\ntag_181:\n    /* \"#utility.yul\":10337:10342   */\n  dup2\n    /* \"#utility.yul\":10334:10369   */\n  eq\n    /* \"#utility.yul\":10324:10387   */\n  tag_182\n  jumpi\n    /* \"#utility.yul\":10383:10384   */\n  0x00\n    /* \"#utility.yul\":10380:10381   */\n  dup1\n    /* \"#utility.yul\":10373:10385   */\n  revert\n    /* \"#utility.yul\":10324:10387   */\ntag_182:\n    /* \"#utility.yul\":10271:10393   */\n  pop\n  jump\t// out\n    /* \"tron/tokeniz.sol\":456:2871  contract Tokeniz{\r... */\ntag_24:\n  dataSize(sub_0)\n  dup1\n  dataOffset(sub_0)\n  0x00\n  codecopy\n  0x00\n  return\nstop\n\nsub_0: assembly {\n        /* \"tron/tokeniz.sol\":456:2871  contract Tokeniz{\r... */\n      mstore(0x40, 0x80)\n      callvalue\n      dup1\n      iszero\n      tag_1\n      jumpi\n      0x00\n      dup1\n      revert\n    tag_1:\n      pop\n      jumpi(tag_2, lt(calldatasize, 0x04))\n      shr(0xe0, calldataload(0x00))\n      dup1\n      0x8f23d5f6\n      gt\n      tag_14\n      jumpi\n      dup1\n      0x8f23d5f6\n      eq\n      tag_8\n      jumpi\n      dup1\n      0x8f32a2b0\n      eq\n      tag_9\n      jumpi\n      dup1\n      0x90d524a2\n      eq\n      tag_10\n      jumpi\n      dup1\n      0xe2c42e66\n      eq\n      tag_11\n      jumpi\n      dup1\n      0xeedc966a\n      eq\n      tag_12\n      jumpi\n      dup1\n      0xf7aca939\n      eq\n      tag_13\n      jumpi\n      jump(tag_2)\n    tag_14:\n      dup1\n      0x06fdde03\n      eq\n      tag_3\n      jumpi\n      dup1\n      0x17d70f7c\n      eq\n      tag_4\n      jumpi\n      dup1\n      0x29af9dce\n      eq\n      tag_5\n      jumpi\n      dup1\n      0x3c130d90\n      eq\n      tag_6\n      jumpi\n      dup1\n      0x8da5cb5b\n      eq\n      tag_7\n      jumpi\n    tag_2:\n      0x00\n      dup1\n      revert\n        /* \"tron/tokeniz.sol\":629:647  string public name */\n    tag_3:\n      tag_15\n      tag_16\n      jump\t// in\n    tag_15:\n      mload(0x40)\n      tag_17\n      swap2\n      swap1\n      tag_18\n      jump\t// in\n    tag_17:\n      mload(0x40)\n      dup1\n      swap2\n      sub\n      swap1\n      return\n        /* \"tron/tokeniz.sol\":744:766  uint256 public tokenId */\n    tag_4:\n      tag_19\n      tag_20\n      jump\t// in\n    tag_19:\n      mload(0x40)\n      tag_21\n      swap2\n      swap1\n      tag_22\n      jump\t// in\n    tag_21:\n      mload(0x40)\n      dup1\n      swap2\n      sub\n      swap1\n      return\n        /* \"tron/tokeniz.sol\":2615:2868  function _safeTransfer(address _initiator,address receiver) public{\r... */\n    tag_5:\n      tag_23\n      0x04\n      dup1\n      calldatasize\n      sub\n      dup2\n      add\n      swap1\n      tag_24\n      swap2\n      swap1\n      tag_25\n      jump\t// in\n    tag_24:\n      tag_26\n      jump\t// in\n    tag_23:\n      stop\n        /* \"tron/tokeniz.sol\":600:622  string public tokenURI */\n    tag_6:\n      tag_27\n      tag_28\n      jump\t// in\n    tag_27:\n      mload(0x40)\n      tag_29\n      swap2\n      swap1\n      tag_18\n      jump\t// in\n    tag_29:\n      mload(0x40)\n      dup1\n      swap2\n      sub\n      swap1\n      return\n        /* \"tron/tokeniz.sol\":548:568  address public owner */\n    tag_7:\n      tag_30\n      tag_31\n      jump\t// in\n    tag_30:\n      mload(0x40)\n      tag_32\n      swap2\n      swap1\n      tag_33\n      jump\t// in\n    tag_32:\n      mload(0x40)\n      dup1\n      swap2\n      sub\n      swap1\n      return\n        /* \"tron/tokeniz.sol\":575:593  bool public packed */\n    tag_8:\n      tag_34\n      tag_35\n      jump\t// in\n    tag_34:\n      mload(0x40)\n      tag_36\n      swap2\n      swap1\n      tag_37\n      jump\t// in\n    tag_36:\n      mload(0x40)\n      dup1\n      swap2\n      sub\n      swap1\n      return\n        /* \"tron/tokeniz.sol\":2076:2603  function _safeUnPack() public{\r... */\n    tag_9:\n      tag_38\n      tag_39\n      jump\t// in\n    tag_38:\n      stop\n        /* \"tron/tokeniz.sol\":1518:2064  function unPack() public{\r... */\n    tag_10:\n      tag_40\n      tag_41\n      jump\t// in\n    tag_40:\n      stop\n        /* \"tron/tokeniz.sol\":1429:1506  function isPacked() public view returns(bool){\r... */\n    tag_11:\n      tag_42\n      tag_43\n      jump\t// in\n    tag_42:\n      mload(0x40)\n      tag_44\n      swap2\n      swap1\n      tag_37\n      jump\t// in\n    tag_44:\n      mload(0x40)\n      dup1\n      swap2\n      sub\n      swap1\n      return\n        /* \"tron/tokeniz.sol\":654:698  mapping(address => uint) public tokenBalance */\n    tag_12:\n      tag_45\n      0x04\n      dup1\n      calldatasize\n      sub\n      dup2\n      add\n      swap1\n      tag_46\n      swap2\n      swap1\n      tag_47\n      jump\t// in\n    tag_46:\n      tag_48\n      jump\t// in\n    tag_45:\n      mload(0x40)\n      tag_49\n      swap2\n      swap1\n      tag_22\n      jump\t// in\n    tag_49:\n      mload(0x40)\n      dup1\n      swap2\n      sub\n      swap1\n      return\n        /* \"tron/tokeniz.sol\":705:737  address[] public tokensAddresses */\n    tag_13:\n      tag_50\n      0x04\n      dup1\n      calldatasize\n      sub\n      dup2\n      add\n      swap1\n      tag_51\n      swap2\n      swap1\n      tag_52\n      jump\t// in\n    tag_51:\n      tag_53\n      jump\t// in\n    tag_50:\n      mload(0x40)\n      tag_54\n      swap2\n      swap1\n      tag_33\n      jump\t// in\n    tag_54:\n      mload(0x40)\n      dup1\n      swap2\n      sub\n      swap1\n      return\n        /* \"tron/tokeniz.sol\":629:647  string public name */\n    tag_16:\n      0x03\n      dup1\n      sload\n      tag_55\n      swap1\n      tag_56\n      jump\t// in\n    tag_55:\n      dup1\n      0x1f\n      add\n      0x20\n      dup1\n      swap2\n      div\n      mul\n      0x20\n      add\n      mload(0x40)\n      swap1\n      dup2\n      add\n      0x40\n      mstore\n      dup1\n      swap3\n      swap2\n      swap1\n      dup2\n      dup2\n      mstore\n      0x20\n      add\n      dup3\n      dup1\n      sload\n      tag_57\n      swap1\n      tag_56\n      jump\t// in\n    tag_57:\n      dup1\n      iszero\n      tag_58\n      jumpi\n      dup1\n      0x1f\n      lt\n      tag_59\n      jumpi\n      0x0100\n      dup1\n      dup4\n      sload\n      div\n      mul\n      dup4\n      mstore\n      swap2\n      0x20\n      add\n      swap2\n      jump(tag_58)\n    tag_59:\n      dup3\n      add\n      swap2\n      swap1\n      0x00\n      mstore\n      keccak256(0x00, 0x20)\n      swap1\n    tag_60:\n      dup2\n      sload\n      dup2\n      mstore\n      swap1\n      0x01\n      add\n      swap1\n      0x20\n      add\n      dup1\n      dup4\n      gt\n      tag_60\n      jumpi\n      dup3\n      swap1\n      sub\n      0x1f\n      and\n      dup3\n      add\n      swap2\n    tag_58:\n      pop\n      pop\n      pop\n      pop\n      pop\n      dup2\n      jump\t// out\n        /* \"tron/tokeniz.sol\":744:766  uint256 public tokenId */\n    tag_20:\n      sload(0x06)\n      dup2\n      jump\t// out\n        /* \"tron/tokeniz.sol\":2615:2868  function _safeTransfer(address _initiator,address receiver) public{\r... */\n    tag_26:\n        /* \"tron/tokeniz.sol\":2708:2718  _initiator */\n      dup2\n        /* \"tron/tokeniz.sol\":2700:2718  owner== _initiator */\n      0xffffffffffffffffffffffffffffffffffffffff\n      and\n        /* \"tron/tokeniz.sol\":2700:2705  owner */\n      0x01\n      0x00\n      swap1\n      sload\n      swap1\n      0x0100\n      exp\n      swap1\n      div\n      0xffffffffffffffffffffffffffffffffffffffff\n      and\n        /* \"tron/tokeniz.sol\":2700:2718  owner== _initiator */\n      0xffffffffffffffffffffffffffffffffffffffff\n      and\n      eq\n        /* \"tron/tokeniz.sol\":2692:2745  require(owner== _initiator,\"Only owner can transfer\") */\n      tag_62\n      jumpi\n      mload(0x40)\n      0x08c379a000000000000000000000000000000000000000000000000000000000\n      dup2\n      mstore\n      0x04\n      add\n      tag_63\n      swap1\n      tag_64\n      jump\t// in\n    tag_63:\n      mload(0x40)\n      dup1\n      swap2\n      sub\n      swap1\n      revert\n    tag_62:\n        /* \"tron/tokeniz.sol\":2778:2790  TokenizAdmin */\n      0x00\n      dup1\n      sload\n      swap1\n      0x0100\n      exp\n      swap1\n      div\n      0xffffffffffffffffffffffffffffffffffffffff\n      and\n        /* \"tron/tokeniz.sol\":2764:2790  msg.sender == TokenizAdmin */\n      0xffffffffffffffffffffffffffffffffffffffff\n      and\n        /* \"tron/tokeniz.sol\":2764:2774  msg.sender */\n      caller\n        /* \"tron/tokeniz.sol\":2764:2790  msg.sender == TokenizAdmin */\n      0xffffffffffffffffffffffffffffffffffffffff\n      and\n      eq\n        /* \"tron/tokeniz.sol\":2756:2834  require(msg.sender == TokenizAdmin, \"Must be sent via Tokeniz admin contract\") */\n      tag_65\n      jumpi\n      mload(0x40)\n      0x08c379a000000000000000000000000000000000000000000000000000000000\n      dup2\n      mstore\n      0x04\n      add\n      tag_66\n      swap1\n      tag_67\n      jump\t// in\n    tag_66:\n      mload(0x40)\n      dup1\n      swap2\n      sub\n      swap1\n      revert\n    tag_65:\n        /* \"tron/tokeniz.sol\":2852:2860  receiver */\n      dup1\n        /* \"tron/tokeniz.sol\":2845:2850  owner */\n      0x01\n      0x00\n        /* \"tron/tokeniz.sol\":2845:2860  owner= receiver */\n      0x0100\n      exp\n      dup2\n      sload\n      dup2\n      0xffffffffffffffffffffffffffffffffffffffff\n      mul\n      not\n      and\n      swap1\n      dup4\n      0xffffffffffffffffffffffffffffffffffffffff\n      and\n      mul\n      or\n      swap1\n      sstore\n      pop\n        /* \"tron/tokeniz.sol\":2615:2868  function _safeTransfer(address _initiator,address receiver) public{\r... */\n      pop\n      pop\n      jump\t// out\n        /* \"tron/tokeniz.sol\":600:622  string public tokenURI */\n    tag_28:\n      0x02\n      dup1\n      sload\n      tag_68\n      swap1\n      tag_56\n      jump\t// in\n    tag_68:\n      dup1\n      0x1f\n      add\n      0x20\n      dup1\n      swap2\n      div\n      mul\n      0x20\n      add\n      mload(0x40)\n      swap1\n      dup2\n      add\n      0x40\n      mstore\n      dup1\n      swap3\n      swap2\n      swap1\n      dup2\n      dup2\n      mstore\n      0x20\n      add\n      dup3\n      dup1\n      sload\n      tag_69\n      swap1\n      tag_56\n      jump\t// in\n    tag_69:\n      dup1\n      iszero\n      tag_70\n      jumpi\n      dup1\n      0x1f\n      lt\n      tag_71\n      jumpi\n      0x0100\n      dup1\n      dup4\n      sload\n      div\n      mul\n      dup4\n      mstore\n      swap2\n      0x20\n      add\n      swap2\n      jump(tag_70)\n    tag_71:\n      dup3\n      add\n      swap2\n      swap1\n      0x00\n      mstore\n      keccak256(0x00, 0x20)\n      swap1\n    tag_72:\n      dup2\n      sload\n      dup2\n      mstore\n      swap1\n      0x01\n      add\n      swap1\n      0x20\n      add\n      dup1\n      dup4\n      gt\n      tag_72\n      jumpi\n      dup3\n      swap1\n      sub\n      0x1f\n      and\n      dup3\n      add\n      swap2\n    tag_70:\n      pop\n      pop\n      pop\n      pop\n      pop\n      dup2\n      jump\t// out\n        /* \"tron/tokeniz.sol\":548:568  address public owner */\n    tag_31:\n      0x01\n      0x00\n      swap1\n      sload\n      swap1\n      0x0100\n      exp\n      swap1\n      div\n      0xffffffffffffffffffffffffffffffffffffffff\n      and\n      dup2\n      jump\t// out\n        /* \"tron/tokeniz.sol\":575:593  bool public packed */\n    tag_35:\n      0x01\n      0x14\n      swap1\n      sload\n      swap1\n      0x0100\n      exp\n      swap1\n      div\n      0xff\n      and\n      dup2\n      jump\t// out\n        /* \"tron/tokeniz.sol\":2076:2603  function _safeUnPack() public{\r... */\n    tag_39:\n        /* \"tron/tokeniz.sol\":2138:2150  TokenizAdmin */\n      0x00\n      dup1\n      sload\n      swap1\n      0x0100\n      exp\n      swap1\n      div\n      0xffffffffffffffffffffffffffffffffffffffff\n      and\n        /* \"tron/tokeniz.sol\":2124:2150  msg.sender == TokenizAdmin */\n      0xffffffffffffffffffffffffffffffffffffffff\n      and\n        /* \"tron/tokeniz.sol\":2124:2134  msg.sender */\n      caller\n        /* \"tron/tokeniz.sol\":2124:2150  msg.sender == TokenizAdmin */\n      0xffffffffffffffffffffffffffffffffffffffff\n      and\n      eq\n        /* \"tron/tokeniz.sol\":2116:2194  require(msg.sender == TokenizAdmin, \"Must be sent via Tokeniz admin contract\") */\n      tag_74\n      jumpi\n      mload(0x40)\n      0x08c379a000000000000000000000000000000000000000000000000000000000\n      dup2\n      mstore\n      0x04\n      add\n      tag_75\n      swap1\n      tag_67\n      jump\t// in\n    tag_75:\n      mload(0x40)\n      dup1\n      swap2\n      sub\n      swap1\n      revert\n    tag_74:\n        /* \"tron/tokeniz.sol\":2213:2219  packed */\n      0x01\n      0x14\n      swap1\n      sload\n      swap1\n      0x0100\n      exp\n      swap1\n      div\n      0xff\n      and\n        /* \"tron/tokeniz.sol\":2205:2248  require(packed, \"Already unpacked Tokeniz\") */\n      tag_76\n      jumpi\n      mload(0x40)\n      0x08c379a000000000000000000000000000000000000000000000000000000000\n      dup2\n      mstore\n      0x04\n      add\n      tag_77\n      swap1\n      tag_78\n      jump\t// in\n    tag_77:\n      mload(0x40)\n      dup1\n      swap2\n      sub\n      swap1\n      revert\n    tag_76:\n        /* \"tron/tokeniz.sol\":2267:2272  owner */\n      0x01\n      0x00\n      swap1\n      sload\n      swap1\n      0x0100\n      exp\n      swap1\n      div\n      0xffffffffffffffffffffffffffffffffffffffff\n      and\n        /* \"tron/tokeniz.sol\":2259:2282  payable(owner).transfer */\n      0xffffffffffffffffffffffffffffffffffffffff\n      and\n        /* \"tron/tokeniz.sol\":2259:2305  payable(owner).transfer(address(this).balance) */\n      0x08fc\n        /* \"tron/tokeniz.sol\":2283:2304  address(this).balance */\n      selfbalance\n        /* \"tron/tokeniz.sol\":2259:2305  payable(owner).transfer(address(this).balance) */\n      swap1\n      dup2\n      iszero\n      mul\n      swap1\n      mload(0x40)\n      0x00\n      mload(0x40)\n      dup1\n      dup4\n      sub\n      dup2\n      dup6\n      dup9\n      dup9\n      call\n      swap4\n      pop\n      pop\n      pop\n      pop\n      iszero\n      dup1\n      iszero\n      tag_80\n      jumpi\n      returndatasize\n      0x00\n      dup1\n      returndatacopy\n      revert(0x00, returndatasize)\n    tag_80:\n      pop\n        /* \"tron/tokeniz.sol\":2321:2327  uint i */\n      0x00\n        /* \"tron/tokeniz.sol\":2316:2572  for (uint i = 0; i < tokensAddresses.length; i++) {\r... */\n    tag_81:\n        /* \"tron/tokeniz.sol\":2337:2352  tokensAddresses */\n      0x05\n        /* \"tron/tokeniz.sol\":2337:2359  tokensAddresses.length */\n      dup1\n      sload\n      swap1\n      pop\n        /* \"tron/tokeniz.sol\":2333:2334  i */\n      dup2\n        /* \"tron/tokeniz.sol\":2333:2359  i < tokensAddresses.length */\n      lt\n        /* \"tron/tokeniz.sol\":2316:2572  for (uint i = 0; i < tokensAddresses.length; i++) {\r... */\n      iszero\n      tag_82\n      jumpi\n        /* \"tron/tokeniz.sol\":2381:2404  address _tokenContracts */\n      0x00\n        /* \"tron/tokeniz.sol\":2406:2421  tokensAddresses */\n      0x05\n        /* \"tron/tokeniz.sol\":2422:2423  i */\n      dup3\n        /* \"tron/tokeniz.sol\":2406:2424  tokensAddresses[i] */\n      dup2\n      sload\n      dup2\n      lt\n      tag_84\n      jumpi\n      tag_85\n      tag_86\n      jump\t// in\n    tag_85:\n    tag_84:\n      swap1\n      0x00\n      mstore\n      keccak256(0x00, 0x20)\n      add\n      0x00\n      swap1\n      sload\n      swap1\n      0x0100\n      exp\n      swap1\n      div\n      0xffffffffffffffffffffffffffffffffffffffff\n      and\n        /* \"tron/tokeniz.sol\":2381:2424  address _tokenContracts= tokensAddresses[i] */\n      swap1\n      pop\n        /* \"tron/tokeniz.sol\":2439:2459  IERC20 tokenContract */\n      0x00\n        /* \"tron/tokeniz.sol\":2469:2484  _tokenContracts */\n      dup2\n        /* \"tron/tokeniz.sol\":2439:2485  IERC20 tokenContract = IERC20(_tokenContracts) */\n      swap1\n      pop\n        /* \"tron/tokeniz.sol\":2500:2513  tokenContract */\n      dup1\n        /* \"tron/tokeniz.sol\":2500:2522  tokenContract.transfer */\n      0xffffffffffffffffffffffffffffffffffffffff\n      and\n      0xa9059cbb\n        /* \"tron/tokeniz.sol\":2523:2528  owner */\n      0x01\n      0x00\n      swap1\n      sload\n      swap1\n      0x0100\n      exp\n      swap1\n      div\n      0xffffffffffffffffffffffffffffffffffffffff\n      and\n        /* \"tron/tokeniz.sol\":2530:2542  tokenBalance */\n      0x04\n        /* \"tron/tokeniz.sol\":2530:2559  tokenBalance[_tokenContracts] */\n      0x00\n        /* \"tron/tokeniz.sol\":2543:2558  _tokenContracts */\n      dup7\n        /* \"tron/tokeniz.sol\":2530:2559  tokenBalance[_tokenContracts] */\n      0xffffffffffffffffffffffffffffffffffffffff\n      and\n      0xffffffffffffffffffffffffffffffffffffffff\n      and\n      dup2\n      mstore\n      0x20\n      add\n      swap1\n      dup2\n      mstore\n      0x20\n      add\n      0x00\n      keccak256\n      sload\n        /* \"tron/tokeniz.sol\":2500:2560  tokenContract.transfer(owner, tokenBalance[_tokenContracts]) */\n      mload(0x40)\n      dup4\n      0xffffffff\n      and\n      0xe0\n      shl\n      dup2\n      mstore\n      0x04\n      add\n      tag_88\n      swap3\n      swap2\n      swap1\n      tag_89\n      jump\t// in\n    tag_88:\n      0x20\n      mload(0x40)\n      dup1\n      dup4\n      sub\n      dup2\n      0x00\n      dup8\n      dup1\n      extcodesize\n      iszero\n      dup1\n      iszero\n      tag_90\n      jumpi\n      0x00\n      dup1\n      revert\n    tag_90:\n      pop\n      gas\n      call\n      iszero\n      dup1\n      iszero\n      tag_92\n      jumpi\n      returndatasize\n      0x00\n      dup1\n      returndatacopy\n      revert(0x00, returndatasize)\n    tag_92:\n      pop\n      pop\n      pop\n      pop\n      mload(0x40)\n      returndatasize\n      not(0x1f)\n      0x1f\n      dup3\n      add\n      and\n      dup3\n      add\n      dup1\n      0x40\n      mstore\n      pop\n      dup2\n      add\n      swap1\n      tag_93\n      swap2\n      swap1\n      tag_94\n      jump\t// in\n    tag_93:\n      pop\n        /* \"tron/tokeniz.sol\":2366:2572  {\r... */\n      pop\n      pop\n        /* \"tron/tokeniz.sol\":2361:2364  i++ */\n      dup1\n      dup1\n      tag_95\n      swap1\n      tag_96\n      jump\t// in\n    tag_95:\n      swap2\n      pop\n      pop\n        /* \"tron/tokeniz.sol\":2316:2572  for (uint i = 0; i < tokensAddresses.length; i++) {\r... */\n      jump(tag_81)\n    tag_82:\n      pop\n        /* \"tron/tokeniz.sol\":2590:2595  false */\n      0x00\n        /* \"tron/tokeniz.sol\":2582:2588  packed */\n      0x01\n      0x14\n        /* \"tron/tokeniz.sol\":2582:2595  packed= false */\n      0x0100\n      exp\n      dup2\n      sload\n      dup2\n      0xff\n      mul\n      not\n      and\n      swap1\n      dup4\n      iszero\n      iszero\n      mul\n      or\n      swap1\n      sstore\n      pop\n        /* \"tron/tokeniz.sol\":2076:2603  function _safeUnPack() public{\r... */\n      jump\t// out\n        /* \"tron/tokeniz.sol\":1518:2064  function unPack() public{\r... */\n    tag_41:\n        /* \"tron/tokeniz.sol\":1588:1593  owner */\n      0x01\n      0x00\n      swap1\n      sload\n      swap1\n      0x0100\n      exp\n      swap1\n      div\n      0xffffffffffffffffffffffffffffffffffffffff\n      and\n        /* \"tron/tokeniz.sol\":1575:1593  msg.sender== owner */\n      0xffffffffffffffffffffffffffffffffffffffff\n      and\n        /* \"tron/tokeniz.sol\":1575:1585  msg.sender */\n      caller\n        /* \"tron/tokeniz.sol\":1575:1593  msg.sender== owner */\n      0xffffffffffffffffffffffffffffffffffffffff\n      and\n      eq\n        /* \"tron/tokeniz.sol\":1553:1655  require(\r... */\n      tag_98\n      jumpi\n      mload(0x40)\n      0x08c379a000000000000000000000000000000000000000000000000000000000\n      dup2\n      mstore\n      0x04\n      add\n      tag_99\n      swap1\n      tag_100\n      jump\t// in\n    tag_99:\n      mload(0x40)\n      dup1\n      swap2\n      sub\n      swap1\n      revert\n    tag_98:\n        /* \"tron/tokeniz.sol\":1674:1680  packed */\n      0x01\n      0x14\n      swap1\n      sload\n      swap1\n      0x0100\n      exp\n      swap1\n      div\n      0xff\n      and\n        /* \"tron/tokeniz.sol\":1666:1709  require(packed, \"Already unpacked Tokeniz\") */\n      tag_101\n      jumpi\n      mload(0x40)\n      0x08c379a000000000000000000000000000000000000000000000000000000000\n      dup2\n      mstore\n      0x04\n      add\n      tag_102\n      swap1\n      tag_78\n      jump\t// in\n    tag_102:\n      mload(0x40)\n      dup1\n      swap2\n      sub\n      swap1\n      revert\n    tag_101:\n        /* \"tron/tokeniz.sol\":1728:1733  owner */\n      0x01\n      0x00\n      swap1\n      sload\n      swap1\n      0x0100\n      exp\n      swap1\n      div\n      0xffffffffffffffffffffffffffffffffffffffff\n      and\n        /* \"tron/tokeniz.sol\":1720:1743  payable(owner).transfer */\n      0xffffffffffffffffffffffffffffffffffffffff\n      and\n        /* \"tron/tokeniz.sol\":1720:1766  payable(owner).transfer(address(this).balance) */\n      0x08fc\n        /* \"tron/tokeniz.sol\":1744:1765  address(this).balance */\n      selfbalance\n        /* \"tron/tokeniz.sol\":1720:1766  payable(owner).transfer(address(this).balance) */\n      swap1\n      dup2\n      iszero\n      mul\n      swap1\n      mload(0x40)\n      0x00\n      mload(0x40)\n      dup1\n      dup4\n      sub\n      dup2\n      dup6\n      dup9\n      dup9\n      call\n      swap4\n      pop\n      pop\n      pop\n      pop\n      iszero\n      dup1\n      iszero\n      tag_104\n      jumpi\n      returndatasize\n      0x00\n      dup1\n      returndatacopy\n      revert(0x00, returndatasize)\n    tag_104:\n      pop\n        /* \"tron/tokeniz.sol\":1782:1788  uint i */\n      0x00\n        /* \"tron/tokeniz.sol\":1777:2033  for (uint i = 0; i < tokensAddresses.length; i++) {\r... */\n    tag_105:\n        /* \"tron/tokeniz.sol\":1798:1813  tokensAddresses */\n      0x05\n        /* \"tron/tokeniz.sol\":1798:1820  tokensAddresses.length */\n      dup1\n      sload\n      swap1\n      pop\n        /* \"tron/tokeniz.sol\":1794:1795  i */\n      dup2\n        /* \"tron/tokeniz.sol\":1794:1820  i < tokensAddresses.length */\n      lt\n        /* \"tron/tokeniz.sol\":1777:2033  for (uint i = 0; i < tokensAddresses.length; i++) {\r... */\n      iszero\n      tag_106\n      jumpi\n        /* \"tron/tokeniz.sol\":1842:1865  address _tokenContracts */\n      0x00\n        /* \"tron/tokeniz.sol\":1867:1882  tokensAddresses */\n      0x05\n        /* \"tron/tokeniz.sol\":1883:1884  i */\n      dup3\n        /* \"tron/tokeniz.sol\":1867:1885  tokensAddresses[i] */\n      dup2\n      sload\n      dup2\n      lt\n      tag_108\n      jumpi\n      tag_109\n      tag_86\n      jump\t// in\n    tag_109:\n    tag_108:\n      swap1\n      0x00\n      mstore\n      keccak256(0x00, 0x20)\n      add\n      0x00\n      swap1\n      sload\n      swap1\n      0x0100\n      exp\n      swap1\n      div\n      0xffffffffffffffffffffffffffffffffffffffff\n      and\n        /* \"tron/tokeniz.sol\":1842:1885  address _tokenContracts= tokensAddresses[i] */\n      swap1\n      pop\n        /* \"tron/tokeniz.sol\":1900:1920  IERC20 tokenContract */\n      0x00\n        /* \"tron/tokeniz.sol\":1930:1945  _tokenContracts */\n      dup2\n        /* \"tron/tokeniz.sol\":1900:1946  IERC20 tokenContract = IERC20(_tokenContracts) */\n      swap1\n      pop\n        /* \"tron/tokeniz.sol\":1961:1974  tokenContract */\n      dup1\n        /* \"tron/tokeniz.sol\":1961:1983  tokenContract.transfer */\n      0xffffffffffffffffffffffffffffffffffffffff\n      and\n      0xa9059cbb\n        /* \"tron/tokeniz.sol\":1984:1989  owner */\n      0x01\n      0x00\n      swap1\n      sload\n      swap1\n      0x0100\n      exp\n      swap1\n      div\n      0xffffffffffffffffffffffffffffffffffffffff\n      and\n        /* \"tron/tokeniz.sol\":1991:2003  tokenBalance */\n      0x04\n        /* \"tron/tokeniz.sol\":1991:2020  tokenBalance[_tokenContracts] */\n      0x00\n        /* \"tron/tokeniz.sol\":2004:2019  _tokenContracts */\n      dup7\n        /* \"tron/tokeniz.sol\":1991:2020  tokenBalance[_tokenContracts] */\n      0xffffffffffffffffffffffffffffffffffffffff\n      and\n      0xffffffffffffffffffffffffffffffffffffffff\n      and\n      dup2\n      mstore\n      0x20\n      add\n      swap1\n      dup2\n      mstore\n      0x20\n      add\n      0x00\n      keccak256\n      sload\n        /* \"tron/tokeniz.sol\":1961:2021  tokenContract.transfer(owner, tokenBalance[_tokenContracts]) */\n      mload(0x40)\n      dup4\n      0xffffffff\n      and\n      0xe0\n      shl\n      dup2\n      mstore\n      0x04\n      add\n      tag_111\n      swap3\n      swap2\n      swap1\n      tag_89\n      jump\t// in\n    tag_111:\n      0x20\n      mload(0x40)\n      dup1\n      dup4\n      sub\n      dup2\n      0x00\n      dup8\n      dup1\n      extcodesize\n      iszero\n      dup1\n      iszero\n      tag_112\n      jumpi\n      0x00\n      dup1\n      revert\n    tag_112:\n      pop\n      gas\n      call\n      iszero\n      dup1\n      iszero\n      tag_114\n      jumpi\n      returndatasize\n      0x00\n      dup1\n      returndatacopy\n      revert(0x00, returndatasize)\n    tag_114:\n      pop\n      pop\n      pop\n      pop\n      mload(0x40)\n      returndatasize\n      not(0x1f)\n      0x1f\n      dup3\n      add\n      and\n      dup3\n      add\n      dup1\n      0x40\n      mstore\n      pop\n      dup2\n      add\n      swap1\n      tag_115\n      swap2\n      swap1\n      tag_94\n      jump\t// in\n    tag_115:\n      pop\n        /* \"tron/tokeniz.sol\":1827:2033  {\r... */\n      pop\n      pop\n        /* \"tron/tokeniz.sol\":1822:1825  i++ */\n      dup1\n      dup1\n      tag_116\n      swap1\n      tag_96\n      jump\t// in\n    tag_116:\n      swap2\n      pop\n      pop\n        /* \"tron/tokeniz.sol\":1777:2033  for (uint i = 0; i < tokensAddresses.length; i++) {\r... */\n      jump(tag_105)\n    tag_106:\n      pop\n        /* \"tron/tokeniz.sol\":2051:2056  false */\n      0x00\n        /* \"tron/tokeniz.sol\":2043:2049  packed */\n      0x01\n      0x14\n        /* \"tron/tokeniz.sol\":2043:2056  packed= false */\n      0x0100\n      exp\n      dup2\n      sload\n      dup2\n      0xff\n      mul\n      not\n      and\n      swap1\n      dup4\n      iszero\n      iszero\n      mul\n      or\n      swap1\n      sstore\n      pop\n        /* \"tron/tokeniz.sol\":1518:2064  function unPack() public{\r... */\n      jump\t// out\n        /* \"tron/tokeniz.sol\":1429:1506  function isPacked() public view returns(bool){\r... */\n    tag_43:\n        /* \"tron/tokeniz.sol\":1469:1473  bool */\n      0x00\n        /* \"tron/tokeniz.sol\":1492:1498  packed */\n      0x01\n      0x14\n      swap1\n      sload\n      swap1\n      0x0100\n      exp\n      swap1\n      div\n      0xff\n      and\n        /* \"tron/tokeniz.sol\":1485:1498  return packed */\n      swap1\n      pop\n        /* \"tron/tokeniz.sol\":1429:1506  function isPacked() public view returns(bool){\r... */\n      swap1\n      jump\t// out\n        /* \"tron/tokeniz.sol\":654:698  mapping(address => uint) public tokenBalance */\n    tag_48:\n      mstore(0x20, 0x04)\n      dup1\n      0x00\n      mstore\n      keccak256(0x00, 0x40)\n      0x00\n      swap2\n      pop\n      swap1\n      pop\n      sload\n      dup2\n      jump\t// out\n        /* \"tron/tokeniz.sol\":705:737  address[] public tokensAddresses */\n    tag_53:\n      0x05\n      dup2\n      dup2\n      sload\n      dup2\n      lt\n      tag_118\n      jumpi\n      0x00\n      dup1\n      revert\n    tag_118:\n      swap1\n      0x00\n      mstore\n      keccak256(0x00, 0x20)\n      add\n      0x00\n      swap2\n      pop\n      sload\n      swap1\n      0x0100\n      exp\n      swap1\n      div\n      0xffffffffffffffffffffffffffffffffffffffff\n      and\n      dup2\n      jump\t// out\n        /* \"#utility.yul\":7:146   */\n    tag_121:\n        /* \"#utility.yul\":53:58   */\n      0x00\n        /* \"#utility.yul\":91:97   */\n      dup2\n        /* \"#utility.yul\":78:98   */\n      calldataload\n        /* \"#utility.yul\":69:98   */\n      swap1\n      pop\n        /* \"#utility.yul\":107:140   */\n      tag_123\n        /* \"#utility.yul\":134:139   */\n      dup2\n        /* \"#utility.yul\":107:140   */\n      tag_124\n      jump\t// in\n    tag_123:\n        /* \"#utility.yul\":7:146   */\n      swap3\n      swap2\n      pop\n      pop\n      jump\t// out\n        /* \"#utility.yul\":152:289   */\n    tag_125:\n        /* \"#utility.yul\":206:211   */\n      0x00\n        /* \"#utility.yul\":237:243   */\n      dup2\n        /* \"#utility.yul\":231:244   */\n      mload\n        /* \"#utility.yul\":222:244   */\n      swap1\n      pop\n        /* \"#utility.yul\":253:283   */\n      tag_127\n        /* \"#utility.yul\":277:282   */\n      dup2\n        /* \"#utility.yul\":253:283   */\n      tag_128\n      jump\t// in\n    tag_127:\n        /* \"#utility.yul\":152:289   */\n      swap3\n      swap2\n      pop\n      pop\n      jump\t// out\n        /* \"#utility.yul\":295:434   */\n    tag_129:\n        /* \"#utility.yul\":341:346   */\n      0x00\n        /* \"#utility.yul\":379:385   */\n      dup2\n        /* \"#utility.yul\":366:386   */\n      calldataload\n        /* \"#utility.yul\":357:386   */\n      swap1\n      pop\n        /* \"#utility.yul\":395:428   */\n      tag_131\n        /* \"#utility.yul\":422:427   */\n      dup2\n        /* \"#utility.yul\":395:428   */\n      tag_132\n      jump\t// in\n    tag_131:\n        /* \"#utility.yul\":295:434   */\n      swap3\n      swap2\n      pop\n      pop\n      jump\t// out\n        /* \"#utility.yul\":440:769   */\n    tag_47:\n        /* \"#utility.yul\":499:505   */\n      0x00\n        /* \"#utility.yul\":548:550   */\n      0x20\n        /* \"#utility.yul\":536:545   */\n      dup3\n        /* \"#utility.yul\":527:534   */\n      dup5\n        /* \"#utility.yul\":523:546   */\n      sub\n        /* \"#utility.yul\":519:551   */\n      slt\n        /* \"#utility.yul\":516:635   */\n      iszero\n      tag_134\n      jumpi\n        /* \"#utility.yul\":554:633   */\n      tag_135\n      tag_136\n      jump\t// in\n    tag_135:\n        /* \"#utility.yul\":516:635   */\n    tag_134:\n        /* \"#utility.yul\":674:675   */\n      0x00\n        /* \"#utility.yul\":699:752   */\n      tag_137\n        /* \"#utility.yul\":744:751   */\n      dup5\n        /* \"#utility.yul\":735:741   */\n      dup3\n        /* \"#utility.yul\":724:733   */\n      dup6\n        /* \"#utility.yul\":720:742   */\n      add\n        /* \"#utility.yul\":699:752   */\n      tag_121\n      jump\t// in\n    tag_137:\n        /* \"#utility.yul\":689:752   */\n      swap2\n      pop\n        /* \"#utility.yul\":645:762   */\n      pop\n        /* \"#utility.yul\":440:769   */\n      swap3\n      swap2\n      pop\n      pop\n      jump\t// out\n        /* \"#utility.yul\":775:1249   */\n    tag_25:\n        /* \"#utility.yul\":843:849   */\n      0x00\n        /* \"#utility.yul\":851:857   */\n      dup1\n        /* \"#utility.yul\":900:902   */\n      0x40\n        /* \"#utility.yul\":888:897   */\n      dup4\n        /* \"#utility.yul\":879:886   */\n      dup6\n        /* \"#utility.yul\":875:898   */\n      sub\n        /* \"#utility.yul\":871:903   */\n      slt\n        /* \"#utility.yul\":868:987   */\n      iszero\n      tag_139\n      jumpi\n        /* \"#utility.yul\":906:985   */\n      tag_140\n      tag_136\n      jump\t// in\n    tag_140:\n        /* \"#utility.yul\":868:987   */\n    tag_139:\n        /* \"#utility.yul\":1026:1027   */\n      0x00\n        /* \"#utility.yul\":1051:1104   */\n      tag_141\n        /* \"#utility.yul\":1096:1103   */\n      dup6\n        /* \"#utility.yul\":1087:1093   */\n      dup3\n        /* \"#utility.yul\":1076:1085   */\n      dup7\n        /* \"#utility.yul\":1072:1094   */\n      add\n        /* \"#utility.yul\":1051:1104   */\n      tag_121\n      jump\t// in\n    tag_141:\n        /* \"#utility.yul\":1041:1104   */\n      swap3\n      pop\n        /* \"#utility.yul\":997:1114   */\n      pop\n        /* \"#utility.yul\":1153:1155   */\n      0x20\n        /* \"#utility.yul\":1179:1232   */\n      tag_142\n        /* \"#utility.yul\":1224:1231   */\n      dup6\n        /* \"#utility.yul\":1215:1221   */\n      dup3\n        /* \"#utility.yul\":1204:1213   */\n      dup7\n        /* \"#utility.yul\":1200:1222   */\n      add\n        /* \"#utility.yul\":1179:1232   */\n      tag_121\n      jump\t// in\n    tag_142:\n        /* \"#utility.yul\":1169:1232   */\n      swap2\n      pop\n        /* \"#utility.yul\":1124:1242   */\n      pop\n        /* \"#utility.yul\":775:1249   */\n      swap3\n      pop\n      swap3\n      swap1\n      pop\n      jump\t// out\n        /* \"#utility.yul\":1255:1600   */\n    tag_94:\n        /* \"#utility.yul\":1322:1328   */\n      0x00\n        /* \"#utility.yul\":1371:1373   */\n      0x20\n        /* \"#utility.yul\":1359:1368   */\n      dup3\n        /* \"#utility.yul\":1350:1357   */\n      dup5\n        /* \"#utility.yul\":1346:1369   */\n      sub\n        /* \"#utility.yul\":1342:1374   */\n      slt\n        /* \"#utility.yul\":1339:1458   */\n      iszero\n      tag_144\n      jumpi\n        /* \"#utility.yul\":1377:1456   */\n      tag_145\n      tag_136\n      jump\t// in\n    tag_145:\n        /* \"#utility.yul\":1339:1458   */\n    tag_144:\n        /* \"#utility.yul\":1497:1498   */\n      0x00\n        /* \"#utility.yul\":1522:1583   */\n      tag_146\n        /* \"#utility.yul\":1575:1582   */\n      dup5\n        /* \"#utility.yul\":1566:1572   */\n      dup3\n        /* \"#utility.yul\":1555:1564   */\n      dup6\n        /* \"#utility.yul\":1551:1573   */\n      add\n        /* \"#utility.yul\":1522:1583   */\n      tag_125\n      jump\t// in\n    tag_146:\n        /* \"#utility.yul\":1512:1583   */\n      swap2\n      pop\n        /* \"#utility.yul\":1468:1593   */\n      pop\n        /* \"#utility.yul\":1255:1600   */\n      swap3\n      swap2\n      pop\n      pop\n      jump\t// out\n        /* \"#utility.yul\":1606:1935   */\n    tag_52:\n        /* \"#utility.yul\":1665:1671   */\n      0x00\n        /* \"#utility.yul\":1714:1716   */\n      0x20\n        /* \"#utility.yul\":1702:1711   */\n      dup3\n        /* \"#utility.yul\":1693:1700   */\n      dup5\n        /* \"#utility.yul\":1689:1712   */\n      sub\n        /* \"#utility.yul\":1685:1717   */\n      slt\n        /* \"#utility.yul\":1682:1801   */\n      iszero\n      tag_148\n      jumpi\n        /* \"#utility.yul\":1720:1799   */\n      tag_149\n      tag_136\n      jump\t// in\n    tag_149:\n        /* \"#utility.yul\":1682:1801   */\n    tag_148:\n        /* \"#utility.yul\":1840:1841   */\n      0x00\n        /* \"#utility.yul\":1865:1918   */\n      tag_150\n        /* \"#utility.yul\":1910:1917   */\n      dup5\n        /* \"#utility.yul\":1901:1907   */\n      dup3\n        /* \"#utility.yul\":1890:1899   */\n      dup6\n        /* \"#utility.yul\":1886:1908   */\n      add\n        /* \"#utility.yul\":1865:1918   */\n      tag_129\n      jump\t// in\n    tag_150:\n        /* \"#utility.yul\":1855:1918   */\n      swap2\n      pop\n        /* \"#utility.yul\":1811:1928   */\n      pop\n        /* \"#utility.yul\":1606:1935   */\n      swap3\n      swap2\n      pop\n      pop\n      jump\t// out\n        /* \"#utility.yul\":1941:2059   */\n    tag_151:\n        /* \"#utility.yul\":2028:2052   */\n      tag_153\n        /* \"#utility.yul\":2046:2051   */\n      dup2\n        /* \"#utility.yul\":2028:2052   */\n      tag_154\n      jump\t// in\n    tag_153:\n        /* \"#utility.yul\":2023:2026   */\n      dup3\n        /* \"#utility.yul\":2016:2053   */\n      mstore\n        /* \"#utility.yul\":1941:2059   */\n      pop\n      pop\n      jump\t// out\n        /* \"#utility.yul\":2065:2174   */\n    tag_155:\n        /* \"#utility.yul\":2146:2167   */\n      tag_157\n        /* \"#utility.yul\":2161:2166   */\n      dup2\n        /* \"#utility.yul\":2146:2167   */\n      tag_158\n      jump\t// in\n    tag_157:\n        /* \"#utility.yul\":2141:2144   */\n      dup3\n        /* \"#utility.yul\":2134:2168   */\n      mstore\n        /* \"#utility.yul\":2065:2174   */\n      pop\n      pop\n      jump\t// out\n        /* \"#utility.yul\":2180:2544   */\n    tag_159:\n        /* \"#utility.yul\":2268:2271   */\n      0x00\n        /* \"#utility.yul\":2296:2335   */\n      tag_161\n        /* \"#utility.yul\":2329:2334   */\n      dup3\n        /* \"#utility.yul\":2296:2335   */\n      tag_162\n      jump\t// in\n    tag_161:\n        /* \"#utility.yul\":2351:2422   */\n      tag_163\n        /* \"#utility.yul\":2415:2421   */\n      dup2\n        /* \"#utility.yul\":2410:2413   */\n      dup6\n        /* \"#utility.yul\":2351:2422   */\n      tag_164\n      jump\t// in\n    tag_163:\n        /* \"#utility.yul\":2344:2422   */\n      swap4\n      pop\n        /* \"#utility.yul\":2431:2483   */\n      tag_165\n        /* \"#utility.yul\":2476:2482   */\n      dup2\n        /* \"#utility.yul\":2471:2474   */\n      dup6\n        /* \"#utility.yul\":2464:2468   */\n      0x20\n        /* \"#utility.yul\":2457:2462   */\n      dup7\n        /* \"#utility.yul\":2453:2469   */\n      add\n        /* \"#utility.yul\":2431:2483   */\n      tag_166\n      jump\t// in\n    tag_165:\n        /* \"#utility.yul\":2508:2537   */\n      tag_167\n        /* \"#utility.yul\":2530:2536   */\n      dup2\n        /* \"#utility.yul\":2508:2537   */\n      tag_168\n      jump\t// in\n    tag_167:\n        /* \"#utility.yul\":2503:2506   */\n      dup5\n        /* \"#utility.yul\":2499:2538   */\n      add\n        /* \"#utility.yul\":2492:2538   */\n      swap2\n      pop\n        /* \"#utility.yul\":2272:2544   */\n      pop\n        /* \"#utility.yul\":2180:2544   */\n      swap3\n      swap2\n      pop\n      pop\n      jump\t// out\n        /* \"#utility.yul\":2550:2916   */\n    tag_169:\n        /* \"#utility.yul\":2692:2695   */\n      0x00\n        /* \"#utility.yul\":2713:2780   */\n      tag_171\n        /* \"#utility.yul\":2777:2779   */\n      0x1e\n        /* \"#utility.yul\":2772:2775   */\n      dup4\n        /* \"#utility.yul\":2713:2780   */\n      tag_164\n      jump\t// in\n    tag_171:\n        /* \"#utility.yul\":2706:2780   */\n      swap2\n      pop\n        /* \"#utility.yul\":2789:2882   */\n      tag_172\n        /* \"#utility.yul\":2878:2881   */\n      dup3\n        /* \"#utility.yul\":2789:2882   */\n      tag_173\n      jump\t// in\n    tag_172:\n        /* \"#utility.yul\":2907:2909   */\n      0x20\n        /* \"#utility.yul\":2902:2905   */\n      dup3\n        /* \"#utility.yul\":2898:2910   */\n      add\n        /* \"#utility.yul\":2891:2910   */\n      swap1\n      pop\n        /* \"#utility.yul\":2550:2916   */\n      swap2\n      swap1\n      pop\n      jump\t// out\n        /* \"#utility.yul\":2922:3288   */\n    tag_174:\n        /* \"#utility.yul\":3064:3067   */\n      0x00\n        /* \"#utility.yul\":3085:3152   */\n      tag_176\n        /* \"#utility.yul\":3149:3151   */\n      0x18\n        /* \"#utility.yul\":3144:3147   */\n      dup4\n        /* \"#utility.yul\":3085:3152   */\n      tag_164\n      jump\t// in\n    tag_176:\n        /* \"#utility.yul\":3078:3152   */\n      swap2\n      pop\n        /* \"#utility.yul\":3161:3254   */\n      tag_177\n        /* \"#utility.yul\":3250:3253   */\n      dup3\n        /* \"#utility.yul\":3161:3254   */\n      tag_178\n      jump\t// in\n    tag_177:\n        /* \"#utility.yul\":3279:3281   */\n      0x20\n        /* \"#utility.yul\":3274:3277   */\n      dup3\n        /* \"#utility.yul\":3270:3282   */\n      add\n        /* \"#utility.yul\":3263:3282   */\n      swap1\n      pop\n        /* \"#utility.yul\":2922:3288   */\n      swap2\n      swap1\n      pop\n      jump\t// out\n        /* \"#utility.yul\":3294:3660   */\n    tag_179:\n        /* \"#utility.yul\":3436:3439   */\n      0x00\n        /* \"#utility.yul\":3457:3524   */\n      tag_181\n        /* \"#utility.yul\":3521:3523   */\n      0x17\n        /* \"#utility.yul\":3516:3519   */\n      dup4\n        /* \"#utility.yul\":3457:3524   */\n      tag_164\n      jump\t// in\n    tag_181:\n        /* \"#utility.yul\":3450:3524   */\n      swap2\n      pop\n        /* \"#utility.yul\":3533:3626   */\n      tag_182\n        /* \"#utility.yul\":3622:3625   */\n      dup3\n        /* \"#utility.yul\":3533:3626   */\n      tag_183\n      jump\t// in\n    tag_182:\n        /* \"#utility.yul\":3651:3653   */\n      0x20\n        /* \"#utility.yul\":3646:3649   */\n      dup3\n        /* \"#utility.yul\":3642:3654   */\n      add\n        /* \"#utility.yul\":3635:3654   */\n      swap1\n      pop\n        /* \"#utility.yul\":3294:3660   */\n      swap2\n      swap1\n      pop\n      jump\t// out\n        /* \"#utility.yul\":3666:4032   */\n    tag_184:\n        /* \"#utility.yul\":3808:3811   */\n      0x00\n        /* \"#utility.yul\":3829:3896   */\n      tag_186\n        /* \"#utility.yul\":3893:3895   */\n      0x27\n        /* \"#utility.yul\":3888:3891   */\n      dup4\n        /* \"#utility.yul\":3829:3896   */\n      tag_164\n      jump\t// in\n    tag_186:\n        /* \"#utility.yul\":3822:3896   */\n      swap2\n      pop\n        /* \"#utility.yul\":3905:3998   */\n      tag_187\n        /* \"#utility.yul\":3994:3997   */\n      dup3\n        /* \"#utility.yul\":3905:3998   */\n      tag_188\n      jump\t// in\n    tag_187:\n        /* \"#utility.yul\":4023:4025   */\n      0x40\n        /* \"#utility.yul\":4018:4021   */\n      dup3\n        /* \"#utility.yul\":4014:4026   */\n      add\n        /* \"#utility.yul\":4007:4026   */\n      swap1\n      pop\n        /* \"#utility.yul\":3666:4032   */\n      swap2\n      swap1\n      pop\n      jump\t// out\n        /* \"#utility.yul\":4038:4156   */\n    tag_189:\n        /* \"#utility.yul\":4125:4149   */\n      tag_191\n        /* \"#utility.yul\":4143:4148   */\n      dup2\n        /* \"#utility.yul\":4125:4149   */\n      tag_192\n      jump\t// in\n    tag_191:\n        /* \"#utility.yul\":4120:4123   */\n      dup3\n        /* \"#utility.yul\":4113:4150   */\n      mstore\n        /* \"#utility.yul\":4038:4156   */\n      pop\n      pop\n      jump\t// out\n        /* \"#utility.yul\":4162:4384   */\n    tag_33:\n        /* \"#utility.yul\":4255:4259   */\n      0x00\n        /* \"#utility.yul\":4293:4295   */\n      0x20\n        /* \"#utility.yul\":4282:4291   */\n      dup3\n        /* \"#utility.yul\":4278:4296   */\n      add\n        /* \"#utility.yul\":4270:4296   */\n      swap1\n      pop\n        /* \"#utility.yul\":4306:4377   */\n      tag_194\n        /* \"#utility.yul\":4374:4375   */\n      0x00\n        /* \"#utility.yul\":4363:4372   */\n      dup4\n        /* \"#utility.yul\":4359:4376   */\n      add\n        /* \"#utility.yul\":4350:4356   */\n      dup5\n        /* \"#utility.yul\":4306:4377   */\n      tag_151\n      jump\t// in\n    tag_194:\n        /* \"#utility.yul\":4162:4384   */\n      swap3\n      swap2\n      pop\n      pop\n      jump\t// out\n        /* \"#utility.yul\":4390:4722   */\n    tag_89:\n        /* \"#utility.yul\":4511:4515   */\n      0x00\n        /* \"#utility.yul\":4549:4551   */\n      0x40\n        /* \"#utility.yul\":4538:4547   */\n      dup3\n        /* \"#utility.yul\":4534:4552   */\n      add\n        /* \"#utility.yul\":4526:4552   */\n      swap1\n      pop\n        /* \"#utility.yul\":4562:4633   */\n      tag_196\n        /* \"#utility.yul\":4630:4631   */\n      0x00\n        /* \"#utility.yul\":4619:4628   */\n      dup4\n        /* \"#utility.yul\":4615:4632   */\n      add\n        /* \"#utility.yul\":4606:4612   */\n      dup6\n        /* \"#utility.yul\":4562:4633   */\n      tag_151\n      jump\t// in\n    tag_196:\n        /* \"#utility.yul\":4643:4715   */\n      tag_197\n        /* \"#utility.yul\":4711:4713   */\n      0x20\n        /* \"#utility.yul\":4700:4709   */\n      dup4\n        /* \"#utility.yul\":4696:4714   */\n      add\n        /* \"#utility.yul\":4687:4693   */\n      dup5\n        /* \"#utility.yul\":4643:4715   */\n      tag_189\n      jump\t// in\n    tag_197:\n        /* \"#utility.yul\":4390:4722   */\n      swap4\n      swap3\n      pop\n      pop\n      pop\n      jump\t// out\n        /* \"#utility.yul\":4728:4938   */\n    tag_37:\n        /* \"#utility.yul\":4815:4819   */\n      0x00\n        /* \"#utility.yul\":4853:4855   */\n      0x20\n        /* \"#utility.yul\":4842:4851   */\n      dup3\n        /* \"#utility.yul\":4838:4856   */\n      add\n        /* \"#utility.yul\":4830:4856   */\n      swap1\n      pop\n        /* \"#utility.yul\":4866:4931   */\n      tag_199\n        /* \"#utility.yul\":4928:4929   */\n      0x00\n        /* \"#utility.yul\":4917:4926   */\n      dup4\n        /* \"#utility.yul\":4913:4930   */\n      add\n        /* \"#utility.yul\":4904:4910   */\n      dup5\n        /* \"#utility.yul\":4866:4931   */\n      tag_155\n      jump\t// in\n    tag_199:\n        /* \"#utility.yul\":4728:4938   */\n      swap3\n      swap2\n      pop\n      pop\n      jump\t// out\n        /* \"#utility.yul\":4944:5257   */\n    tag_18:\n        /* \"#utility.yul\":5057:5061   */\n      0x00\n        /* \"#utility.yul\":5095:5097   */\n      0x20\n        /* \"#utility.yul\":5084:5093   */\n      dup3\n        /* \"#utility.yul\":5080:5098   */\n      add\n        /* \"#utility.yul\":5072:5098   */\n      swap1\n      pop\n        /* \"#utility.yul\":5144:5153   */\n      dup2\n        /* \"#utility.yul\":5138:5142   */\n      dup2\n        /* \"#utility.yul\":5134:5154   */\n      sub\n        /* \"#utility.yul\":5130:5131   */\n      0x00\n        /* \"#utility.yul\":5119:5128   */\n      dup4\n        /* \"#utility.yul\":5115:5132   */\n      add\n        /* \"#utility.yul\":5108:5155   */\n      mstore\n        /* \"#utility.yul\":5172:5250   */\n      tag_201\n        /* \"#utility.yul\":5245:5249   */\n      dup2\n        /* \"#utility.yul\":5236:5242   */\n      dup5\n        /* \"#utility.yul\":5172:5250   */\n      tag_159\n      jump\t// in\n    tag_201:\n        /* \"#utility.yul\":5164:5250   */\n      swap1\n      pop\n        /* \"#utility.yul\":4944:5257   */\n      swap3\n      swap2\n      pop\n      pop\n      jump\t// out\n        /* \"#utility.yul\":5263:5682   */\n    tag_100:\n        /* \"#utility.yul\":5429:5433   */\n      0x00\n        /* \"#utility.yul\":5467:5469   */\n      0x20\n        /* \"#utility.yul\":5456:5465   */\n      dup3\n        /* \"#utility.yul\":5452:5470   */\n      add\n        /* \"#utility.yul\":5444:5470   */\n      swap1\n      pop\n        /* \"#utility.yul\":5516:5525   */\n      dup2\n        /* \"#utility.yul\":5510:5514   */\n      dup2\n        /* \"#utility.yul\":5506:5526   */\n      sub\n        /* \"#utility.yul\":5502:5503   */\n      0x00\n        /* \"#utility.yul\":5491:5500   */\n      dup4\n        /* \"#utility.yul\":5487:5504   */\n      add\n        /* \"#utility.yul\":5480:5527   */\n      mstore\n        /* \"#utility.yul\":5544:5675   */\n      tag_203\n        /* \"#utility.yul\":5670:5674   */\n      dup2\n        /* \"#utility.yul\":5544:5675   */\n      tag_169\n      jump\t// in\n    tag_203:\n        /* \"#utility.yul\":5536:5675   */\n      swap1\n      pop\n        /* \"#utility.yul\":5263:5682   */\n      swap2\n      swap1\n      pop\n      jump\t// out\n        /* \"#utility.yul\":5688:6107   */\n    tag_78:\n        /* \"#utility.yul\":5854:5858   */\n      0x00\n        /* \"#utility.yul\":5892:5894   */\n      0x20\n        /* \"#utility.yul\":5881:5890   */\n      dup3\n        /* \"#utility.yul\":5877:5895   */\n      add\n        /* \"#utility.yul\":5869:5895   */\n      swap1\n      pop\n        /* \"#utility.yul\":5941:5950   */\n      dup2\n        /* \"#utility.yul\":5935:5939   */\n      dup2\n        /* \"#utility.yul\":5931:5951   */\n      sub\n        /* \"#utility.yul\":5927:5928   */\n      0x00\n        /* \"#utility.yul\":5916:5925   */\n      dup4\n        /* \"#utility.yul\":5912:5929   */\n      add\n        /* \"#utility.yul\":5905:5952   */\n      mstore\n        /* \"#utility.yul\":5969:6100   */\n      tag_205\n        /* \"#utility.yul\":6095:6099   */\n      dup2\n        /* \"#utility.yul\":5969:6100   */\n      tag_174\n      jump\t// in\n    tag_205:\n        /* \"#utility.yul\":5961:6100   */\n      swap1\n      pop\n        /* \"#utility.yul\":5688:6107   */\n      swap2\n      swap1\n      pop\n      jump\t// out\n        /* \"#utility.yul\":6113:6532   */\n    tag_64:\n        /* \"#utility.yul\":6279:6283   */\n      0x00\n        /* \"#utility.yul\":6317:6319   */\n      0x20\n        /* \"#utility.yul\":6306:6315   */\n      dup3\n        /* \"#utility.yul\":6302:6320   */\n      add\n        /* \"#utility.yul\":6294:6320   */\n      swap1\n      pop\n        /* \"#utility.yul\":6366:6375   */\n      dup2\n        /* \"#utility.yul\":6360:6364   */\n      dup2\n        /* \"#utility.yul\":6356:6376   */\n      sub\n        /* \"#utility.yul\":6352:6353   */\n      0x00\n        /* \"#utility.yul\":6341:6350   */\n      dup4\n        /* \"#utility.yul\":6337:6354   */\n      add\n        /* \"#utility.yul\":6330:6377   */\n      mstore\n        /* \"#utility.yul\":6394:6525   */\n      tag_207\n        /* \"#utility.yul\":6520:6524   */\n      dup2\n        /* \"#utility.yul\":6394:6525   */\n      tag_179\n      jump\t// in\n    tag_207:\n        /* \"#utility.yul\":6386:6525   */\n      swap1\n      pop\n        /* \"#utility.yul\":6113:6532   */\n      swap2\n      swap1\n      pop\n      jump\t// out\n        /* \"#utility.yul\":6538:6957   */\n    tag_67:\n        /* \"#utility.yul\":6704:6708   */\n      0x00\n        /* \"#utility.yul\":6742:6744   */\n      0x20\n        /* \"#utility.yul\":6731:6740   */\n      dup3\n        /* \"#utility.yul\":6727:6745   */\n      add\n        /* \"#utility.yul\":6719:6745   */\n      swap1\n      pop\n        /* \"#utility.yul\":6791:6800   */\n      dup2\n        /* \"#utility.yul\":6785:6789   */\n      dup2\n        /* \"#utility.yul\":6781:6801   */\n      sub\n        /* \"#utility.yul\":6777:6778   */\n      0x00\n        /* \"#utility.yul\":6766:6775   */\n      dup4\n        /* \"#utility.yul\":6762:6779   */\n      add\n        /* \"#utility.yul\":6755:6802   */\n      mstore\n        /* \"#utility.yul\":6819:6950   */\n      tag_209\n        /* \"#utility.yul\":6945:6949   */\n      dup2\n        /* \"#utility.yul\":6819:6950   */\n      tag_184\n      jump\t// in\n    tag_209:\n        /* \"#utility.yul\":6811:6950   */\n      swap1\n      pop\n        /* \"#utility.yul\":6538:6957   */\n      swap2\n      swap1\n      pop\n      jump\t// out\n        /* \"#utility.yul\":6963:7185   */\n    tag_22:\n        /* \"#utility.yul\":7056:7060   */\n      0x00\n        /* \"#utility.yul\":7094:7096   */\n      0x20\n        /* \"#utility.yul\":7083:7092   */\n      dup3\n        /* \"#utility.yul\":7079:7097   */\n      add\n        /* \"#utility.yul\":7071:7097   */\n      swap1\n      pop\n        /* \"#utility.yul\":7107:7178   */\n      tag_211\n        /* \"#utility.yul\":7175:7176   */\n      0x00\n        /* \"#utility.yul\":7164:7173   */\n      dup4\n        /* \"#utility.yul\":7160:7177   */\n      add\n        /* \"#utility.yul\":7151:7157   */\n      dup5\n        /* \"#utility.yul\":7107:7178   */\n      tag_189\n      jump\t// in\n    tag_211:\n        /* \"#utility.yul\":6963:7185   */\n      swap3\n      swap2\n      pop\n      pop\n      jump\t// out\n        /* \"#utility.yul\":7272:7371   */\n    tag_162:\n        /* \"#utility.yul\":7324:7330   */\n      0x00\n        /* \"#utility.yul\":7358:7363   */\n      dup2\n        /* \"#utility.yul\":7352:7364   */\n      mload\n        /* \"#utility.yul\":7342:7364   */\n      swap1\n      pop\n        /* \"#utility.yul\":7272:7371   */\n      swap2\n      swap1\n      pop\n      jump\t// out\n        /* \"#utility.yul\":7377:7546   */\n    tag_164:\n        /* \"#utility.yul\":7461:7472   */\n      0x00\n        /* \"#utility.yul\":7495:7501   */\n      dup3\n        /* \"#utility.yul\":7490:7493   */\n      dup3\n        /* \"#utility.yul\":7483:7502   */\n      mstore\n        /* \"#utility.yul\":7535:7539   */\n      0x20\n        /* \"#utility.yul\":7530:7533   */\n      dup3\n        /* \"#utility.yul\":7526:7540   */\n      add\n        /* \"#utility.yul\":7511:7540   */\n      swap1\n      pop\n        /* \"#utility.yul\":7377:7546   */\n      swap3\n      swap2\n      pop\n      pop\n      jump\t// out\n        /* \"#utility.yul\":7552:7648   */\n    tag_154:\n        /* \"#utility.yul\":7589:7596   */\n      0x00\n        /* \"#utility.yul\":7618:7642   */\n      tag_217\n        /* \"#utility.yul\":7636:7641   */\n      dup3\n        /* \"#utility.yul\":7618:7642   */\n      tag_218\n      jump\t// in\n    tag_217:\n        /* \"#utility.yul\":7607:7642   */\n      swap1\n      pop\n        /* \"#utility.yul\":7552:7648   */\n      swap2\n      swap1\n      pop\n      jump\t// out\n        /* \"#utility.yul\":7654:7744   */\n    tag_158:\n        /* \"#utility.yul\":7688:7695   */\n      0x00\n        /* \"#utility.yul\":7731:7736   */\n      dup2\n        /* \"#utility.yul\":7724:7737   */\n      iszero\n        /* \"#utility.yul\":7717:7738   */\n      iszero\n        /* \"#utility.yul\":7706:7738   */\n      swap1\n      pop\n        /* \"#utility.yul\":7654:7744   */\n      swap2\n      swap1\n      pop\n      jump\t// out\n        /* \"#utility.yul\":7750:7876   */\n    tag_218:\n        /* \"#utility.yul\":7787:7794   */\n      0x00\n        /* \"#utility.yul\":7827:7869   */\n      0xffffffffffffffffffffffffffffffffffffffff\n        /* \"#utility.yul\":7820:7825   */\n      dup3\n        /* \"#utility.yul\":7816:7870   */\n      and\n        /* \"#utility.yul\":7805:7870   */\n      swap1\n      pop\n        /* \"#utility.yul\":7750:7876   */\n      swap2\n      swap1\n      pop\n      jump\t// out\n        /* \"#utility.yul\":7882:7959   */\n    tag_192:\n        /* \"#utility.yul\":7919:7926   */\n      0x00\n        /* \"#utility.yul\":7948:7953   */\n      dup2\n        /* \"#utility.yul\":7937:7953   */\n      swap1\n      pop\n        /* \"#utility.yul\":7882:7959   */\n      swap2\n      swap1\n      pop\n      jump\t// out\n        /* \"#utility.yul\":7965:8272   */\n    tag_166:\n        /* \"#utility.yul\":8033:8034   */\n      0x00\n        /* \"#utility.yul\":8043:8156   */\n    tag_223:\n        /* \"#utility.yul\":8057:8063   */\n      dup4\n        /* \"#utility.yul\":8054:8055   */\n      dup2\n        /* \"#utility.yul\":8051:8064   */\n      lt\n        /* \"#utility.yul\":8043:8156   */\n      iszero\n      tag_225\n      jumpi\n        /* \"#utility.yul\":8142:8143   */\n      dup1\n        /* \"#utility.yul\":8137:8140   */\n      dup3\n        /* \"#utility.yul\":8133:8144   */\n      add\n        /* \"#utility.yul\":8127:8145   */\n      mload\n        /* \"#utility.yul\":8123:8124   */\n      dup2\n        /* \"#utility.yul\":8118:8121   */\n      dup5\n        /* \"#utility.yul\":8114:8125   */\n      add\n        /* \"#utility.yul\":8107:8146   */\n      mstore\n        /* \"#utility.yul\":8079:8081   */\n      0x20\n        /* \"#utility.yul\":8076:8077   */\n      dup2\n        /* \"#utility.yul\":8072:8082   */\n      add\n        /* \"#utility.yul\":8067:8082   */\n      swap1\n      pop\n        /* \"#utility.yul\":8043:8156   */\n      jump(tag_223)\n    tag_225:\n        /* \"#utility.yul\":8174:8180   */\n      dup4\n        /* \"#utility.yul\":8171:8172   */\n      dup2\n        /* \"#utility.yul\":8168:8181   */\n      gt\n        /* \"#utility.yul\":8165:8266   */\n      iszero\n      tag_226\n      jumpi\n        /* \"#utility.yul\":8254:8255   */\n      0x00\n        /* \"#utility.yul\":8245:8251   */\n      dup5\n        /* \"#utility.yul\":8240:8243   */\n      dup5\n        /* \"#utility.yul\":8236:8252   */\n      add\n        /* \"#utility.yul\":8229:8256   */\n      mstore\n        /* \"#utility.yul\":8165:8266   */\n    tag_226:\n        /* \"#utility.yul\":8014:8272   */\n      pop\n        /* \"#utility.yul\":7965:8272   */\n      pop\n      pop\n      pop\n      jump\t// out\n        /* \"#utility.yul\":8278:8598   */\n    tag_56:\n        /* \"#utility.yul\":8322:8328   */\n      0x00\n        /* \"#utility.yul\":8359:8360   */\n      0x02\n        /* \"#utility.yul\":8353:8357   */\n      dup3\n        /* \"#utility.yul\":8349:8361   */\n      div\n        /* \"#utility.yul\":8339:8361   */\n      swap1\n      pop\n        /* \"#utility.yul\":8406:8407   */\n      0x01\n        /* \"#utility.yul\":8400:8404   */\n      dup3\n        /* \"#utility.yul\":8396:8408   */\n      and\n        /* \"#utility.yul\":8427:8445   */\n      dup1\n        /* \"#utility.yul\":8417:8498   */\n      tag_228\n      jumpi\n        /* \"#utility.yul\":8483:8487   */\n      0x7f\n        /* \"#utility.yul\":8475:8481   */\n      dup3\n        /* \"#utility.yul\":8471:8488   */\n      and\n        /* \"#utility.yul\":8461:8488   */\n      swap2\n      pop\n        /* \"#utility.yul\":8417:8498   */\n    tag_228:\n        /* \"#utility.yul\":8545:8547   */\n      0x20\n        /* \"#utility.yul\":8537:8543   */\n      dup3\n        /* \"#utility.yul\":8534:8548   */\n      lt\n        /* \"#utility.yul\":8514:8532   */\n      dup2\n        /* \"#utility.yul\":8511:8549   */\n      eq\n        /* \"#utility.yul\":8508:8592   */\n      iszero\n      tag_229\n      jumpi\n        /* \"#utility.yul\":8564:8582   */\n      tag_230\n      tag_231\n      jump\t// in\n    tag_230:\n        /* \"#utility.yul\":8508:8592   */\n    tag_229:\n        /* \"#utility.yul\":8329:8598   */\n      pop\n        /* \"#utility.yul\":8278:8598   */\n      swap2\n      swap1\n      pop\n      jump\t// out\n        /* \"#utility.yul\":8604:8837   */\n    tag_96:\n        /* \"#utility.yul\":8643:8646   */\n      0x00\n        /* \"#utility.yul\":8666:8690   */\n      tag_233\n        /* \"#utility.yul\":8684:8689   */\n      dup3\n        /* \"#utility.yul\":8666:8690   */\n      tag_192\n      jump\t// in\n    tag_233:\n        /* \"#utility.yul\":8657:8690   */\n      swap2\n      pop\n        /* \"#utility.yul\":8712:8778   */\n      0xffffffffffffffffffffffffffffffffffffffffffffffffffffffffffffffff\n        /* \"#utility.yul\":8705:8710   */\n      dup3\n        /* \"#utility.yul\":8702:8779   */\n      eq\n        /* \"#utility.yul\":8699:8802   */\n      iszero\n      tag_234\n      jumpi\n        /* \"#utility.yul\":8782:8800   */\n      tag_235\n      tag_236\n      jump\t// in\n    tag_235:\n        /* \"#utility.yul\":8699:8802   */\n    tag_234:\n        /* \"#utility.yul\":8829:8830   */\n      0x01\n        /* \"#utility.yul\":8822:8827   */\n      dup3\n        /* \"#utility.yul\":8818:8831   */\n      add\n        /* \"#utility.yul\":8811:8831   */\n      swap1\n      pop\n        /* \"#utility.yul\":8604:8837   */\n      swap2\n      swap1\n      pop\n      jump\t// out\n        /* \"#utility.yul\":8843:9023   */\n    tag_236:\n        /* \"#utility.yul\":8891:8968   */\n      0x4e487b7100000000000000000000000000000000000000000000000000000000\n        /* \"#utility.yul\":8888:8889   */\n      0x00\n        /* \"#utility.yul\":8881:8969   */\n      mstore\n        /* \"#utility.yul\":8988:8992   */\n      0x11\n        /* \"#utility.yul\":8985:8986   */\n      0x04\n        /* \"#utility.yul\":8978:8993   */\n      mstore\n        /* \"#utility.yul\":9012:9016   */\n      0x24\n        /* \"#utility.yul\":9009:9010   */\n      0x00\n        /* \"#utility.yul\":9002:9017   */\n      revert\n        /* \"#utility.yul\":9029:9209   */\n    tag_231:\n        /* \"#utility.yul\":9077:9154   */\n      0x4e487b7100000000000000000000000000000000000000000000000000000000\n        /* \"#utility.yul\":9074:9075   */\n      0x00\n        /* \"#utility.yul\":9067:9155   */\n      mstore\n        /* \"#utility.yul\":9174:9178   */\n      0x22\n        /* \"#utility.yul\":9171:9172   */\n      0x04\n        /* \"#utility.yul\":9164:9179   */\n      mstore\n        /* \"#utility.yul\":9198:9202   */\n      0x24\n        /* \"#utility.yul\":9195:9196   */\n      0x00\n        /* \"#utility.yul\":9188:9203   */\n      revert\n        /* \"#utility.yul\":9215:9395   */\n    tag_86:\n        /* \"#utility.yul\":9263:9340   */\n      0x4e487b7100000000000000000000000000000000000000000000000000000000\n        /* \"#utility.yul\":9260:9261   */\n      0x00\n        /* \"#utility.yul\":9253:9341   */\n      mstore\n        /* \"#utility.yul\":9360:9364   */\n      0x32\n        /* \"#utility.yul\":9357:9358   */\n      0x04\n        /* \"#utility.yul\":9350:9365   */\n      mstore\n        /* \"#utility.yul\":9384:9388   */\n      0x24\n        /* \"#utility.yul\":9381:9382   */\n      0x00\n        /* \"#utility.yul\":9374:9389   */\n      revert\n        /* \"#utility.yul\":9524:9641   */\n    tag_136:\n        /* \"#utility.yul\":9633:9634   */\n      0x00\n        /* \"#utility.yul\":9630:9631   */\n      dup1\n        /* \"#utility.yul\":9623:9635   */\n      revert\n        /* \"#utility.yul\":9647:9749   */\n    tag_168:\n        /* \"#utility.yul\":9688:9694   */\n      0x00\n        /* \"#utility.yul\":9739:9741   */\n      0x1f\n        /* \"#utility.yul\":9735:9742   */\n      not\n        /* \"#utility.yul\":9730:9732   */\n      0x1f\n        /* \"#utility.yul\":9723:9728   */\n      dup4\n        /* \"#utility.yul\":9719:9733   */\n      add\n        /* \"#utility.yul\":9715:9743   */\n      and\n        /* \"#utility.yul\":9705:9743   */\n      swap1\n      pop\n        /* \"#utility.yul\":9647:9749   */\n      swap2\n      swap1\n      pop\n      jump\t// out\n        /* \"#utility.yul\":9755:9935   */\n    tag_173:\n        /* \"#utility.yul\":9895:9927   */\n      0x4f6e6c79204f776e65722063616e20756e7061636b20546f6b656e697a2e0000\n        /* \"#utility.yul\":9891:9892   */\n      0x00\n        /* \"#utility.yul\":9883:9889   */\n      dup3\n        /* \"#utility.yul\":9879:9893   */\n      add\n        /* \"#utility.yul\":9872:9928   */\n      mstore\n        /* \"#utility.yul\":9755:9935   */\n      pop\n      jump\t// out\n        /* \"#utility.yul\":9941:10115   */\n    tag_178:\n        /* \"#utility.yul\":10081:10107   */\n      0x416c726561647920756e7061636b656420546f6b656e697a0000000000000000\n        /* \"#utility.yul\":10077:10078   */\n      0x00\n        /* \"#utility.yul\":10069:10075   */\n      dup3\n        /* \"#utility.yul\":10065:10079   */\n      add\n        /* \"#utility.yul\":10058:10108   */\n      mstore\n        /* \"#utility.yul\":9941:10115   */\n      pop\n      jump\t// out\n        /* \"#utility.yul\":10121:10294   */\n    tag_183:\n        /* \"#utility.yul\":10261:10286   */\n      0x4f6e6c79206f776e65722063616e207472616e73666572000000000000000000\n        /* \"#utility.yul\":10257:10258   */\n      0x00\n        /* \"#utility.yul\":10249:10255   */\n      dup3\n        /* \"#utility.yul\":10245:10259   */\n      add\n        /* \"#utility.yul\":10238:10287   */\n      mstore\n        /* \"#utility.yul\":10121:10294   */\n      pop\n      jump\t// out\n        /* \"#utility.yul\":10300:10526   */\n    tag_188:\n        /* \"#utility.yul\":10440:10474   */\n      0x4d7573742062652073656e742076696120546f6b656e697a2061646d696e2063\n        /* \"#utility.yul\":10436:10437   */\n      0x00\n        /* \"#utility.yul\":10428:10434   */\n      dup3\n        /* \"#utility.yul\":10424:10438   */\n      add\n        /* \"#utility.yul\":10417:10475   */\n      mstore\n        /* \"#utility.yul\":10509:10518   */\n      0x6f6e747261637400000000000000000000000000000000000000000000000000\n        /* \"#utility.yul\":10504:10506   */\n      0x20\n        /* \"#utility.yul\":10496:10502   */\n      dup3\n        /* \"#utility.yul\":10492:10507   */\n      add\n        /* \"#utility.yul\":10485:10519   */\n      mstore\n        /* \"#utility.yul\":10300:10526   */\n      pop\n      jump\t// out\n        /* \"#utility.yul\":10532:10654   */\n    tag_124:\n        /* \"#utility.yul\":10605:10629   */\n      tag_249\n        /* \"#utility.yul\":10623:10628   */\n      dup2\n        /* \"#utility.yul\":10605:10629   */\n      tag_154\n      jump\t// in\n    tag_249:\n        /* \"#utility.yul\":10598:10603   */\n      dup2\n        /* \"#utility.yul\":10595:10630   */\n      eq\n        /* \"#utility.yul\":10585:10648   */\n      tag_250\n      jumpi\n        /* \"#utility.yul\":10644:10645   */\n      0x00\n        /* \"#utility.yul\":10641:10642   */\n      dup1\n        /* \"#utility.yul\":10634:10646   */\n      revert\n        /* \"#utility.yul\":10585:10648   */\n    tag_250:\n        /* \"#utility.yul\":10532:10654   */\n      pop\n      jump\t// out\n        /* \"#utility.yul\":10660:10776   */\n    tag_128:\n        /* \"#utility.yul\":10730:10751   */\n      tag_252\n        /* \"#utility.yul\":10745:10750   */\n      dup2\n        /* \"#utility.yul\":10730:10751   */\n      tag_158\n      jump\t// in\n    tag_252:\n        /* \"#utility.yul\":10723:10728   */\n      dup2\n        /* \"#utility.yul\":10720:10752   */\n      eq\n        /* \"#utility.yul\":10710:10770   */\n      tag_253\n      jumpi\n        /* \"#utility.yul\":10766:10767   */\n      0x00\n        /* \"#utility.yul\":10763:10764   */\n      dup1\n        /* \"#utility.yul\":10756:10768   */\n      revert\n        /* \"#utility.yul\":10710:10770   */\n    tag_253:\n        /* \"#utility.yul\":10660:10776   */\n      pop\n      jump\t// out\n        /* \"#utility.yul\":10782:10904   */\n    tag_132:\n        /* \"#utility.yul\":10855:10879   */\n      tag_255\n        /* \"#utility.yul\":10873:10878   */\n      dup2\n        /* \"#utility.yul\":10855:10879   */\n      tag_192\n      jump\t// in\n    tag_255:\n        /* \"#utility.yul\":10848:10853   */\n      dup2\n        /* \"#utility.yul\":10845:10880   */\n      eq\n        /* \"#utility.yul\":10835:10898   */\n      tag_256\n      jumpi\n        /* \"#utility.yul\":10894:10895   */\n      0x00\n        /* \"#utility.yul\":10891:10892   */\n      dup1\n        /* \"#utility.yul\":10884:10896   */\n      revert\n        /* \"#utility.yul\":10835:10898   */\n    tag_256:\n        /* \"#utility.yul\":10782:10904   */\n      pop\n      jump\t// out\n\n    auxdata: 0xa26469706673582212209acf63d9bad88b496c43cda66f0975c1685270e539c8faf66d452c5563b0675764736f6c63430008070033\n}\n",
				"bytecode": {
					"linkReferences": {},
					"object": "60806040523480156200001157600080fd5b5060405162001a6038038062001a6083398181016040528101906200003791906200052c565b7fd4f7329e9171f08c730187171cde1ab6f70848b01b8ad54d350ccb5e554b957f60066040516200006991906200066c565b60405180910390a1806000806101000a81548173ffffffffffffffffffffffffffffffffffffffff021916908373ffffffffffffffffffffffffffffffffffffffff16021790555086600160006101000a81548173ffffffffffffffffffffffffffffffffffffffff021916908373ffffffffffffffffffffffffffffffffffffffff16021790555060018060146101000a81548160ff02191690831515021790555060005b84518110156200022d576005858281518110620001315762000130620008e6565b5b60200260200101519080600181540180825580915050600190039060005260206000200160009091909190916101000a81548173ffffffffffffffffffffffffffffffffffffffff021916908373ffffffffffffffffffffffffffffffffffffffff160217905550838181518110620001af57620001ae620008e6565b5b602002602001015160046000878481518110620001d157620001d0620008e6565b5b602002602001015173ffffffffffffffffffffffffffffffffffffffff1673ffffffffffffffffffffffffffffffffffffffff16815260200190815260200160002081905550808062000224906200083a565b9150506200010f565b5084600290805190602001906200024692919062000274565b5085600390805190602001906200025f92919062000274565b508160068190555050505050505050620009a2565b8280546200028290620007ce565b90600052602060002090601f016020900481019282620002a65760008555620002f2565b82601f10620002c157805160ff1916838001178555620002f2565b82800160010185558215620002f2579182015b82811115620002f1578251825591602001919060010190620002d4565b5b50905062000301919062000305565b5090565b5b808211156200032057600081600090555060010162000306565b5090565b60006200033b6200033584620006b2565b62000689565b9050808382526020820190508285602086028201111562000361576200036062000949565b5b60005b858110156200039557816200037a888262000465565b84526020840193506020830192505060018101905062000364565b5050509392505050565b6000620003b6620003b084620006e1565b62000689565b90508083825260208201905082856020860282011115620003dc57620003db62000949565b5b60005b85811015620004105781620003f5888262000515565b845260208401935060208301925050600181019050620003df565b5050509392505050565b6000620004316200042b8462000710565b62000689565b90508281526020810184848401111562000450576200044f6200094e565b5b6200045d84828562000798565b509392505050565b60008151905062000476816200096e565b92915050565b600082601f83011262000494576200049362000944565b5b8151620004a684826020860162000324565b91505092915050565b600082601f830112620004c757620004c662000944565b5b8151620004d98482602086016200039f565b91505092915050565b600082601f830112620004fa57620004f962000944565b5b81516200050c8482602086016200041a565b91505092915050565b600081519050620005268162000988565b92915050565b600080600080600080600060e0888a0312156200054e576200054d62000958565b5b60006200055e8a828b0162000465565b975050602088015167ffffffffffffffff81111562000582576200058162000953565b5b620005908a828b01620004e2565b965050604088015167ffffffffffffffff811115620005b457620005b362000953565b5b620005c28a828b01620004e2565b955050606088015167ffffffffffffffff811115620005e657620005e562000953565b5b620005f48a828b016200047c565b945050608088015167ffffffffffffffff81111562000618576200061762000953565b5b620006268a828b01620004af565b93505060a0620006398a828b0162000515565b92505060c06200064c8a828b0162000465565b91505092959891949750929550565b620006668162000784565b82525050565b60006020820190506200068360008301846200065b565b92915050565b600062000695620006a8565b9050620006a3828262000804565b919050565b6000604051905090565b600067ffffffffffffffff821115620006d057620006cf62000915565b5b602082029050602081019050919050565b600067ffffffffffffffff821115620006ff57620006fe62000915565b5b602082029050602081019050919050565b600067ffffffffffffffff8211156200072e576200072d62000915565b5b62000739826200095d565b9050602081019050919050565b600062000753826200075a565b9050919050565b600073ffffffffffffffffffffffffffffffffffffffff82169050919050565b6000819050919050565b600062000791826200077a565b9050919050565b60005b83811015620007b85780820151818401526020810190506200079b565b83811115620007c8576000848401525b50505050565b60006002820490506001821680620007e757607f821691505b60208210811415620007fe57620007fd620008b7565b5b50919050565b6200080f826200095d565b810181811067ffffffffffffffff8211171562000831576200083062000915565b5b80604052505050565b600062000847826200077a565b91507fffffffffffffffffffffffffffffffffffffffffffffffffffffffffffffffff8214156200087d576200087c62000888565b5b600182019050919050565b7f4e487b7100000000000000000000000000000000000000000000000000000000600052601160045260246000fd5b7f4e487b7100000000000000000000000000000000000000000000000000000000600052602260045260246000fd5b7f4e487b7100000000000000000000000000000000000000000000000000000000600052603260045260246000fd5b7f4e487b7100000000000000000000000000000000000000000000000000000000600052604160045260246000fd5b600080fd5b600080fd5b600080fd5b600080fd5b600080fd5b6000601f19601f8301169050919050565b620009798162000746565b81146200098557600080fd5b50565b62000993816200077a565b81146200099f57600080fd5b50565b6110ae80620009b26000396000f3fe608060405234801561001057600080fd5b50600436106100a95760003560e01c80638f23d5f6116100715780638f23d5f6146101425780638f32a2b01461016057806390d524a21461016a578063e2c42e6614610174578063eedc966a14610192578063f7aca939146101c2576100a9565b806306fdde03146100ae57806317d70f7c146100cc57806329af9dce146100ea5780633c130d90146101065780638da5cb5b14610124575b600080fd5b6100b66101f2565b6040516100c39190610cf7565b60405180910390f35b6100d4610280565b6040516100e19190610d99565b60405180910390f35b61010460048036038101906100ff9190610b0c565b610286565b005b61010e6103e9565b60405161011b9190610cf7565b60405180910390f35b61012c610477565b6040516101399190610c98565b60405180910390f35b61014a61049d565b6040516101579190610cdc565b60405180910390f35b6101686104b0565b005b610172610770565b005b61017c610a32565b6040516101899190610cdc565b60405180910390f35b6101ac60048036038101906101a79190610adf565b610a49565b6040516101b99190610d99565b60405180910390f35b6101dc60048036038101906101d79190610b79565b610a61565b6040516101e99190610c98565b60405180910390f35b600380546101ff90610e4b565b80601f016020809104026020016040519081016040528092919081815260200182805461022b90610e4b565b80156102785780601f1061024d57610100808354040283529160200191610278565b820191906000526020600020905b81548152906001019060200180831161025b57829003601f168201915b505050505081565b60065481565b8173ffffffffffffffffffffffffffffffffffffffff16600160009054906101000a900473ffffffffffffffffffffffffffffffffffffffff1673ffffffffffffffffffffffffffffffffffffffff1614610316576040517f08c379a000000000000000000000000000000000000000000000000000000000815260040161030d90610d59565b60405180910390fd5b60008054906101000a900473ffffffffffffffffffffffffffffffffffffffff1673ffffffffffffffffffffffffffffffffffffffff163373ffffffffffffffffffffffffffffffffffffffff16146103a4576040517f08c379a000000000000000000000000000000000000000000000000000000000815260040161039b90610d79565b60405180910390fd5b80600160006101000a81548173ffffffffffffffffffffffffffffffffffffffff021916908373ffffffffffffffffffffffffffffffffffffffff1602179055505050565b600280546103f690610e4b565b80601f016020809104026020016040519081016040528092919081815260200182805461042290610e4b565b801561046f5780601f106104445761010080835404028352916020019161046f565b820191906000526020600020905b81548152906001019060200180831161045257829003601f168201915b505050505081565b600160009054906101000a900473ffffffffffffffffffffffffffffffffffffffff1681565b600160149054906101000a900460ff1681565b60008054906101000a900473ffffffffffffffffffffffffffffffffffffffff1673ffffffffffffffffffffffffffffffffffffffff163373ffffffffffffffffffffffffffffffffffffffff161461053e576040517f08c379a000000000000000000000000000000000000000000000000000000000815260040161053590610d79565b60405180910390fd5b600160149054906101000a900460ff1661058d576040517f08c379a000000000000000000000000000000000000000000000000000000000815260040161058490610d39565b60405180910390fd5b600160009054906101000a900473ffffffffffffffffffffffffffffffffffffffff1673ffffffffffffffffffffffffffffffffffffffff166108fc479081150290604051600060405180830381858888f193505050501580156105f5573d6000803e3d6000fd5b5060005b6005805490508110156107525760006005828154811061061c5761061b610f24565b5b9060005260206000200160009054906101000a900473ffffffffffffffffffffffffffffffffffffffff16905060008190508073ffffffffffffffffffffffffffffffffffffffff1663a9059cbb600160009054906101000a900473ffffffffffffffffffffffffffffffffffffffff16600460008673ffffffffffffffffffffffffffffffffffffffff1673ffffffffffffffffffffffffffffffffffffffff168152602001908152602001600020546040518363ffffffff1660e01b81526004016106ea929190610cb3565b602060405180830381600087803b15801561070457600080fd5b505af1158015610718573d6000803e3d6000fd5b505050506040513d601f19601f8201168201806040525081019061073c9190610b4c565b505050808061074a90610e7d565b9150506105f9565b506000600160146101000a81548160ff021916908315150217905550565b600160009054906101000a900473ffffffffffffffffffffffffffffffffffffffff1673ffffffffffffffffffffffffffffffffffffffff163373ffffffffffffffffffffffffffffffffffffffff1614610800576040517f08c379a00000000000000000000000000000000000000000000000000000000081526004016107f790610d19565b60405180910390fd5b600160149054906101000a900460ff1661084f576040517f08c379a000000000000000000000000000000000000000000000000000000000815260040161084690610d39565b60405180910390fd5b600160009054906101000a900473ffffffffffffffffffffffffffffffffffffffff1673ffffffffffffffffffffffffffffffffffffffff166108fc479081150290604051600060405180830381858888f193505050501580156108b7573d6000803e3d6000fd5b5060005b600580549050811015610a14576000600582815481106108de576108dd610f24565b5b9060005260206000200160009054906101000a900473ffffffffffffffffffffffffffffffffffffffff16905060008190508073ffffffffffffffffffffffffffffffffffffffff1663a9059cbb600160009054906101000a900473ffffffffffffffffffffffffffffffffffffffff16600460008673ffffffffffffffffffffffffffffffffffffffff1673ffffffffffffffffffffffffffffffffffffffff168152602001908152602001600020546040518363ffffffff1660e01b81526004016109ac929190610cb3565b602060405180830381600087803b1580156109c657600080fd5b505af11580156109da573d6000803e3d6000fd5b505050506040513d601f19601f820116820180604052508101906109fe9190610b4c565b5050508080610a0c90610e7d565b9150506108bb565b506000600160146101000a81548160ff021916908315150217905550565b6000600160149054906101000a900460ff16905090565b60046020528060005260406000206000915090505481565b60058181548110610a7157600080fd5b906000526020600020016000915054906101000a900473ffffffffffffffffffffffffffffffffffffffff1681565b600081359050610aaf81611033565b92915050565b600081519050610ac48161104a565b92915050565b600081359050610ad981611061565b92915050565b600060208284031215610af557610af4610f53565b5b6000610b0384828501610aa0565b91505092915050565b60008060408385031215610b2357610b22610f53565b5b6000610b3185828601610aa0565b9250506020610b4285828601610aa0565b9150509250929050565b600060208284031215610b6257610b61610f53565b5b6000610b7084828501610ab5565b91505092915050565b600060208284031215610b8f57610b8e610f53565b5b6000610b9d84828501610aca565b91505092915050565b610baf81610dd0565b82525050565b610bbe81610de2565b82525050565b6000610bcf82610db4565b610bd98185610dbf565b9350610be9818560208601610e18565b610bf281610f58565b840191505092915050565b6000610c0a601e83610dbf565b9150610c1582610f69565b602082019050919050565b6000610c2d601883610dbf565b9150610c3882610f92565b602082019050919050565b6000610c50601783610dbf565b9150610c5b82610fbb565b602082019050919050565b6000610c73602783610dbf565b9150610c7e82610fe4565b604082019050919050565b610c9281610e0e565b82525050565b6000602082019050610cad6000830184610ba6565b92915050565b6000604082019050610cc86000830185610ba6565b610cd56020830184610c89565b9392505050565b6000602082019050610cf16000830184610bb5565b92915050565b60006020820190508181036000830152610d118184610bc4565b905092915050565b60006020820190508181036000830152610d3281610bfd565b9050919050565b60006020820190508181036000830152610d5281610c20565b9050919050565b60006020820190508181036000830152610d7281610c43565b9050919050565b60006020820190508181036000830152610d9281610c66565b9050919050565b6000602082019050610dae6000830184610c89565b92915050565b600081519050919050565b600082825260208201905092915050565b6000610ddb82610dee565b9050919050565b60008115159050919050565b600073ffffffffffffffffffffffffffffffffffffffff82169050919050565b6000819050919050565b60005b83811015610e36578082015181840152602081019050610e1b565b83811115610e45576000848401525b50505050565b60006002820490506001821680610e6357607f821691505b60208210811415610e7757610e76610ef5565b5b50919050565b6000610e8882610e0e565b91507fffffffffffffffffffffffffffffffffffffffffffffffffffffffffffffffff821415610ebb57610eba610ec6565b5b600182019050919050565b7f4e487b7100000000000000000000000000000000000000000000000000000000600052601160045260246000fd5b7f4e487b7100000000000000000000000000000000000000000000000000000000600052602260045260246000fd5b7f4e487b7100000000000000000000000000000000000000000000000000000000600052603260045260246000fd5b600080fd5b6000601f19601f8301169050919050565b7f4f6e6c79204f776e65722063616e20756e7061636b20546f6b656e697a2e0000600082015250565b7f416c726561647920756e7061636b656420546f6b656e697a0000000000000000600082015250565b7f4f6e6c79206f776e65722063616e207472616e73666572000000000000000000600082015250565b7f4d7573742062652073656e742076696120546f6b656e697a2061646d696e206360008201527f6f6e747261637400000000000000000000000000000000000000000000000000602082015250565b61103c81610dd0565b811461104757600080fd5b50565b61105381610de2565b811461105e57600080fd5b50565b61106a81610e0e565b811461107557600080fd5b5056fea26469706673582212209acf63d9bad88b496c43cda66f0975c1685270e539c8faf66d452c5563b0675764736f6c63430008070033",
					"opcodes": "PUSH1 0x80 PUSH1 0x40 MSTORE CALLVALUE DUP1 ISZERO PUSH3 0x11 JUMPI PUSH1 0x0 DUP1 REVERT JUMPDEST POP PUSH1 0x40 MLOAD PUSH3 0x1A60 CODESIZE SUB DUP1 PUSH3 0x1A60 DUP4 CODECOPY DUP2 DUP2 ADD PUSH1 0x40 MSTORE DUP2 ADD SWAP1 PUSH3 0x37 SWAP2 SWAP1 PUSH3 0x52C JUMP JUMPDEST PUSH32 0xD4F7329E9171F08C730187171CDE1AB6F70848B01B8AD54D350CCB5E554B957F PUSH1 0x6 PUSH1 0x40 MLOAD PUSH3 0x69 SWAP2 SWAP1 PUSH3 0x66C JUMP JUMPDEST PUSH1 0x40 MLOAD DUP1 SWAP2 SUB SWAP1 LOG1 DUP1 PUSH1 0x0 DUP1 PUSH2 0x100 EXP DUP2 SLOAD DUP2 PUSH20 0xFFFFFFFFFFFFFFFFFFFFFFFFFFFFFFFFFFFFFFFF MUL NOT AND SWAP1 DUP4 PUSH20 0xFFFFFFFFFFFFFFFFFFFFFFFFFFFFFFFFFFFFFFFF AND MUL OR SWAP1 SSTORE POP DUP7 PUSH1 0x1 PUSH1 0x0 PUSH2 0x100 EXP DUP2 SLOAD DUP2 PUSH20 0xFFFFFFFFFFFFFFFFFFFFFFFFFFFFFFFFFFFFFFFF MUL NOT AND SWAP1 DUP4 PUSH20 0xFFFFFFFFFFFFFFFFFFFFFFFFFFFFFFFFFFFFFFFF AND MUL OR SWAP1 SSTORE POP PUSH1 0x1 DUP1 PUSH1 0x14 PUSH2 0x100 EXP DUP2 SLOAD DUP2 PUSH1 0xFF MUL NOT AND SWAP1 DUP4 ISZERO ISZERO MUL OR SWAP1 SSTORE POP PUSH1 0x0 JUMPDEST DUP5 MLOAD DUP2 LT ISZERO PUSH3 0x22D JUMPI PUSH1 0x5 DUP6 DUP3 DUP2 MLOAD DUP2 LT PUSH3 0x131 JUMPI PUSH3 0x130 PUSH3 0x8E6 JUMP JUMPDEST JUMPDEST PUSH1 0x20 MUL PUSH1 0x20 ADD ADD MLOAD SWAP1 DUP1 PUSH1 0x1 DUP2 SLOAD ADD DUP1 DUP3 SSTORE DUP1 SWAP2 POP POP PUSH1 0x1 SWAP1 SUB SWAP1 PUSH1 0x0 MSTORE PUSH1 0x20 PUSH1 0x0 KECCAK256 ADD PUSH1 0x0 SWAP1 SWAP2 SWAP1 SWAP2 SWAP1 SWAP2 PUSH2 0x100 EXP DUP2 SLOAD DUP2 PUSH20 0xFFFFFFFFFFFFFFFFFFFFFFFFFFFFFFFFFFFFFFFF MUL NOT AND SWAP1 DUP4 PUSH20 0xFFFFFFFFFFFFFFFFFFFFFFFFFFFFFFFFFFFFFFFF AND MUL OR SWAP1 SSTORE POP DUP4 DUP2 DUP2 MLOAD DUP2 LT PUSH3 0x1AF JUMPI PUSH3 0x1AE PUSH3 0x8E6 JUMP JUMPDEST JUMPDEST PUSH1 0x20 MUL PUSH1 0x20 ADD ADD MLOAD PUSH1 0x4 PUSH1 0x0 DUP8 DUP5 DUP2 MLOAD DUP2 LT PUSH3 0x1D1 JUMPI PUSH3 0x1D0 PUSH3 0x8E6 JUMP JUMPDEST JUMPDEST PUSH1 0x20 MUL PUSH1 0x20 ADD ADD MLOAD PUSH20 0xFFFFFFFFFFFFFFFFFFFFFFFFFFFFFFFFFFFFFFFF AND PUSH20 0xFFFFFFFFFFFFFFFFFFFFFFFFFFFFFFFFFFFFFFFF AND DUP2 MSTORE PUSH1 0x20 ADD SWAP1 DUP2 MSTORE PUSH1 0x20 ADD PUSH1 0x0 KECCAK256 DUP2 SWAP1 SSTORE POP DUP1 DUP1 PUSH3 0x224 SWAP1 PUSH3 0x83A JUMP JUMPDEST SWAP2 POP POP PUSH3 0x10F JUMP JUMPDEST POP DUP5 PUSH1 0x2 SWAP1 DUP1 MLOAD SWAP1 PUSH1 0x20 ADD SWAP1 PUSH3 0x246 SWAP3 SWAP2 SWAP1 PUSH3 0x274 JUMP JUMPDEST POP DUP6 PUSH1 0x3 SWAP1 DUP1 MLOAD SWAP1 PUSH1 0x20 ADD SWAP1 PUSH3 0x25F SWAP3 SWAP2 SWAP1 PUSH3 0x274 JUMP JUMPDEST POP DUP2 PUSH1 0x6 DUP2 SWAP1 SSTORE POP POP POP POP POP POP POP POP PUSH3 0x9A2 JUMP JUMPDEST DUP3 DUP1 SLOAD PUSH3 0x282 SWAP1 PUSH3 0x7CE JUMP JUMPDEST SWAP1 PUSH1 0x0 MSTORE PUSH1 0x20 PUSH1 0x0 KECCAK256 SWAP1 PUSH1 0x1F ADD PUSH1 0x20 SWAP1 DIV DUP2 ADD SWAP3 DUP3 PUSH3 0x2A6 JUMPI PUSH1 0x0 DUP6 SSTORE PUSH3 0x2F2 JUMP JUMPDEST DUP3 PUSH1 0x1F LT PUSH3 0x2C1 JUMPI DUP1 MLOAD PUSH1 0xFF NOT AND DUP4 DUP1 ADD OR DUP6 SSTORE PUSH3 0x2F2 JUMP JUMPDEST DUP3 DUP1 ADD PUSH1 0x1 ADD DUP6 SSTORE DUP3 ISZERO PUSH3 0x2F2 JUMPI SWAP2 DUP3 ADD JUMPDEST DUP3 DUP2 GT ISZERO PUSH3 0x2F1 JUMPI DUP3 MLOAD DUP3 SSTORE SWAP2 PUSH1 0x20 ADD SWAP2 SWAP1 PUSH1 0x1 ADD SWAP1 PUSH3 0x2D4 JUMP JUMPDEST JUMPDEST POP SWAP1 POP PUSH3 0x301 SWAP2 SWAP1 PUSH3 0x305 JUMP JUMPDEST POP SWAP1 JUMP JUMPDEST JUMPDEST DUP1 DUP3 GT ISZERO PUSH3 0x320 JUMPI PUSH1 0x0 DUP2 PUSH1 0x0 SWAP1 SSTORE POP PUSH1 0x1 ADD PUSH3 0x306 JUMP JUMPDEST POP SWAP1 JUMP JUMPDEST PUSH1 0x0 PUSH3 0x33B PUSH3 0x335 DUP5 PUSH3 0x6B2 JUMP JUMPDEST PUSH3 0x689 JUMP JUMPDEST SWAP1 POP DUP1 DUP4 DUP3 MSTORE PUSH1 0x20 DUP3 ADD SWAP1 POP DUP3 DUP6 PUSH1 0x20 DUP7 MUL DUP3 ADD GT ISZERO PUSH3 0x361 JUMPI PUSH3 0x360 PUSH3 0x949 JUMP JUMPDEST JUMPDEST PUSH1 0x0 JUMPDEST DUP6 DUP2 LT ISZERO PUSH3 0x395 JUMPI DUP2 PUSH3 0x37A DUP9 DUP3 PUSH3 0x465 JUMP JUMPDEST DUP5 MSTORE PUSH1 0x20 DUP5 ADD SWAP4 POP PUSH1 0x20 DUP4 ADD SWAP3 POP POP PUSH1 0x1 DUP2 ADD SWAP1 POP PUSH3 0x364 JUMP JUMPDEST POP POP POP SWAP4 SWAP3 POP POP POP JUMP JUMPDEST PUSH1 0x0 PUSH3 0x3B6 PUSH3 0x3B0 DUP5 PUSH3 0x6E1 JUMP JUMPDEST PUSH3 0x689 JUMP JUMPDEST SWAP1 POP DUP1 DUP4 DUP3 MSTORE PUSH1 0x20 DUP3 ADD SWAP1 POP DUP3 DUP6 PUSH1 0x20 DUP7 MUL DUP3 ADD GT ISZERO PUSH3 0x3DC JUMPI PUSH3 0x3DB PUSH3 0x949 JUMP JUMPDEST JUMPDEST PUSH1 0x0 JUMPDEST DUP6 DUP2 LT ISZERO PUSH3 0x410 JUMPI DUP2 PUSH3 0x3F5 DUP9 DUP3 PUSH3 0x515 JUMP JUMPDEST DUP5 MSTORE PUSH1 0x20 DUP5 ADD SWAP4 POP PUSH1 0x20 DUP4 ADD SWAP3 POP POP PUSH1 0x1 DUP2 ADD SWAP1 POP PUSH3 0x3DF JUMP JUMPDEST POP POP POP SWAP4 SWAP3 POP POP POP JUMP JUMPDEST PUSH1 0x0 PUSH3 0x431 PUSH3 0x42B DUP5 PUSH3 0x710 JUMP JUMPDEST PUSH3 0x689 JUMP JUMPDEST SWAP1 POP DUP3 DUP2 MSTORE PUSH1 0x20 DUP2 ADD DUP5 DUP5 DUP5 ADD GT ISZERO PUSH3 0x450 JUMPI PUSH3 0x44F PUSH3 0x94E JUMP JUMPDEST JUMPDEST PUSH3 0x45D DUP5 DUP3 DUP6 PUSH3 0x798 JUMP JUMPDEST POP SWAP4 SWAP3 POP POP POP JUMP JUMPDEST PUSH1 0x0 DUP2 MLOAD SWAP1 POP PUSH3 0x476 DUP2 PUSH3 0x96E JUMP JUMPDEST SWAP3 SWAP2 POP POP JUMP JUMPDEST PUSH1 0x0 DUP3 PUSH1 0x1F DUP4 ADD SLT PUSH3 0x494 JUMPI PUSH3 0x493 PUSH3 0x944 JUMP JUMPDEST JUMPDEST DUP2 MLOAD PUSH3 0x4A6 DUP5 DUP3 PUSH1 0x20 DUP7 ADD PUSH3 0x324 JUMP JUMPDEST SWAP2 POP POP SWAP3 SWAP2 POP POP JUMP JUMPDEST PUSH1 0x0 DUP3 PUSH1 0x1F DUP4 ADD SLT PUSH3 0x4C7 JUMPI PUSH3 0x4C6 PUSH3 0x944 JUMP JUMPDEST JUMPDEST DUP2 MLOAD PUSH3 0x4D9 DUP5 DUP3 PUSH1 0x20 DUP7 ADD PUSH3 0x39F JUMP JUMPDEST SWAP2 POP POP SWAP3 SWAP2 POP POP JUMP JUMPDEST PUSH1 0x0 DUP3 PUSH1 0x1F DUP4 ADD SLT PUSH3 0x4FA JUMPI PUSH3 0x4F9 PUSH3 0x944 JUMP JUMPDEST JUMPDEST DUP2 MLOAD PUSH3 0x50C DUP5 DUP3 PUSH1 0x20 DUP7 ADD PUSH3 0x41A JUMP JUMPDEST SWAP2 POP POP SWAP3 SWAP2 POP POP JUMP JUMPDEST PUSH1 0x0 DUP2 MLOAD SWAP1 POP PUSH3 0x526 DUP2 PUSH3 0x988 JUMP JUMPDEST SWAP3 SWAP2 POP POP JUMP JUMPDEST PUSH1 0x0 DUP1 PUSH1 0x0 DUP1 PUSH1 0x0 DUP1 PUSH1 0x0 PUSH1 0xE0 DUP9 DUP11 SUB SLT ISZERO PUSH3 0x54E JUMPI PUSH3 0x54D PUSH3 0x958 JUMP JUMPDEST JUMPDEST PUSH1 0x0 PUSH3 0x55E DUP11 DUP3 DUP12 ADD PUSH3 0x465 JUMP JUMPDEST SWAP8 POP POP PUSH1 0x20 DUP9 ADD MLOAD PUSH8 0xFFFFFFFFFFFFFFFF DUP2 GT ISZERO PUSH3 0x582 JUMPI PUSH3 0x581 PUSH3 0x953 JUMP JUMPDEST JUMPDEST PUSH3 0x590 DUP11 DUP3 DUP12 ADD PUSH3 0x4E2 JUMP JUMPDEST SWAP7 POP POP PUSH1 0x40 DUP9 ADD MLOAD PUSH8 0xFFFFFFFFFFFFFFFF DUP2 GT ISZERO PUSH3 0x5B4 JUMPI PUSH3 0x5B3 PUSH3 0x953 JUMP JUMPDEST JUMPDEST PUSH3 0x5C2 DUP11 DUP3 DUP12 ADD PUSH3 0x4E2 JUMP JUMPDEST SWAP6 POP POP PUSH1 0x60 DUP9 ADD MLOAD PUSH8 0xFFFFFFFFFFFFFFFF DUP2 GT ISZERO PUSH3 0x5E6 JUMPI PUSH3 0x5E5 PUSH3 0x953 JUMP JUMPDEST JUMPDEST PUSH3 0x5F4 DUP11 DUP3 DUP12 ADD PUSH3 0x47C JUMP JUMPDEST SWAP5 POP POP PUSH1 0x80 DUP9 ADD MLOAD PUSH8 0xFFFFFFFFFFFFFFFF DUP2 GT ISZERO PUSH3 0x618 JUMPI PUSH3 0x617 PUSH3 0x953 JUMP JUMPDEST JUMPDEST PUSH3 0x626 DUP11 DUP3 DUP12 ADD PUSH3 0x4AF JUMP JUMPDEST SWAP4 POP POP PUSH1 0xA0 PUSH3 0x639 DUP11 DUP3 DUP12 ADD PUSH3 0x515 JUMP JUMPDEST SWAP3 POP POP PUSH1 0xC0 PUSH3 0x64C DUP11 DUP3 DUP12 ADD PUSH3 0x465 JUMP JUMPDEST SWAP2 POP POP SWAP3 SWAP6 SWAP9 SWAP2 SWAP5 SWAP8 POP SWAP3 SWAP6 POP JUMP JUMPDEST PUSH3 0x666 DUP2 PUSH3 0x784 JUMP JUMPDEST DUP3 MSTORE POP POP JUMP JUMPDEST PUSH1 0x0 PUSH1 0x20 DUP3 ADD SWAP1 POP PUSH3 0x683 PUSH1 0x0 DUP4 ADD DUP5 PUSH3 0x65B JUMP JUMPDEST SWAP3 SWAP2 POP POP JUMP JUMPDEST PUSH1 0x0 PUSH3 0x695 PUSH3 0x6A8 JUMP JUMPDEST SWAP1 POP PUSH3 0x6A3 DUP3 DUP3 PUSH3 0x804 JUMP JUMPDEST SWAP2 SWAP1 POP JUMP JUMPDEST PUSH1 0x0 PUSH1 0x40 MLOAD SWAP1 POP SWAP1 JUMP JUMPDEST PUSH1 0x0 PUSH8 0xFFFFFFFFFFFFFFFF DUP3 GT ISZERO PUSH3 0x6D0 JUMPI PUSH3 0x6CF PUSH3 0x915 JUMP JUMPDEST JUMPDEST PUSH1 0x20 DUP3 MUL SWAP1 POP PUSH1 0x20 DUP2 ADD SWAP1 POP SWAP2 SWAP1 POP JUMP JUMPDEST PUSH1 0x0 PUSH8 0xFFFFFFFFFFFFFFFF DUP3 GT ISZERO PUSH3 0x6FF JUMPI PUSH3 0x6FE PUSH3 0x915 JUMP JUMPDEST JUMPDEST PUSH1 0x20 DUP3 MUL SWAP1 POP PUSH1 0x20 DUP2 ADD SWAP1 POP SWAP2 SWAP1 POP JUMP JUMPDEST PUSH1 0x0 PUSH8 0xFFFFFFFFFFFFFFFF DUP3 GT ISZERO PUSH3 0x72E JUMPI PUSH3 0x72D PUSH3 0x915 JUMP JUMPDEST JUMPDEST PUSH3 0x739 DUP3 PUSH3 0x95D JUMP JUMPDEST SWAP1 POP PUSH1 0x20 DUP2 ADD SWAP1 POP SWAP2 SWAP1 POP JUMP JUMPDEST PUSH1 0x0 PUSH3 0x753 DUP3 PUSH3 0x75A JUMP JUMPDEST SWAP1 POP SWAP2 SWAP1 POP JUMP JUMPDEST PUSH1 0x0 PUSH20 0xFFFFFFFFFFFFFFFFFFFFFFFFFFFFFFFFFFFFFFFF DUP3 AND SWAP1 POP SWAP2 SWAP1 POP JUMP JUMPDEST PUSH1 0x0 DUP2 SWAP1 POP SWAP2 SWAP1 POP JUMP JUMPDEST PUSH1 0x0 PUSH3 0x791 DUP3 PUSH3 0x77A JUMP JUMPDEST SWAP1 POP SWAP2 SWAP1 POP JUMP JUMPDEST PUSH1 0x0 JUMPDEST DUP4 DUP2 LT ISZERO PUSH3 0x7B8 JUMPI DUP1 DUP3 ADD MLOAD DUP2 DUP5 ADD MSTORE PUSH1 0x20 DUP2 ADD SWAP1 POP PUSH3 0x79B JUMP JUMPDEST DUP4 DUP2 GT ISZERO PUSH3 0x7C8 JUMPI PUSH1 0x0 DUP5 DUP5 ADD MSTORE JUMPDEST POP POP POP POP JUMP JUMPDEST PUSH1 0x0 PUSH1 0x2 DUP3 DIV SWAP1 POP PUSH1 0x1 DUP3 AND DUP1 PUSH3 0x7E7 JUMPI PUSH1 0x7F DUP3 AND SWAP2 POP JUMPDEST PUSH1 0x20 DUP3 LT DUP2 EQ ISZERO PUSH3 0x7FE JUMPI PUSH3 0x7FD PUSH3 0x8B7 JUMP JUMPDEST JUMPDEST POP SWAP2 SWAP1 POP JUMP JUMPDEST PUSH3 0x80F DUP3 PUSH3 0x95D JUMP JUMPDEST DUP2 ADD DUP2 DUP2 LT PUSH8 0xFFFFFFFFFFFFFFFF DUP3 GT OR ISZERO PUSH3 0x831 JUMPI PUSH3 0x830 PUSH3 0x915 JUMP JUMPDEST JUMPDEST DUP1 PUSH1 0x40 MSTORE POP POP POP JUMP JUMPDEST PUSH1 0x0 PUSH3 0x847 DUP3 PUSH3 0x77A JUMP JUMPDEST SWAP2 POP PUSH32 0xFFFFFFFFFFFFFFFFFFFFFFFFFFFFFFFFFFFFFFFFFFFFFFFFFFFFFFFFFFFFFFFF DUP3 EQ ISZERO PUSH3 0x87D JUMPI PUSH3 0x87C PUSH3 0x888 JUMP JUMPDEST JUMPDEST PUSH1 0x1 DUP3 ADD SWAP1 POP SWAP2 SWAP1 POP JUMP JUMPDEST PUSH32 0x4E487B7100000000000000000000000000000000000000000000000000000000 PUSH1 0x0 MSTORE PUSH1 0x11 PUSH1 0x4 MSTORE PUSH1 0x24 PUSH1 0x0 REVERT JUMPDEST PUSH32 0x4E487B7100000000000000000000000000000000000000000000000000000000 PUSH1 0x0 MSTORE PUSH1 0x22 PUSH1 0x4 MSTORE PUSH1 0x24 PUSH1 0x0 REVERT JUMPDEST PUSH32 0x4E487B7100000000000000000000000000000000000000000000000000000000 PUSH1 0x0 MSTORE PUSH1 0x32 PUSH1 0x4 MSTORE PUSH1 0x24 PUSH1 0x0 REVERT JUMPDEST PUSH32 0x4E487B7100000000000000000000000000000000000000000000000000000000 PUSH1 0x0 MSTORE PUSH1 0x41 PUSH1 0x4 MSTORE PUSH1 0x24 PUSH1 0x0 REVERT JUMPDEST PUSH1 0x0 DUP1 REVERT JUMPDEST PUSH1 0x0 DUP1 REVERT JUMPDEST PUSH1 0x0 DUP1 REVERT JUMPDEST PUSH1 0x0 DUP1 REVERT JUMPDEST PUSH1 0x0 DUP1 REVERT JUMPDEST PUSH1 0x0 PUSH1 0x1F NOT PUSH1 0x1F DUP4 ADD AND SWAP1 POP SWAP2 SWAP1 POP JUMP JUMPDEST PUSH3 0x979 DUP2 PUSH3 0x746 JUMP JUMPDEST DUP2 EQ PUSH3 0x985 JUMPI PUSH1 0x0 DUP1 REVERT JUMPDEST POP JUMP JUMPDEST PUSH3 0x993 DUP2 PUSH3 0x77A JUMP JUMPDEST DUP2 EQ PUSH3 0x99F JUMPI PUSH1 0x0 DUP1 REVERT JUMPDEST POP JUMP JUMPDEST PUSH2 0x10AE DUP1 PUSH3 0x9B2 PUSH1 0x0 CODECOPY PUSH1 0x0 RETURN INVALID PUSH1 0x80 PUSH1 0x40 MSTORE CALLVALUE DUP1 ISZERO PUSH2 0x10 JUMPI PUSH1 0x0 DUP1 REVERT JUMPDEST POP PUSH1 0x4 CALLDATASIZE LT PUSH2 0xA9 JUMPI PUSH1 0x0 CALLDATALOAD PUSH1 0xE0 SHR DUP1 PUSH4 0x8F23D5F6 GT PUSH2 0x71 JUMPI DUP1 PUSH4 0x8F23D5F6 EQ PUSH2 0x142 JUMPI DUP1 PUSH4 0x8F32A2B0 EQ PUSH2 0x160 JUMPI DUP1 PUSH4 0x90D524A2 EQ PUSH2 0x16A JUMPI DUP1 PUSH4 0xE2C42E66 EQ PUSH2 0x174 JUMPI DUP1 PUSH4 0xEEDC966A EQ PUSH2 0x192 JUMPI DUP1 PUSH4 0xF7ACA939 EQ PUSH2 0x1C2 JUMPI PUSH2 0xA9 JUMP JUMPDEST DUP1 PUSH4 0x6FDDE03 EQ PUSH2 0xAE JUMPI DUP1 PUSH4 0x17D70F7C EQ PUSH2 0xCC JUMPI DUP1 PUSH4 0x29AF9DCE EQ PUSH2 0xEA JUMPI DUP1 PUSH4 0x3C130D90 EQ PUSH2 0x106 JUMPI DUP1 PUSH4 0x8DA5CB5B EQ PUSH2 0x124 JUMPI JUMPDEST PUSH1 0x0 DUP1 REVERT JUMPDEST PUSH2 0xB6 PUSH2 0x1F2 JUMP JUMPDEST PUSH1 0x40 MLOAD PUSH2 0xC3 SWAP2 SWAP1 PUSH2 0xCF7 JUMP JUMPDEST PUSH1 0x40 MLOAD DUP1 SWAP2 SUB SWAP1 RETURN JUMPDEST PUSH2 0xD4 PUSH2 0x280 JUMP JUMPDEST PUSH1 0x40 MLOAD PUSH2 0xE1 SWAP2 SWAP1 PUSH2 0xD99 JUMP JUMPDEST PUSH1 0x40 MLOAD DUP1 SWAP2 SUB SWAP1 RETURN JUMPDEST PUSH2 0x104 PUSH1 0x4 DUP1 CALLDATASIZE SUB DUP2 ADD SWAP1 PUSH2 0xFF SWAP2 SWAP1 PUSH2 0xB0C JUMP JUMPDEST PUSH2 0x286 JUMP JUMPDEST STOP JUMPDEST PUSH2 0x10E PUSH2 0x3E9 JUMP JUMPDEST PUSH1 0x40 MLOAD PUSH2 0x11B SWAP2 SWAP1 PUSH2 0xCF7 JUMP JUMPDEST PUSH1 0x40 MLOAD DUP1 SWAP2 SUB SWAP1 RETURN JUMPDEST PUSH2 0x12C PUSH2 0x477 JUMP JUMPDEST PUSH1 0x40 MLOAD PUSH2 0x139 SWAP2 SWAP1 PUSH2 0xC98 JUMP JUMPDEST PUSH1 0x40 MLOAD DUP1 SWAP2 SUB SWAP1 RETURN JUMPDEST PUSH2 0x14A PUSH2 0x49D JUMP JUMPDEST PUSH1 0x40 MLOAD PUSH2 0x157 SWAP2 SWAP1 PUSH2 0xCDC JUMP JUMPDEST PUSH1 0x40 MLOAD DUP1 SWAP2 SUB SWAP1 RETURN JUMPDEST PUSH2 0x168 PUSH2 0x4B0 JUMP JUMPDEST STOP JUMPDEST PUSH2 0x172 PUSH2 0x770 JUMP JUMPDEST STOP JUMPDEST PUSH2 0x17C PUSH2 0xA32 JUMP JUMPDEST PUSH1 0x40 MLOAD PUSH2 0x189 SWAP2 SWAP1 PUSH2 0xCDC JUMP JUMPDEST PUSH1 0x40 MLOAD DUP1 SWAP2 SUB SWAP1 RETURN JUMPDEST PUSH2 0x1AC PUSH1 0x4 DUP1 CALLDATASIZE SUB DUP2 ADD SWAP1 PUSH2 0x1A7 SWAP2 SWAP1 PUSH2 0xADF JUMP JUMPDEST PUSH2 0xA49 JUMP JUMPDEST PUSH1 0x40 MLOAD PUSH2 0x1B9 SWAP2 SWAP1 PUSH2 0xD99 JUMP JUMPDEST PUSH1 0x40 MLOAD DUP1 SWAP2 SUB SWAP1 RETURN JUMPDEST PUSH2 0x1DC PUSH1 0x4 DUP1 CALLDATASIZE SUB DUP2 ADD SWAP1 PUSH2 0x1D7 SWAP2 SWAP1 PUSH2 0xB79 JUMP JUMPDEST PUSH2 0xA61 JUMP JUMPDEST PUSH1 0x40 MLOAD PUSH2 0x1E9 SWAP2 SWAP1 PUSH2 0xC98 JUMP JUMPDEST PUSH1 0x40 MLOAD DUP1 SWAP2 SUB SWAP1 RETURN JUMPDEST PUSH1 0x3 DUP1 SLOAD PUSH2 0x1FF SWAP1 PUSH2 0xE4B JUMP JUMPDEST DUP1 PUSH1 0x1F ADD PUSH1 0x20 DUP1 SWAP2 DIV MUL PUSH1 0x20 ADD PUSH1 0x40 MLOAD SWAP1 DUP2 ADD PUSH1 0x40 MSTORE DUP1 SWAP3 SWAP2 SWAP1 DUP2 DUP2 MSTORE PUSH1 0x20 ADD DUP3 DUP1 SLOAD PUSH2 0x22B SWAP1 PUSH2 0xE4B JUMP JUMPDEST DUP1 ISZERO PUSH2 0x278 JUMPI DUP1 PUSH1 0x1F LT PUSH2 0x24D JUMPI PUSH2 0x100 DUP1 DUP4 SLOAD DIV MUL DUP4 MSTORE SWAP2 PUSH1 0x20 ADD SWAP2 PUSH2 0x278 JUMP JUMPDEST DUP3 ADD SWAP2 SWAP1 PUSH1 0x0 MSTORE PUSH1 0x20 PUSH1 0x0 KECCAK256 SWAP1 JUMPDEST DUP2 SLOAD DUP2 MSTORE SWAP1 PUSH1 0x1 ADD SWAP1 PUSH1 0x20 ADD DUP1 DUP4 GT PUSH2 0x25B JUMPI DUP3 SWAP1 SUB PUSH1 0x1F AND DUP3 ADD SWAP2 JUMPDEST POP POP POP POP POP DUP2 JUMP JUMPDEST PUSH1 0x6 SLOAD DUP2 JUMP JUMPDEST DUP2 PUSH20 0xFFFFFFFFFFFFFFFFFFFFFFFFFFFFFFFFFFFFFFFF AND PUSH1 0x1 PUSH1 0x0 SWAP1 SLOAD SWAP1 PUSH2 0x100 EXP SWAP1 DIV PUSH20 0xFFFFFFFFFFFFFFFFFFFFFFFFFFFFFFFFFFFFFFFF AND PUSH20 0xFFFFFFFFFFFFFFFFFFFFFFFFFFFFFFFFFFFFFFFF AND EQ PUSH2 0x316 JUMPI PUSH1 0x40 MLOAD PUSH32 0x8C379A000000000000000000000000000000000000000000000000000000000 DUP2 MSTORE PUSH1 0x4 ADD PUSH2 0x30D SWAP1 PUSH2 0xD59 JUMP JUMPDEST PUSH1 0x40 MLOAD DUP1 SWAP2 SUB SWAP1 REVERT JUMPDEST PUSH1 0x0 DUP1 SLOAD SWAP1 PUSH2 0x100 EXP SWAP1 DIV PUSH20 0xFFFFFFFFFFFFFFFFFFFFFFFFFFFFFFFFFFFFFFFF AND PUSH20 0xFFFFFFFFFFFFFFFFFFFFFFFFFFFFFFFFFFFFFFFF AND CALLER PUSH20 0xFFFFFFFFFFFFFFFFFFFFFFFFFFFFFFFFFFFFFFFF AND EQ PUSH2 0x3A4 JUMPI PUSH1 0x40 MLOAD PUSH32 0x8C379A000000000000000000000000000000000000000000000000000000000 DUP2 MSTORE PUSH1 0x4 ADD PUSH2 0x39B SWAP1 PUSH2 0xD79 JUMP JUMPDEST PUSH1 0x40 MLOAD DUP1 SWAP2 SUB SWAP1 REVERT JUMPDEST DUP1 PUSH1 0x1 PUSH1 0x0 PUSH2 0x100 EXP DUP2 SLOAD DUP2 PUSH20 0xFFFFFFFFFFFFFFFFFFFFFFFFFFFFFFFFFFFFFFFF MUL NOT AND SWAP1 DUP4 PUSH20 0xFFFFFFFFFFFFFFFFFFFFFFFFFFFFFFFFFFFFFFFF AND MUL OR SWAP1 SSTORE POP POP POP JUMP JUMPDEST PUSH1 0x2 DUP1 SLOAD PUSH2 0x3F6 SWAP1 PUSH2 0xE4B JUMP JUMPDEST DUP1 PUSH1 0x1F ADD PUSH1 0x20 DUP1 SWAP2 DIV MUL PUSH1 0x20 ADD PUSH1 0x40 MLOAD SWAP1 DUP2 ADD PUSH1 0x40 MSTORE DUP1 SWAP3 SWAP2 SWAP1 DUP2 DUP2 MSTORE PUSH1 0x20 ADD DUP3 DUP1 SLOAD PUSH2 0x422 SWAP1 PUSH2 0xE4B JUMP JUMPDEST DUP1 ISZERO PUSH2 0x46F JUMPI DUP1 PUSH1 0x1F LT PUSH2 0x444 JUMPI PUSH2 0x100 DUP1 DUP4 SLOAD DIV MUL DUP4 MSTORE SWAP2 PUSH1 0x20 ADD SWAP2 PUSH2 0x46F JUMP JUMPDEST DUP3 ADD SWAP2 SWAP1 PUSH1 0x0 MSTORE PUSH1 0x20 PUSH1 0x0 KECCAK256 SWAP1 JUMPDEST DUP2 SLOAD DUP2 MSTORE SWAP1 PUSH1 0x1 ADD SWAP1 PUSH1 0x20 ADD DUP1 DUP4 GT PUSH2 0x452 JUMPI DUP3 SWAP1 SUB PUSH1 0x1F AND DUP3 ADD SWAP2 JUMPDEST POP POP POP POP POP DUP2 JUMP JUMPDEST PUSH1 0x1 PUSH1 0x0 SWAP1 SLOAD SWAP1 PUSH2 0x100 EXP SWAP1 DIV PUSH20 0xFFFFFFFFFFFFFFFFFFFFFFFFFFFFFFFFFFFFFFFF AND DUP2 JUMP JUMPDEST PUSH1 0x1 PUSH1 0x14 SWAP1 SLOAD SWAP1 PUSH2 0x100 EXP SWAP1 DIV PUSH1 0xFF AND DUP2 JUMP JUMPDEST PUSH1 0x0 DUP1 SLOAD SWAP1 PUSH2 0x100 EXP SWAP1 DIV PUSH20 0xFFFFFFFFFFFFFFFFFFFFFFFFFFFFFFFFFFFFFFFF AND PUSH20 0xFFFFFFFFFFFFFFFFFFFFFFFFFFFFFFFFFFFFFFFF AND CALLER PUSH20 0xFFFFFFFFFFFFFFFFFFFFFFFFFFFFFFFFFFFFFFFF AND EQ PUSH2 0x53E JUMPI PUSH1 0x40 MLOAD PUSH32 0x8C379A000000000000000000000000000000000000000000000000000000000 DUP2 MSTORE PUSH1 0x4 ADD PUSH2 0x535 SWAP1 PUSH2 0xD79 JUMP JUMPDEST PUSH1 0x40 MLOAD DUP1 SWAP2 SUB SWAP1 REVERT JUMPDEST PUSH1 0x1 PUSH1 0x14 SWAP1 SLOAD SWAP1 PUSH2 0x100 EXP SWAP1 DIV PUSH1 0xFF AND PUSH2 0x58D JUMPI PUSH1 0x40 MLOAD PUSH32 0x8C379A000000000000000000000000000000000000000000000000000000000 DUP2 MSTORE PUSH1 0x4 ADD PUSH2 0x584 SWAP1 PUSH2 0xD39 JUMP JUMPDEST PUSH1 0x40 MLOAD DUP1 SWAP2 SUB SWAP1 REVERT JUMPDEST PUSH1 0x1 PUSH1 0x0 SWAP1 SLOAD SWAP1 PUSH2 0x100 EXP SWAP1 DIV PUSH20 0xFFFFFFFFFFFFFFFFFFFFFFFFFFFFFFFFFFFFFFFF AND PUSH20 0xFFFFFFFFFFFFFFFFFFFFFFFFFFFFFFFFFFFFFFFF AND PUSH2 0x8FC SELFBALANCE SWAP1 DUP2 ISZERO MUL SWAP1 PUSH1 0x40 MLOAD PUSH1 0x0 PUSH1 0x40 MLOAD DUP1 DUP4 SUB DUP2 DUP6 DUP9 DUP9 CALL SWAP4 POP POP POP POP ISZERO DUP1 ISZERO PUSH2 0x5F5 JUMPI RETURNDATASIZE PUSH1 0x0 DUP1 RETURNDATACOPY RETURNDATASIZE PUSH1 0x0 REVERT JUMPDEST POP PUSH1 0x0 JUMPDEST PUSH1 0x5 DUP1 SLOAD SWAP1 POP DUP2 LT ISZERO PUSH2 0x752 JUMPI PUSH1 0x0 PUSH1 0x5 DUP3 DUP2 SLOAD DUP2 LT PUSH2 0x61C JUMPI PUSH2 0x61B PUSH2 0xF24 JUMP JUMPDEST JUMPDEST SWAP1 PUSH1 0x0 MSTORE PUSH1 0x20 PUSH1 0x0 KECCAK256 ADD PUSH1 0x0 SWAP1 SLOAD SWAP1 PUSH2 0x100 EXP SWAP1 DIV PUSH20 0xFFFFFFFFFFFFFFFFFFFFFFFFFFFFFFFFFFFFFFFF AND SWAP1 POP PUSH1 0x0 DUP2 SWAP1 POP DUP1 PUSH20 0xFFFFFFFFFFFFFFFFFFFFFFFFFFFFFFFFFFFFFFFF AND PUSH4 0xA9059CBB PUSH1 0x1 PUSH1 0x0 SWAP1 SLOAD SWAP1 PUSH2 0x100 EXP SWAP1 DIV PUSH20 0xFFFFFFFFFFFFFFFFFFFFFFFFFFFFFFFFFFFFFFFF AND PUSH1 0x4 PUSH1 0x0 DUP7 PUSH20 0xFFFFFFFFFFFFFFFFFFFFFFFFFFFFFFFFFFFFFFFF AND PUSH20 0xFFFFFFFFFFFFFFFFFFFFFFFFFFFFFFFFFFFFFFFF AND DUP2 MSTORE PUSH1 0x20 ADD SWAP1 DUP2 MSTORE PUSH1 0x20 ADD PUSH1 0x0 KECCAK256 SLOAD PUSH1 0x40 MLOAD DUP4 PUSH4 0xFFFFFFFF AND PUSH1 0xE0 SHL DUP2 MSTORE PUSH1 0x4 ADD PUSH2 0x6EA SWAP3 SWAP2 SWAP1 PUSH2 0xCB3 JUMP JUMPDEST PUSH1 0x20 PUSH1 0x40 MLOAD DUP1 DUP4 SUB DUP2 PUSH1 0x0 DUP8 DUP1 EXTCODESIZE ISZERO DUP1 ISZERO PUSH2 0x704 JUMPI PUSH1 0x0 DUP1 REVERT JUMPDEST POP GAS CALL ISZERO DUP1 ISZERO PUSH2 0x718 JUMPI RETURNDATASIZE PUSH1 0x0 DUP1 RETURNDATACOPY RETURNDATASIZE PUSH1 0x0 REVERT JUMPDEST POP POP POP POP PUSH1 0x40 MLOAD RETURNDATASIZE PUSH1 0x1F NOT PUSH1 0x1F DUP3 ADD AND DUP3 ADD DUP1 PUSH1 0x40 MSTORE POP DUP2 ADD SWAP1 PUSH2 0x73C SWAP2 SWAP1 PUSH2 0xB4C JUMP JUMPDEST POP POP POP DUP1 DUP1 PUSH2 0x74A SWAP1 PUSH2 0xE7D JUMP JUMPDEST SWAP2 POP POP PUSH2 0x5F9 JUMP JUMPDEST POP PUSH1 0x0 PUSH1 0x1 PUSH1 0x14 PUSH2 0x100 EXP DUP2 SLOAD DUP2 PUSH1 0xFF MUL NOT AND SWAP1 DUP4 ISZERO ISZERO MUL OR SWAP1 SSTORE POP JUMP JUMPDEST PUSH1 0x1 PUSH1 0x0 SWAP1 SLOAD SWAP1 PUSH2 0x100 EXP SWAP1 DIV PUSH20 0xFFFFFFFFFFFFFFFFFFFFFFFFFFFFFFFFFFFFFFFF AND PUSH20 0xFFFFFFFFFFFFFFFFFFFFFFFFFFFFFFFFFFFFFFFF AND CALLER PUSH20 0xFFFFFFFFFFFFFFFFFFFFFFFFFFFFFFFFFFFFFFFF AND EQ PUSH2 0x800 JUMPI PUSH1 0x40 MLOAD PUSH32 0x8C379A000000000000000000000000000000000000000000000000000000000 DUP2 MSTORE PUSH1 0x4 ADD PUSH2 0x7F7 SWAP1 PUSH2 0xD19 JUMP JUMPDEST PUSH1 0x40 MLOAD DUP1 SWAP2 SUB SWAP1 REVERT JUMPDEST PUSH1 0x1 PUSH1 0x14 SWAP1 SLOAD SWAP1 PUSH2 0x100 EXP SWAP1 DIV PUSH1 0xFF AND PUSH2 0x84F JUMPI PUSH1 0x40 MLOAD PUSH32 0x8C379A000000000000000000000000000000000000000000000000000000000 DUP2 MSTORE PUSH1 0x4 ADD PUSH2 0x846 SWAP1 PUSH2 0xD39 JUMP JUMPDEST PUSH1 0x40 MLOAD DUP1 SWAP2 SUB SWAP1 REVERT JUMPDEST PUSH1 0x1 PUSH1 0x0 SWAP1 SLOAD SWAP1 PUSH2 0x100 EXP SWAP1 DIV PUSH20 0xFFFFFFFFFFFFFFFFFFFFFFFFFFFFFFFFFFFFFFFF AND PUSH20 0xFFFFFFFFFFFFFFFFFFFFFFFFFFFFFFFFFFFFFFFF AND PUSH2 0x8FC SELFBALANCE SWAP1 DUP2 ISZERO MUL SWAP1 PUSH1 0x40 MLOAD PUSH1 0x0 PUSH1 0x40 MLOAD DUP1 DUP4 SUB DUP2 DUP6 DUP9 DUP9 CALL SWAP4 POP POP POP POP ISZERO DUP1 ISZERO PUSH2 0x8B7 JUMPI RETURNDATASIZE PUSH1 0x0 DUP1 RETURNDATACOPY RETURNDATASIZE PUSH1 0x0 REVERT JUMPDEST POP PUSH1 0x0 JUMPDEST PUSH1 0x5 DUP1 SLOAD SWAP1 POP DUP2 LT ISZERO PUSH2 0xA14 JUMPI PUSH1 0x0 PUSH1 0x5 DUP3 DUP2 SLOAD DUP2 LT PUSH2 0x8DE JUMPI PUSH2 0x8DD PUSH2 0xF24 JUMP JUMPDEST JUMPDEST SWAP1 PUSH1 0x0 MSTORE PUSH1 0x20 PUSH1 0x0 KECCAK256 ADD PUSH1 0x0 SWAP1 SLOAD SWAP1 PUSH2 0x100 EXP SWAP1 DIV PUSH20 0xFFFFFFFFFFFFFFFFFFFFFFFFFFFFFFFFFFFFFFFF AND SWAP1 POP PUSH1 0x0 DUP2 SWAP1 POP DUP1 PUSH20 0xFFFFFFFFFFFFFFFFFFFFFFFFFFFFFFFFFFFFFFFF AND PUSH4 0xA9059CBB PUSH1 0x1 PUSH1 0x0 SWAP1 SLOAD SWAP1 PUSH2 0x100 EXP SWAP1 DIV PUSH20 0xFFFFFFFFFFFFFFFFFFFFFFFFFFFFFFFFFFFFFFFF AND PUSH1 0x4 PUSH1 0x0 DUP7 PUSH20 0xFFFFFFFFFFFFFFFFFFFFFFFFFFFFFFFFFFFFFFFF AND PUSH20 0xFFFFFFFFFFFFFFFFFFFFFFFFFFFFFFFFFFFFFFFF AND DUP2 MSTORE PUSH1 0x20 ADD SWAP1 DUP2 MSTORE PUSH1 0x20 ADD PUSH1 0x0 KECCAK256 SLOAD PUSH1 0x40 MLOAD DUP4 PUSH4 0xFFFFFFFF AND PUSH1 0xE0 SHL DUP2 MSTORE PUSH1 0x4 ADD PUSH2 0x9AC SWAP3 SWAP2 SWAP1 PUSH2 0xCB3 JUMP JUMPDEST PUSH1 0x20 PUSH1 0x40 MLOAD DUP1 DUP4 SUB DUP2 PUSH1 0x0 DUP8 DUP1 EXTCODESIZE ISZERO DUP1 ISZERO PUSH2 0x9C6 JUMPI PUSH1 0x0 DUP1 REVERT JUMPDEST POP GAS CALL ISZERO DUP1 ISZERO PUSH2 0x9DA JUMPI RETURNDATASIZE PUSH1 0x0 DUP1 RETURNDATACOPY RETURNDATASIZE PUSH1 0x0 REVERT JUMPDEST POP POP POP POP PUSH1 0x40 MLOAD RETURNDATASIZE PUSH1 0x1F NOT PUSH1 0x1F DUP3 ADD AND DUP3 ADD DUP1 PUSH1 0x40 MSTORE POP DUP2 ADD SWAP1 PUSH2 0x9FE SWAP2 SWAP1 PUSH2 0xB4C JUMP JUMPDEST POP POP POP DUP1 DUP1 PUSH2 0xA0C SWAP1 PUSH2 0xE7D JUMP JUMPDEST SWAP2 POP POP PUSH2 0x8BB JUMP JUMPDEST POP PUSH1 0x0 PUSH1 0x1 PUSH1 0x14 PUSH2 0x100 EXP DUP2 SLOAD DUP2 PUSH1 0xFF MUL NOT AND SWAP1 DUP4 ISZERO ISZERO MUL OR SWAP1 SSTORE POP JUMP JUMPDEST PUSH1 0x0 PUSH1 0x1 PUSH1 0x14 SWAP1 SLOAD SWAP1 PUSH2 0x100 EXP SWAP1 DIV PUSH1 0xFF AND SWAP1 POP SWAP1 JUMP JUMPDEST PUSH1 0x4 PUSH1 0x20 MSTORE DUP1 PUSH1 0x0 MSTORE PUSH1 0x40 PUSH1 0x0 KECCAK256 PUSH1 0x0 SWAP2 POP SWAP1 POP SLOAD DUP2 JUMP JUMPDEST PUSH1 0x5 DUP2 DUP2 SLOAD DUP2 LT PUSH2 0xA71 JUMPI PUSH1 0x0 DUP1 REVERT JUMPDEST SWAP1 PUSH1 0x0 MSTORE PUSH1 0x20 PUSH1 0x0 KECCAK256 ADD PUSH1 0x0 SWAP2 POP SLOAD SWAP1 PUSH2 0x100 EXP SWAP1 DIV PUSH20 0xFFFFFFFFFFFFFFFFFFFFFFFFFFFFFFFFFFFFFFFF AND DUP2 JUMP JUMPDEST PUSH1 0x0 DUP2 CALLDATALOAD SWAP1 POP PUSH2 0xAAF DUP2 PUSH2 0x1033 JUMP JUMPDEST SWAP3 SWAP2 POP POP JUMP JUMPDEST PUSH1 0x0 DUP2 MLOAD SWAP1 POP PUSH2 0xAC4 DUP2 PUSH2 0x104A JUMP JUMPDEST SWAP3 SWAP2 POP POP JUMP JUMPDEST PUSH1 0x0 DUP2 CALLDATALOAD SWAP1 POP PUSH2 0xAD9 DUP2 PUSH2 0x1061 JUMP JUMPDEST SWAP3 SWAP2 POP POP JUMP JUMPDEST PUSH1 0x0 PUSH1 0x20 DUP3 DUP5 SUB SLT ISZERO PUSH2 0xAF5 JUMPI PUSH2 0xAF4 PUSH2 0xF53 JUMP JUMPDEST JUMPDEST PUSH1 0x0 PUSH2 0xB03 DUP5 DUP3 DUP6 ADD PUSH2 0xAA0 JUMP JUMPDEST SWAP2 POP POP SWAP3 SWAP2 POP POP JUMP JUMPDEST PUSH1 0x0 DUP1 PUSH1 0x40 DUP4 DUP6 SUB SLT ISZERO PUSH2 0xB23 JUMPI PUSH2 0xB22 PUSH2 0xF53 JUMP JUMPDEST JUMPDEST PUSH1 0x0 PUSH2 0xB31 DUP6 DUP3 DUP7 ADD PUSH2 0xAA0 JUMP JUMPDEST SWAP3 POP POP PUSH1 0x20 PUSH2 0xB42 DUP6 DUP3 DUP7 ADD PUSH2 0xAA0 JUMP JUMPDEST SWAP2 POP POP SWAP3 POP SWAP3 SWAP1 POP JUMP JUMPDEST PUSH1 0x0 PUSH1 0x20 DUP3 DUP5 SUB SLT ISZERO PUSH2 0xB62 JUMPI PUSH2 0xB61 PUSH2 0xF53 JUMP JUMPDEST JUMPDEST PUSH1 0x0 PUSH2 0xB70 DUP5 DUP3 DUP6 ADD PUSH2 0xAB5 JUMP JUMPDEST SWAP2 POP POP SWAP3 SWAP2 POP POP JUMP JUMPDEST PUSH1 0x0 PUSH1 0x20 DUP3 DUP5 SUB SLT ISZERO PUSH2 0xB8F JUMPI PUSH2 0xB8E PUSH2 0xF53 JUMP JUMPDEST JUMPDEST PUSH1 0x0 PUSH2 0xB9D DUP5 DUP3 DUP6 ADD PUSH2 0xACA JUMP JUMPDEST SWAP2 POP POP SWAP3 SWAP2 POP POP JUMP JUMPDEST PUSH2 0xBAF DUP2 PUSH2 0xDD0 JUMP JUMPDEST DUP3 MSTORE POP POP JUMP JUMPDEST PUSH2 0xBBE DUP2 PUSH2 0xDE2 JUMP JUMPDEST DUP3 MSTORE POP POP JUMP JUMPDEST PUSH1 0x0 PUSH2 0xBCF DUP3 PUSH2 0xDB4 JUMP JUMPDEST PUSH2 0xBD9 DUP2 DUP6 PUSH2 0xDBF JUMP JUMPDEST SWAP4 POP PUSH2 0xBE9 DUP2 DUP6 PUSH1 0x20 DUP7 ADD PUSH2 0xE18 JUMP JUMPDEST PUSH2 0xBF2 DUP2 PUSH2 0xF58 JUMP JUMPDEST DUP5 ADD SWAP2 POP POP SWAP3 SWAP2 POP POP JUMP JUMPDEST PUSH1 0x0 PUSH2 0xC0A PUSH1 0x1E DUP4 PUSH2 0xDBF JUMP JUMPDEST SWAP2 POP PUSH2 0xC15 DUP3 PUSH2 0xF69 JUMP JUMPDEST PUSH1 0x20 DUP3 ADD SWAP1 POP SWAP2 SWAP1 POP JUMP JUMPDEST PUSH1 0x0 PUSH2 0xC2D PUSH1 0x18 DUP4 PUSH2 0xDBF JUMP JUMPDEST SWAP2 POP PUSH2 0xC38 DUP3 PUSH2 0xF92 JUMP JUMPDEST PUSH1 0x20 DUP3 ADD SWAP1 POP SWAP2 SWAP1 POP JUMP JUMPDEST PUSH1 0x0 PUSH2 0xC50 PUSH1 0x17 DUP4 PUSH2 0xDBF JUMP JUMPDEST SWAP2 POP PUSH2 0xC5B DUP3 PUSH2 0xFBB JUMP JUMPDEST PUSH1 0x20 DUP3 ADD SWAP1 POP SWAP2 SWAP1 POP JUMP JUMPDEST PUSH1 0x0 PUSH2 0xC73 PUSH1 0x27 DUP4 PUSH2 0xDBF JUMP JUMPDEST SWAP2 POP PUSH2 0xC7E DUP3 PUSH2 0xFE4 JUMP JUMPDEST PUSH1 0x40 DUP3 ADD SWAP1 POP SWAP2 SWAP1 POP JUMP JUMPDEST PUSH2 0xC92 DUP2 PUSH2 0xE0E JUMP JUMPDEST DUP3 MSTORE POP POP JUMP JUMPDEST PUSH1 0x0 PUSH1 0x20 DUP3 ADD SWAP1 POP PUSH2 0xCAD PUSH1 0x0 DUP4 ADD DUP5 PUSH2 0xBA6 JUMP JUMPDEST SWAP3 SWAP2 POP POP JUMP JUMPDEST PUSH1 0x0 PUSH1 0x40 DUP3 ADD SWAP1 POP PUSH2 0xCC8 PUSH1 0x0 DUP4 ADD DUP6 PUSH2 0xBA6 JUMP JUMPDEST PUSH2 0xCD5 PUSH1 0x20 DUP4 ADD DUP5 PUSH2 0xC89 JUMP JUMPDEST SWAP4 SWAP3 POP POP POP JUMP JUMPDEST PUSH1 0x0 PUSH1 0x20 DUP3 ADD SWAP1 POP PUSH2 0xCF1 PUSH1 0x0 DUP4 ADD DUP5 PUSH2 0xBB5 JUMP JUMPDEST SWAP3 SWAP2 POP POP JUMP JUMPDEST PUSH1 0x0 PUSH1 0x20 DUP3 ADD SWAP1 POP DUP2 DUP2 SUB PUSH1 0x0 DUP4 ADD MSTORE PUSH2 0xD11 DUP2 DUP5 PUSH2 0xBC4 JUMP JUMPDEST SWAP1 POP SWAP3 SWAP2 POP POP JUMP JUMPDEST PUSH1 0x0 PUSH1 0x20 DUP3 ADD SWAP1 POP DUP2 DUP2 SUB PUSH1 0x0 DUP4 ADD MSTORE PUSH2 0xD32 DUP2 PUSH2 0xBFD JUMP JUMPDEST SWAP1 POP SWAP2 SWAP1 POP JUMP JUMPDEST PUSH1 0x0 PUSH1 0x20 DUP3 ADD SWAP1 POP DUP2 DUP2 SUB PUSH1 0x0 DUP4 ADD MSTORE PUSH2 0xD52 DUP2 PUSH2 0xC20 JUMP JUMPDEST SWAP1 POP SWAP2 SWAP1 POP JUMP JUMPDEST PUSH1 0x0 PUSH1 0x20 DUP3 ADD SWAP1 POP DUP2 DUP2 SUB PUSH1 0x0 DUP4 ADD MSTORE PUSH2 0xD72 DUP2 PUSH2 0xC43 JUMP JUMPDEST SWAP1 POP SWAP2 SWAP1 POP JUMP JUMPDEST PUSH1 0x0 PUSH1 0x20 DUP3 ADD SWAP1 POP DUP2 DUP2 SUB PUSH1 0x0 DUP4 ADD MSTORE PUSH2 0xD92 DUP2 PUSH2 0xC66 JUMP JUMPDEST SWAP1 POP SWAP2 SWAP1 POP JUMP JUMPDEST PUSH1 0x0 PUSH1 0x20 DUP3 ADD SWAP1 POP PUSH2 0xDAE PUSH1 0x0 DUP4 ADD DUP5 PUSH2 0xC89 JUMP JUMPDEST SWAP3 SWAP2 POP POP JUMP JUMPDEST PUSH1 0x0 DUP2 MLOAD SWAP1 POP SWAP2 SWAP1 POP JUMP JUMPDEST PUSH1 0x0 DUP3 DUP3 MSTORE PUSH1 0x20 DUP3 ADD SWAP1 POP SWAP3 SWAP2 POP POP JUMP JUMPDEST PUSH1 0x0 PUSH2 0xDDB DUP3 PUSH2 0xDEE JUMP JUMPDEST SWAP1 POP SWAP2 SWAP1 POP JUMP JUMPDEST PUSH1 0x0 DUP2 ISZERO ISZERO SWAP1 POP SWAP2 SWAP1 POP JUMP JUMPDEST PUSH1 0x0 PUSH20 0xFFFFFFFFFFFFFFFFFFFFFFFFFFFFFFFFFFFFFFFF DUP3 AND SWAP1 POP SWAP2 SWAP1 POP JUMP JUMPDEST PUSH1 0x0 DUP2 SWAP1 POP SWAP2 SWAP1 POP JUMP JUMPDEST PUSH1 0x0 JUMPDEST DUP4 DUP2 LT ISZERO PUSH2 0xE36 JUMPI DUP1 DUP3 ADD MLOAD DUP2 DUP5 ADD MSTORE PUSH1 0x20 DUP2 ADD SWAP1 POP PUSH2 0xE1B JUMP JUMPDEST DUP4 DUP2 GT ISZERO PUSH2 0xE45 JUMPI PUSH1 0x0 DUP5 DUP5 ADD MSTORE JUMPDEST POP POP POP POP JUMP JUMPDEST PUSH1 0x0 PUSH1 0x2 DUP3 DIV SWAP1 POP PUSH1 0x1 DUP3 AND DUP1 PUSH2 0xE63 JUMPI PUSH1 0x7F DUP3 AND SWAP2 POP JUMPDEST PUSH1 0x20 DUP3 LT DUP2 EQ ISZERO PUSH2 0xE77 JUMPI PUSH2 0xE76 PUSH2 0xEF5 JUMP JUMPDEST JUMPDEST POP SWAP2 SWAP1 POP JUMP JUMPDEST PUSH1 0x0 PUSH2 0xE88 DUP3 PUSH2 0xE0E JUMP JUMPDEST SWAP2 POP PUSH32 0xFFFFFFFFFFFFFFFFFFFFFFFFFFFFFFFFFFFFFFFFFFFFFFFFFFFFFFFFFFFFFFFF DUP3 EQ ISZERO PUSH2 0xEBB JUMPI PUSH2 0xEBA PUSH2 0xEC6 JUMP JUMPDEST JUMPDEST PUSH1 0x1 DUP3 ADD SWAP1 POP SWAP2 SWAP1 POP JUMP JUMPDEST PUSH32 0x4E487B7100000000000000000000000000000000000000000000000000000000 PUSH1 0x0 MSTORE PUSH1 0x11 PUSH1 0x4 MSTORE PUSH1 0x24 PUSH1 0x0 REVERT JUMPDEST PUSH32 0x4E487B7100000000000000000000000000000000000000000000000000000000 PUSH1 0x0 MSTORE PUSH1 0x22 PUSH1 0x4 MSTORE PUSH1 0x24 PUSH1 0x0 REVERT JUMPDEST PUSH32 0x4E487B7100000000000000000000000000000000000000000000000000000000 PUSH1 0x0 MSTORE PUSH1 0x32 PUSH1 0x4 MSTORE PUSH1 0x24 PUSH1 0x0 REVERT JUMPDEST PUSH1 0x0 DUP1 REVERT JUMPDEST PUSH1 0x0 PUSH1 0x1F NOT PUSH1 0x1F DUP4 ADD AND SWAP1 POP SWAP2 SWAP1 POP JUMP JUMPDEST PUSH32 0x4F6E6C79204F776E65722063616E20756E7061636B20546F6B656E697A2E0000 PUSH1 0x0 DUP3 ADD MSTORE POP JUMP JUMPDEST PUSH32 0x416C726561647920756E7061636B656420546F6B656E697A0000000000000000 PUSH1 0x0 DUP3 ADD MSTORE POP JUMP JUMPDEST PUSH32 0x4F6E6C79206F776E65722063616E207472616E73666572000000000000000000 PUSH1 0x0 DUP3 ADD MSTORE POP JUMP JUMPDEST PUSH32 0x4D7573742062652073656E742076696120546F6B656E697A2061646D696E2063 PUSH1 0x0 DUP3 ADD MSTORE PUSH32 0x6F6E747261637400000000000000000000000000000000000000000000000000 PUSH1 0x20 DUP3 ADD MSTORE POP JUMP JUMPDEST PUSH2 0x103C DUP2 PUSH2 0xDD0 JUMP JUMPDEST DUP2 EQ PUSH2 0x1047 JUMPI PUSH1 0x0 DUP1 REVERT JUMPDEST POP JUMP JUMPDEST PUSH2 0x1053 DUP2 PUSH2 0xDE2 JUMP JUMPDEST DUP2 EQ PUSH2 0x105E JUMPI PUSH1 0x0 DUP1 REVERT JUMPDEST POP JUMP JUMPDEST PUSH2 0x106A DUP2 PUSH2 0xE0E JUMP JUMPDEST DUP2 EQ PUSH2 0x1075 JUMPI PUSH1 0x0 DUP1 REVERT JUMPDEST POP JUMP INVALID LOG2 PUSH5 0x6970667358 0x22 SLT KECCAK256 SWAP11 0xCF PUSH4 0xD9BAD88B 0x49 PUSH13 0x43CDA66F0975C1685270E539C8 STATICCALL 0xF6 PUSH14 0x452C5563B0675764736F6C634300 ADDMOD SMOD STOP CALLER "
				},
				"gasEstimates": {
					"creation": {
						"codeDepositCost": "854000",
						"executionCost": "infinite",
						"totalCost": "infinite"
					},
					"external": {
						"_safeTransfer(address,address)": "infinite",
						"_safeUnPack()": "infinite",
						"isPacked()": "2595",
						"name()": "infinite",
						"owner()": "2603",
						"packed()": "2521",
						"tokenBalance(address)": "2902",
						"tokenId()": "2452",
						"tokenURI()": "infinite",
						"tokensAddresses(uint256)": "5066",
						"unPack()": "infinite"
					}
				},
				"methodIdentifiers": {
					"_safeTransfer(address,address)": "29af9dce",
					"_safeUnPack()": "8f32a2b0",
					"isPacked()": "e2c42e66",
					"name()": "06fdde03",
					"owner()": "8da5cb5b",
					"packed()": "8f23d5f6",
					"tokenBalance(address)": "eedc966a",
					"tokenId()": "17d70f7c",
					"tokenURI()": "3c130d90",
					"tokensAddresses(uint256)": "f7aca939",
					"unPack()": "90d524a2"
				}
			},
			"storageLayout": {
				"storage": [
					{
						"astId": 147,
						"contract": "tron/tokeniz.sol:Tokeniz",
						"label": "TokenizAdmin",
						"offset": 0,
						"slot": "0",
						"type": "t_address"
					},
					{
						"astId": 149,
						"contract": "tron/tokeniz.sol:Tokeniz",
						"label": "owner",
						"offset": 0,
						"slot": "1",
						"type": "t_address"
					},
					{
						"astId": 151,
						"contract": "tron/tokeniz.sol:Tokeniz",
						"label": "packed",
						"offset": 20,
						"slot": "1",
						"type": "t_bool"
					},
					{
						"astId": 153,
						"contract": "tron/tokeniz.sol:Tokeniz",
						"label": "tokenURI",
						"offset": 0,
						"slot": "2",
						"type": "t_string_storage"
					},
					{
						"astId": 155,
						"contract": "tron/tokeniz.sol:Tokeniz",
						"label": "name",
						"offset": 0,
						"slot": "3",
						"type": "t_string_storage"
					},
					{
						"astId": 159,
						"contract": "tron/tokeniz.sol:Tokeniz",
						"label": "tokenBalance",
						"offset": 0,
						"slot": "4",
						"type": "t_mapping(t_address,t_uint256)"
					},
					{
						"astId": 162,
						"contract": "tron/tokeniz.sol:Tokeniz",
						"label": "tokensAddresses",
						"offset": 0,
						"slot": "5",
						"type": "t_array(t_address)dyn_storage"
					},
					{
						"astId": 164,
						"contract": "tron/tokeniz.sol:Tokeniz",
						"label": "tokenId",
						"offset": 0,
						"slot": "6",
						"type": "t_uint256"
					}
				],
				"types": {
					"t_address": {
						"encoding": "inplace",
						"label": "address",
						"numberOfBytes": "20"
					},
					"t_array(t_address)dyn_storage": {
						"base": "t_address",
						"encoding": "dynamic_array",
						"label": "address[]",
						"numberOfBytes": "32"
					},
					"t_bool": {
						"encoding": "inplace",
						"label": "bool",
						"numberOfBytes": "1"
					},
					"t_mapping(t_address,t_uint256)": {
						"encoding": "mapping",
						"key": "t_address",
						"label": "mapping(address => uint256)",
						"numberOfBytes": "32",
						"value": "t_uint256"
					},
					"t_string_storage": {
						"encoding": "bytes",
						"label": "string",
						"numberOfBytes": "32"
					},
					"t_uint256": {
						"encoding": "inplace",
						"label": "uint256",
						"numberOfBytes": "32"
					}
				}
			},
			"userdoc": {
				"kind": "user",
				"methods": {},
				"version": 1
			}
		}
	}
}